{
	"contracts/1_Crowdfunding.sol": {
		"CampaignFactory": {
			"abi": [
				{
					"inputs": [],
					"stateMutability": "nonpayable",
					"type": "constructor"
				},
				{
					"inputs": [
						{
							"internalType": "string",
							"name": "_name",
							"type": "string"
						},
						{
							"internalType": "string",
							"name": "_description",
							"type": "string"
						},
						{
							"internalType": "uint256",
							"name": "_duration",
							"type": "uint256"
						},
						{
							"internalType": "uint256",
							"name": "_goalBalance",
							"type": "uint256"
						}
					],
					"name": "createCampaign",
					"outputs": [],
					"stateMutability": "nonpayable",
					"type": "function"
				},
				{
					"inputs": [],
					"name": "getAllCampaigns",
					"outputs": [
						{
							"components": [
								{
									"internalType": "uint256",
									"name": "id",
									"type": "uint256"
								},
								{
									"internalType": "string",
									"name": "name",
									"type": "string"
								},
								{
									"internalType": "string",
									"name": "description",
									"type": "string"
								},
								{
									"internalType": "address payable",
									"name": "owner",
									"type": "address"
								},
								{
									"internalType": "uint256",
									"name": "currentBalance",
									"type": "uint256"
								},
								{
									"internalType": "uint256",
									"name": "goalBalance",
									"type": "uint256"
								},
								{
									"internalType": "uint256",
									"name": "startTime",
									"type": "uint256"
								},
								{
									"internalType": "uint256",
									"name": "endTime",
									"type": "uint256"
								}
							],
							"internalType": "struct CampaignFactory.Campaign[]",
							"name": "",
							"type": "tuple[]"
						}
					],
					"stateMutability": "view",
					"type": "function"
				}
			],
			"devdoc": {
				"kind": "dev",
				"methods": {},
				"version": 1
			},
			"evm": {
				"assembly": "    /* \"contracts/1_Crowdfunding.sol\":477:1656  contract CampaignFactory {... */\n  mstore(0x40, 0x80)\n    /* \"contracts/1_Crowdfunding.sol\":940:990  constructor() {... */\n  callvalue\n  dup1\n  iszero\n  tag_1\n  jumpi\n  0x00\n  dup1\n  revert\ntag_1:\n  pop\n    /* \"contracts/1_Crowdfunding.sol\":973:983  msg.sender */\n  caller\n    /* \"contracts/1_Crowdfunding.sol\":964:970  _owner */\n  0x00\n  dup1\n    /* \"contracts/1_Crowdfunding.sol\":964:983  _owner = msg.sender */\n  0x0100\n  exp\n  dup2\n  sload\n  dup2\n  0xffffffffffffffffffffffffffffffffffffffff\n  mul\n  not\n  and\n  swap1\n  dup4\n  0xffffffffffffffffffffffffffffffffffffffff\n  and\n  mul\n  or\n  swap1\n  sstore\n  pop\n    /* \"contracts/1_Crowdfunding.sol\":477:1656  contract CampaignFactory {... */\n  dataSize(sub_0)\n  dup1\n  dataOffset(sub_0)\n  0x00\n  codecopy\n  0x00\n  return\nstop\n\nsub_0: assembly {\n        /* \"contracts/1_Crowdfunding.sol\":477:1656  contract CampaignFactory {... */\n      mstore(0x40, 0x80)\n      callvalue\n      dup1\n      iszero\n      tag_1\n      jumpi\n      0x00\n      dup1\n      revert\n    tag_1:\n      pop\n      jumpi(tag_2, lt(calldatasize, 0x04))\n      shr(0xe0, calldataload(0x00))\n      dup1\n      0x86cdf604\n      eq\n      tag_3\n      jumpi\n      dup1\n      0xa318f269\n      eq\n      tag_4\n      jumpi\n    tag_2:\n      0x00\n      dup1\n      revert\n        /* \"contracts/1_Crowdfunding.sol\":1552:1654  function getAllCampaigns() external view returns(Campaign[] memory) {... */\n    tag_3:\n      tag_5\n      tag_6\n      jump\t// in\n    tag_5:\n      mload(0x40)\n      tag_7\n      swap2\n      swap1\n      tag_8\n      jump\t// in\n    tag_7:\n      mload(0x40)\n      dup1\n      swap2\n      sub\n      swap1\n      return\n        /* \"contracts/1_Crowdfunding.sol\":996:1546  function createCampaign(string memory _name, string memory _description, uint _duration, uint _goalBalance) external {... */\n    tag_4:\n      tag_9\n      0x04\n      dup1\n      calldatasize\n      sub\n      dup2\n      add\n      swap1\n      tag_10\n      swap2\n      swap1\n      tag_11\n      jump\t// in\n    tag_10:\n      tag_12\n      jump\t// in\n    tag_9:\n      stop\n        /* \"contracts/1_Crowdfunding.sol\":1552:1654  function getAllCampaigns() external view returns(Campaign[] memory) {... */\n    tag_6:\n        /* \"contracts/1_Crowdfunding.sol\":1601:1618  Campaign[] memory */\n      0x60\n        /* \"contracts/1_Crowdfunding.sol\":1637:1647  _campaigns */\n      0x01\n        /* \"contracts/1_Crowdfunding.sol\":1630:1647  return _campaigns */\n      dup1\n      sload\n      dup1\n      0x20\n      mul\n      0x20\n      add\n      mload(0x40)\n      swap1\n      dup2\n      add\n      0x40\n      mstore\n      dup1\n      swap3\n      swap2\n      swap1\n      dup2\n      dup2\n      mstore\n      0x20\n      add\n      0x00\n      swap1\n    tag_14:\n      dup3\n      dup3\n      lt\n      iszero\n      tag_15\n      jumpi\n      dup4\n      dup3\n      swap1\n      0x00\n      mstore\n      keccak256(0x00, 0x20)\n      swap1\n      0x08\n      mul\n      add\n      mload(0x40)\n      dup1\n      0x0100\n      add\n      0x40\n      mstore\n      swap1\n      dup2\n      0x00\n      dup3\n      add\n      sload\n      dup2\n      mstore\n      0x20\n      add\n      0x01\n      dup3\n      add\n      dup1\n      sload\n      tag_17\n      swap1\n      tag_18\n      jump\t// in\n    tag_17:\n      dup1\n      0x1f\n      add\n      0x20\n      dup1\n      swap2\n      div\n      mul\n      0x20\n      add\n      mload(0x40)\n      swap1\n      dup2\n      add\n      0x40\n      mstore\n      dup1\n      swap3\n      swap2\n      swap1\n      dup2\n      dup2\n      mstore\n      0x20\n      add\n      dup3\n      dup1\n      sload\n      tag_19\n      swap1\n      tag_18\n      jump\t// in\n    tag_19:\n      dup1\n      iszero\n      tag_20\n      jumpi\n      dup1\n      0x1f\n      lt\n      tag_21\n      jumpi\n      0x0100\n      dup1\n      dup4\n      sload\n      div\n      mul\n      dup4\n      mstore\n      swap2\n      0x20\n      add\n      swap2\n      jump(tag_20)\n    tag_21:\n      dup3\n      add\n      swap2\n      swap1\n      0x00\n      mstore\n      keccak256(0x00, 0x20)\n      swap1\n    tag_22:\n      dup2\n      sload\n      dup2\n      mstore\n      swap1\n      0x01\n      add\n      swap1\n      0x20\n      add\n      dup1\n      dup4\n      gt\n      tag_22\n      jumpi\n      dup3\n      swap1\n      sub\n      0x1f\n      and\n      dup3\n      add\n      swap2\n    tag_20:\n      pop\n      pop\n      pop\n      pop\n      pop\n      dup2\n      mstore\n      0x20\n      add\n      0x02\n      dup3\n      add\n      dup1\n      sload\n      tag_23\n      swap1\n      tag_18\n      jump\t// in\n    tag_23:\n      dup1\n      0x1f\n      add\n      0x20\n      dup1\n      swap2\n      div\n      mul\n      0x20\n      add\n      mload(0x40)\n      swap1\n      dup2\n      add\n      0x40\n      mstore\n      dup1\n      swap3\n      swap2\n      swap1\n      dup2\n      dup2\n      mstore\n      0x20\n      add\n      dup3\n      dup1\n      sload\n      tag_24\n      swap1\n      tag_18\n      jump\t// in\n    tag_24:\n      dup1\n      iszero\n      tag_25\n      jumpi\n      dup1\n      0x1f\n      lt\n      tag_26\n      jumpi\n      0x0100\n      dup1\n      dup4\n      sload\n      div\n      mul\n      dup4\n      mstore\n      swap2\n      0x20\n      add\n      swap2\n      jump(tag_25)\n    tag_26:\n      dup3\n      add\n      swap2\n      swap1\n      0x00\n      mstore\n      keccak256(0x00, 0x20)\n      swap1\n    tag_27:\n      dup2\n      sload\n      dup2\n      mstore\n      swap1\n      0x01\n      add\n      swap1\n      0x20\n      add\n      dup1\n      dup4\n      gt\n      tag_27\n      jumpi\n      dup3\n      swap1\n      sub\n      0x1f\n      and\n      dup3\n      add\n      swap2\n    tag_25:\n      pop\n      pop\n      pop\n      pop\n      pop\n      dup2\n      mstore\n      0x20\n      add\n      0x03\n      dup3\n      add\n      0x00\n      swap1\n      sload\n      swap1\n      0x0100\n      exp\n      swap1\n      div\n      0xffffffffffffffffffffffffffffffffffffffff\n      and\n      0xffffffffffffffffffffffffffffffffffffffff\n      and\n      0xffffffffffffffffffffffffffffffffffffffff\n      and\n      dup2\n      mstore\n      0x20\n      add\n      0x04\n      dup3\n      add\n      sload\n      dup2\n      mstore\n      0x20\n      add\n      0x05\n      dup3\n      add\n      sload\n      dup2\n      mstore\n      0x20\n      add\n      0x06\n      dup3\n      add\n      sload\n      dup2\n      mstore\n      0x20\n      add\n      0x07\n      dup3\n      add\n      sload\n      dup2\n      mstore\n      pop\n      pop\n      dup2\n      mstore\n      0x20\n      add\n      swap1\n      0x01\n      add\n      swap1\n      jump(tag_14)\n    tag_15:\n      pop\n      pop\n      pop\n      pop\n      swap1\n      pop\n        /* \"contracts/1_Crowdfunding.sol\":1552:1654  function getAllCampaigns() external view returns(Campaign[] memory) {... */\n      swap1\n      jump\t// out\n        /* \"contracts/1_Crowdfunding.sol\":996:1546  function createCampaign(string memory _name, string memory _description, uint _duration, uint _goalBalance) external {... */\n    tag_12:\n        /* \"contracts/1_Crowdfunding.sol\":1123:1147  Campaign memory campaign */\n      0x00\n        /* \"contracts/1_Crowdfunding.sol\":1150:1503  Campaign({... */\n      mload(0x40)\n      dup1\n      0x0100\n      add\n      0x40\n      mstore\n      dup1\n        /* \"contracts/1_Crowdfunding.sol\":1181:1191  _campaigns */\n      0x01\n        /* \"contracts/1_Crowdfunding.sol\":1181:1198  _campaigns.length */\n      dup1\n      sload\n      swap1\n      pop\n        /* \"contracts/1_Crowdfunding.sol\":1150:1503  Campaign({... */\n      dup2\n      mstore\n      0x20\n      add\n        /* \"contracts/1_Crowdfunding.sol\":1223:1228  _name */\n      dup7\n        /* \"contracts/1_Crowdfunding.sol\":1150:1503  Campaign({... */\n      dup2\n      mstore\n      0x20\n      add\n        /* \"contracts/1_Crowdfunding.sol\":1260:1272  _description */\n      dup6\n        /* \"contracts/1_Crowdfunding.sol\":1150:1503  Campaign({... */\n      dup2\n      mstore\n      0x20\n      add\n        /* \"contracts/1_Crowdfunding.sol\":1305:1315  msg.sender */\n      caller\n        /* \"contracts/1_Crowdfunding.sol\":1150:1503  Campaign({... */\n      0xffffffffffffffffffffffffffffffffffffffff\n      and\n      dup2\n      mstore\n      0x20\n      add\n        /* \"contracts/1_Crowdfunding.sol\":1350:1351  0 */\n      0x00\n        /* \"contracts/1_Crowdfunding.sol\":1150:1503  Campaign({... */\n      dup2\n      mstore\n      0x20\n      add\n        /* \"contracts/1_Crowdfunding.sol\":1382:1394  _goalBalance */\n      dup4\n        /* \"contracts/1_Crowdfunding.sol\":1150:1503  Campaign({... */\n      dup2\n      mstore\n      0x20\n      add\n        /* \"contracts/1_Crowdfunding.sol\":1423:1438  block.timestamp */\n      timestamp\n        /* \"contracts/1_Crowdfunding.sol\":1150:1503  Campaign({... */\n      dup2\n      mstore\n      0x20\n      add\n        /* \"contracts/1_Crowdfunding.sol\":1483:1492  _duration */\n      dup5\n        /* \"contracts/1_Crowdfunding.sol\":1465:1480  block.timestamp */\n      timestamp\n        /* \"contracts/1_Crowdfunding.sol\":1465:1492  block.timestamp + _duration */\n      tag_29\n      swap2\n      swap1\n      tag_30\n      jump\t// in\n    tag_29:\n        /* \"contracts/1_Crowdfunding.sol\":1150:1503  Campaign({... */\n      dup2\n      mstore\n      pop\n        /* \"contracts/1_Crowdfunding.sol\":1123:1503  Campaign memory campaign = Campaign({... */\n      swap1\n      pop\n        /* \"contracts/1_Crowdfunding.sol\":1514:1524  _campaigns */\n      0x01\n        /* \"contracts/1_Crowdfunding.sol\":1530:1538  campaign */\n      dup2\n        /* \"contracts/1_Crowdfunding.sol\":1514:1539  _campaigns.push(campaign) */\n      swap1\n      dup1\n      0x01\n      dup2\n      sload\n      add\n      dup1\n      dup3\n      sstore\n      dup1\n      swap2\n      pop\n      pop\n      0x01\n      swap1\n      sub\n      swap1\n      0x00\n      mstore\n      keccak256(0x00, 0x20)\n      swap1\n      0x08\n      mul\n      add\n      0x00\n      swap1\n      swap2\n      swap1\n      swap2\n      swap1\n      swap2\n      pop\n      0x00\n      dup3\n      add\n      mload\n      dup2\n      0x00\n      add\n      sstore\n      0x20\n      dup3\n      add\n      mload\n      dup2\n      0x01\n      add\n      swap1\n      dup2\n      tag_32\n      swap2\n      swap1\n      tag_33\n      jump\t// in\n    tag_32:\n      pop\n      0x40\n      dup3\n      add\n      mload\n      dup2\n      0x02\n      add\n      swap1\n      dup2\n      tag_34\n      swap2\n      swap1\n      tag_33\n      jump\t// in\n    tag_34:\n      pop\n      0x60\n      dup3\n      add\n      mload\n      dup2\n      0x03\n      add\n      exp(0x0100, 0x00)\n      dup2\n      sload\n      dup2\n      0xffffffffffffffffffffffffffffffffffffffff\n      mul\n      not\n      and\n      swap1\n      dup4\n      0xffffffffffffffffffffffffffffffffffffffff\n      and\n      mul\n      or\n      swap1\n      sstore\n      pop\n      0x80\n      dup3\n      add\n      mload\n      dup2\n      0x04\n      add\n      sstore\n      0xa0\n      dup3\n      add\n      mload\n      dup2\n      0x05\n      add\n      sstore\n      0xc0\n      dup3\n      add\n      mload\n      dup2\n      0x06\n      add\n      sstore\n      0xe0\n      dup3\n      add\n      mload\n      dup2\n      0x07\n      add\n      sstore\n      pop\n      pop\n        /* \"contracts/1_Crowdfunding.sol\":1113:1546  {... */\n      pop\n        /* \"contracts/1_Crowdfunding.sol\":996:1546  function createCampaign(string memory _name, string memory _description, uint _duration, uint _goalBalance) external {... */\n      pop\n      pop\n      pop\n      pop\n      jump\t// out\n        /* \"#utility.yul\":7:145   */\n    tag_35:\n        /* \"#utility.yul\":98:104   */\n      0x00\n        /* \"#utility.yul\":132:137   */\n      dup2\n        /* \"#utility.yul\":126:138   */\n      mload\n        /* \"#utility.yul\":116:138   */\n      swap1\n      pop\n        /* \"#utility.yul\":7:145   */\n      swap2\n      swap1\n      pop\n      jump\t// out\n        /* \"#utility.yul\":151:359   */\n    tag_36:\n        /* \"#utility.yul\":274:285   */\n      0x00\n        /* \"#utility.yul\":308:314   */\n      dup3\n        /* \"#utility.yul\":303:306   */\n      dup3\n        /* \"#utility.yul\":296:315   */\n      mstore\n        /* \"#utility.yul\":348:352   */\n      0x20\n        /* \"#utility.yul\":343:346   */\n      dup3\n        /* \"#utility.yul\":339:353   */\n      add\n        /* \"#utility.yul\":324:353   */\n      swap1\n      pop\n        /* \"#utility.yul\":151:359   */\n      swap3\n      swap2\n      pop\n      pop\n      jump\t// out\n        /* \"#utility.yul\":365:521   */\n    tag_37:\n        /* \"#utility.yul\":456:460   */\n      0x00\n        /* \"#utility.yul\":479:482   */\n      dup2\n        /* \"#utility.yul\":471:482   */\n      swap1\n      pop\n        /* \"#utility.yul\":509:513   */\n      0x20\n        /* \"#utility.yul\":504:507   */\n      dup3\n        /* \"#utility.yul\":500:514   */\n      add\n        /* \"#utility.yul\":492:514   */\n      swap1\n      pop\n        /* \"#utility.yul\":365:521   */\n      swap2\n      swap1\n      pop\n      jump\t// out\n        /* \"#utility.yul\":527:604   */\n    tag_38:\n        /* \"#utility.yul\":564:571   */\n      0x00\n        /* \"#utility.yul\":593:598   */\n      dup2\n        /* \"#utility.yul\":582:598   */\n      swap1\n      pop\n        /* \"#utility.yul\":527:604   */\n      swap2\n      swap1\n      pop\n      jump\t// out\n        /* \"#utility.yul\":610:718   */\n    tag_39:\n        /* \"#utility.yul\":687:711   */\n      tag_89\n        /* \"#utility.yul\":705:710   */\n      dup2\n        /* \"#utility.yul\":687:711   */\n      tag_38\n      jump\t// in\n    tag_89:\n        /* \"#utility.yul\":682:685   */\n      dup3\n        /* \"#utility.yul\":675:712   */\n      mstore\n        /* \"#utility.yul\":610:718   */\n      pop\n      pop\n      jump\t// out\n        /* \"#utility.yul\":724:823   */\n    tag_40:\n        /* \"#utility.yul\":776:782   */\n      0x00\n        /* \"#utility.yul\":810:815   */\n      dup2\n        /* \"#utility.yul\":804:816   */\n      mload\n        /* \"#utility.yul\":794:816   */\n      swap1\n      pop\n        /* \"#utility.yul\":724:823   */\n      swap2\n      swap1\n      pop\n      jump\t// out\n        /* \"#utility.yul\":829:988   */\n    tag_41:\n        /* \"#utility.yul\":903:914   */\n      0x00\n        /* \"#utility.yul\":937:943   */\n      dup3\n        /* \"#utility.yul\":932:935   */\n      dup3\n        /* \"#utility.yul\":925:944   */\n      mstore\n        /* \"#utility.yul\":977:981   */\n      0x20\n        /* \"#utility.yul\":972:975   */\n      dup3\n        /* \"#utility.yul\":968:982   */\n      add\n        /* \"#utility.yul\":953:982   */\n      swap1\n      pop\n        /* \"#utility.yul\":829:988   */\n      swap3\n      swap2\n      pop\n      pop\n      jump\t// out\n        /* \"#utility.yul\":994:1133   */\n    tag_42:\n        /* \"#utility.yul\":1083:1089   */\n      dup3\n        /* \"#utility.yul\":1078:1081   */\n      dup2\n        /* \"#utility.yul\":1073:1076   */\n      dup4\n        /* \"#utility.yul\":1067:1090   */\n      mcopy\n        /* \"#utility.yul\":1124:1125   */\n      0x00\n        /* \"#utility.yul\":1115:1121   */\n      dup4\n        /* \"#utility.yul\":1110:1113   */\n      dup4\n        /* \"#utility.yul\":1106:1122   */\n      add\n        /* \"#utility.yul\":1099:1126   */\n      mstore\n        /* \"#utility.yul\":994:1133   */\n      pop\n      pop\n      pop\n      jump\t// out\n        /* \"#utility.yul\":1139:1241   */\n    tag_43:\n        /* \"#utility.yul\":1180:1186   */\n      0x00\n        /* \"#utility.yul\":1231:1233   */\n      0x1f\n        /* \"#utility.yul\":1227:1234   */\n      not\n        /* \"#utility.yul\":1222:1224   */\n      0x1f\n        /* \"#utility.yul\":1215:1220   */\n      dup4\n        /* \"#utility.yul\":1211:1225   */\n      add\n        /* \"#utility.yul\":1207:1235   */\n      and\n        /* \"#utility.yul\":1197:1235   */\n      swap1\n      pop\n        /* \"#utility.yul\":1139:1241   */\n      swap2\n      swap1\n      pop\n      jump\t// out\n        /* \"#utility.yul\":1247:1604   */\n    tag_44:\n        /* \"#utility.yul\":1325:1328   */\n      0x00\n        /* \"#utility.yul\":1353:1392   */\n      tag_95\n        /* \"#utility.yul\":1386:1391   */\n      dup3\n        /* \"#utility.yul\":1353:1392   */\n      tag_40\n      jump\t// in\n    tag_95:\n        /* \"#utility.yul\":1408:1469   */\n      tag_96\n        /* \"#utility.yul\":1462:1468   */\n      dup2\n        /* \"#utility.yul\":1457:1460   */\n      dup6\n        /* \"#utility.yul\":1408:1469   */\n      tag_41\n      jump\t// in\n    tag_96:\n        /* \"#utility.yul\":1401:1469   */\n      swap4\n      pop\n        /* \"#utility.yul\":1478:1543   */\n      tag_97\n        /* \"#utility.yul\":1536:1542   */\n      dup2\n        /* \"#utility.yul\":1531:1534   */\n      dup6\n        /* \"#utility.yul\":1524:1528   */\n      0x20\n        /* \"#utility.yul\":1517:1522   */\n      dup7\n        /* \"#utility.yul\":1513:1529   */\n      add\n        /* \"#utility.yul\":1478:1543   */\n      tag_42\n      jump\t// in\n    tag_97:\n        /* \"#utility.yul\":1568:1597   */\n      tag_98\n        /* \"#utility.yul\":1590:1596   */\n      dup2\n        /* \"#utility.yul\":1568:1597   */\n      tag_43\n      jump\t// in\n    tag_98:\n        /* \"#utility.yul\":1563:1566   */\n      dup5\n        /* \"#utility.yul\":1559:1598   */\n      add\n        /* \"#utility.yul\":1552:1598   */\n      swap2\n      pop\n        /* \"#utility.yul\":1329:1604   */\n      pop\n        /* \"#utility.yul\":1247:1604   */\n      swap3\n      swap2\n      pop\n      pop\n      jump\t// out\n        /* \"#utility.yul\":1610:1736   */\n    tag_45:\n        /* \"#utility.yul\":1647:1654   */\n      0x00\n        /* \"#utility.yul\":1687:1729   */\n      0xffffffffffffffffffffffffffffffffffffffff\n        /* \"#utility.yul\":1680:1685   */\n      dup3\n        /* \"#utility.yul\":1676:1730   */\n      and\n        /* \"#utility.yul\":1665:1730   */\n      swap1\n      pop\n        /* \"#utility.yul\":1610:1736   */\n      swap2\n      swap1\n      pop\n      jump\t// out\n        /* \"#utility.yul\":1742:1846   */\n    tag_46:\n        /* \"#utility.yul\":1787:1794   */\n      0x00\n        /* \"#utility.yul\":1816:1840   */\n      tag_101\n        /* \"#utility.yul\":1834:1839   */\n      dup3\n        /* \"#utility.yul\":1816:1840   */\n      tag_45\n      jump\t// in\n    tag_101:\n        /* \"#utility.yul\":1805:1840   */\n      swap1\n      pop\n        /* \"#utility.yul\":1742:1846   */\n      swap2\n      swap1\n      pop\n      jump\t// out\n        /* \"#utility.yul\":1852:1984   */\n    tag_47:\n        /* \"#utility.yul\":1945:1977   */\n      tag_103\n        /* \"#utility.yul\":1971:1976   */\n      dup2\n        /* \"#utility.yul\":1945:1977   */\n      tag_46\n      jump\t// in\n    tag_103:\n        /* \"#utility.yul\":1940:1943   */\n      dup3\n        /* \"#utility.yul\":1933:1978   */\n      mstore\n        /* \"#utility.yul\":1852:1984   */\n      pop\n      pop\n      jump\t// out\n        /* \"#utility.yul\":2064:3822   */\n    tag_48:\n        /* \"#utility.yul\":2171:2174   */\n      0x00\n        /* \"#utility.yul\":2207:2213   */\n      0x0100\n        /* \"#utility.yul\":2202:2205   */\n      dup4\n        /* \"#utility.yul\":2198:2214   */\n      add\n        /* \"#utility.yul\":2294:2298   */\n      0x00\n        /* \"#utility.yul\":2287:2292   */\n      dup4\n        /* \"#utility.yul\":2283:2299   */\n      add\n        /* \"#utility.yul\":2277:2300   */\n      mload\n        /* \"#utility.yul\":2313:2376   */\n      tag_105\n        /* \"#utility.yul\":2370:2374   */\n      0x00\n        /* \"#utility.yul\":2365:2368   */\n      dup7\n        /* \"#utility.yul\":2361:2375   */\n      add\n        /* \"#utility.yul\":2347:2359   */\n      dup3\n        /* \"#utility.yul\":2313:2376   */\n      tag_39\n      jump\t// in\n    tag_105:\n        /* \"#utility.yul\":2224:2386   */\n      pop\n        /* \"#utility.yul\":2468:2472   */\n      0x20\n        /* \"#utility.yul\":2461:2466   */\n      dup4\n        /* \"#utility.yul\":2457:2473   */\n      add\n        /* \"#utility.yul\":2451:2474   */\n      mload\n        /* \"#utility.yul\":2521:2524   */\n      dup5\n        /* \"#utility.yul\":2515:2519   */\n      dup3\n        /* \"#utility.yul\":2511:2525   */\n      sub\n        /* \"#utility.yul\":2504:2508   */\n      0x20\n        /* \"#utility.yul\":2499:2502   */\n      dup7\n        /* \"#utility.yul\":2495:2509   */\n      add\n        /* \"#utility.yul\":2488:2526   */\n      mstore\n        /* \"#utility.yul\":2547:2620   */\n      tag_106\n        /* \"#utility.yul\":2615:2619   */\n      dup3\n        /* \"#utility.yul\":2601:2613   */\n      dup3\n        /* \"#utility.yul\":2547:2620   */\n      tag_44\n      jump\t// in\n    tag_106:\n        /* \"#utility.yul\":2539:2620   */\n      swap2\n      pop\n        /* \"#utility.yul\":2396:2631   */\n      pop\n        /* \"#utility.yul\":2720:2724   */\n      0x40\n        /* \"#utility.yul\":2713:2718   */\n      dup4\n        /* \"#utility.yul\":2709:2725   */\n      add\n        /* \"#utility.yul\":2703:2726   */\n      mload\n        /* \"#utility.yul\":2773:2776   */\n      dup5\n        /* \"#utility.yul\":2767:2771   */\n      dup3\n        /* \"#utility.yul\":2763:2777   */\n      sub\n        /* \"#utility.yul\":2756:2760   */\n      0x40\n        /* \"#utility.yul\":2751:2754   */\n      dup7\n        /* \"#utility.yul\":2747:2761   */\n      add\n        /* \"#utility.yul\":2740:2778   */\n      mstore\n        /* \"#utility.yul\":2799:2872   */\n      tag_107\n        /* \"#utility.yul\":2867:2871   */\n      dup3\n        /* \"#utility.yul\":2853:2865   */\n      dup3\n        /* \"#utility.yul\":2799:2872   */\n      tag_44\n      jump\t// in\n    tag_107:\n        /* \"#utility.yul\":2791:2872   */\n      swap2\n      pop\n        /* \"#utility.yul\":2641:2883   */\n      pop\n        /* \"#utility.yul\":2966:2970   */\n      0x60\n        /* \"#utility.yul\":2959:2964   */\n      dup4\n        /* \"#utility.yul\":2955:2971   */\n      add\n        /* \"#utility.yul\":2949:2972   */\n      mload\n        /* \"#utility.yul\":2985:3064   */\n      tag_108\n        /* \"#utility.yul\":3058:3062   */\n      0x60\n        /* \"#utility.yul\":3053:3056   */\n      dup7\n        /* \"#utility.yul\":3049:3063   */\n      add\n        /* \"#utility.yul\":3035:3047   */\n      dup3\n        /* \"#utility.yul\":2985:3064   */\n      tag_47\n      jump\t// in\n    tag_108:\n        /* \"#utility.yul\":2893:3074   */\n      pop\n        /* \"#utility.yul\":3166:3170   */\n      0x80\n        /* \"#utility.yul\":3159:3164   */\n      dup4\n        /* \"#utility.yul\":3155:3171   */\n      add\n        /* \"#utility.yul\":3149:3172   */\n      mload\n        /* \"#utility.yul\":3185:3248   */\n      tag_109\n        /* \"#utility.yul\":3242:3246   */\n      0x80\n        /* \"#utility.yul\":3237:3240   */\n      dup7\n        /* \"#utility.yul\":3233:3247   */\n      add\n        /* \"#utility.yul\":3219:3231   */\n      dup3\n        /* \"#utility.yul\":3185:3248   */\n      tag_39\n      jump\t// in\n    tag_109:\n        /* \"#utility.yul\":3084:3258   */\n      pop\n        /* \"#utility.yul\":3347:3351   */\n      0xa0\n        /* \"#utility.yul\":3340:3345   */\n      dup4\n        /* \"#utility.yul\":3336:3352   */\n      add\n        /* \"#utility.yul\":3330:3353   */\n      mload\n        /* \"#utility.yul\":3366:3429   */\n      tag_110\n        /* \"#utility.yul\":3423:3427   */\n      0xa0\n        /* \"#utility.yul\":3418:3421   */\n      dup7\n        /* \"#utility.yul\":3414:3428   */\n      add\n        /* \"#utility.yul\":3400:3412   */\n      dup3\n        /* \"#utility.yul\":3366:3429   */\n      tag_39\n      jump\t// in\n    tag_110:\n        /* \"#utility.yul\":3268:3439   */\n      pop\n        /* \"#utility.yul\":3526:3530   */\n      0xc0\n        /* \"#utility.yul\":3519:3524   */\n      dup4\n        /* \"#utility.yul\":3515:3531   */\n      add\n        /* \"#utility.yul\":3509:3532   */\n      mload\n        /* \"#utility.yul\":3545:3608   */\n      tag_111\n        /* \"#utility.yul\":3602:3606   */\n      0xc0\n        /* \"#utility.yul\":3597:3600   */\n      dup7\n        /* \"#utility.yul\":3593:3607   */\n      add\n        /* \"#utility.yul\":3579:3591   */\n      dup3\n        /* \"#utility.yul\":3545:3608   */\n      tag_39\n      jump\t// in\n    tag_111:\n        /* \"#utility.yul\":3449:3618   */\n      pop\n        /* \"#utility.yul\":3703:3707   */\n      0xe0\n        /* \"#utility.yul\":3696:3701   */\n      dup4\n        /* \"#utility.yul\":3692:3708   */\n      add\n        /* \"#utility.yul\":3686:3709   */\n      mload\n        /* \"#utility.yul\":3722:3785   */\n      tag_112\n        /* \"#utility.yul\":3779:3783   */\n      0xe0\n        /* \"#utility.yul\":3774:3777   */\n      dup7\n        /* \"#utility.yul\":3770:3784   */\n      add\n        /* \"#utility.yul\":3756:3768   */\n      dup3\n        /* \"#utility.yul\":3722:3785   */\n      tag_39\n      jump\t// in\n    tag_112:\n        /* \"#utility.yul\":3628:3795   */\n      pop\n        /* \"#utility.yul\":3812:3816   */\n      dup1\n        /* \"#utility.yul\":3805:3816   */\n      swap2\n      pop\n        /* \"#utility.yul\":2176:3822   */\n      pop\n        /* \"#utility.yul\":2064:3822   */\n      swap3\n      swap2\n      pop\n      pop\n      jump\t// out\n        /* \"#utility.yul\":3828:4080   */\n    tag_49:\n        /* \"#utility.yul\":3945:3955   */\n      0x00\n        /* \"#utility.yul\":3980:4074   */\n      tag_114\n        /* \"#utility.yul\":4070:4073   */\n      dup4\n        /* \"#utility.yul\":4062:4068   */\n      dup4\n        /* \"#utility.yul\":3980:4074   */\n      tag_48\n      jump\t// in\n    tag_114:\n        /* \"#utility.yul\":3966:4074   */\n      swap1\n      pop\n        /* \"#utility.yul\":3828:4080   */\n      swap3\n      swap2\n      pop\n      pop\n      jump\t// out\n        /* \"#utility.yul\":4086:4223   */\n    tag_50:\n        /* \"#utility.yul\":4180:4184   */\n      0x00\n        /* \"#utility.yul\":4212:4216   */\n      0x20\n        /* \"#utility.yul\":4207:4210   */\n      dup3\n        /* \"#utility.yul\":4203:4217   */\n      add\n        /* \"#utility.yul\":4195:4217   */\n      swap1\n      pop\n        /* \"#utility.yul\":4086:4223   */\n      swap2\n      swap1\n      pop\n      jump\t// out\n        /* \"#utility.yul\":4307:5410   */\n    tag_51:\n        /* \"#utility.yul\":4474:4477   */\n      0x00\n        /* \"#utility.yul\":4503:4581   */\n      tag_117\n        /* \"#utility.yul\":4575:4580   */\n      dup3\n        /* \"#utility.yul\":4503:4581   */\n      tag_35\n      jump\t// in\n    tag_117:\n        /* \"#utility.yul\":4597:4707   */\n      tag_118\n        /* \"#utility.yul\":4700:4706   */\n      dup2\n        /* \"#utility.yul\":4695:4698   */\n      dup6\n        /* \"#utility.yul\":4597:4707   */\n      tag_36\n      jump\t// in\n    tag_118:\n        /* \"#utility.yul\":4590:4707   */\n      swap4\n      pop\n        /* \"#utility.yul\":4733:4736   */\n      dup4\n        /* \"#utility.yul\":4778:4782   */\n      0x20\n        /* \"#utility.yul\":4770:4776   */\n      dup3\n        /* \"#utility.yul\":4766:4783   */\n      mul\n        /* \"#utility.yul\":4761:4764   */\n      dup6\n        /* \"#utility.yul\":4757:4784   */\n      add\n        /* \"#utility.yul\":4808:4888   */\n      tag_119\n        /* \"#utility.yul\":4882:4887   */\n      dup6\n        /* \"#utility.yul\":4808:4888   */\n      tag_37\n      jump\t// in\n    tag_119:\n        /* \"#utility.yul\":4911:4918   */\n      dup1\n        /* \"#utility.yul\":4942:4943   */\n      0x00\n        /* \"#utility.yul\":4927:5365   */\n    tag_120:\n        /* \"#utility.yul\":4952:4958   */\n      dup6\n        /* \"#utility.yul\":4949:4950   */\n      dup2\n        /* \"#utility.yul\":4946:4959   */\n      lt\n        /* \"#utility.yul\":4927:5365   */\n      iszero\n      tag_122\n      jumpi\n        /* \"#utility.yul\":5023:5032   */\n      dup5\n        /* \"#utility.yul\":5017:5021   */\n      dup5\n        /* \"#utility.yul\":5013:5033   */\n      sub\n        /* \"#utility.yul\":5008:5011   */\n      dup10\n        /* \"#utility.yul\":5001:5034   */\n      mstore\n        /* \"#utility.yul\":5074:5080   */\n      dup2\n        /* \"#utility.yul\":5068:5081   */\n      mload\n        /* \"#utility.yul\":5102:5214   */\n      tag_123\n        /* \"#utility.yul\":5209:5213   */\n      dup6\n        /* \"#utility.yul\":5194:5207   */\n      dup3\n        /* \"#utility.yul\":5102:5214   */\n      tag_49\n      jump\t// in\n    tag_123:\n        /* \"#utility.yul\":5094:5214   */\n      swap5\n      pop\n        /* \"#utility.yul\":5237:5321   */\n      tag_124\n        /* \"#utility.yul\":5314:5320   */\n      dup4\n        /* \"#utility.yul\":5237:5321   */\n      tag_50\n      jump\t// in\n    tag_124:\n        /* \"#utility.yul\":5227:5321   */\n      swap3\n      pop\n        /* \"#utility.yul\":5350:5354   */\n      0x20\n        /* \"#utility.yul\":5345:5348   */\n      dup11\n        /* \"#utility.yul\":5341:5355   */\n      add\n        /* \"#utility.yul\":5334:5355   */\n      swap10\n      pop\n        /* \"#utility.yul\":4987:5365   */\n      pop\n        /* \"#utility.yul\":4974:4975   */\n      0x01\n        /* \"#utility.yul\":4971:4972   */\n      dup2\n        /* \"#utility.yul\":4967:4976   */\n      add\n        /* \"#utility.yul\":4962:4976   */\n      swap1\n      pop\n        /* \"#utility.yul\":4927:5365   */\n      jump(tag_120)\n    tag_122:\n        /* \"#utility.yul\":4931:4945   */\n      pop\n        /* \"#utility.yul\":5381:5385   */\n      dup3\n        /* \"#utility.yul\":5374:5385   */\n      swap8\n      pop\n        /* \"#utility.yul\":5401:5404   */\n      dup8\n        /* \"#utility.yul\":5394:5404   */\n      swap6\n      pop\n        /* \"#utility.yul\":4479:5410   */\n      pop\n      pop\n      pop\n      pop\n      pop\n        /* \"#utility.yul\":4307:5410   */\n      swap3\n      swap2\n      pop\n      pop\n      jump\t// out\n        /* \"#utility.yul\":5416:5885   */\n    tag_8:\n        /* \"#utility.yul\":5607:5611   */\n      0x00\n        /* \"#utility.yul\":5645:5647   */\n      0x20\n        /* \"#utility.yul\":5634:5643   */\n      dup3\n        /* \"#utility.yul\":5630:5648   */\n      add\n        /* \"#utility.yul\":5622:5648   */\n      swap1\n      pop\n        /* \"#utility.yul\":5694:5703   */\n      dup2\n        /* \"#utility.yul\":5688:5692   */\n      dup2\n        /* \"#utility.yul\":5684:5704   */\n      sub\n        /* \"#utility.yul\":5680:5681   */\n      0x00\n        /* \"#utility.yul\":5669:5678   */\n      dup4\n        /* \"#utility.yul\":5665:5682   */\n      add\n        /* \"#utility.yul\":5658:5705   */\n      mstore\n        /* \"#utility.yul\":5722:5878   */\n      tag_126\n        /* \"#utility.yul\":5873:5877   */\n      dup2\n        /* \"#utility.yul\":5864:5870   */\n      dup5\n        /* \"#utility.yul\":5722:5878   */\n      tag_51\n      jump\t// in\n    tag_126:\n        /* \"#utility.yul\":5714:5878   */\n      swap1\n      pop\n        /* \"#utility.yul\":5416:5885   */\n      swap3\n      swap2\n      pop\n      pop\n      jump\t// out\n        /* \"#utility.yul\":5891:5966   */\n    tag_52:\n        /* \"#utility.yul\":5924:5930   */\n      0x00\n        /* \"#utility.yul\":5957:5959   */\n      0x40\n        /* \"#utility.yul\":5951:5960   */\n      mload\n        /* \"#utility.yul\":5941:5960   */\n      swap1\n      pop\n        /* \"#utility.yul\":5891:5966   */\n      swap1\n      jump\t// out\n        /* \"#utility.yul\":5972:6089   */\n    tag_53:\n        /* \"#utility.yul\":6081:6082   */\n      0x00\n        /* \"#utility.yul\":6078:6079   */\n      dup1\n        /* \"#utility.yul\":6071:6083   */\n      revert\n        /* \"#utility.yul\":6095:6212   */\n    tag_54:\n        /* \"#utility.yul\":6204:6205   */\n      0x00\n        /* \"#utility.yul\":6201:6202   */\n      dup1\n        /* \"#utility.yul\":6194:6206   */\n      revert\n        /* \"#utility.yul\":6218:6335   */\n    tag_55:\n        /* \"#utility.yul\":6327:6328   */\n      0x00\n        /* \"#utility.yul\":6324:6325   */\n      dup1\n        /* \"#utility.yul\":6317:6329   */\n      revert\n        /* \"#utility.yul\":6341:6458   */\n    tag_56:\n        /* \"#utility.yul\":6450:6451   */\n      0x00\n        /* \"#utility.yul\":6447:6448   */\n      dup1\n        /* \"#utility.yul\":6440:6452   */\n      revert\n        /* \"#utility.yul\":6464:6644   */\n    tag_57:\n        /* \"#utility.yul\":6512:6589   */\n      0x4e487b7100000000000000000000000000000000000000000000000000000000\n        /* \"#utility.yul\":6509:6510   */\n      0x00\n        /* \"#utility.yul\":6502:6590   */\n      mstore\n        /* \"#utility.yul\":6609:6613   */\n      0x41\n        /* \"#utility.yul\":6606:6607   */\n      0x04\n        /* \"#utility.yul\":6599:6614   */\n      mstore\n        /* \"#utility.yul\":6633:6637   */\n      0x24\n        /* \"#utility.yul\":6630:6631   */\n      0x00\n        /* \"#utility.yul\":6623:6638   */\n      revert\n        /* \"#utility.yul\":6650:6931   */\n    tag_58:\n        /* \"#utility.yul\":6733:6760   */\n      tag_134\n        /* \"#utility.yul\":6755:6759   */\n      dup3\n        /* \"#utility.yul\":6733:6760   */\n      tag_43\n      jump\t// in\n    tag_134:\n        /* \"#utility.yul\":6725:6731   */\n      dup2\n        /* \"#utility.yul\":6721:6761   */\n      add\n        /* \"#utility.yul\":6863:6869   */\n      dup2\n        /* \"#utility.yul\":6851:6861   */\n      dup2\n        /* \"#utility.yul\":6848:6870   */\n      lt\n        /* \"#utility.yul\":6827:6845   */\n      0xffffffffffffffff\n        /* \"#utility.yul\":6815:6825   */\n      dup3\n        /* \"#utility.yul\":6812:6846   */\n      gt\n        /* \"#utility.yul\":6809:6871   */\n      or\n        /* \"#utility.yul\":6806:6894   */\n      iszero\n      tag_135\n      jumpi\n        /* \"#utility.yul\":6874:6892   */\n      tag_136\n      tag_57\n      jump\t// in\n    tag_136:\n        /* \"#utility.yul\":6806:6894   */\n    tag_135:\n        /* \"#utility.yul\":6914:6924   */\n      dup1\n        /* \"#utility.yul\":6910:6912   */\n      0x40\n        /* \"#utility.yul\":6903:6925   */\n      mstore\n        /* \"#utility.yul\":6693:6931   */\n      pop\n        /* \"#utility.yul\":6650:6931   */\n      pop\n      pop\n      jump\t// out\n        /* \"#utility.yul\":6937:7066   */\n    tag_59:\n        /* \"#utility.yul\":6971:6977   */\n      0x00\n        /* \"#utility.yul\":6998:7018   */\n      tag_138\n      tag_52\n      jump\t// in\n    tag_138:\n        /* \"#utility.yul\":6988:7018   */\n      swap1\n      pop\n        /* \"#utility.yul\":7027:7060   */\n      tag_139\n        /* \"#utility.yul\":7055:7059   */\n      dup3\n        /* \"#utility.yul\":7047:7053   */\n      dup3\n        /* \"#utility.yul\":7027:7060   */\n      tag_58\n      jump\t// in\n    tag_139:\n        /* \"#utility.yul\":6937:7066   */\n      swap2\n      swap1\n      pop\n      jump\t// out\n        /* \"#utility.yul\":7072:7380   */\n    tag_60:\n        /* \"#utility.yul\":7134:7138   */\n      0x00\n        /* \"#utility.yul\":7224:7242   */\n      0xffffffffffffffff\n        /* \"#utility.yul\":7216:7222   */\n      dup3\n        /* \"#utility.yul\":7213:7243   */\n      gt\n        /* \"#utility.yul\":7210:7266   */\n      iszero\n      tag_141\n      jumpi\n        /* \"#utility.yul\":7246:7264   */\n      tag_142\n      tag_57\n      jump\t// in\n    tag_142:\n        /* \"#utility.yul\":7210:7266   */\n    tag_141:\n        /* \"#utility.yul\":7284:7313   */\n      tag_143\n        /* \"#utility.yul\":7306:7312   */\n      dup3\n        /* \"#utility.yul\":7284:7313   */\n      tag_43\n      jump\t// in\n    tag_143:\n        /* \"#utility.yul\":7276:7313   */\n      swap1\n      pop\n        /* \"#utility.yul\":7368:7372   */\n      0x20\n        /* \"#utility.yul\":7362:7366   */\n      dup2\n        /* \"#utility.yul\":7358:7373   */\n      add\n        /* \"#utility.yul\":7350:7373   */\n      swap1\n      pop\n        /* \"#utility.yul\":7072:7380   */\n      swap2\n      swap1\n      pop\n      jump\t// out\n        /* \"#utility.yul\":7386:7534   */\n    tag_61:\n        /* \"#utility.yul\":7484:7490   */\n      dup3\n        /* \"#utility.yul\":7479:7482   */\n      dup2\n        /* \"#utility.yul\":7474:7477   */\n      dup4\n        /* \"#utility.yul\":7461:7491   */\n      calldatacopy\n        /* \"#utility.yul\":7525:7526   */\n      0x00\n        /* \"#utility.yul\":7516:7522   */\n      dup4\n        /* \"#utility.yul\":7511:7514   */\n      dup4\n        /* \"#utility.yul\":7507:7523   */\n      add\n        /* \"#utility.yul\":7500:7527   */\n      mstore\n        /* \"#utility.yul\":7386:7534   */\n      pop\n      pop\n      pop\n      jump\t// out\n        /* \"#utility.yul\":7540:7965   */\n    tag_62:\n        /* \"#utility.yul\":7618:7623   */\n      0x00\n        /* \"#utility.yul\":7643:7709   */\n      tag_146\n        /* \"#utility.yul\":7659:7708   */\n      tag_147\n        /* \"#utility.yul\":7701:7707   */\n      dup5\n        /* \"#utility.yul\":7659:7708   */\n      tag_60\n      jump\t// in\n    tag_147:\n        /* \"#utility.yul\":7643:7709   */\n      tag_59\n      jump\t// in\n    tag_146:\n        /* \"#utility.yul\":7634:7709   */\n      swap1\n      pop\n        /* \"#utility.yul\":7732:7738   */\n      dup3\n        /* \"#utility.yul\":7725:7730   */\n      dup2\n        /* \"#utility.yul\":7718:7739   */\n      mstore\n        /* \"#utility.yul\":7770:7774   */\n      0x20\n        /* \"#utility.yul\":7763:7768   */\n      dup2\n        /* \"#utility.yul\":7759:7775   */\n      add\n        /* \"#utility.yul\":7808:7811   */\n      dup5\n        /* \"#utility.yul\":7799:7805   */\n      dup5\n        /* \"#utility.yul\":7794:7797   */\n      dup5\n        /* \"#utility.yul\":7790:7806   */\n      add\n        /* \"#utility.yul\":7787:7812   */\n      gt\n        /* \"#utility.yul\":7784:7896   */\n      iszero\n      tag_148\n      jumpi\n        /* \"#utility.yul\":7815:7894   */\n      tag_149\n      tag_56\n      jump\t// in\n    tag_149:\n        /* \"#utility.yul\":7784:7896   */\n    tag_148:\n        /* \"#utility.yul\":7905:7959   */\n      tag_150\n        /* \"#utility.yul\":7952:7958   */\n      dup5\n        /* \"#utility.yul\":7947:7950   */\n      dup3\n        /* \"#utility.yul\":7942:7945   */\n      dup6\n        /* \"#utility.yul\":7905:7959   */\n      tag_61\n      jump\t// in\n    tag_150:\n        /* \"#utility.yul\":7624:7965   */\n      pop\n        /* \"#utility.yul\":7540:7965   */\n      swap4\n      swap3\n      pop\n      pop\n      pop\n      jump\t// out\n        /* \"#utility.yul\":7985:8325   */\n    tag_63:\n        /* \"#utility.yul\":8041:8046   */\n      0x00\n        /* \"#utility.yul\":8090:8093   */\n      dup3\n        /* \"#utility.yul\":8083:8087   */\n      0x1f\n        /* \"#utility.yul\":8075:8081   */\n      dup4\n        /* \"#utility.yul\":8071:8088   */\n      add\n        /* \"#utility.yul\":8067:8094   */\n      slt\n        /* \"#utility.yul\":8057:8179   */\n      tag_152\n      jumpi\n        /* \"#utility.yul\":8098:8177   */\n      tag_153\n      tag_55\n      jump\t// in\n    tag_153:\n        /* \"#utility.yul\":8057:8179   */\n    tag_152:\n        /* \"#utility.yul\":8215:8221   */\n      dup2\n        /* \"#utility.yul\":8202:8222   */\n      calldataload\n        /* \"#utility.yul\":8240:8319   */\n      tag_154\n        /* \"#utility.yul\":8315:8318   */\n      dup5\n        /* \"#utility.yul\":8307:8313   */\n      dup3\n        /* \"#utility.yul\":8300:8304   */\n      0x20\n        /* \"#utility.yul\":8292:8298   */\n      dup7\n        /* \"#utility.yul\":8288:8305   */\n      add\n        /* \"#utility.yul\":8240:8319   */\n      tag_62\n      jump\t// in\n    tag_154:\n        /* \"#utility.yul\":8231:8319   */\n      swap2\n      pop\n        /* \"#utility.yul\":8047:8325   */\n      pop\n        /* \"#utility.yul\":7985:8325   */\n      swap3\n      swap2\n      pop\n      pop\n      jump\t// out\n        /* \"#utility.yul\":8331:8453   */\n    tag_64:\n        /* \"#utility.yul\":8404:8428   */\n      tag_156\n        /* \"#utility.yul\":8422:8427   */\n      dup2\n        /* \"#utility.yul\":8404:8428   */\n      tag_38\n      jump\t// in\n    tag_156:\n        /* \"#utility.yul\":8397:8402   */\n      dup2\n        /* \"#utility.yul\":8394:8429   */\n      eq\n        /* \"#utility.yul\":8384:8447   */\n      tag_157\n      jumpi\n        /* \"#utility.yul\":8443:8444   */\n      0x00\n        /* \"#utility.yul\":8440:8441   */\n      dup1\n        /* \"#utility.yul\":8433:8445   */\n      revert\n        /* \"#utility.yul\":8384:8447   */\n    tag_157:\n        /* \"#utility.yul\":8331:8453   */\n      pop\n      jump\t// out\n        /* \"#utility.yul\":8459:8598   */\n    tag_65:\n        /* \"#utility.yul\":8505:8510   */\n      0x00\n        /* \"#utility.yul\":8543:8549   */\n      dup2\n        /* \"#utility.yul\":8530:8550   */\n      calldataload\n        /* \"#utility.yul\":8521:8550   */\n      swap1\n      pop\n        /* \"#utility.yul\":8559:8592   */\n      tag_159\n        /* \"#utility.yul\":8586:8591   */\n      dup2\n        /* \"#utility.yul\":8559:8592   */\n      tag_64\n      jump\t// in\n    tag_159:\n        /* \"#utility.yul\":8459:8598   */\n      swap3\n      swap2\n      pop\n      pop\n      jump\t// out\n        /* \"#utility.yul\":8604:9729   */\n    tag_11:\n        /* \"#utility.yul\":8710:8716   */\n      0x00\n        /* \"#utility.yul\":8718:8724   */\n      dup1\n        /* \"#utility.yul\":8726:8732   */\n      0x00\n        /* \"#utility.yul\":8734:8740   */\n      dup1\n        /* \"#utility.yul\":8783:8786   */\n      0x80\n        /* \"#utility.yul\":8771:8780   */\n      dup6\n        /* \"#utility.yul\":8762:8769   */\n      dup8\n        /* \"#utility.yul\":8758:8781   */\n      sub\n        /* \"#utility.yul\":8754:8787   */\n      slt\n        /* \"#utility.yul\":8751:8871   */\n      iszero\n      tag_161\n      jumpi\n        /* \"#utility.yul\":8790:8869   */\n      tag_162\n      tag_53\n      jump\t// in\n    tag_162:\n        /* \"#utility.yul\":8751:8871   */\n    tag_161:\n        /* \"#utility.yul\":8938:8939   */\n      0x00\n        /* \"#utility.yul\":8927:8936   */\n      dup6\n        /* \"#utility.yul\":8923:8940   */\n      add\n        /* \"#utility.yul\":8910:8941   */\n      calldataload\n        /* \"#utility.yul\":8968:8986   */\n      0xffffffffffffffff\n        /* \"#utility.yul\":8960:8966   */\n      dup2\n        /* \"#utility.yul\":8957:8987   */\n      gt\n        /* \"#utility.yul\":8954:9071   */\n      iszero\n      tag_163\n      jumpi\n        /* \"#utility.yul\":8990:9069   */\n      tag_164\n      tag_54\n      jump\t// in\n    tag_164:\n        /* \"#utility.yul\":8954:9071   */\n    tag_163:\n        /* \"#utility.yul\":9095:9158   */\n      tag_165\n        /* \"#utility.yul\":9150:9157   */\n      dup8\n        /* \"#utility.yul\":9141:9147   */\n      dup3\n        /* \"#utility.yul\":9130:9139   */\n      dup9\n        /* \"#utility.yul\":9126:9148   */\n      add\n        /* \"#utility.yul\":9095:9158   */\n      tag_63\n      jump\t// in\n    tag_165:\n        /* \"#utility.yul\":9085:9158   */\n      swap5\n      pop\n        /* \"#utility.yul\":8881:9168   */\n      pop\n        /* \"#utility.yul\":9235:9237   */\n      0x20\n        /* \"#utility.yul\":9224:9233   */\n      dup6\n        /* \"#utility.yul\":9220:9238   */\n      add\n        /* \"#utility.yul\":9207:9239   */\n      calldataload\n        /* \"#utility.yul\":9266:9284   */\n      0xffffffffffffffff\n        /* \"#utility.yul\":9258:9264   */\n      dup2\n        /* \"#utility.yul\":9255:9285   */\n      gt\n        /* \"#utility.yul\":9252:9369   */\n      iszero\n      tag_166\n      jumpi\n        /* \"#utility.yul\":9288:9367   */\n      tag_167\n      tag_54\n      jump\t// in\n    tag_167:\n        /* \"#utility.yul\":9252:9369   */\n    tag_166:\n        /* \"#utility.yul\":9393:9456   */\n      tag_168\n        /* \"#utility.yul\":9448:9455   */\n      dup8\n        /* \"#utility.yul\":9439:9445   */\n      dup3\n        /* \"#utility.yul\":9428:9437   */\n      dup9\n        /* \"#utility.yul\":9424:9446   */\n      add\n        /* \"#utility.yul\":9393:9456   */\n      tag_63\n      jump\t// in\n    tag_168:\n        /* \"#utility.yul\":9383:9456   */\n      swap4\n      pop\n        /* \"#utility.yul\":9178:9466   */\n      pop\n        /* \"#utility.yul\":9505:9507   */\n      0x40\n        /* \"#utility.yul\":9531:9584   */\n      tag_169\n        /* \"#utility.yul\":9576:9583   */\n      dup8\n        /* \"#utility.yul\":9567:9573   */\n      dup3\n        /* \"#utility.yul\":9556:9565   */\n      dup9\n        /* \"#utility.yul\":9552:9574   */\n      add\n        /* \"#utility.yul\":9531:9584   */\n      tag_65\n      jump\t// in\n    tag_169:\n        /* \"#utility.yul\":9521:9584   */\n      swap3\n      pop\n        /* \"#utility.yul\":9476:9594   */\n      pop\n        /* \"#utility.yul\":9633:9635   */\n      0x60\n        /* \"#utility.yul\":9659:9712   */\n      tag_170\n        /* \"#utility.yul\":9704:9711   */\n      dup8\n        /* \"#utility.yul\":9695:9701   */\n      dup3\n        /* \"#utility.yul\":9684:9693   */\n      dup9\n        /* \"#utility.yul\":9680:9702   */\n      add\n        /* \"#utility.yul\":9659:9712   */\n      tag_65\n      jump\t// in\n    tag_170:\n        /* \"#utility.yul\":9649:9712   */\n      swap2\n      pop\n        /* \"#utility.yul\":9604:9722   */\n      pop\n        /* \"#utility.yul\":8604:9729   */\n      swap3\n      swap6\n      swap2\n      swap5\n      pop\n      swap3\n      pop\n      jump\t// out\n        /* \"#utility.yul\":9735:9915   */\n    tag_66:\n        /* \"#utility.yul\":9783:9860   */\n      0x4e487b7100000000000000000000000000000000000000000000000000000000\n        /* \"#utility.yul\":9780:9781   */\n      0x00\n        /* \"#utility.yul\":9773:9861   */\n      mstore\n        /* \"#utility.yul\":9880:9884   */\n      0x22\n        /* \"#utility.yul\":9877:9878   */\n      0x04\n        /* \"#utility.yul\":9870:9885   */\n      mstore\n        /* \"#utility.yul\":9904:9908   */\n      0x24\n        /* \"#utility.yul\":9901:9902   */\n      0x00\n        /* \"#utility.yul\":9894:9909   */\n      revert\n        /* \"#utility.yul\":9921:10241   */\n    tag_18:\n        /* \"#utility.yul\":9965:9971   */\n      0x00\n        /* \"#utility.yul\":10002:10003   */\n      0x02\n        /* \"#utility.yul\":9996:10000   */\n      dup3\n        /* \"#utility.yul\":9992:10004   */\n      div\n        /* \"#utility.yul\":9982:10004   */\n      swap1\n      pop\n        /* \"#utility.yul\":10049:10050   */\n      0x01\n        /* \"#utility.yul\":10043:10047   */\n      dup3\n        /* \"#utility.yul\":10039:10051   */\n      and\n        /* \"#utility.yul\":10070:10088   */\n      dup1\n        /* \"#utility.yul\":10060:10141   */\n      tag_173\n      jumpi\n        /* \"#utility.yul\":10126:10130   */\n      0x7f\n        /* \"#utility.yul\":10118:10124   */\n      dup3\n        /* \"#utility.yul\":10114:10131   */\n      and\n        /* \"#utility.yul\":10104:10131   */\n      swap2\n      pop\n        /* \"#utility.yul\":10060:10141   */\n    tag_173:\n        /* \"#utility.yul\":10188:10190   */\n      0x20\n        /* \"#utility.yul\":10180:10186   */\n      dup3\n        /* \"#utility.yul\":10177:10191   */\n      lt\n        /* \"#utility.yul\":10157:10175   */\n      dup2\n        /* \"#utility.yul\":10154:10192   */\n      sub\n        /* \"#utility.yul\":10151:10235   */\n      tag_174\n      jumpi\n        /* \"#utility.yul\":10207:10225   */\n      tag_175\n      tag_66\n      jump\t// in\n    tag_175:\n        /* \"#utility.yul\":10151:10235   */\n    tag_174:\n        /* \"#utility.yul\":9972:10241   */\n      pop\n        /* \"#utility.yul\":9921:10241   */\n      swap2\n      swap1\n      pop\n      jump\t// out\n        /* \"#utility.yul\":10247:10427   */\n    tag_67:\n        /* \"#utility.yul\":10295:10372   */\n      0x4e487b7100000000000000000000000000000000000000000000000000000000\n        /* \"#utility.yul\":10292:10293   */\n      0x00\n        /* \"#utility.yul\":10285:10373   */\n      mstore\n        /* \"#utility.yul\":10392:10396   */\n      0x11\n        /* \"#utility.yul\":10389:10390   */\n      0x04\n        /* \"#utility.yul\":10382:10397   */\n      mstore\n        /* \"#utility.yul\":10416:10420   */\n      0x24\n        /* \"#utility.yul\":10413:10414   */\n      0x00\n        /* \"#utility.yul\":10406:10421   */\n      revert\n        /* \"#utility.yul\":10433:10624   */\n    tag_30:\n        /* \"#utility.yul\":10473:10476   */\n      0x00\n        /* \"#utility.yul\":10492:10512   */\n      tag_178\n        /* \"#utility.yul\":10510:10511   */\n      dup3\n        /* \"#utility.yul\":10492:10512   */\n      tag_38\n      jump\t// in\n    tag_178:\n        /* \"#utility.yul\":10487:10512   */\n      swap2\n      pop\n        /* \"#utility.yul\":10526:10546   */\n      tag_179\n        /* \"#utility.yul\":10544:10545   */\n      dup4\n        /* \"#utility.yul\":10526:10546   */\n      tag_38\n      jump\t// in\n    tag_179:\n        /* \"#utility.yul\":10521:10546   */\n      swap3\n      pop\n        /* \"#utility.yul\":10569:10570   */\n      dup3\n        /* \"#utility.yul\":10566:10567   */\n      dup3\n        /* \"#utility.yul\":10562:10571   */\n      add\n        /* \"#utility.yul\":10555:10571   */\n      swap1\n      pop\n        /* \"#utility.yul\":10590:10593   */\n      dup1\n        /* \"#utility.yul\":10587:10588   */\n      dup3\n        /* \"#utility.yul\":10584:10594   */\n      gt\n        /* \"#utility.yul\":10581:10617   */\n      iszero\n      tag_180\n      jumpi\n        /* \"#utility.yul\":10597:10615   */\n      tag_181\n      tag_67\n      jump\t// in\n    tag_181:\n        /* \"#utility.yul\":10581:10617   */\n    tag_180:\n        /* \"#utility.yul\":10433:10624   */\n      swap3\n      swap2\n      pop\n      pop\n      jump\t// out\n        /* \"#utility.yul\":10630:10771   */\n    tag_68:\n        /* \"#utility.yul\":10679:10683   */\n      0x00\n        /* \"#utility.yul\":10702:10705   */\n      dup2\n        /* \"#utility.yul\":10694:10705   */\n      swap1\n      pop\n        /* \"#utility.yul\":10725:10728   */\n      dup2\n        /* \"#utility.yul\":10722:10723   */\n      0x00\n        /* \"#utility.yul\":10715:10729   */\n      mstore\n        /* \"#utility.yul\":10759:10763   */\n      0x20\n        /* \"#utility.yul\":10756:10757   */\n      0x00\n        /* \"#utility.yul\":10746:10764   */\n      keccak256\n        /* \"#utility.yul\":10738:10764   */\n      swap1\n      pop\n        /* \"#utility.yul\":10630:10771   */\n      swap2\n      swap1\n      pop\n      jump\t// out\n        /* \"#utility.yul\":10777:10870   */\n    tag_69:\n        /* \"#utility.yul\":10814:10820   */\n      0x00\n        /* \"#utility.yul\":10861:10863   */\n      0x20\n        /* \"#utility.yul\":10856:10858   */\n      0x1f\n        /* \"#utility.yul\":10849:10854   */\n      dup4\n        /* \"#utility.yul\":10845:10859   */\n      add\n        /* \"#utility.yul\":10841:10864   */\n      div\n        /* \"#utility.yul\":10831:10864   */\n      swap1\n      pop\n        /* \"#utility.yul\":10777:10870   */\n      swap2\n      swap1\n      pop\n      jump\t// out\n        /* \"#utility.yul\":10876:10983   */\n    tag_70:\n        /* \"#utility.yul\":10920:10928   */\n      0x00\n        /* \"#utility.yul\":10970:10975   */\n      dup3\n        /* \"#utility.yul\":10964:10968   */\n      dup3\n        /* \"#utility.yul\":10960:10976   */\n      shl\n        /* \"#utility.yul\":10939:10976   */\n      swap1\n      pop\n        /* \"#utility.yul\":10876:10983   */\n      swap3\n      swap2\n      pop\n      pop\n      jump\t// out\n        /* \"#utility.yul\":10989:11382   */\n    tag_71:\n        /* \"#utility.yul\":11058:11064   */\n      0x00\n        /* \"#utility.yul\":11108:11109   */\n      0x08\n        /* \"#utility.yul\":11096:11106   */\n      dup4\n        /* \"#utility.yul\":11092:11110   */\n      mul\n        /* \"#utility.yul\":11131:11228   */\n      tag_186\n        /* \"#utility.yul\":11161:11227   */\n      0xffffffffffffffffffffffffffffffffffffffffffffffffffffffffffffffff\n        /* \"#utility.yul\":11150:11159   */\n      dup3\n        /* \"#utility.yul\":11131:11228   */\n      tag_70\n      jump\t// in\n    tag_186:\n        /* \"#utility.yul\":11249:11288   */\n      tag_187\n        /* \"#utility.yul\":11279:11287   */\n      dup7\n        /* \"#utility.yul\":11268:11277   */\n      dup4\n        /* \"#utility.yul\":11249:11288   */\n      tag_70\n      jump\t// in\n    tag_187:\n        /* \"#utility.yul\":11237:11288   */\n      swap6\n      pop\n        /* \"#utility.yul\":11321:11325   */\n      dup1\n        /* \"#utility.yul\":11317:11326   */\n      not\n        /* \"#utility.yul\":11310:11315   */\n      dup5\n        /* \"#utility.yul\":11306:11327   */\n      and\n        /* \"#utility.yul\":11297:11327   */\n      swap4\n      pop\n        /* \"#utility.yul\":11370:11374   */\n      dup1\n        /* \"#utility.yul\":11360:11368   */\n      dup7\n        /* \"#utility.yul\":11356:11375   */\n      and\n        /* \"#utility.yul\":11349:11354   */\n      dup5\n        /* \"#utility.yul\":11346:11376   */\n      or\n        /* \"#utility.yul\":11336:11376   */\n      swap3\n      pop\n        /* \"#utility.yul\":11065:11382   */\n      pop\n      pop\n        /* \"#utility.yul\":10989:11382   */\n      swap4\n      swap3\n      pop\n      pop\n      pop\n      jump\t// out\n        /* \"#utility.yul\":11388:11448   */\n    tag_72:\n        /* \"#utility.yul\":11416:11419   */\n      0x00\n        /* \"#utility.yul\":11437:11442   */\n      dup2\n        /* \"#utility.yul\":11430:11442   */\n      swap1\n      pop\n        /* \"#utility.yul\":11388:11448   */\n      swap2\n      swap1\n      pop\n      jump\t// out\n        /* \"#utility.yul\":11454:11596   */\n    tag_73:\n        /* \"#utility.yul\":11504:11513   */\n      0x00\n        /* \"#utility.yul\":11537:11590   */\n      tag_190\n        /* \"#utility.yul\":11555:11589   */\n      tag_191\n        /* \"#utility.yul\":11564:11588   */\n      tag_192\n        /* \"#utility.yul\":11582:11587   */\n      dup5\n        /* \"#utility.yul\":11564:11588   */\n      tag_38\n      jump\t// in\n    tag_192:\n        /* \"#utility.yul\":11555:11589   */\n      tag_72\n      jump\t// in\n    tag_191:\n        /* \"#utility.yul\":11537:11590   */\n      tag_38\n      jump\t// in\n    tag_190:\n        /* \"#utility.yul\":11524:11590   */\n      swap1\n      pop\n        /* \"#utility.yul\":11454:11596   */\n      swap2\n      swap1\n      pop\n      jump\t// out\n        /* \"#utility.yul\":11602:11677   */\n    tag_74:\n        /* \"#utility.yul\":11645:11648   */\n      0x00\n        /* \"#utility.yul\":11666:11671   */\n      dup2\n        /* \"#utility.yul\":11659:11671   */\n      swap1\n      pop\n        /* \"#utility.yul\":11602:11677   */\n      swap2\n      swap1\n      pop\n      jump\t// out\n        /* \"#utility.yul\":11683:11952   */\n    tag_75:\n        /* \"#utility.yul\":11793:11832   */\n      tag_195\n        /* \"#utility.yul\":11824:11831   */\n      dup4\n        /* \"#utility.yul\":11793:11832   */\n      tag_73\n      jump\t// in\n    tag_195:\n        /* \"#utility.yul\":11854:11945   */\n      tag_196\n        /* \"#utility.yul\":11903:11944   */\n      tag_197\n        /* \"#utility.yul\":11927:11943   */\n      dup3\n        /* \"#utility.yul\":11903:11944   */\n      tag_74\n      jump\t// in\n    tag_197:\n        /* \"#utility.yul\":11895:11901   */\n      dup5\n        /* \"#utility.yul\":11888:11892   */\n      dup5\n        /* \"#utility.yul\":11882:11893   */\n      sload\n        /* \"#utility.yul\":11854:11945   */\n      tag_71\n      jump\t// in\n    tag_196:\n        /* \"#utility.yul\":11848:11852   */\n      dup3\n        /* \"#utility.yul\":11841:11946   */\n      sstore\n        /* \"#utility.yul\":11759:11952   */\n      pop\n        /* \"#utility.yul\":11683:11952   */\n      pop\n      pop\n      pop\n      jump\t// out\n        /* \"#utility.yul\":11958:12031   */\n    tag_76:\n        /* \"#utility.yul\":12003:12006   */\n      0x00\n        /* \"#utility.yul\":11958:12031   */\n      swap1\n      jump\t// out\n        /* \"#utility.yul\":12037:12226   */\n    tag_77:\n        /* \"#utility.yul\":12114:12146   */\n      tag_200\n      tag_76\n      jump\t// in\n    tag_200:\n        /* \"#utility.yul\":12155:12220   */\n      tag_201\n        /* \"#utility.yul\":12213:12219   */\n      dup2\n        /* \"#utility.yul\":12205:12211   */\n      dup5\n        /* \"#utility.yul\":12199:12203   */\n      dup5\n        /* \"#utility.yul\":12155:12220   */\n      tag_75\n      jump\t// in\n    tag_201:\n        /* \"#utility.yul\":12090:12226   */\n      pop\n        /* \"#utility.yul\":12037:12226   */\n      pop\n      pop\n      jump\t// out\n        /* \"#utility.yul\":12232:12418   */\n    tag_78:\n        /* \"#utility.yul\":12292:12412   */\n    tag_203:\n        /* \"#utility.yul\":12309:12312   */\n      dup2\n        /* \"#utility.yul\":12302:12307   */\n      dup2\n        /* \"#utility.yul\":12299:12313   */\n      lt\n        /* \"#utility.yul\":12292:12412   */\n      iszero\n      tag_205\n      jumpi\n        /* \"#utility.yul\":12363:12402   */\n      tag_206\n        /* \"#utility.yul\":12400:12401   */\n      0x00\n        /* \"#utility.yul\":12393:12398   */\n      dup3\n        /* \"#utility.yul\":12363:12402   */\n      tag_77\n      jump\t// in\n    tag_206:\n        /* \"#utility.yul\":12336:12337   */\n      0x01\n        /* \"#utility.yul\":12329:12334   */\n      dup2\n        /* \"#utility.yul\":12325:12338   */\n      add\n        /* \"#utility.yul\":12316:12338   */\n      swap1\n      pop\n        /* \"#utility.yul\":12292:12412   */\n      jump(tag_203)\n    tag_205:\n        /* \"#utility.yul\":12232:12418   */\n      pop\n      pop\n      jump\t// out\n        /* \"#utility.yul\":12424:12967   */\n    tag_79:\n        /* \"#utility.yul\":12525:12527   */\n      0x1f\n        /* \"#utility.yul\":12520:12523   */\n      dup3\n        /* \"#utility.yul\":12517:12528   */\n      gt\n        /* \"#utility.yul\":12514:12960   */\n      iszero\n      tag_208\n      jumpi\n        /* \"#utility.yul\":12559:12597   */\n      tag_209\n        /* \"#utility.yul\":12591:12596   */\n      dup2\n        /* \"#utility.yul\":12559:12597   */\n      tag_68\n      jump\t// in\n    tag_209:\n        /* \"#utility.yul\":12643:12672   */\n      tag_210\n        /* \"#utility.yul\":12661:12671   */\n      dup5\n        /* \"#utility.yul\":12643:12672   */\n      tag_69\n      jump\t// in\n    tag_210:\n        /* \"#utility.yul\":12633:12641   */\n      dup2\n        /* \"#utility.yul\":12629:12673   */\n      add\n        /* \"#utility.yul\":12826:12828   */\n      0x20\n        /* \"#utility.yul\":12814:12824   */\n      dup6\n        /* \"#utility.yul\":12811:12829   */\n      lt\n        /* \"#utility.yul\":12808:12857   */\n      iszero\n      tag_211\n      jumpi\n        /* \"#utility.yul\":12847:12855   */\n      dup2\n        /* \"#utility.yul\":12832:12855   */\n      swap1\n      pop\n        /* \"#utility.yul\":12808:12857   */\n    tag_211:\n        /* \"#utility.yul\":12870:12950   */\n      tag_212\n        /* \"#utility.yul\":12926:12948   */\n      tag_213\n        /* \"#utility.yul\":12944:12947   */\n      dup6\n        /* \"#utility.yul\":12926:12948   */\n      tag_69\n      jump\t// in\n    tag_213:\n        /* \"#utility.yul\":12916:12924   */\n      dup4\n        /* \"#utility.yul\":12912:12949   */\n      add\n        /* \"#utility.yul\":12899:12910   */\n      dup3\n        /* \"#utility.yul\":12870:12950   */\n      tag_78\n      jump\t// in\n    tag_212:\n        /* \"#utility.yul\":12529:12960   */\n      pop\n      pop\n        /* \"#utility.yul\":12514:12960   */\n    tag_208:\n        /* \"#utility.yul\":12424:12967   */\n      pop\n      pop\n      pop\n      jump\t// out\n        /* \"#utility.yul\":12973:13090   */\n    tag_80:\n        /* \"#utility.yul\":13027:13035   */\n      0x00\n        /* \"#utility.yul\":13077:13082   */\n      dup3\n        /* \"#utility.yul\":13071:13075   */\n      dup3\n        /* \"#utility.yul\":13067:13083   */\n      shr\n        /* \"#utility.yul\":13046:13083   */\n      swap1\n      pop\n        /* \"#utility.yul\":12973:13090   */\n      swap3\n      swap2\n      pop\n      pop\n      jump\t// out\n        /* \"#utility.yul\":13096:13265   */\n    tag_81:\n        /* \"#utility.yul\":13140:13146   */\n      0x00\n        /* \"#utility.yul\":13173:13224   */\n      tag_216\n        /* \"#utility.yul\":13221:13222   */\n      0x00\n        /* \"#utility.yul\":13217:13223   */\n      not\n        /* \"#utility.yul\":13209:13214   */\n      dup5\n        /* \"#utility.yul\":13206:13207   */\n      0x08\n        /* \"#utility.yul\":13202:13215   */\n      mul\n        /* \"#utility.yul\":13173:13224   */\n      tag_80\n      jump\t// in\n    tag_216:\n        /* \"#utility.yul\":13169:13225   */\n      not\n        /* \"#utility.yul\":13254:13258   */\n      dup1\n        /* \"#utility.yul\":13248:13252   */\n      dup4\n        /* \"#utility.yul\":13244:13259   */\n      and\n        /* \"#utility.yul\":13234:13259   */\n      swap2\n      pop\n        /* \"#utility.yul\":13147:13265   */\n      pop\n        /* \"#utility.yul\":13096:13265   */\n      swap3\n      swap2\n      pop\n      pop\n      jump\t// out\n        /* \"#utility.yul\":13270:13565   */\n    tag_82:\n        /* \"#utility.yul\":13346:13350   */\n      0x00\n        /* \"#utility.yul\":13492:13521   */\n      tag_218\n        /* \"#utility.yul\":13517:13520   */\n      dup4\n        /* \"#utility.yul\":13511:13515   */\n      dup4\n        /* \"#utility.yul\":13492:13521   */\n      tag_81\n      jump\t// in\n    tag_218:\n        /* \"#utility.yul\":13484:13521   */\n      swap2\n      pop\n        /* \"#utility.yul\":13554:13557   */\n      dup3\n        /* \"#utility.yul\":13551:13552   */\n      0x02\n        /* \"#utility.yul\":13547:13558   */\n      mul\n        /* \"#utility.yul\":13541:13545   */\n      dup3\n        /* \"#utility.yul\":13538:13559   */\n      or\n        /* \"#utility.yul\":13530:13559   */\n      swap1\n      pop\n        /* \"#utility.yul\":13270:13565   */\n      swap3\n      swap2\n      pop\n      pop\n      jump\t// out\n        /* \"#utility.yul\":13570:14965   */\n    tag_33:\n        /* \"#utility.yul\":13687:13724   */\n      tag_220\n        /* \"#utility.yul\":13720:13723   */\n      dup3\n        /* \"#utility.yul\":13687:13724   */\n      tag_40\n      jump\t// in\n    tag_220:\n        /* \"#utility.yul\":13789:13807   */\n      0xffffffffffffffff\n        /* \"#utility.yul\":13781:13787   */\n      dup2\n        /* \"#utility.yul\":13778:13808   */\n      gt\n        /* \"#utility.yul\":13775:13831   */\n      iszero\n      tag_221\n      jumpi\n        /* \"#utility.yul\":13811:13829   */\n      tag_222\n      tag_57\n      jump\t// in\n    tag_222:\n        /* \"#utility.yul\":13775:13831   */\n    tag_221:\n        /* \"#utility.yul\":13855:13893   */\n      tag_223\n        /* \"#utility.yul\":13887:13891   */\n      dup3\n        /* \"#utility.yul\":13881:13892   */\n      sload\n        /* \"#utility.yul\":13855:13893   */\n      tag_18\n      jump\t// in\n    tag_223:\n        /* \"#utility.yul\":13940:14007   */\n      tag_224\n        /* \"#utility.yul\":14000:14006   */\n      dup3\n        /* \"#utility.yul\":13992:13998   */\n      dup3\n        /* \"#utility.yul\":13986:13990   */\n      dup6\n        /* \"#utility.yul\":13940:14007   */\n      tag_79\n      jump\t// in\n    tag_224:\n        /* \"#utility.yul\":14034:14035   */\n      0x00\n        /* \"#utility.yul\":14058:14062   */\n      0x20\n        /* \"#utility.yul\":14045:14062   */\n      swap1\n      pop\n        /* \"#utility.yul\":14090:14092   */\n      0x1f\n        /* \"#utility.yul\":14082:14088   */\n      dup4\n        /* \"#utility.yul\":14079:14093   */\n      gt\n        /* \"#utility.yul\":14107:14108   */\n      0x01\n        /* \"#utility.yul\":14102:14720   */\n      dup2\n      eq\n      tag_226\n      jumpi\n        /* \"#utility.yul\":14764:14765   */\n      0x00\n        /* \"#utility.yul\":14781:14787   */\n      dup5\n        /* \"#utility.yul\":14778:14855   */\n      iszero\n      tag_227\n      jumpi\n        /* \"#utility.yul\":14830:14839   */\n      dup3\n        /* \"#utility.yul\":14825:14828   */\n      dup8\n        /* \"#utility.yul\":14821:14840   */\n      add\n        /* \"#utility.yul\":14815:14841   */\n      mload\n        /* \"#utility.yul\":14806:14841   */\n      swap1\n      pop\n        /* \"#utility.yul\":14778:14855   */\n    tag_227:\n        /* \"#utility.yul\":14881:14948   */\n      tag_228\n        /* \"#utility.yul\":14941:14947   */\n      dup6\n        /* \"#utility.yul\":14934:14939   */\n      dup3\n        /* \"#utility.yul\":14881:14948   */\n      tag_82\n      jump\t// in\n    tag_228:\n        /* \"#utility.yul\":14875:14879   */\n      dup7\n        /* \"#utility.yul\":14868:14949   */\n      sstore\n        /* \"#utility.yul\":14737:14959   */\n      pop\n        /* \"#utility.yul\":14072:14959   */\n      jump(tag_225)\n        /* \"#utility.yul\":14102:14720   */\n    tag_226:\n        /* \"#utility.yul\":14154:14158   */\n      0x1f\n        /* \"#utility.yul\":14150:14159   */\n      not\n        /* \"#utility.yul\":14142:14148   */\n      dup5\n        /* \"#utility.yul\":14138:14160   */\n      and\n        /* \"#utility.yul\":14188:14225   */\n      tag_229\n        /* \"#utility.yul\":14220:14224   */\n      dup7\n        /* \"#utility.yul\":14188:14225   */\n      tag_68\n      jump\t// in\n    tag_229:\n        /* \"#utility.yul\":14247:14248   */\n      0x00\n        /* \"#utility.yul\":14261:14469   */\n    tag_230:\n        /* \"#utility.yul\":14275:14282   */\n      dup3\n        /* \"#utility.yul\":14272:14273   */\n      dup2\n        /* \"#utility.yul\":14269:14283   */\n      lt\n        /* \"#utility.yul\":14261:14469   */\n      iszero\n      tag_232\n      jumpi\n        /* \"#utility.yul\":14354:14363   */\n      dup5\n        /* \"#utility.yul\":14349:14352   */\n      dup10\n        /* \"#utility.yul\":14345:14364   */\n      add\n        /* \"#utility.yul\":14339:14365   */\n      mload\n        /* \"#utility.yul\":14331:14337   */\n      dup3\n        /* \"#utility.yul\":14324:14366   */\n      sstore\n        /* \"#utility.yul\":14405:14406   */\n      0x01\n        /* \"#utility.yul\":14397:14403   */\n      dup3\n        /* \"#utility.yul\":14393:14407   */\n      add\n        /* \"#utility.yul\":14383:14407   */\n      swap2\n      pop\n        /* \"#utility.yul\":14452:14454   */\n      0x20\n        /* \"#utility.yul\":14441:14450   */\n      dup6\n        /* \"#utility.yul\":14437:14455   */\n      add\n        /* \"#utility.yul\":14424:14455   */\n      swap5\n      pop\n        /* \"#utility.yul\":14298:14302   */\n      0x20\n        /* \"#utility.yul\":14295:14296   */\n      dup2\n        /* \"#utility.yul\":14291:14303   */\n      add\n        /* \"#utility.yul\":14286:14303   */\n      swap1\n      pop\n        /* \"#utility.yul\":14261:14469   */\n      jump(tag_230)\n    tag_232:\n        /* \"#utility.yul\":14497:14503   */\n      dup7\n        /* \"#utility.yul\":14488:14495   */\n      dup4\n        /* \"#utility.yul\":14485:14504   */\n      lt\n        /* \"#utility.yul\":14482:14661   */\n      iszero\n      tag_233\n      jumpi\n        /* \"#utility.yul\":14555:14564   */\n      dup5\n        /* \"#utility.yul\":14550:14553   */\n      dup10\n        /* \"#utility.yul\":14546:14565   */\n      add\n        /* \"#utility.yul\":14540:14566   */\n      mload\n        /* \"#utility.yul\":14598:14646   */\n      tag_234\n        /* \"#utility.yul\":14640:14644   */\n      0x1f\n        /* \"#utility.yul\":14632:14638   */\n      dup10\n        /* \"#utility.yul\":14628:14645   */\n      and\n        /* \"#utility.yul\":14617:14626   */\n      dup3\n        /* \"#utility.yul\":14598:14646   */\n      tag_81\n      jump\t// in\n    tag_234:\n        /* \"#utility.yul\":14590:14596   */\n      dup4\n        /* \"#utility.yul\":14583:14647   */\n      sstore\n        /* \"#utility.yul\":14505:14661   */\n      pop\n        /* \"#utility.yul\":14482:14661   */\n    tag_233:\n        /* \"#utility.yul\":14707:14708   */\n      0x01\n        /* \"#utility.yul\":14703:14704   */\n      0x02\n        /* \"#utility.yul\":14695:14701   */\n      dup9\n        /* \"#utility.yul\":14691:14705   */\n      mul\n        /* \"#utility.yul\":14687:14709   */\n      add\n        /* \"#utility.yul\":14681:14685   */\n      dup9\n        /* \"#utility.yul\":14674:14710   */\n      sstore\n        /* \"#utility.yul\":14109:14720   */\n      pop\n      pop\n      pop\n        /* \"#utility.yul\":14072:14959   */\n    tag_225:\n      pop\n        /* \"#utility.yul\":13662:14965   */\n      pop\n      pop\n      pop\n        /* \"#utility.yul\":13570:14965   */\n      pop\n      pop\n      jump\t// out\n\n    auxdata: 0xa2646970667358221220c731df0815a6d88a4bcb8b82f35df3e677f42f8521436e82b746a65d2289470564736f6c634300081a0033\n}\n",
				"bytecode": {
					"linkReferences": {},
					"object": "6080604052348015600e575f80fd5b50335f806101000a81548173ffffffffffffffffffffffffffffffffffffffff021916908373ffffffffffffffffffffffffffffffffffffffff160217905550610b648061005b5f395ff3fe608060405234801561000f575f80fd5b5060043610610034575f3560e01c806386cdf60414610038578063a318f26914610056575b5f80fd5b610040610072565b60405161004d91906105e2565b60405180910390f35b610070600480360381019061006b9190610769565b610275565b005b60606001805480602002602001604051908101604052809291908181526020015f905b8282101561026c578382905f5260205f209060080201604051806101000160405290815f82015481526020016001820180546100d090610832565b80601f01602080910402602001604051908101604052809291908181526020018280546100fc90610832565b80156101475780601f1061011e57610100808354040283529160200191610147565b820191905f5260205f20905b81548152906001019060200180831161012a57829003601f168201915b5050505050815260200160028201805461016090610832565b80601f016020809104026020016040519081016040528092919081815260200182805461018c90610832565b80156101d75780601f106101ae576101008083540402835291602001916101d7565b820191905f5260205f20905b8154815290600101906020018083116101ba57829003601f168201915b50505050508152602001600382015f9054906101000a900473ffffffffffffffffffffffffffffffffffffffff1673ffffffffffffffffffffffffffffffffffffffff1673ffffffffffffffffffffffffffffffffffffffff16815260200160048201548152602001600582015481526020016006820154815260200160078201548152505081526020019060010190610095565b50505050905090565b5f60405180610100016040528060018054905081526020018681526020018581526020013373ffffffffffffffffffffffffffffffffffffffff1681526020015f815260200183815260200142815260200184426102d3919061088f565b8152509050600181908060018154018082558091505060019003905f5260205f2090600802015f909190919091505f820151815f0155602082015181600101908161031e9190610a5f565b5060408201518160020190816103349190610a5f565b506060820151816003015f6101000a81548173ffffffffffffffffffffffffffffffffffffffff021916908373ffffffffffffffffffffffffffffffffffffffff1602179055506080820151816004015560a0820151816005015560c0820151816006015560e0820151816007015550505050505050565b5f81519050919050565b5f82825260208201905092915050565b5f819050602082019050919050565b5f819050919050565b6103e7816103d5565b82525050565b5f81519050919050565b5f82825260208201905092915050565b8281835e5f83830152505050565b5f601f19601f8301169050919050565b5f61042f826103ed565b61043981856103f7565b9350610449818560208601610407565b61045281610415565b840191505092915050565b5f73ffffffffffffffffffffffffffffffffffffffff82169050919050565b5f6104868261045d565b9050919050565b6104968161047c565b82525050565b5f61010083015f8301516104b25f8601826103de565b50602083015184820360208601526104ca8282610425565b915050604083015184820360408601526104e48282610425565b91505060608301516104f9606086018261048d565b50608083015161050c60808601826103de565b5060a083015161051f60a08601826103de565b5060c083015161053260c08601826103de565b5060e083015161054560e08601826103de565b508091505092915050565b5f61055b838361049c565b905092915050565b5f602082019050919050565b5f610579826103ac565b61058381856103b6565b935083602082028501610595856103c6565b805f5b858110156105d057848403895281516105b18582610550565b94506105bc83610563565b925060208a01995050600181019050610598565b50829750879550505050505092915050565b5f6020820190508181035f8301526105fa818461056f565b905092915050565b5f604051905090565b5f80fd5b5f80fd5b5f80fd5b5f80fd5b7f4e487b71000000000000000000000000000000000000000000000000000000005f52604160045260245ffd5b61065182610415565b810181811067ffffffffffffffff821117156106705761066f61061b565b5b80604052505050565b5f610682610602565b905061068e8282610648565b919050565b5f67ffffffffffffffff8211156106ad576106ac61061b565b5b6106b682610415565b9050602081019050919050565b828183375f83830152505050565b5f6106e36106de84610693565b610679565b9050828152602081018484840111156106ff576106fe610617565b5b61070a8482856106c3565b509392505050565b5f82601f83011261072657610725610613565b5b81356107368482602086016106d1565b91505092915050565b610748816103d5565b8114610752575f80fd5b50565b5f813590506107638161073f565b92915050565b5f805f80608085870312156107815761078061060b565b5b5f85013567ffffffffffffffff81111561079e5761079d61060f565b5b6107aa87828801610712565b945050602085013567ffffffffffffffff8111156107cb576107ca61060f565b5b6107d787828801610712565b93505060406107e887828801610755565b92505060606107f987828801610755565b91505092959194509250565b7f4e487b71000000000000000000000000000000000000000000000000000000005f52602260045260245ffd5b5f600282049050600182168061084957607f821691505b60208210810361085c5761085b610805565b5b50919050565b7f4e487b71000000000000000000000000000000000000000000000000000000005f52601160045260245ffd5b5f610899826103d5565b91506108a4836103d5565b92508282019050808211156108bc576108bb610862565b5b92915050565b5f819050815f5260205f209050919050565b5f6020601f8301049050919050565b5f82821b905092915050565b5f6008830261091e7fffffffffffffffffffffffffffffffffffffffffffffffffffffffffffffffff826108e3565b61092886836108e3565b95508019841693508086168417925050509392505050565b5f819050919050565b5f61096361095e610959846103d5565b610940565b6103d5565b9050919050565b5f819050919050565b61097c83610949565b6109906109888261096a565b8484546108ef565b825550505050565b5f90565b6109a4610998565b6109af818484610973565b505050565b5b818110156109d2576109c75f8261099c565b6001810190506109b5565b5050565b601f821115610a17576109e8816108c2565b6109f1846108d4565b81016020851015610a00578190505b610a14610a0c856108d4565b8301826109b4565b50505b505050565b5f82821c905092915050565b5f610a375f1984600802610a1c565b1980831691505092915050565b5f610a4f8383610a28565b9150826002028217905092915050565b610a68826103ed565b67ffffffffffffffff811115610a8157610a8061061b565b5b610a8b8254610832565b610a968282856109d6565b5f60209050601f831160018114610ac7575f8415610ab5578287015190505b610abf8582610a44565b865550610b26565b601f198416610ad5866108c2565b5f5b82811015610afc57848901518255600182019150602085019450602081019050610ad7565b86831015610b195784890151610b15601f891682610a28565b8355505b6001600288020188555050505b50505050505056fea2646970667358221220c731df0815a6d88a4bcb8b82f35df3e677f42f8521436e82b746a65d2289470564736f6c634300081a0033",
					"opcodes": "PUSH1 0x80 PUSH1 0x40 MSTORE CALLVALUE DUP1 ISZERO PUSH1 0xE JUMPI PUSH0 DUP1 REVERT JUMPDEST POP CALLER PUSH0 DUP1 PUSH2 0x100 EXP DUP2 SLOAD DUP2 PUSH20 0xFFFFFFFFFFFFFFFFFFFFFFFFFFFFFFFFFFFFFFFF MUL NOT AND SWAP1 DUP4 PUSH20 0xFFFFFFFFFFFFFFFFFFFFFFFFFFFFFFFFFFFFFFFF AND MUL OR SWAP1 SSTORE POP PUSH2 0xB64 DUP1 PUSH2 0x5B PUSH0 CODECOPY PUSH0 RETURN INVALID PUSH1 0x80 PUSH1 0x40 MSTORE CALLVALUE DUP1 ISZERO PUSH2 0xF JUMPI PUSH0 DUP1 REVERT JUMPDEST POP PUSH1 0x4 CALLDATASIZE LT PUSH2 0x34 JUMPI PUSH0 CALLDATALOAD PUSH1 0xE0 SHR DUP1 PUSH4 0x86CDF604 EQ PUSH2 0x38 JUMPI DUP1 PUSH4 0xA318F269 EQ PUSH2 0x56 JUMPI JUMPDEST PUSH0 DUP1 REVERT JUMPDEST PUSH2 0x40 PUSH2 0x72 JUMP JUMPDEST PUSH1 0x40 MLOAD PUSH2 0x4D SWAP2 SWAP1 PUSH2 0x5E2 JUMP JUMPDEST PUSH1 0x40 MLOAD DUP1 SWAP2 SUB SWAP1 RETURN JUMPDEST PUSH2 0x70 PUSH1 0x4 DUP1 CALLDATASIZE SUB DUP2 ADD SWAP1 PUSH2 0x6B SWAP2 SWAP1 PUSH2 0x769 JUMP JUMPDEST PUSH2 0x275 JUMP JUMPDEST STOP JUMPDEST PUSH1 0x60 PUSH1 0x1 DUP1 SLOAD DUP1 PUSH1 0x20 MUL PUSH1 0x20 ADD PUSH1 0x40 MLOAD SWAP1 DUP2 ADD PUSH1 0x40 MSTORE DUP1 SWAP3 SWAP2 SWAP1 DUP2 DUP2 MSTORE PUSH1 0x20 ADD PUSH0 SWAP1 JUMPDEST DUP3 DUP3 LT ISZERO PUSH2 0x26C JUMPI DUP4 DUP3 SWAP1 PUSH0 MSTORE PUSH1 0x20 PUSH0 KECCAK256 SWAP1 PUSH1 0x8 MUL ADD PUSH1 0x40 MLOAD DUP1 PUSH2 0x100 ADD PUSH1 0x40 MSTORE SWAP1 DUP2 PUSH0 DUP3 ADD SLOAD DUP2 MSTORE PUSH1 0x20 ADD PUSH1 0x1 DUP3 ADD DUP1 SLOAD PUSH2 0xD0 SWAP1 PUSH2 0x832 JUMP JUMPDEST DUP1 PUSH1 0x1F ADD PUSH1 0x20 DUP1 SWAP2 DIV MUL PUSH1 0x20 ADD PUSH1 0x40 MLOAD SWAP1 DUP2 ADD PUSH1 0x40 MSTORE DUP1 SWAP3 SWAP2 SWAP1 DUP2 DUP2 MSTORE PUSH1 0x20 ADD DUP3 DUP1 SLOAD PUSH2 0xFC SWAP1 PUSH2 0x832 JUMP JUMPDEST DUP1 ISZERO PUSH2 0x147 JUMPI DUP1 PUSH1 0x1F LT PUSH2 0x11E JUMPI PUSH2 0x100 DUP1 DUP4 SLOAD DIV MUL DUP4 MSTORE SWAP2 PUSH1 0x20 ADD SWAP2 PUSH2 0x147 JUMP JUMPDEST DUP3 ADD SWAP2 SWAP1 PUSH0 MSTORE PUSH1 0x20 PUSH0 KECCAK256 SWAP1 JUMPDEST DUP2 SLOAD DUP2 MSTORE SWAP1 PUSH1 0x1 ADD SWAP1 PUSH1 0x20 ADD DUP1 DUP4 GT PUSH2 0x12A JUMPI DUP3 SWAP1 SUB PUSH1 0x1F AND DUP3 ADD SWAP2 JUMPDEST POP POP POP POP POP DUP2 MSTORE PUSH1 0x20 ADD PUSH1 0x2 DUP3 ADD DUP1 SLOAD PUSH2 0x160 SWAP1 PUSH2 0x832 JUMP JUMPDEST DUP1 PUSH1 0x1F ADD PUSH1 0x20 DUP1 SWAP2 DIV MUL PUSH1 0x20 ADD PUSH1 0x40 MLOAD SWAP1 DUP2 ADD PUSH1 0x40 MSTORE DUP1 SWAP3 SWAP2 SWAP1 DUP2 DUP2 MSTORE PUSH1 0x20 ADD DUP3 DUP1 SLOAD PUSH2 0x18C SWAP1 PUSH2 0x832 JUMP JUMPDEST DUP1 ISZERO PUSH2 0x1D7 JUMPI DUP1 PUSH1 0x1F LT PUSH2 0x1AE JUMPI PUSH2 0x100 DUP1 DUP4 SLOAD DIV MUL DUP4 MSTORE SWAP2 PUSH1 0x20 ADD SWAP2 PUSH2 0x1D7 JUMP JUMPDEST DUP3 ADD SWAP2 SWAP1 PUSH0 MSTORE PUSH1 0x20 PUSH0 KECCAK256 SWAP1 JUMPDEST DUP2 SLOAD DUP2 MSTORE SWAP1 PUSH1 0x1 ADD SWAP1 PUSH1 0x20 ADD DUP1 DUP4 GT PUSH2 0x1BA JUMPI DUP3 SWAP1 SUB PUSH1 0x1F AND DUP3 ADD SWAP2 JUMPDEST POP POP POP POP POP DUP2 MSTORE PUSH1 0x20 ADD PUSH1 0x3 DUP3 ADD PUSH0 SWAP1 SLOAD SWAP1 PUSH2 0x100 EXP SWAP1 DIV PUSH20 0xFFFFFFFFFFFFFFFFFFFFFFFFFFFFFFFFFFFFFFFF AND PUSH20 0xFFFFFFFFFFFFFFFFFFFFFFFFFFFFFFFFFFFFFFFF AND PUSH20 0xFFFFFFFFFFFFFFFFFFFFFFFFFFFFFFFFFFFFFFFF AND DUP2 MSTORE PUSH1 0x20 ADD PUSH1 0x4 DUP3 ADD SLOAD DUP2 MSTORE PUSH1 0x20 ADD PUSH1 0x5 DUP3 ADD SLOAD DUP2 MSTORE PUSH1 0x20 ADD PUSH1 0x6 DUP3 ADD SLOAD DUP2 MSTORE PUSH1 0x20 ADD PUSH1 0x7 DUP3 ADD SLOAD DUP2 MSTORE POP POP DUP2 MSTORE PUSH1 0x20 ADD SWAP1 PUSH1 0x1 ADD SWAP1 PUSH2 0x95 JUMP JUMPDEST POP POP POP POP SWAP1 POP SWAP1 JUMP JUMPDEST PUSH0 PUSH1 0x40 MLOAD DUP1 PUSH2 0x100 ADD PUSH1 0x40 MSTORE DUP1 PUSH1 0x1 DUP1 SLOAD SWAP1 POP DUP2 MSTORE PUSH1 0x20 ADD DUP7 DUP2 MSTORE PUSH1 0x20 ADD DUP6 DUP2 MSTORE PUSH1 0x20 ADD CALLER PUSH20 0xFFFFFFFFFFFFFFFFFFFFFFFFFFFFFFFFFFFFFFFF AND DUP2 MSTORE PUSH1 0x20 ADD PUSH0 DUP2 MSTORE PUSH1 0x20 ADD DUP4 DUP2 MSTORE PUSH1 0x20 ADD TIMESTAMP DUP2 MSTORE PUSH1 0x20 ADD DUP5 TIMESTAMP PUSH2 0x2D3 SWAP2 SWAP1 PUSH2 0x88F JUMP JUMPDEST DUP2 MSTORE POP SWAP1 POP PUSH1 0x1 DUP2 SWAP1 DUP1 PUSH1 0x1 DUP2 SLOAD ADD DUP1 DUP3 SSTORE DUP1 SWAP2 POP POP PUSH1 0x1 SWAP1 SUB SWAP1 PUSH0 MSTORE PUSH1 0x20 PUSH0 KECCAK256 SWAP1 PUSH1 0x8 MUL ADD PUSH0 SWAP1 SWAP2 SWAP1 SWAP2 SWAP1 SWAP2 POP PUSH0 DUP3 ADD MLOAD DUP2 PUSH0 ADD SSTORE PUSH1 0x20 DUP3 ADD MLOAD DUP2 PUSH1 0x1 ADD SWAP1 DUP2 PUSH2 0x31E SWAP2 SWAP1 PUSH2 0xA5F JUMP JUMPDEST POP PUSH1 0x40 DUP3 ADD MLOAD DUP2 PUSH1 0x2 ADD SWAP1 DUP2 PUSH2 0x334 SWAP2 SWAP1 PUSH2 0xA5F JUMP JUMPDEST POP PUSH1 0x60 DUP3 ADD MLOAD DUP2 PUSH1 0x3 ADD PUSH0 PUSH2 0x100 EXP DUP2 SLOAD DUP2 PUSH20 0xFFFFFFFFFFFFFFFFFFFFFFFFFFFFFFFFFFFFFFFF MUL NOT AND SWAP1 DUP4 PUSH20 0xFFFFFFFFFFFFFFFFFFFFFFFFFFFFFFFFFFFFFFFF AND MUL OR SWAP1 SSTORE POP PUSH1 0x80 DUP3 ADD MLOAD DUP2 PUSH1 0x4 ADD SSTORE PUSH1 0xA0 DUP3 ADD MLOAD DUP2 PUSH1 0x5 ADD SSTORE PUSH1 0xC0 DUP3 ADD MLOAD DUP2 PUSH1 0x6 ADD SSTORE PUSH1 0xE0 DUP3 ADD MLOAD DUP2 PUSH1 0x7 ADD SSTORE POP POP POP POP POP POP POP JUMP JUMPDEST PUSH0 DUP2 MLOAD SWAP1 POP SWAP2 SWAP1 POP JUMP JUMPDEST PUSH0 DUP3 DUP3 MSTORE PUSH1 0x20 DUP3 ADD SWAP1 POP SWAP3 SWAP2 POP POP JUMP JUMPDEST PUSH0 DUP2 SWAP1 POP PUSH1 0x20 DUP3 ADD SWAP1 POP SWAP2 SWAP1 POP JUMP JUMPDEST PUSH0 DUP2 SWAP1 POP SWAP2 SWAP1 POP JUMP JUMPDEST PUSH2 0x3E7 DUP2 PUSH2 0x3D5 JUMP JUMPDEST DUP3 MSTORE POP POP JUMP JUMPDEST PUSH0 DUP2 MLOAD SWAP1 POP SWAP2 SWAP1 POP JUMP JUMPDEST PUSH0 DUP3 DUP3 MSTORE PUSH1 0x20 DUP3 ADD SWAP1 POP SWAP3 SWAP2 POP POP JUMP JUMPDEST DUP3 DUP2 DUP4 MCOPY PUSH0 DUP4 DUP4 ADD MSTORE POP POP POP JUMP JUMPDEST PUSH0 PUSH1 0x1F NOT PUSH1 0x1F DUP4 ADD AND SWAP1 POP SWAP2 SWAP1 POP JUMP JUMPDEST PUSH0 PUSH2 0x42F DUP3 PUSH2 0x3ED JUMP JUMPDEST PUSH2 0x439 DUP2 DUP6 PUSH2 0x3F7 JUMP JUMPDEST SWAP4 POP PUSH2 0x449 DUP2 DUP6 PUSH1 0x20 DUP7 ADD PUSH2 0x407 JUMP JUMPDEST PUSH2 0x452 DUP2 PUSH2 0x415 JUMP JUMPDEST DUP5 ADD SWAP2 POP POP SWAP3 SWAP2 POP POP JUMP JUMPDEST PUSH0 PUSH20 0xFFFFFFFFFFFFFFFFFFFFFFFFFFFFFFFFFFFFFFFF DUP3 AND SWAP1 POP SWAP2 SWAP1 POP JUMP JUMPDEST PUSH0 PUSH2 0x486 DUP3 PUSH2 0x45D JUMP JUMPDEST SWAP1 POP SWAP2 SWAP1 POP JUMP JUMPDEST PUSH2 0x496 DUP2 PUSH2 0x47C JUMP JUMPDEST DUP3 MSTORE POP POP JUMP JUMPDEST PUSH0 PUSH2 0x100 DUP4 ADD PUSH0 DUP4 ADD MLOAD PUSH2 0x4B2 PUSH0 DUP7 ADD DUP3 PUSH2 0x3DE JUMP JUMPDEST POP PUSH1 0x20 DUP4 ADD MLOAD DUP5 DUP3 SUB PUSH1 0x20 DUP7 ADD MSTORE PUSH2 0x4CA DUP3 DUP3 PUSH2 0x425 JUMP JUMPDEST SWAP2 POP POP PUSH1 0x40 DUP4 ADD MLOAD DUP5 DUP3 SUB PUSH1 0x40 DUP7 ADD MSTORE PUSH2 0x4E4 DUP3 DUP3 PUSH2 0x425 JUMP JUMPDEST SWAP2 POP POP PUSH1 0x60 DUP4 ADD MLOAD PUSH2 0x4F9 PUSH1 0x60 DUP7 ADD DUP3 PUSH2 0x48D JUMP JUMPDEST POP PUSH1 0x80 DUP4 ADD MLOAD PUSH2 0x50C PUSH1 0x80 DUP7 ADD DUP3 PUSH2 0x3DE JUMP JUMPDEST POP PUSH1 0xA0 DUP4 ADD MLOAD PUSH2 0x51F PUSH1 0xA0 DUP7 ADD DUP3 PUSH2 0x3DE JUMP JUMPDEST POP PUSH1 0xC0 DUP4 ADD MLOAD PUSH2 0x532 PUSH1 0xC0 DUP7 ADD DUP3 PUSH2 0x3DE JUMP JUMPDEST POP PUSH1 0xE0 DUP4 ADD MLOAD PUSH2 0x545 PUSH1 0xE0 DUP7 ADD DUP3 PUSH2 0x3DE JUMP JUMPDEST POP DUP1 SWAP2 POP POP SWAP3 SWAP2 POP POP JUMP JUMPDEST PUSH0 PUSH2 0x55B DUP4 DUP4 PUSH2 0x49C JUMP JUMPDEST SWAP1 POP SWAP3 SWAP2 POP POP JUMP JUMPDEST PUSH0 PUSH1 0x20 DUP3 ADD SWAP1 POP SWAP2 SWAP1 POP JUMP JUMPDEST PUSH0 PUSH2 0x579 DUP3 PUSH2 0x3AC JUMP JUMPDEST PUSH2 0x583 DUP2 DUP6 PUSH2 0x3B6 JUMP JUMPDEST SWAP4 POP DUP4 PUSH1 0x20 DUP3 MUL DUP6 ADD PUSH2 0x595 DUP6 PUSH2 0x3C6 JUMP JUMPDEST DUP1 PUSH0 JUMPDEST DUP6 DUP2 LT ISZERO PUSH2 0x5D0 JUMPI DUP5 DUP5 SUB DUP10 MSTORE DUP2 MLOAD PUSH2 0x5B1 DUP6 DUP3 PUSH2 0x550 JUMP JUMPDEST SWAP5 POP PUSH2 0x5BC DUP4 PUSH2 0x563 JUMP JUMPDEST SWAP3 POP PUSH1 0x20 DUP11 ADD SWAP10 POP POP PUSH1 0x1 DUP2 ADD SWAP1 POP PUSH2 0x598 JUMP JUMPDEST POP DUP3 SWAP8 POP DUP8 SWAP6 POP POP POP POP POP POP SWAP3 SWAP2 POP POP JUMP JUMPDEST PUSH0 PUSH1 0x20 DUP3 ADD SWAP1 POP DUP2 DUP2 SUB PUSH0 DUP4 ADD MSTORE PUSH2 0x5FA DUP2 DUP5 PUSH2 0x56F JUMP JUMPDEST SWAP1 POP SWAP3 SWAP2 POP POP JUMP JUMPDEST PUSH0 PUSH1 0x40 MLOAD SWAP1 POP SWAP1 JUMP JUMPDEST PUSH0 DUP1 REVERT JUMPDEST PUSH0 DUP1 REVERT JUMPDEST PUSH0 DUP1 REVERT JUMPDEST PUSH0 DUP1 REVERT JUMPDEST PUSH32 0x4E487B7100000000000000000000000000000000000000000000000000000000 PUSH0 MSTORE PUSH1 0x41 PUSH1 0x4 MSTORE PUSH1 0x24 PUSH0 REVERT JUMPDEST PUSH2 0x651 DUP3 PUSH2 0x415 JUMP JUMPDEST DUP2 ADD DUP2 DUP2 LT PUSH8 0xFFFFFFFFFFFFFFFF DUP3 GT OR ISZERO PUSH2 0x670 JUMPI PUSH2 0x66F PUSH2 0x61B JUMP JUMPDEST JUMPDEST DUP1 PUSH1 0x40 MSTORE POP POP POP JUMP JUMPDEST PUSH0 PUSH2 0x682 PUSH2 0x602 JUMP JUMPDEST SWAP1 POP PUSH2 0x68E DUP3 DUP3 PUSH2 0x648 JUMP JUMPDEST SWAP2 SWAP1 POP JUMP JUMPDEST PUSH0 PUSH8 0xFFFFFFFFFFFFFFFF DUP3 GT ISZERO PUSH2 0x6AD JUMPI PUSH2 0x6AC PUSH2 0x61B JUMP JUMPDEST JUMPDEST PUSH2 0x6B6 DUP3 PUSH2 0x415 JUMP JUMPDEST SWAP1 POP PUSH1 0x20 DUP2 ADD SWAP1 POP SWAP2 SWAP1 POP JUMP JUMPDEST DUP3 DUP2 DUP4 CALLDATACOPY PUSH0 DUP4 DUP4 ADD MSTORE POP POP POP JUMP JUMPDEST PUSH0 PUSH2 0x6E3 PUSH2 0x6DE DUP5 PUSH2 0x693 JUMP JUMPDEST PUSH2 0x679 JUMP JUMPDEST SWAP1 POP DUP3 DUP2 MSTORE PUSH1 0x20 DUP2 ADD DUP5 DUP5 DUP5 ADD GT ISZERO PUSH2 0x6FF JUMPI PUSH2 0x6FE PUSH2 0x617 JUMP JUMPDEST JUMPDEST PUSH2 0x70A DUP5 DUP3 DUP6 PUSH2 0x6C3 JUMP JUMPDEST POP SWAP4 SWAP3 POP POP POP JUMP JUMPDEST PUSH0 DUP3 PUSH1 0x1F DUP4 ADD SLT PUSH2 0x726 JUMPI PUSH2 0x725 PUSH2 0x613 JUMP JUMPDEST JUMPDEST DUP2 CALLDATALOAD PUSH2 0x736 DUP5 DUP3 PUSH1 0x20 DUP7 ADD PUSH2 0x6D1 JUMP JUMPDEST SWAP2 POP POP SWAP3 SWAP2 POP POP JUMP JUMPDEST PUSH2 0x748 DUP2 PUSH2 0x3D5 JUMP JUMPDEST DUP2 EQ PUSH2 0x752 JUMPI PUSH0 DUP1 REVERT JUMPDEST POP JUMP JUMPDEST PUSH0 DUP2 CALLDATALOAD SWAP1 POP PUSH2 0x763 DUP2 PUSH2 0x73F JUMP JUMPDEST SWAP3 SWAP2 POP POP JUMP JUMPDEST PUSH0 DUP1 PUSH0 DUP1 PUSH1 0x80 DUP6 DUP8 SUB SLT ISZERO PUSH2 0x781 JUMPI PUSH2 0x780 PUSH2 0x60B JUMP JUMPDEST JUMPDEST PUSH0 DUP6 ADD CALLDATALOAD PUSH8 0xFFFFFFFFFFFFFFFF DUP2 GT ISZERO PUSH2 0x79E JUMPI PUSH2 0x79D PUSH2 0x60F JUMP JUMPDEST JUMPDEST PUSH2 0x7AA DUP8 DUP3 DUP9 ADD PUSH2 0x712 JUMP JUMPDEST SWAP5 POP POP PUSH1 0x20 DUP6 ADD CALLDATALOAD PUSH8 0xFFFFFFFFFFFFFFFF DUP2 GT ISZERO PUSH2 0x7CB JUMPI PUSH2 0x7CA PUSH2 0x60F JUMP JUMPDEST JUMPDEST PUSH2 0x7D7 DUP8 DUP3 DUP9 ADD PUSH2 0x712 JUMP JUMPDEST SWAP4 POP POP PUSH1 0x40 PUSH2 0x7E8 DUP8 DUP3 DUP9 ADD PUSH2 0x755 JUMP JUMPDEST SWAP3 POP POP PUSH1 0x60 PUSH2 0x7F9 DUP8 DUP3 DUP9 ADD PUSH2 0x755 JUMP JUMPDEST SWAP2 POP POP SWAP3 SWAP6 SWAP2 SWAP5 POP SWAP3 POP JUMP JUMPDEST PUSH32 0x4E487B7100000000000000000000000000000000000000000000000000000000 PUSH0 MSTORE PUSH1 0x22 PUSH1 0x4 MSTORE PUSH1 0x24 PUSH0 REVERT JUMPDEST PUSH0 PUSH1 0x2 DUP3 DIV SWAP1 POP PUSH1 0x1 DUP3 AND DUP1 PUSH2 0x849 JUMPI PUSH1 0x7F DUP3 AND SWAP2 POP JUMPDEST PUSH1 0x20 DUP3 LT DUP2 SUB PUSH2 0x85C JUMPI PUSH2 0x85B PUSH2 0x805 JUMP JUMPDEST JUMPDEST POP SWAP2 SWAP1 POP JUMP JUMPDEST PUSH32 0x4E487B7100000000000000000000000000000000000000000000000000000000 PUSH0 MSTORE PUSH1 0x11 PUSH1 0x4 MSTORE PUSH1 0x24 PUSH0 REVERT JUMPDEST PUSH0 PUSH2 0x899 DUP3 PUSH2 0x3D5 JUMP JUMPDEST SWAP2 POP PUSH2 0x8A4 DUP4 PUSH2 0x3D5 JUMP JUMPDEST SWAP3 POP DUP3 DUP3 ADD SWAP1 POP DUP1 DUP3 GT ISZERO PUSH2 0x8BC JUMPI PUSH2 0x8BB PUSH2 0x862 JUMP JUMPDEST JUMPDEST SWAP3 SWAP2 POP POP JUMP JUMPDEST PUSH0 DUP2 SWAP1 POP DUP2 PUSH0 MSTORE PUSH1 0x20 PUSH0 KECCAK256 SWAP1 POP SWAP2 SWAP1 POP JUMP JUMPDEST PUSH0 PUSH1 0x20 PUSH1 0x1F DUP4 ADD DIV SWAP1 POP SWAP2 SWAP1 POP JUMP JUMPDEST PUSH0 DUP3 DUP3 SHL SWAP1 POP SWAP3 SWAP2 POP POP JUMP JUMPDEST PUSH0 PUSH1 0x8 DUP4 MUL PUSH2 0x91E PUSH32 0xFFFFFFFFFFFFFFFFFFFFFFFFFFFFFFFFFFFFFFFFFFFFFFFFFFFFFFFFFFFFFFFF DUP3 PUSH2 0x8E3 JUMP JUMPDEST PUSH2 0x928 DUP7 DUP4 PUSH2 0x8E3 JUMP JUMPDEST SWAP6 POP DUP1 NOT DUP5 AND SWAP4 POP DUP1 DUP7 AND DUP5 OR SWAP3 POP POP POP SWAP4 SWAP3 POP POP POP JUMP JUMPDEST PUSH0 DUP2 SWAP1 POP SWAP2 SWAP1 POP JUMP JUMPDEST PUSH0 PUSH2 0x963 PUSH2 0x95E PUSH2 0x959 DUP5 PUSH2 0x3D5 JUMP JUMPDEST PUSH2 0x940 JUMP JUMPDEST PUSH2 0x3D5 JUMP JUMPDEST SWAP1 POP SWAP2 SWAP1 POP JUMP JUMPDEST PUSH0 DUP2 SWAP1 POP SWAP2 SWAP1 POP JUMP JUMPDEST PUSH2 0x97C DUP4 PUSH2 0x949 JUMP JUMPDEST PUSH2 0x990 PUSH2 0x988 DUP3 PUSH2 0x96A JUMP JUMPDEST DUP5 DUP5 SLOAD PUSH2 0x8EF JUMP JUMPDEST DUP3 SSTORE POP POP POP POP JUMP JUMPDEST PUSH0 SWAP1 JUMP JUMPDEST PUSH2 0x9A4 PUSH2 0x998 JUMP JUMPDEST PUSH2 0x9AF DUP2 DUP5 DUP5 PUSH2 0x973 JUMP JUMPDEST POP POP POP JUMP JUMPDEST JUMPDEST DUP2 DUP2 LT ISZERO PUSH2 0x9D2 JUMPI PUSH2 0x9C7 PUSH0 DUP3 PUSH2 0x99C JUMP JUMPDEST PUSH1 0x1 DUP2 ADD SWAP1 POP PUSH2 0x9B5 JUMP JUMPDEST POP POP JUMP JUMPDEST PUSH1 0x1F DUP3 GT ISZERO PUSH2 0xA17 JUMPI PUSH2 0x9E8 DUP2 PUSH2 0x8C2 JUMP JUMPDEST PUSH2 0x9F1 DUP5 PUSH2 0x8D4 JUMP JUMPDEST DUP2 ADD PUSH1 0x20 DUP6 LT ISZERO PUSH2 0xA00 JUMPI DUP2 SWAP1 POP JUMPDEST PUSH2 0xA14 PUSH2 0xA0C DUP6 PUSH2 0x8D4 JUMP JUMPDEST DUP4 ADD DUP3 PUSH2 0x9B4 JUMP JUMPDEST POP POP JUMPDEST POP POP POP JUMP JUMPDEST PUSH0 DUP3 DUP3 SHR SWAP1 POP SWAP3 SWAP2 POP POP JUMP JUMPDEST PUSH0 PUSH2 0xA37 PUSH0 NOT DUP5 PUSH1 0x8 MUL PUSH2 0xA1C JUMP JUMPDEST NOT DUP1 DUP4 AND SWAP2 POP POP SWAP3 SWAP2 POP POP JUMP JUMPDEST PUSH0 PUSH2 0xA4F DUP4 DUP4 PUSH2 0xA28 JUMP JUMPDEST SWAP2 POP DUP3 PUSH1 0x2 MUL DUP3 OR SWAP1 POP SWAP3 SWAP2 POP POP JUMP JUMPDEST PUSH2 0xA68 DUP3 PUSH2 0x3ED JUMP JUMPDEST PUSH8 0xFFFFFFFFFFFFFFFF DUP2 GT ISZERO PUSH2 0xA81 JUMPI PUSH2 0xA80 PUSH2 0x61B JUMP JUMPDEST JUMPDEST PUSH2 0xA8B DUP3 SLOAD PUSH2 0x832 JUMP JUMPDEST PUSH2 0xA96 DUP3 DUP3 DUP6 PUSH2 0x9D6 JUMP JUMPDEST PUSH0 PUSH1 0x20 SWAP1 POP PUSH1 0x1F DUP4 GT PUSH1 0x1 DUP2 EQ PUSH2 0xAC7 JUMPI PUSH0 DUP5 ISZERO PUSH2 0xAB5 JUMPI DUP3 DUP8 ADD MLOAD SWAP1 POP JUMPDEST PUSH2 0xABF DUP6 DUP3 PUSH2 0xA44 JUMP JUMPDEST DUP7 SSTORE POP PUSH2 0xB26 JUMP JUMPDEST PUSH1 0x1F NOT DUP5 AND PUSH2 0xAD5 DUP7 PUSH2 0x8C2 JUMP JUMPDEST PUSH0 JUMPDEST DUP3 DUP2 LT ISZERO PUSH2 0xAFC JUMPI DUP5 DUP10 ADD MLOAD DUP3 SSTORE PUSH1 0x1 DUP3 ADD SWAP2 POP PUSH1 0x20 DUP6 ADD SWAP5 POP PUSH1 0x20 DUP2 ADD SWAP1 POP PUSH2 0xAD7 JUMP JUMPDEST DUP7 DUP4 LT ISZERO PUSH2 0xB19 JUMPI DUP5 DUP10 ADD MLOAD PUSH2 0xB15 PUSH1 0x1F DUP10 AND DUP3 PUSH2 0xA28 JUMP JUMPDEST DUP4 SSTORE POP JUMPDEST PUSH1 0x1 PUSH1 0x2 DUP9 MUL ADD DUP9 SSTORE POP POP POP JUMPDEST POP POP POP POP POP POP JUMP INVALID LOG2 PUSH5 0x6970667358 0x22 SLT KECCAK256 0xC7 BALANCE 0xDF ADDMOD ISZERO 0xA6 0xD8 DUP11 0x4B 0xCB DUP12 DUP3 RETURN TSTORE RETURN 0xE6 PUSH24 0xF42F8521436E82B746A65D2289470564736F6C634300081A STOP CALLER "
				},
				"gasEstimates": {
					"creation": {
						"codeDepositCost": "583200",
						"executionCost": "24882",
						"totalCost": "608082"
					},
					"external": {
						"createCampaign(string,string,uint256,uint256)": "infinite",
						"getAllCampaigns()": "infinite"
					}
				},
				"methodIdentifiers": {
					"createCampaign(string,string,uint256,uint256)": "a318f269",
					"getAllCampaigns()": "86cdf604"
				}
			},
			"storageLayout": {
				"storage": [
					{
						"astId": 3,
						"contract": "contracts/1_Crowdfunding.sol:CampaignFactory",
						"label": "_owner",
						"offset": 0,
						"slot": "0",
						"type": "t_address"
					},
					{
						"astId": 36,
						"contract": "contracts/1_Crowdfunding.sol:CampaignFactory",
						"label": "_campaigns",
						"offset": 0,
						"slot": "1",
						"type": "t_array(t_struct(Campaign)32_storage)dyn_storage"
					}
				],
				"types": {
					"t_address": {
						"encoding": "inplace",
						"label": "address",
						"numberOfBytes": "20"
					},
					"t_address_payable": {
						"encoding": "inplace",
						"label": "address payable",
						"numberOfBytes": "20"
					},
					"t_array(t_struct(Campaign)32_storage)dyn_storage": {
						"base": "t_struct(Campaign)32_storage",
						"encoding": "dynamic_array",
						"label": "struct CampaignFactory.Campaign[]",
						"numberOfBytes": "32"
					},
					"t_string_storage": {
						"encoding": "bytes",
						"label": "string",
						"numberOfBytes": "32"
					},
					"t_struct(Campaign)32_storage": {
						"encoding": "inplace",
						"label": "struct CampaignFactory.Campaign",
						"members": [
							{
								"astId": 17,
								"contract": "contracts/1_Crowdfunding.sol:CampaignFactory",
								"label": "id",
								"offset": 0,
								"slot": "0",
								"type": "t_uint256"
							},
							{
								"astId": 19,
								"contract": "contracts/1_Crowdfunding.sol:CampaignFactory",
								"label": "name",
								"offset": 0,
								"slot": "1",
								"type": "t_string_storage"
							},
							{
								"astId": 21,
								"contract": "contracts/1_Crowdfunding.sol:CampaignFactory",
								"label": "description",
								"offset": 0,
								"slot": "2",
								"type": "t_string_storage"
							},
							{
								"astId": 23,
								"contract": "contracts/1_Crowdfunding.sol:CampaignFactory",
								"label": "owner",
								"offset": 0,
								"slot": "3",
								"type": "t_address_payable"
							},
							{
								"astId": 25,
								"contract": "contracts/1_Crowdfunding.sol:CampaignFactory",
								"label": "currentBalance",
								"offset": 0,
								"slot": "4",
								"type": "t_uint256"
							},
							{
								"astId": 27,
								"contract": "contracts/1_Crowdfunding.sol:CampaignFactory",
								"label": "goalBalance",
								"offset": 0,
								"slot": "5",
								"type": "t_uint256"
							},
							{
								"astId": 29,
								"contract": "contracts/1_Crowdfunding.sol:CampaignFactory",
								"label": "startTime",
								"offset": 0,
								"slot": "6",
								"type": "t_uint256"
							},
							{
								"astId": 31,
								"contract": "contracts/1_Crowdfunding.sol:CampaignFactory",
								"label": "endTime",
								"offset": 0,
								"slot": "7",
								"type": "t_uint256"
							}
						],
						"numberOfBytes": "256"
					},
					"t_uint256": {
						"encoding": "inplace",
						"label": "uint256",
						"numberOfBytes": "32"
					}
				}
			},
			"userdoc": {
				"kind": "user",
				"methods": {},
				"version": 1
			}
		}
	}
}