{
	"contracts/1_Crowdfunding.sol": {
		"Crowdfunding": {
			"abi": [
				{
					"anonymous": false,
					"inputs": [
						{
							"indexed": false,
							"internalType": "uint256",
							"name": "campaignId",
							"type": "uint256"
						},
						{
							"indexed": false,
							"internalType": "address",
							"name": "depositor",
							"type": "address"
						},
						{
							"indexed": false,
							"internalType": "uint256",
							"name": "amount",
							"type": "uint256"
						}
					],
					"name": "DepositorAdded",
					"type": "event"
				},
				{
					"inputs": [
						{
							"internalType": "string",
							"name": "_name",
							"type": "string"
						},
						{
							"internalType": "string",
							"name": "_description",
							"type": "string"
						},
						{
							"internalType": "uint256",
							"name": "_duration",
							"type": "uint256"
						},
						{
							"internalType": "uint256",
							"name": "_goalBalance",
							"type": "uint256"
						}
					],
					"name": "createCampaign",
					"outputs": [],
					"stateMutability": "nonpayable",
					"type": "function"
				},
				{
					"inputs": [
						{
							"internalType": "uint256",
							"name": "_id",
							"type": "uint256"
						}
					],
					"name": "depositToCampaign",
					"outputs": [],
					"stateMutability": "payable",
					"type": "function"
				},
				{
					"inputs": [],
					"name": "getAllCampaigns",
					"outputs": [
						{
							"components": [
								{
									"internalType": "uint256",
									"name": "id",
									"type": "uint256"
								},
								{
									"internalType": "string",
									"name": "name",
									"type": "string"
								},
								{
									"internalType": "string",
									"name": "description",
									"type": "string"
								},
								{
									"internalType": "address payable",
									"name": "owner",
									"type": "address"
								},
								{
									"internalType": "uint256",
									"name": "currentBalance",
									"type": "uint256"
								},
								{
									"internalType": "uint256",
									"name": "goalBalance",
									"type": "uint256"
								},
								{
									"internalType": "uint256",
									"name": "startTime",
									"type": "uint256"
								},
								{
									"internalType": "uint256",
									"name": "endTime",
									"type": "uint256"
								}
							],
							"internalType": "struct CampaignFactory.Campaign[]",
							"name": "",
							"type": "tuple[]"
						}
					],
					"stateMutability": "view",
					"type": "function"
				},
				{
					"inputs": [
						{
							"internalType": "uint256",
							"name": "_id",
							"type": "uint256"
						}
					],
					"name": "getAllDepositsById",
					"outputs": [
						{
							"components": [
								{
									"internalType": "address payable",
									"name": "addr",
									"type": "address"
								},
								{
									"internalType": "uint256",
									"name": "balance",
									"type": "uint256"
								}
							],
							"internalType": "struct DepositorFactory.Depositor[]",
							"name": "",
							"type": "tuple[]"
						}
					],
					"stateMutability": "view",
					"type": "function"
				},
				{
					"inputs": [],
					"name": "getCommision",
					"outputs": [
						{
							"internalType": "uint8",
							"name": "",
							"type": "uint8"
						}
					],
					"stateMutability": "view",
					"type": "function"
				},
				{
					"inputs": [
						{
							"internalType": "uint256",
							"name": "_id",
							"type": "uint256"
						}
					],
					"name": "getDepositsCountById",
					"outputs": [
						{
							"internalType": "uint256",
							"name": "",
							"type": "uint256"
						}
					],
					"stateMutability": "view",
					"type": "function"
				},
				{
					"inputs": [
						{
							"internalType": "uint8",
							"name": "_newCommision",
							"type": "uint8"
						}
					],
					"name": "setCommision",
					"outputs": [],
					"stateMutability": "nonpayable",
					"type": "function"
				},
				{
					"inputs": [
						{
							"internalType": "uint256",
							"name": "_id",
							"type": "uint256"
						}
					],
					"name": "withdrawFromCampaign",
					"outputs": [],
					"stateMutability": "payable",
					"type": "function"
				}
			],
			"devdoc": {
				"kind": "dev",
				"methods": {},
				"version": 1
			},
			"evm": {
				"assembly": "    /* \"contracts/1_Crowdfunding.sol\":3389:4720  contract Crowdfunding is DepositorFactory {... */\n  mstore(0x40, 0x80)\n    /* \"contracts/1_Crowdfunding.sol\":3464:3465  5 */\n  0x05\n    /* \"contracts/1_Crowdfunding.sol\":3437:3465  uint8 private _commision = 5 */\n  0x03\n  exp(0x0100, 0x00)\n  dup2\n  sload\n  dup2\n  0xff\n  mul\n  not\n  and\n  swap1\n  dup4\n  0xff\n  and\n  mul\n  or\n  swap1\n  sstore\n  pop\n    /* \"contracts/1_Crowdfunding.sol\":3389:4720  contract Crowdfunding is DepositorFactory {... */\n  callvalue\n  dup1\n  iszero\n  tag_1\n  jumpi\n  0x00\n  dup1\n  revert\ntag_1:\n  pop\n    /* \"contracts/1_Crowdfunding.sol\":973:983  msg.sender */\n  caller\n    /* \"contracts/1_Crowdfunding.sol\":964:970  _owner */\n  0x00\n  dup1\n    /* \"contracts/1_Crowdfunding.sol\":964:983  _owner = msg.sender */\n  0x0100\n  exp\n  dup2\n  sload\n  dup2\n  0xffffffffffffffffffffffffffffffffffffffff\n  mul\n  not\n  and\n  swap1\n  dup4\n  0xffffffffffffffffffffffffffffffffffffffff\n  and\n  mul\n  or\n  swap1\n  sstore\n  pop\n    /* \"contracts/1_Crowdfunding.sol\":3389:4720  contract Crowdfunding is DepositorFactory {... */\n  dataSize(sub_0)\n  dup1\n  dataOffset(sub_0)\n  0x00\n  codecopy\n  0x00\n  return\nstop\n\nsub_0: assembly {\n        /* \"contracts/1_Crowdfunding.sol\":3389:4720  contract Crowdfunding is DepositorFactory {... */\n      mstore(0x40, 0x80)\n      jumpi(tag_1, lt(calldatasize, 0x04))\n      shr(0xe0, calldataload(0x00))\n      dup1\n      0x86cdf604\n      gt\n      tag_10\n      jumpi\n      dup1\n      0x86cdf604\n      eq\n      tag_6\n      jumpi\n      dup1\n      0xa318f269\n      eq\n      tag_7\n      jumpi\n      dup1\n      0xad6e3318\n      eq\n      tag_8\n      jumpi\n      dup1\n      0xe0aef11e\n      eq\n      tag_9\n      jumpi\n      jump(tag_1)\n    tag_10:\n      dup1\n      0x0e39ac67\n      eq\n      tag_2\n      jumpi\n      dup1\n      0x25a10e49\n      eq\n      tag_3\n      jumpi\n      dup1\n      0x3fcd0aec\n      eq\n      tag_4\n      jumpi\n      dup1\n      0x620f3aec\n      eq\n      tag_5\n      jumpi\n    tag_1:\n      0x00\n      dup1\n      revert\n        /* \"contracts/1_Crowdfunding.sol\":3954:4573  function withdrawFromCampaign(uint _id) external payable onlyOwner {... */\n    tag_2:\n      tag_11\n      0x04\n      dup1\n      calldatasize\n      sub\n      dup2\n      add\n      swap1\n      tag_12\n      swap2\n      swap1\n      tag_13\n      jump\t// in\n    tag_12:\n      tag_14\n      jump\t// in\n    tag_11:\n      stop\n        /* \"contracts/1_Crowdfunding.sol\":3195:3385  function getDepositsCountById(uint _id) public view returns (uint) {... */\n    tag_3:\n      callvalue\n      dup1\n      iszero\n      tag_15\n      jumpi\n      0x00\n      dup1\n      revert\n    tag_15:\n      pop\n      tag_16\n      0x04\n      dup1\n      calldatasize\n      sub\n      dup2\n      add\n      swap1\n      tag_17\n      swap2\n      swap1\n      tag_13\n      jump\t// in\n    tag_17:\n      tag_18\n      jump\t// in\n    tag_16:\n      mload(0x40)\n      tag_19\n      swap2\n      swap1\n      tag_20\n      jump\t// in\n    tag_19:\n      mload(0x40)\n      dup1\n      swap2\n      sub\n      swap1\n      return\n        /* \"contracts/1_Crowdfunding.sol\":3472:3557  function getCommision() public view returns(uint8) {... */\n    tag_4:\n      callvalue\n      dup1\n      iszero\n      tag_21\n      jumpi\n      0x00\n      dup1\n      revert\n    tag_21:\n      pop\n      tag_22\n      tag_23\n      jump\t// in\n    tag_22:\n      mload(0x40)\n      tag_24\n      swap2\n      swap1\n      tag_25\n      jump\t// in\n    tag_24:\n      mload(0x40)\n      dup1\n      swap2\n      sub\n      swap1\n      return\n        /* \"contracts/1_Crowdfunding.sol\":3678:3948  function depositToCampaign(uint _id) external payable {... */\n    tag_5:\n      tag_26\n      0x04\n      dup1\n      calldatasize\n      sub\n      dup2\n      add\n      swap1\n      tag_27\n      swap2\n      swap1\n      tag_13\n      jump\t// in\n    tag_27:\n      tag_28\n      jump\t// in\n    tag_26:\n      stop\n        /* \"contracts/1_Crowdfunding.sol\":1552:1654  function getAllCampaigns() external view returns(Campaign[] memory) {... */\n    tag_6:\n      callvalue\n      dup1\n      iszero\n      tag_29\n      jumpi\n      0x00\n      dup1\n      revert\n    tag_29:\n      pop\n      tag_30\n      tag_31\n      jump\t// in\n    tag_30:\n      mload(0x40)\n      tag_32\n      swap2\n      swap1\n      tag_33\n      jump\t// in\n    tag_32:\n      mload(0x40)\n      dup1\n      swap2\n      sub\n      swap1\n      return\n        /* \"contracts/1_Crowdfunding.sol\":996:1546  function createCampaign(string memory _name, string memory _description, uint _duration, uint _goalBalance) external {... */\n    tag_7:\n      callvalue\n      dup1\n      iszero\n      tag_34\n      jumpi\n      0x00\n      dup1\n      revert\n    tag_34:\n      pop\n      tag_35\n      0x04\n      dup1\n      calldatasize\n      sub\n      dup2\n      add\n      swap1\n      tag_36\n      swap2\n      swap1\n      tag_37\n      jump\t// in\n    tag_36:\n      tag_38\n      jump\t// in\n    tag_35:\n      stop\n        /* \"contracts/1_Crowdfunding.sol\":3563:3668  function setCommision(uint8 _newCommision) external onlyOwner {... */\n    tag_8:\n      callvalue\n      dup1\n      iszero\n      tag_39\n      jumpi\n      0x00\n      dup1\n      revert\n    tag_39:\n      pop\n      tag_40\n      0x04\n      dup1\n      calldatasize\n      sub\n      dup2\n      add\n      swap1\n      tag_41\n      swap2\n      swap1\n      tag_42\n      jump\t// in\n    tag_41:\n      tag_43\n      jump\t// in\n    tag_40:\n      stop\n        /* \"contracts/1_Crowdfunding.sol\":2984:3189  function getAllDepositsById(uint _id) public view returns (Depositor[] memory) {... */\n    tag_9:\n      callvalue\n      dup1\n      iszero\n      tag_44\n      jumpi\n      0x00\n      dup1\n      revert\n    tag_44:\n      pop\n      tag_45\n      0x04\n      dup1\n      calldatasize\n      sub\n      dup2\n      add\n      swap1\n      tag_46\n      swap2\n      swap1\n      tag_13\n      jump\t// in\n    tag_46:\n      tag_47\n      jump\t// in\n    tag_45:\n      mload(0x40)\n      tag_48\n      swap2\n      swap1\n      tag_49\n      jump\t// in\n    tag_48:\n      mload(0x40)\n      dup1\n      swap2\n      sub\n      swap1\n      return\n        /* \"contracts/1_Crowdfunding.sol\":3954:4573  function withdrawFromCampaign(uint _id) external payable onlyOwner {... */\n    tag_14:\n        /* \"contracts/1_Crowdfunding.sol\":594:600  _owner */\n      0x00\n      dup1\n      sload\n      swap1\n      0x0100\n      exp\n      swap1\n      div\n      0xffffffffffffffffffffffffffffffffffffffff\n      and\n        /* \"contracts/1_Crowdfunding.sol\":580:600  msg.sender == _owner */\n      0xffffffffffffffffffffffffffffffffffffffff\n      and\n        /* \"contracts/1_Crowdfunding.sol\":580:590  msg.sender */\n      caller\n        /* \"contracts/1_Crowdfunding.sol\":580:600  msg.sender == _owner */\n      0xffffffffffffffffffffffffffffffffffffffff\n      and\n      eq\n        /* \"contracts/1_Crowdfunding.sol\":572:615  require(msg.sender == _owner, \"only owner\") */\n      tag_51\n      jumpi\n      mload(0x40)\n      0x08c379a000000000000000000000000000000000000000000000000000000000\n      dup2\n      mstore\n      0x04\n      add\n      tag_52\n      swap1\n      tag_53\n      jump\t// in\n    tag_52:\n      mload(0x40)\n      dup1\n      swap2\n      sub\n      swap1\n      revert\n    tag_51:\n        /* \"contracts/1_Crowdfunding.sol\":4046:4056  _campaigns */\n      0x01\n        /* \"contracts/1_Crowdfunding.sol\":4046:4063  _campaigns.length */\n      dup1\n      sload\n      swap1\n      pop\n        /* \"contracts/1_Crowdfunding.sol\":4039:4042  _id */\n      dup2\n        /* \"contracts/1_Crowdfunding.sol\":4039:4063  _id <= _campaigns.length */\n      gt\n      iszero\n        /* \"contracts/1_Crowdfunding.sol\":4031:4074  require(_id <= _campaigns.length, \"bad id\") */\n      tag_55\n      jumpi\n      mload(0x40)\n      0x08c379a000000000000000000000000000000000000000000000000000000000\n      dup2\n      mstore\n      0x04\n      add\n      tag_56\n      swap1\n      tag_57\n      jump\t// in\n    tag_56:\n      mload(0x40)\n      dup1\n      swap2\n      sub\n      swap1\n      revert\n    tag_55:\n        /* \"contracts/1_Crowdfunding.sol\":4119:4134  block.timestamp */\n      timestamp\n        /* \"contracts/1_Crowdfunding.sol\":4092:4102  _campaigns */\n      0x01\n        /* \"contracts/1_Crowdfunding.sol\":4103:4106  _id */\n      dup3\n        /* \"contracts/1_Crowdfunding.sol\":4092:4107  _campaigns[_id] */\n      dup2\n      sload\n      dup2\n      lt\n      tag_58\n      jumpi\n      tag_59\n      tag_60\n      jump\t// in\n    tag_59:\n    tag_58:\n      swap1\n      0x00\n      mstore\n      keccak256(0x00, 0x20)\n      swap1\n      0x08\n      mul\n      add\n        /* \"contracts/1_Crowdfunding.sol\":4092:4115  _campaigns[_id].endTime */\n      0x07\n      add\n      sload\n        /* \"contracts/1_Crowdfunding.sol\":4092:4134  _campaigns[_id].endTime <= block.timestamp */\n      gt\n      iszero\n        /* \"contracts/1_Crowdfunding.sol\":4084:4160  require(_campaigns[_id].endTime <= block.timestamp, \"Campaign not finished\") */\n      tag_62\n      jumpi\n      mload(0x40)\n      0x08c379a000000000000000000000000000000000000000000000000000000000\n      dup2\n      mstore\n      0x04\n      add\n      tag_63\n      swap1\n      tag_64\n      jump\t// in\n    tag_63:\n      mload(0x40)\n      dup1\n      swap2\n      sub\n      swap1\n      revert\n    tag_62:\n        /* \"contracts/1_Crowdfunding.sol\":4171:4195  Campaign memory campaign */\n      0x00\n        /* \"contracts/1_Crowdfunding.sol\":4198:4208  _campaigns */\n      0x01\n        /* \"contracts/1_Crowdfunding.sol\":4209:4212  _id */\n      dup3\n        /* \"contracts/1_Crowdfunding.sol\":4198:4213  _campaigns[_id] */\n      dup2\n      sload\n      dup2\n      lt\n      tag_65\n      jumpi\n      tag_66\n      tag_60\n      jump\t// in\n    tag_66:\n    tag_65:\n      swap1\n      0x00\n      mstore\n      keccak256(0x00, 0x20)\n      swap1\n      0x08\n      mul\n      add\n        /* \"contracts/1_Crowdfunding.sol\":4171:4213  Campaign memory campaign = _campaigns[_id] */\n      mload(0x40)\n      dup1\n      0x0100\n      add\n      0x40\n      mstore\n      swap1\n      dup2\n      0x00\n      dup3\n      add\n      sload\n      dup2\n      mstore\n      0x20\n      add\n      0x01\n      dup3\n      add\n      dup1\n      sload\n      tag_68\n      swap1\n      tag_69\n      jump\t// in\n    tag_68:\n      dup1\n      0x1f\n      add\n      0x20\n      dup1\n      swap2\n      div\n      mul\n      0x20\n      add\n      mload(0x40)\n      swap1\n      dup2\n      add\n      0x40\n      mstore\n      dup1\n      swap3\n      swap2\n      swap1\n      dup2\n      dup2\n      mstore\n      0x20\n      add\n      dup3\n      dup1\n      sload\n      tag_70\n      swap1\n      tag_69\n      jump\t// in\n    tag_70:\n      dup1\n      iszero\n      tag_71\n      jumpi\n      dup1\n      0x1f\n      lt\n      tag_72\n      jumpi\n      0x0100\n      dup1\n      dup4\n      sload\n      div\n      mul\n      dup4\n      mstore\n      swap2\n      0x20\n      add\n      swap2\n      jump(tag_71)\n    tag_72:\n      dup3\n      add\n      swap2\n      swap1\n      0x00\n      mstore\n      keccak256(0x00, 0x20)\n      swap1\n    tag_73:\n      dup2\n      sload\n      dup2\n      mstore\n      swap1\n      0x01\n      add\n      swap1\n      0x20\n      add\n      dup1\n      dup4\n      gt\n      tag_73\n      jumpi\n      dup3\n      swap1\n      sub\n      0x1f\n      and\n      dup3\n      add\n      swap2\n    tag_71:\n      pop\n      pop\n      pop\n      pop\n      pop\n      dup2\n      mstore\n      0x20\n      add\n      0x02\n      dup3\n      add\n      dup1\n      sload\n      tag_74\n      swap1\n      tag_69\n      jump\t// in\n    tag_74:\n      dup1\n      0x1f\n      add\n      0x20\n      dup1\n      swap2\n      div\n      mul\n      0x20\n      add\n      mload(0x40)\n      swap1\n      dup2\n      add\n      0x40\n      mstore\n      dup1\n      swap3\n      swap2\n      swap1\n      dup2\n      dup2\n      mstore\n      0x20\n      add\n      dup3\n      dup1\n      sload\n      tag_75\n      swap1\n      tag_69\n      jump\t// in\n    tag_75:\n      dup1\n      iszero\n      tag_76\n      jumpi\n      dup1\n      0x1f\n      lt\n      tag_77\n      jumpi\n      0x0100\n      dup1\n      dup4\n      sload\n      div\n      mul\n      dup4\n      mstore\n      swap2\n      0x20\n      add\n      swap2\n      jump(tag_76)\n    tag_77:\n      dup3\n      add\n      swap2\n      swap1\n      0x00\n      mstore\n      keccak256(0x00, 0x20)\n      swap1\n    tag_78:\n      dup2\n      sload\n      dup2\n      mstore\n      swap1\n      0x01\n      add\n      swap1\n      0x20\n      add\n      dup1\n      dup4\n      gt\n      tag_78\n      jumpi\n      dup3\n      swap1\n      sub\n      0x1f\n      and\n      dup3\n      add\n      swap2\n    tag_76:\n      pop\n      pop\n      pop\n      pop\n      pop\n      dup2\n      mstore\n      0x20\n      add\n      0x03\n      dup3\n      add\n      0x00\n      swap1\n      sload\n      swap1\n      0x0100\n      exp\n      swap1\n      div\n      0xffffffffffffffffffffffffffffffffffffffff\n      and\n      0xffffffffffffffffffffffffffffffffffffffff\n      and\n      0xffffffffffffffffffffffffffffffffffffffff\n      and\n      dup2\n      mstore\n      0x20\n      add\n      0x04\n      dup3\n      add\n      sload\n      dup2\n      mstore\n      0x20\n      add\n      0x05\n      dup3\n      add\n      sload\n      dup2\n      mstore\n      0x20\n      add\n      0x06\n      dup3\n      add\n      sload\n      dup2\n      mstore\n      0x20\n      add\n      0x07\n      dup3\n      add\n      sload\n      dup2\n      mstore\n      pop\n      pop\n      swap1\n      pop\n        /* \"contracts/1_Crowdfunding.sol\":4255:4263  campaign */\n      dup1\n        /* \"contracts/1_Crowdfunding.sol\":4255:4275  campaign.goalBalance */\n      0xa0\n      add\n      mload\n        /* \"contracts/1_Crowdfunding.sol\":4228:4236  campaign */\n      dup2\n        /* \"contracts/1_Crowdfunding.sol\":4228:4251  campaign.currentBalance */\n      0x80\n      add\n      mload\n        /* \"contracts/1_Crowdfunding.sol\":4228:4275  campaign.currentBalance >= campaign.goalBalance */\n      lt\n        /* \"contracts/1_Crowdfunding.sol\":4224:4567  if (campaign.currentBalance >= campaign.goalBalance) {... */\n      tag_79\n      jumpi\n        /* \"contracts/1_Crowdfunding.sol\":4291:4305  uint commision */\n      0x00\n        /* \"contracts/1_Crowdfunding.sol\":4308:4352  _calculateCommision(campaign.currentBalance) */\n      tag_80\n        /* \"contracts/1_Crowdfunding.sol\":4328:4336  campaign */\n      dup3\n        /* \"contracts/1_Crowdfunding.sol\":4328:4351  campaign.currentBalance */\n      0x80\n      add\n      mload\n        /* \"contracts/1_Crowdfunding.sol\":4308:4327  _calculateCommision */\n      tag_81\n        /* \"contracts/1_Crowdfunding.sol\":4308:4352  _calculateCommision(campaign.currentBalance) */\n      jump\t// in\n    tag_80:\n        /* \"contracts/1_Crowdfunding.sol\":4291:4352  uint commision = _calculateCommision(campaign.currentBalance) */\n      swap1\n      pop\n        /* \"contracts/1_Crowdfunding.sol\":4367:4375  campaign */\n      dup2\n        /* \"contracts/1_Crowdfunding.sol\":4367:4381  campaign.owner */\n      0x60\n      add\n      mload\n        /* \"contracts/1_Crowdfunding.sol\":4367:4390  campaign.owner.transfer */\n      0xffffffffffffffffffffffffffffffffffffffff\n      and\n        /* \"contracts/1_Crowdfunding.sol\":4367:4427  campaign.owner.transfer(campaign.currentBalance - commision) */\n      0x08fc\n        /* \"contracts/1_Crowdfunding.sol\":4417:4426  commision */\n      dup3\n        /* \"contracts/1_Crowdfunding.sol\":4391:4399  campaign */\n      dup5\n        /* \"contracts/1_Crowdfunding.sol\":4391:4414  campaign.currentBalance */\n      0x80\n      add\n      mload\n        /* \"contracts/1_Crowdfunding.sol\":4391:4426  campaign.currentBalance - commision */\n      tag_82\n      swap2\n      swap1\n      tag_83\n      jump\t// in\n    tag_82:\n        /* \"contracts/1_Crowdfunding.sol\":4367:4427  campaign.owner.transfer(campaign.currentBalance - commision) */\n      swap1\n      dup2\n      iszero\n      mul\n      swap1\n      mload(0x40)\n      0x00\n      mload(0x40)\n      dup1\n      dup4\n      sub\n      dup2\n      dup6\n      dup9\n      dup9\n      call\n      swap4\n      pop\n      pop\n      pop\n      pop\n      iszero\n      dup1\n      iszero\n      tag_85\n      jumpi\n      returndatasize\n      0x00\n      dup1\n      returndatacopy\n      revert(0x00, returndatasize)\n    tag_85:\n      pop\n        /* \"contracts/1_Crowdfunding.sol\":4457:4461  this */\n      address\n        /* \"contracts/1_Crowdfunding.sol\":4441:4472  payable(address(this)).transfer */\n      0xffffffffffffffffffffffffffffffffffffffff\n      and\n        /* \"contracts/1_Crowdfunding.sol\":4441:4483  payable(address(this)).transfer(commision) */\n      0x08fc\n        /* \"contracts/1_Crowdfunding.sol\":4473:4482  commision */\n      dup3\n        /* \"contracts/1_Crowdfunding.sol\":4441:4483  payable(address(this)).transfer(commision) */\n      swap1\n      dup2\n      iszero\n      mul\n      swap1\n      mload(0x40)\n      0x00\n      mload(0x40)\n      dup1\n      dup4\n      sub\n      dup2\n      dup6\n      dup9\n      dup9\n      call\n      swap4\n      pop\n      pop\n      pop\n      pop\n      iszero\n      dup1\n      iszero\n      tag_87\n      jumpi\n      returndatasize\n      0x00\n      dup1\n      returndatacopy\n      revert(0x00, returndatasize)\n    tag_87:\n      pop\n        /* \"contracts/1_Crowdfunding.sol\":4277:4507  {... */\n      pop\n        /* \"contracts/1_Crowdfunding.sol\":4224:4567  if (campaign.currentBalance >= campaign.goalBalance) {... */\n      jump(tag_88)\n    tag_79:\n        /* \"contracts/1_Crowdfunding.sol\":4527:4556  _returnToDepositors(campaign) */\n      tag_89\n        /* \"contracts/1_Crowdfunding.sol\":4547:4555  campaign */\n      dup2\n        /* \"contracts/1_Crowdfunding.sol\":4527:4546  _returnToDepositors */\n      tag_90\n        /* \"contracts/1_Crowdfunding.sol\":4527:4556  _returnToDepositors(campaign) */\n      jump\t// in\n    tag_89:\n        /* \"contracts/1_Crowdfunding.sol\":4224:4567  if (campaign.currentBalance >= campaign.goalBalance) {... */\n    tag_88:\n        /* \"contracts/1_Crowdfunding.sol\":4021:4573  {... */\n      pop\n        /* \"contracts/1_Crowdfunding.sol\":3954:4573  function withdrawFromCampaign(uint _id) external payable onlyOwner {... */\n      pop\n      jump\t// out\n        /* \"contracts/1_Crowdfunding.sol\":3195:3385  function getDepositsCountById(uint _id) public view returns (uint) {... */\n    tag_18:\n        /* \"contracts/1_Crowdfunding.sol\":3256:3260  uint */\n      0x00\n        /* \"contracts/1_Crowdfunding.sol\":3285:3295  _campaigns */\n      0x01\n        /* \"contracts/1_Crowdfunding.sol\":3285:3302  _campaigns.length */\n      dup1\n      sload\n      swap1\n      pop\n        /* \"contracts/1_Crowdfunding.sol\":3279:3282  _id */\n      dup3\n        /* \"contracts/1_Crowdfunding.sol\":3279:3302  _id < _campaigns.length */\n      lt\n        /* \"contracts/1_Crowdfunding.sol\":3271:3330  require(_id < _campaigns.length, \"Campaign does not exist\") */\n      tag_92\n      jumpi\n      mload(0x40)\n      0x08c379a000000000000000000000000000000000000000000000000000000000\n      dup2\n      mstore\n      0x04\n      add\n      tag_93\n      swap1\n      tag_94\n      jump\t// in\n    tag_93:\n      mload(0x40)\n      dup1\n      swap2\n      sub\n      swap1\n      revert\n    tag_92:\n        /* \"contracts/1_Crowdfunding.sol\":3347:3366  _depositsToCampaign */\n      0x02\n        /* \"contracts/1_Crowdfunding.sol\":3347:3371  _depositsToCampaign[_id] */\n      0x00\n        /* \"contracts/1_Crowdfunding.sol\":3367:3370  _id */\n      dup4\n        /* \"contracts/1_Crowdfunding.sol\":3347:3371  _depositsToCampaign[_id] */\n      dup2\n      mstore\n      0x20\n      add\n      swap1\n      dup2\n      mstore\n      0x20\n      add\n      0x00\n      keccak256\n        /* \"contracts/1_Crowdfunding.sol\":3347:3378  _depositsToCampaign[_id].length */\n      dup1\n      sload\n      swap1\n      pop\n        /* \"contracts/1_Crowdfunding.sol\":3340:3378  return _depositsToCampaign[_id].length */\n      swap1\n      pop\n        /* \"contracts/1_Crowdfunding.sol\":3195:3385  function getDepositsCountById(uint _id) public view returns (uint) {... */\n      swap2\n      swap1\n      pop\n      jump\t// out\n        /* \"contracts/1_Crowdfunding.sol\":3472:3557  function getCommision() public view returns(uint8) {... */\n    tag_23:\n        /* \"contracts/1_Crowdfunding.sol\":3516:3521  uint8 */\n      0x00\n        /* \"contracts/1_Crowdfunding.sol\":3540:3550  _commision */\n      0x03\n      0x00\n      swap1\n      sload\n      swap1\n      0x0100\n      exp\n      swap1\n      div\n      0xff\n      and\n        /* \"contracts/1_Crowdfunding.sol\":3533:3550  return _commision */\n      swap1\n      pop\n        /* \"contracts/1_Crowdfunding.sol\":3472:3557  function getCommision() public view returns(uint8) {... */\n      swap1\n      jump\t// out\n        /* \"contracts/1_Crowdfunding.sol\":3678:3948  function depositToCampaign(uint _id) external payable {... */\n    tag_28:\n        /* \"contracts/1_Crowdfunding.sol\":3757:3767  _campaigns */\n      0x01\n        /* \"contracts/1_Crowdfunding.sol\":3757:3774  _campaigns.length */\n      dup1\n      sload\n      swap1\n      pop\n        /* \"contracts/1_Crowdfunding.sol\":3750:3753  _id */\n      dup2\n        /* \"contracts/1_Crowdfunding.sol\":3750:3774  _id <= _campaigns.length */\n      gt\n      iszero\n        /* \"contracts/1_Crowdfunding.sol\":3742:3785  require(_id <= _campaigns.length, \"bad id\") */\n      tag_97\n      jumpi\n      mload(0x40)\n      0x08c379a000000000000000000000000000000000000000000000000000000000\n      dup2\n      mstore\n      0x04\n      add\n      tag_98\n      swap1\n      tag_57\n      jump\t// in\n    tag_98:\n      mload(0x40)\n      dup1\n      swap2\n      sub\n      swap1\n      revert\n    tag_97:\n        /* \"contracts/1_Crowdfunding.sol\":3815:3816  0 */\n      0x00\n        /* \"contracts/1_Crowdfunding.sol\":3803:3812  msg.value */\n      callvalue\n        /* \"contracts/1_Crowdfunding.sol\":3803:3816  msg.value > 0 */\n      gt\n        /* \"contracts/1_Crowdfunding.sol\":3795:3830  require(msg.value > 0, \"bad money\") */\n      tag_99\n      jumpi\n      mload(0x40)\n      0x08c379a000000000000000000000000000000000000000000000000000000000\n      dup2\n      mstore\n      0x04\n      add\n      tag_100\n      swap1\n      tag_101\n      jump\t// in\n    tag_100:\n      mload(0x40)\n      dup1\n      swap2\n      sub\n      swap1\n      revert\n    tag_99:\n        /* \"contracts/1_Crowdfunding.sol\":3875:3884  msg.value */\n      callvalue\n        /* \"contracts/1_Crowdfunding.sol\":3841:3851  _campaigns */\n      0x01\n        /* \"contracts/1_Crowdfunding.sol\":3852:3855  _id */\n      dup3\n        /* \"contracts/1_Crowdfunding.sol\":3841:3856  _campaigns[_id] */\n      dup2\n      sload\n      dup2\n      lt\n      tag_102\n      jumpi\n      tag_103\n      tag_60\n      jump\t// in\n    tag_103:\n    tag_102:\n      swap1\n      0x00\n      mstore\n      keccak256(0x00, 0x20)\n      swap1\n      0x08\n      mul\n      add\n        /* \"contracts/1_Crowdfunding.sol\":3841:3871  _campaigns[_id].currentBalance */\n      0x04\n      add\n      0x00\n        /* \"contracts/1_Crowdfunding.sol\":3841:3884  _campaigns[_id].currentBalance += msg.value */\n      dup3\n      dup3\n      sload\n      tag_105\n      swap2\n      swap1\n      tag_106\n      jump\t// in\n    tag_105:\n      swap3\n      pop\n      pop\n      dup2\n      swap1\n      sstore\n      pop\n        /* \"contracts/1_Crowdfunding.sol\":3895:3941  _increaseDepositor(_id, msg.sender, msg.value) */\n      tag_107\n        /* \"contracts/1_Crowdfunding.sol\":3914:3917  _id */\n      dup2\n        /* \"contracts/1_Crowdfunding.sol\":3919:3929  msg.sender */\n      caller\n        /* \"contracts/1_Crowdfunding.sol\":3931:3940  msg.value */\n      callvalue\n        /* \"contracts/1_Crowdfunding.sol\":3895:3913  _increaseDepositor */\n      tag_108\n        /* \"contracts/1_Crowdfunding.sol\":3895:3941  _increaseDepositor(_id, msg.sender, msg.value) */\n      jump\t// in\n    tag_107:\n        /* \"contracts/1_Crowdfunding.sol\":3678:3948  function depositToCampaign(uint _id) external payable {... */\n      pop\n      jump\t// out\n        /* \"contracts/1_Crowdfunding.sol\":1552:1654  function getAllCampaigns() external view returns(Campaign[] memory) {... */\n    tag_31:\n        /* \"contracts/1_Crowdfunding.sol\":1601:1618  Campaign[] memory */\n      0x60\n        /* \"contracts/1_Crowdfunding.sol\":1637:1647  _campaigns */\n      0x01\n        /* \"contracts/1_Crowdfunding.sol\":1630:1647  return _campaigns */\n      dup1\n      sload\n      dup1\n      0x20\n      mul\n      0x20\n      add\n      mload(0x40)\n      swap1\n      dup2\n      add\n      0x40\n      mstore\n      dup1\n      swap3\n      swap2\n      swap1\n      dup2\n      dup2\n      mstore\n      0x20\n      add\n      0x00\n      swap1\n    tag_110:\n      dup3\n      dup3\n      lt\n      iszero\n      tag_111\n      jumpi\n      dup4\n      dup3\n      swap1\n      0x00\n      mstore\n      keccak256(0x00, 0x20)\n      swap1\n      0x08\n      mul\n      add\n      mload(0x40)\n      dup1\n      0x0100\n      add\n      0x40\n      mstore\n      swap1\n      dup2\n      0x00\n      dup3\n      add\n      sload\n      dup2\n      mstore\n      0x20\n      add\n      0x01\n      dup3\n      add\n      dup1\n      sload\n      tag_113\n      swap1\n      tag_69\n      jump\t// in\n    tag_113:\n      dup1\n      0x1f\n      add\n      0x20\n      dup1\n      swap2\n      div\n      mul\n      0x20\n      add\n      mload(0x40)\n      swap1\n      dup2\n      add\n      0x40\n      mstore\n      dup1\n      swap3\n      swap2\n      swap1\n      dup2\n      dup2\n      mstore\n      0x20\n      add\n      dup3\n      dup1\n      sload\n      tag_114\n      swap1\n      tag_69\n      jump\t// in\n    tag_114:\n      dup1\n      iszero\n      tag_115\n      jumpi\n      dup1\n      0x1f\n      lt\n      tag_116\n      jumpi\n      0x0100\n      dup1\n      dup4\n      sload\n      div\n      mul\n      dup4\n      mstore\n      swap2\n      0x20\n      add\n      swap2\n      jump(tag_115)\n    tag_116:\n      dup3\n      add\n      swap2\n      swap1\n      0x00\n      mstore\n      keccak256(0x00, 0x20)\n      swap1\n    tag_117:\n      dup2\n      sload\n      dup2\n      mstore\n      swap1\n      0x01\n      add\n      swap1\n      0x20\n      add\n      dup1\n      dup4\n      gt\n      tag_117\n      jumpi\n      dup3\n      swap1\n      sub\n      0x1f\n      and\n      dup3\n      add\n      swap2\n    tag_115:\n      pop\n      pop\n      pop\n      pop\n      pop\n      dup2\n      mstore\n      0x20\n      add\n      0x02\n      dup3\n      add\n      dup1\n      sload\n      tag_118\n      swap1\n      tag_69\n      jump\t// in\n    tag_118:\n      dup1\n      0x1f\n      add\n      0x20\n      dup1\n      swap2\n      div\n      mul\n      0x20\n      add\n      mload(0x40)\n      swap1\n      dup2\n      add\n      0x40\n      mstore\n      dup1\n      swap3\n      swap2\n      swap1\n      dup2\n      dup2\n      mstore\n      0x20\n      add\n      dup3\n      dup1\n      sload\n      tag_119\n      swap1\n      tag_69\n      jump\t// in\n    tag_119:\n      dup1\n      iszero\n      tag_120\n      jumpi\n      dup1\n      0x1f\n      lt\n      tag_121\n      jumpi\n      0x0100\n      dup1\n      dup4\n      sload\n      div\n      mul\n      dup4\n      mstore\n      swap2\n      0x20\n      add\n      swap2\n      jump(tag_120)\n    tag_121:\n      dup3\n      add\n      swap2\n      swap1\n      0x00\n      mstore\n      keccak256(0x00, 0x20)\n      swap1\n    tag_122:\n      dup2\n      sload\n      dup2\n      mstore\n      swap1\n      0x01\n      add\n      swap1\n      0x20\n      add\n      dup1\n      dup4\n      gt\n      tag_122\n      jumpi\n      dup3\n      swap1\n      sub\n      0x1f\n      and\n      dup3\n      add\n      swap2\n    tag_120:\n      pop\n      pop\n      pop\n      pop\n      pop\n      dup2\n      mstore\n      0x20\n      add\n      0x03\n      dup3\n      add\n      0x00\n      swap1\n      sload\n      swap1\n      0x0100\n      exp\n      swap1\n      div\n      0xffffffffffffffffffffffffffffffffffffffff\n      and\n      0xffffffffffffffffffffffffffffffffffffffff\n      and\n      0xffffffffffffffffffffffffffffffffffffffff\n      and\n      dup2\n      mstore\n      0x20\n      add\n      0x04\n      dup3\n      add\n      sload\n      dup2\n      mstore\n      0x20\n      add\n      0x05\n      dup3\n      add\n      sload\n      dup2\n      mstore\n      0x20\n      add\n      0x06\n      dup3\n      add\n      sload\n      dup2\n      mstore\n      0x20\n      add\n      0x07\n      dup3\n      add\n      sload\n      dup2\n      mstore\n      pop\n      pop\n      dup2\n      mstore\n      0x20\n      add\n      swap1\n      0x01\n      add\n      swap1\n      jump(tag_110)\n    tag_111:\n      pop\n      pop\n      pop\n      pop\n      swap1\n      pop\n        /* \"contracts/1_Crowdfunding.sol\":1552:1654  function getAllCampaigns() external view returns(Campaign[] memory) {... */\n      swap1\n      jump\t// out\n        /* \"contracts/1_Crowdfunding.sol\":996:1546  function createCampaign(string memory _name, string memory _description, uint _duration, uint _goalBalance) external {... */\n    tag_38:\n        /* \"contracts/1_Crowdfunding.sol\":1123:1147  Campaign memory campaign */\n      0x00\n        /* \"contracts/1_Crowdfunding.sol\":1150:1503  Campaign({... */\n      mload(0x40)\n      dup1\n      0x0100\n      add\n      0x40\n      mstore\n      dup1\n        /* \"contracts/1_Crowdfunding.sol\":1181:1191  _campaigns */\n      0x01\n        /* \"contracts/1_Crowdfunding.sol\":1181:1198  _campaigns.length */\n      dup1\n      sload\n      swap1\n      pop\n        /* \"contracts/1_Crowdfunding.sol\":1150:1503  Campaign({... */\n      dup2\n      mstore\n      0x20\n      add\n        /* \"contracts/1_Crowdfunding.sol\":1223:1228  _name */\n      dup7\n        /* \"contracts/1_Crowdfunding.sol\":1150:1503  Campaign({... */\n      dup2\n      mstore\n      0x20\n      add\n        /* \"contracts/1_Crowdfunding.sol\":1260:1272  _description */\n      dup6\n        /* \"contracts/1_Crowdfunding.sol\":1150:1503  Campaign({... */\n      dup2\n      mstore\n      0x20\n      add\n        /* \"contracts/1_Crowdfunding.sol\":1305:1315  msg.sender */\n      caller\n        /* \"contracts/1_Crowdfunding.sol\":1150:1503  Campaign({... */\n      0xffffffffffffffffffffffffffffffffffffffff\n      and\n      dup2\n      mstore\n      0x20\n      add\n        /* \"contracts/1_Crowdfunding.sol\":1350:1351  0 */\n      0x00\n        /* \"contracts/1_Crowdfunding.sol\":1150:1503  Campaign({... */\n      dup2\n      mstore\n      0x20\n      add\n        /* \"contracts/1_Crowdfunding.sol\":1382:1394  _goalBalance */\n      dup4\n        /* \"contracts/1_Crowdfunding.sol\":1150:1503  Campaign({... */\n      dup2\n      mstore\n      0x20\n      add\n        /* \"contracts/1_Crowdfunding.sol\":1423:1438  block.timestamp */\n      timestamp\n        /* \"contracts/1_Crowdfunding.sol\":1150:1503  Campaign({... */\n      dup2\n      mstore\n      0x20\n      add\n        /* \"contracts/1_Crowdfunding.sol\":1483:1492  _duration */\n      dup5\n        /* \"contracts/1_Crowdfunding.sol\":1465:1480  block.timestamp */\n      timestamp\n        /* \"contracts/1_Crowdfunding.sol\":1465:1492  block.timestamp + _duration */\n      tag_124\n      swap2\n      swap1\n      tag_106\n      jump\t// in\n    tag_124:\n        /* \"contracts/1_Crowdfunding.sol\":1150:1503  Campaign({... */\n      dup2\n      mstore\n      pop\n        /* \"contracts/1_Crowdfunding.sol\":1123:1503  Campaign memory campaign = Campaign({... */\n      swap1\n      pop\n        /* \"contracts/1_Crowdfunding.sol\":1514:1524  _campaigns */\n      0x01\n        /* \"contracts/1_Crowdfunding.sol\":1530:1538  campaign */\n      dup2\n        /* \"contracts/1_Crowdfunding.sol\":1514:1539  _campaigns.push(campaign) */\n      swap1\n      dup1\n      0x01\n      dup2\n      sload\n      add\n      dup1\n      dup3\n      sstore\n      dup1\n      swap2\n      pop\n      pop\n      0x01\n      swap1\n      sub\n      swap1\n      0x00\n      mstore\n      keccak256(0x00, 0x20)\n      swap1\n      0x08\n      mul\n      add\n      0x00\n      swap1\n      swap2\n      swap1\n      swap2\n      swap1\n      swap2\n      pop\n      0x00\n      dup3\n      add\n      mload\n      dup2\n      0x00\n      add\n      sstore\n      0x20\n      dup3\n      add\n      mload\n      dup2\n      0x01\n      add\n      swap1\n      dup2\n      tag_126\n      swap2\n      swap1\n      tag_127\n      jump\t// in\n    tag_126:\n      pop\n      0x40\n      dup3\n      add\n      mload\n      dup2\n      0x02\n      add\n      swap1\n      dup2\n      tag_128\n      swap2\n      swap1\n      tag_127\n      jump\t// in\n    tag_128:\n      pop\n      0x60\n      dup3\n      add\n      mload\n      dup2\n      0x03\n      add\n      exp(0x0100, 0x00)\n      dup2\n      sload\n      dup2\n      0xffffffffffffffffffffffffffffffffffffffff\n      mul\n      not\n      and\n      swap1\n      dup4\n      0xffffffffffffffffffffffffffffffffffffffff\n      and\n      mul\n      or\n      swap1\n      sstore\n      pop\n      0x80\n      dup3\n      add\n      mload\n      dup2\n      0x04\n      add\n      sstore\n      0xa0\n      dup3\n      add\n      mload\n      dup2\n      0x05\n      add\n      sstore\n      0xc0\n      dup3\n      add\n      mload\n      dup2\n      0x06\n      add\n      sstore\n      0xe0\n      dup3\n      add\n      mload\n      dup2\n      0x07\n      add\n      sstore\n      pop\n      pop\n        /* \"contracts/1_Crowdfunding.sol\":1113:1546  {... */\n      pop\n        /* \"contracts/1_Crowdfunding.sol\":996:1546  function createCampaign(string memory _name, string memory _description, uint _duration, uint _goalBalance) external {... */\n      pop\n      pop\n      pop\n      pop\n      jump\t// out\n        /* \"contracts/1_Crowdfunding.sol\":3563:3668  function setCommision(uint8 _newCommision) external onlyOwner {... */\n    tag_43:\n        /* \"contracts/1_Crowdfunding.sol\":594:600  _owner */\n      0x00\n      dup1\n      sload\n      swap1\n      0x0100\n      exp\n      swap1\n      div\n      0xffffffffffffffffffffffffffffffffffffffff\n      and\n        /* \"contracts/1_Crowdfunding.sol\":580:600  msg.sender == _owner */\n      0xffffffffffffffffffffffffffffffffffffffff\n      and\n        /* \"contracts/1_Crowdfunding.sol\":580:590  msg.sender */\n      caller\n        /* \"contracts/1_Crowdfunding.sol\":580:600  msg.sender == _owner */\n      0xffffffffffffffffffffffffffffffffffffffff\n      and\n      eq\n        /* \"contracts/1_Crowdfunding.sol\":572:615  require(msg.sender == _owner, \"only owner\") */\n      tag_130\n      jumpi\n      mload(0x40)\n      0x08c379a000000000000000000000000000000000000000000000000000000000\n      dup2\n      mstore\n      0x04\n      add\n      tag_131\n      swap1\n      tag_53\n      jump\t// in\n    tag_131:\n      mload(0x40)\n      dup1\n      swap2\n      sub\n      swap1\n      revert\n    tag_130:\n        /* \"contracts/1_Crowdfunding.sol\":3648:3661  _newCommision */\n      dup1\n        /* \"contracts/1_Crowdfunding.sol\":3635:3645  _commision */\n      0x03\n      0x00\n        /* \"contracts/1_Crowdfunding.sol\":3635:3661  _commision = _newCommision */\n      0x0100\n      exp\n      dup2\n      sload\n      dup2\n      0xff\n      mul\n      not\n      and\n      swap1\n      dup4\n      0xff\n      and\n      mul\n      or\n      swap1\n      sstore\n      pop\n        /* \"contracts/1_Crowdfunding.sol\":3563:3668  function setCommision(uint8 _newCommision) external onlyOwner {... */\n      pop\n      jump\t// out\n        /* \"contracts/1_Crowdfunding.sol\":2984:3189  function getAllDepositsById(uint _id) public view returns (Depositor[] memory) {... */\n    tag_47:\n        /* \"contracts/1_Crowdfunding.sol\":3043:3061  Depositor[] memory */\n      0x60\n        /* \"contracts/1_Crowdfunding.sol\":3087:3097  _campaigns */\n      0x01\n        /* \"contracts/1_Crowdfunding.sol\":3087:3104  _campaigns.length */\n      dup1\n      sload\n      swap1\n      pop\n        /* \"contracts/1_Crowdfunding.sol\":3081:3084  _id */\n      dup3\n        /* \"contracts/1_Crowdfunding.sol\":3081:3104  _id < _campaigns.length */\n      lt\n        /* \"contracts/1_Crowdfunding.sol\":3073:3132  require(_id < _campaigns.length, \"Campaign does not exist\") */\n      tag_134\n      jumpi\n      mload(0x40)\n      0x08c379a000000000000000000000000000000000000000000000000000000000\n      dup2\n      mstore\n      0x04\n      add\n      tag_135\n      swap1\n      tag_94\n      jump\t// in\n    tag_135:\n      mload(0x40)\n      dup1\n      swap2\n      sub\n      swap1\n      revert\n    tag_134:\n        /* \"contracts/1_Crowdfunding.sol\":3158:3177  _depositsToCampaign */\n      0x02\n        /* \"contracts/1_Crowdfunding.sol\":3158:3182  _depositsToCampaign[_id] */\n      0x00\n        /* \"contracts/1_Crowdfunding.sol\":3178:3181  _id */\n      dup4\n        /* \"contracts/1_Crowdfunding.sol\":3158:3182  _depositsToCampaign[_id] */\n      dup2\n      mstore\n      0x20\n      add\n      swap1\n      dup2\n      mstore\n      0x20\n      add\n      0x00\n      keccak256\n        /* \"contracts/1_Crowdfunding.sol\":3151:3182  return _depositsToCampaign[_id] */\n      dup1\n      sload\n      dup1\n      0x20\n      mul\n      0x20\n      add\n      mload(0x40)\n      swap1\n      dup2\n      add\n      0x40\n      mstore\n      dup1\n      swap3\n      swap2\n      swap1\n      dup2\n      dup2\n      mstore\n      0x20\n      add\n      0x00\n      swap1\n    tag_136:\n      dup3\n      dup3\n      lt\n      iszero\n      tag_137\n      jumpi\n      dup4\n      dup3\n      swap1\n      0x00\n      mstore\n      keccak256(0x00, 0x20)\n      swap1\n      0x02\n      mul\n      add\n      mload(0x40)\n      dup1\n      0x40\n      add\n      0x40\n      mstore\n      swap1\n      dup2\n      0x00\n      dup3\n      add\n      0x00\n      swap1\n      sload\n      swap1\n      0x0100\n      exp\n      swap1\n      div\n      0xffffffffffffffffffffffffffffffffffffffff\n      and\n      0xffffffffffffffffffffffffffffffffffffffff\n      and\n      0xffffffffffffffffffffffffffffffffffffffff\n      and\n      dup2\n      mstore\n      0x20\n      add\n      0x01\n      dup3\n      add\n      sload\n      dup2\n      mstore\n      pop\n      pop\n      dup2\n      mstore\n      0x20\n      add\n      swap1\n      0x01\n      add\n      swap1\n      jump(tag_136)\n    tag_137:\n      pop\n      pop\n      pop\n      pop\n      swap1\n      pop\n        /* \"contracts/1_Crowdfunding.sol\":2984:3189  function getAllDepositsById(uint _id) public view returns (Depositor[] memory) {... */\n      swap2\n      swap1\n      pop\n      jump\t// out\n        /* \"contracts/1_Crowdfunding.sol\":4579:4718  function _calculateCommision(uint _campaignBalance) private view returns (uint) {... */\n    tag_81:\n        /* \"contracts/1_Crowdfunding.sol\":4653:4657  uint */\n      0x00\n        /* \"contracts/1_Crowdfunding.sol\":4708:4711  100 */\n      0x64\n        /* \"contracts/1_Crowdfunding.sol\":4695:4705  _commision */\n      0x03\n      0x00\n      swap1\n      sload\n      swap1\n      0x0100\n      exp\n      swap1\n      div\n      0xff\n      and\n        /* \"contracts/1_Crowdfunding.sol\":4676:4705  _campaignBalance * _commision */\n      0xff\n      and\n        /* \"contracts/1_Crowdfunding.sol\":4676:4692  _campaignBalance */\n      dup4\n        /* \"contracts/1_Crowdfunding.sol\":4676:4705  _campaignBalance * _commision */\n      tag_140\n      swap2\n      swap1\n      tag_141\n      jump\t// in\n    tag_140:\n        /* \"contracts/1_Crowdfunding.sol\":4676:4711  _campaignBalance * _commision / 100 */\n      tag_142\n      swap2\n      swap1\n      tag_143\n      jump\t// in\n    tag_142:\n        /* \"contracts/1_Crowdfunding.sol\":4669:4711  return _campaignBalance * _commision / 100 */\n      swap1\n      pop\n        /* \"contracts/1_Crowdfunding.sol\":4579:4718  function _calculateCommision(uint _campaignBalance) private view returns (uint) {... */\n      swap2\n      swap1\n      pop\n      jump\t// out\n        /* \"contracts/1_Crowdfunding.sol\":2624:2978  function _returnToDepositors(Campaign memory _campaign) internal {... */\n    tag_90:\n        /* \"contracts/1_Crowdfunding.sol\":2704:2710  uint i */\n      0x00\n        /* \"contracts/1_Crowdfunding.sol\":2699:2972  for (uint i = 0; i < _depositsToCampaign[_campaign.id].length; i++) {... */\n    tag_145:\n        /* \"contracts/1_Crowdfunding.sol\":2720:2739  _depositsToCampaign */\n      0x02\n        /* \"contracts/1_Crowdfunding.sol\":2720:2753  _depositsToCampaign[_campaign.id] */\n      0x00\n        /* \"contracts/1_Crowdfunding.sol\":2740:2749  _campaign */\n      dup4\n        /* \"contracts/1_Crowdfunding.sol\":2740:2752  _campaign.id */\n      0x00\n      add\n      mload\n        /* \"contracts/1_Crowdfunding.sol\":2720:2753  _depositsToCampaign[_campaign.id] */\n      dup2\n      mstore\n      0x20\n      add\n      swap1\n      dup2\n      mstore\n      0x20\n      add\n      0x00\n      keccak256\n        /* \"contracts/1_Crowdfunding.sol\":2720:2760  _depositsToCampaign[_campaign.id].length */\n      dup1\n      sload\n      swap1\n      pop\n        /* \"contracts/1_Crowdfunding.sol\":2716:2717  i */\n      dup2\n        /* \"contracts/1_Crowdfunding.sol\":2716:2760  i < _depositsToCampaign[_campaign.id].length */\n      lt\n        /* \"contracts/1_Crowdfunding.sol\":2699:2972  for (uint i = 0; i < _depositsToCampaign[_campaign.id].length; i++) {... */\n      iszero\n      tag_146\n      jumpi\n        /* \"contracts/1_Crowdfunding.sol\":2781:2807  Depositor memory depositor */\n      0x00\n        /* \"contracts/1_Crowdfunding.sol\":2810:2829  _depositsToCampaign */\n      0x02\n        /* \"contracts/1_Crowdfunding.sol\":2810:2843  _depositsToCampaign[_campaign.id] */\n      0x00\n        /* \"contracts/1_Crowdfunding.sol\":2830:2839  _campaign */\n      dup5\n        /* \"contracts/1_Crowdfunding.sol\":2830:2842  _campaign.id */\n      0x00\n      add\n      mload\n        /* \"contracts/1_Crowdfunding.sol\":2810:2843  _depositsToCampaign[_campaign.id] */\n      dup2\n      mstore\n      0x20\n      add\n      swap1\n      dup2\n      mstore\n      0x20\n      add\n      0x00\n      keccak256\n        /* \"contracts/1_Crowdfunding.sol\":2844:2845  i */\n      dup3\n        /* \"contracts/1_Crowdfunding.sol\":2810:2846  _depositsToCampaign[_campaign.id][i] */\n      dup2\n      sload\n      dup2\n      lt\n      tag_148\n      jumpi\n      tag_149\n      tag_60\n      jump\t// in\n    tag_149:\n    tag_148:\n      swap1\n      0x00\n      mstore\n      keccak256(0x00, 0x20)\n      swap1\n      0x02\n      mul\n      add\n        /* \"contracts/1_Crowdfunding.sol\":2781:2846  Depositor memory depositor = _depositsToCampaign[_campaign.id][i] */\n      mload(0x40)\n      dup1\n      0x40\n      add\n      0x40\n      mstore\n      swap1\n      dup2\n      0x00\n      dup3\n      add\n      0x00\n      swap1\n      sload\n      swap1\n      0x0100\n      exp\n      swap1\n      div\n      0xffffffffffffffffffffffffffffffffffffffff\n      and\n      0xffffffffffffffffffffffffffffffffffffffff\n      and\n      0xffffffffffffffffffffffffffffffffffffffff\n      and\n      dup2\n      mstore\n      0x20\n      add\n      0x01\n      dup3\n      add\n      sload\n      dup2\n      mstore\n      pop\n      pop\n      swap1\n      pop\n        /* \"contracts/1_Crowdfunding.sol\":2861:2870  depositor */\n      dup1\n        /* \"contracts/1_Crowdfunding.sol\":2861:2875  depositor.addr */\n      0x00\n      add\n      mload\n        /* \"contracts/1_Crowdfunding.sol\":2861:2884  depositor.addr.transfer */\n      0xffffffffffffffffffffffffffffffffffffffff\n      and\n        /* \"contracts/1_Crowdfunding.sol\":2861:2903  depositor.addr.transfer(depositor.balance) */\n      0x08fc\n        /* \"contracts/1_Crowdfunding.sol\":2885:2894  depositor */\n      dup3\n        /* \"contracts/1_Crowdfunding.sol\":2885:2902  depositor.balance */\n      0x20\n      add\n      mload\n        /* \"contracts/1_Crowdfunding.sol\":2861:2903  depositor.addr.transfer(depositor.balance) */\n      swap1\n      dup2\n      iszero\n      mul\n      swap1\n      mload(0x40)\n      0x00\n      mload(0x40)\n      dup1\n      dup4\n      sub\n      dup2\n      dup6\n      dup9\n      dup9\n      call\n      swap4\n      pop\n      pop\n      pop\n      pop\n      iszero\n      dup1\n      iszero\n      tag_152\n      jumpi\n      returndatasize\n      0x00\n      dup1\n      returndatacopy\n      revert(0x00, returndatasize)\n    tag_152:\n      pop\n        /* \"contracts/1_Crowdfunding.sol\":2960:2961  0 */\n      0x00\n        /* \"contracts/1_Crowdfunding.sol\":2918:2928  _campaigns */\n      0x01\n        /* \"contracts/1_Crowdfunding.sol\":2929:2938  _campaign */\n      dup5\n        /* \"contracts/1_Crowdfunding.sol\":2929:2941  _campaign.id */\n      0x00\n      add\n      mload\n        /* \"contracts/1_Crowdfunding.sol\":2918:2942  _campaigns[_campaign.id] */\n      dup2\n      sload\n      dup2\n      lt\n      tag_153\n      jumpi\n      tag_154\n      tag_60\n      jump\t// in\n    tag_154:\n    tag_153:\n      swap1\n      0x00\n      mstore\n      keccak256(0x00, 0x20)\n      swap1\n      0x08\n      mul\n      add\n        /* \"contracts/1_Crowdfunding.sol\":2918:2957  _campaigns[_campaign.id].currentBalance */\n      0x04\n      add\n        /* \"contracts/1_Crowdfunding.sol\":2918:2961  _campaigns[_campaign.id].currentBalance = 0 */\n      dup2\n      swap1\n      sstore\n      pop\n        /* \"contracts/1_Crowdfunding.sol\":2767:2972  {... */\n      pop\n        /* \"contracts/1_Crowdfunding.sol\":2762:2765  i++ */\n      dup1\n      dup1\n      0x01\n      add\n      swap2\n      pop\n      pop\n        /* \"contracts/1_Crowdfunding.sol\":2699:2972  for (uint i = 0; i < _depositsToCampaign[_campaign.id].length; i++) {... */\n      jump(tag_145)\n    tag_146:\n      pop\n        /* \"contracts/1_Crowdfunding.sol\":2624:2978  function _returnToDepositors(Campaign memory _campaign) internal {... */\n      pop\n      jump\t// out\n        /* \"contracts/1_Crowdfunding.sol\":1936:2618  function _increaseDepositor(uint _campaignId, address _depositor, uint amount) internal {... */\n    tag_108:\n        /* \"contracts/1_Crowdfunding.sol\":2039:2045  uint i */\n      0x00\n        /* \"contracts/1_Crowdfunding.sol\":2034:2403  for (uint i = 0; i < _depositsToCampaign[_campaignId].length; i++) {... */\n    tag_157:\n        /* \"contracts/1_Crowdfunding.sol\":2055:2074  _depositsToCampaign */\n      0x02\n        /* \"contracts/1_Crowdfunding.sol\":2055:2087  _depositsToCampaign[_campaignId] */\n      0x00\n        /* \"contracts/1_Crowdfunding.sol\":2075:2086  _campaignId */\n      dup6\n        /* \"contracts/1_Crowdfunding.sol\":2055:2087  _depositsToCampaign[_campaignId] */\n      dup2\n      mstore\n      0x20\n      add\n      swap1\n      dup2\n      mstore\n      0x20\n      add\n      0x00\n      keccak256\n        /* \"contracts/1_Crowdfunding.sol\":2055:2094  _depositsToCampaign[_campaignId].length */\n      dup1\n      sload\n      swap1\n      pop\n        /* \"contracts/1_Crowdfunding.sol\":2051:2052  i */\n      dup2\n        /* \"contracts/1_Crowdfunding.sol\":2051:2094  i < _depositsToCampaign[_campaignId].length */\n      lt\n        /* \"contracts/1_Crowdfunding.sol\":2034:2403  for (uint i = 0; i < _depositsToCampaign[_campaignId].length; i++) {... */\n      iszero\n      tag_158\n      jumpi\n        /* \"contracts/1_Crowdfunding.sol\":2115:2142  Depositor storage depositor */\n      0x00\n        /* \"contracts/1_Crowdfunding.sol\":2145:2164  _depositsToCampaign */\n      0x02\n        /* \"contracts/1_Crowdfunding.sol\":2145:2177  _depositsToCampaign[_campaignId] */\n      0x00\n        /* \"contracts/1_Crowdfunding.sol\":2165:2176  _campaignId */\n      dup7\n        /* \"contracts/1_Crowdfunding.sol\":2145:2177  _depositsToCampaign[_campaignId] */\n      dup2\n      mstore\n      0x20\n      add\n      swap1\n      dup2\n      mstore\n      0x20\n      add\n      0x00\n      keccak256\n        /* \"contracts/1_Crowdfunding.sol\":2178:2179  i */\n      dup3\n        /* \"contracts/1_Crowdfunding.sol\":2145:2180  _depositsToCampaign[_campaignId][i] */\n      dup2\n      sload\n      dup2\n      lt\n      tag_160\n      jumpi\n      tag_161\n      tag_60\n      jump\t// in\n    tag_161:\n    tag_160:\n      swap1\n      0x00\n      mstore\n      keccak256(0x00, 0x20)\n      swap1\n      0x02\n      mul\n      add\n        /* \"contracts/1_Crowdfunding.sol\":2115:2180  Depositor storage depositor = _depositsToCampaign[_campaignId][i] */\n      swap1\n      pop\n        /* \"contracts/1_Crowdfunding.sol\":2216:2226  _depositor */\n      dup4\n        /* \"contracts/1_Crowdfunding.sol\":2198:2226  depositor.addr == _depositor */\n      0xffffffffffffffffffffffffffffffffffffffff\n      and\n        /* \"contracts/1_Crowdfunding.sol\":2198:2207  depositor */\n      dup2\n        /* \"contracts/1_Crowdfunding.sol\":2198:2212  depositor.addr */\n      0x00\n      add\n      0x00\n      swap1\n      sload\n      swap1\n      0x0100\n      exp\n      swap1\n      div\n      0xffffffffffffffffffffffffffffffffffffffff\n      and\n        /* \"contracts/1_Crowdfunding.sol\":2198:2226  depositor.addr == _depositor */\n      0xffffffffffffffffffffffffffffffffffffffff\n      and\n      sub\n        /* \"contracts/1_Crowdfunding.sol\":2194:2393  if (depositor.addr == _depositor) {... */\n      tag_163\n      jumpi\n        /* \"contracts/1_Crowdfunding.sol\":2267:2273  amount */\n      dup3\n        /* \"contracts/1_Crowdfunding.sol\":2246:2255  depositor */\n      dup2\n        /* \"contracts/1_Crowdfunding.sol\":2246:2263  depositor.balance */\n      0x01\n      add\n      0x00\n        /* \"contracts/1_Crowdfunding.sol\":2246:2273  depositor.balance += amount */\n      dup3\n      dup3\n      sload\n      tag_164\n      swap2\n      swap1\n      tag_106\n      jump\t// in\n    tag_164:\n      swap3\n      pop\n      pop\n      dup2\n      swap1\n      sstore\n      pop\n        /* \"contracts/1_Crowdfunding.sol\":2296:2354  DepositorAdded(_campaignId, _depositor, depositor.balance) */\n      0x7866e3ff5458eed4e51997e2ae0ed26085968923a3b2d72604bb657cb4732a66\n        /* \"contracts/1_Crowdfunding.sol\":2311:2322  _campaignId */\n      dup6\n        /* \"contracts/1_Crowdfunding.sol\":2324:2334  _depositor */\n      dup6\n        /* \"contracts/1_Crowdfunding.sol\":2336:2345  depositor */\n      dup4\n        /* \"contracts/1_Crowdfunding.sol\":2336:2353  depositor.balance */\n      0x01\n      add\n      sload\n        /* \"contracts/1_Crowdfunding.sol\":2296:2354  DepositorAdded(_campaignId, _depositor, depositor.balance) */\n      mload(0x40)\n      tag_165\n      swap4\n      swap3\n      swap2\n      swap1\n      tag_166\n      jump\t// in\n    tag_165:\n      mload(0x40)\n      dup1\n      swap2\n      sub\n      swap1\n      log1\n        /* \"contracts/1_Crowdfunding.sol\":2372:2379  return; */\n      pop\n      pop\n      jump(tag_156)\n        /* \"contracts/1_Crowdfunding.sol\":2194:2393  if (depositor.addr == _depositor) {... */\n    tag_163:\n        /* \"contracts/1_Crowdfunding.sol\":2101:2403  {... */\n      pop\n        /* \"contracts/1_Crowdfunding.sol\":2096:2099  i++ */\n      dup1\n      dup1\n      0x01\n      add\n      swap2\n      pop\n      pop\n        /* \"contracts/1_Crowdfunding.sol\":2034:2403  for (uint i = 0; i < _depositsToCampaign[_campaignId].length; i++) {... */\n      jump(tag_157)\n    tag_158:\n      pop\n        /* \"contracts/1_Crowdfunding.sol\":2421:2440  _depositsToCampaign */\n      0x02\n        /* \"contracts/1_Crowdfunding.sol\":2421:2453  _depositsToCampaign[_campaignId] */\n      0x00\n        /* \"contracts/1_Crowdfunding.sol\":2441:2452  _campaignId */\n      dup5\n        /* \"contracts/1_Crowdfunding.sol\":2421:2453  _depositsToCampaign[_campaignId] */\n      dup2\n      mstore\n      0x20\n      add\n      swap1\n      dup2\n      mstore\n      0x20\n      add\n      0x00\n      keccak256\n        /* \"contracts/1_Crowdfunding.sol\":2459:2548  Depositor({... */\n      mload(0x40)\n      dup1\n      0x40\n      add\n      0x40\n      mstore\n      dup1\n        /* \"contracts/1_Crowdfunding.sol\":2497:2507  _depositor */\n      dup5\n        /* \"contracts/1_Crowdfunding.sol\":2459:2548  Depositor({... */\n      0xffffffffffffffffffffffffffffffffffffffff\n      and\n      dup2\n      mstore\n      0x20\n      add\n        /* \"contracts/1_Crowdfunding.sol\":2531:2537  amount */\n      dup4\n        /* \"contracts/1_Crowdfunding.sol\":2459:2548  Depositor({... */\n      dup2\n      mstore\n      pop\n        /* \"contracts/1_Crowdfunding.sol\":2421:2549  _depositsToCampaign[_campaignId].push(Depositor({... */\n      swap1\n      dup1\n      0x01\n      dup2\n      sload\n      add\n      dup1\n      dup3\n      sstore\n      dup1\n      swap2\n      pop\n      pop\n      0x01\n      swap1\n      sub\n      swap1\n      0x00\n      mstore\n      keccak256(0x00, 0x20)\n      swap1\n      0x02\n      mul\n      add\n      0x00\n      swap1\n      swap2\n      swap1\n      swap2\n      swap1\n      swap2\n      pop\n      0x00\n      dup3\n      add\n      mload\n      dup2\n      0x00\n      add\n      exp(0x0100, 0x00)\n      dup2\n      sload\n      dup2\n      0xffffffffffffffffffffffffffffffffffffffff\n      mul\n      not\n      and\n      swap1\n      dup4\n      0xffffffffffffffffffffffffffffffffffffffff\n      and\n      mul\n      or\n      swap1\n      sstore\n      pop\n      0x20\n      dup3\n      add\n      mload\n      dup2\n      0x01\n      add\n      sstore\n      pop\n      pop\n        /* \"contracts/1_Crowdfunding.sol\":2564:2611  DepositorAdded(_campaignId, _depositor, amount) */\n      0x7866e3ff5458eed4e51997e2ae0ed26085968923a3b2d72604bb657cb4732a66\n        /* \"contracts/1_Crowdfunding.sol\":2579:2590  _campaignId */\n      dup4\n        /* \"contracts/1_Crowdfunding.sol\":2592:2602  _depositor */\n      dup4\n        /* \"contracts/1_Crowdfunding.sol\":2604:2610  amount */\n      dup4\n        /* \"contracts/1_Crowdfunding.sol\":2564:2611  DepositorAdded(_campaignId, _depositor, amount) */\n      mload(0x40)\n      tag_168\n      swap4\n      swap3\n      swap2\n      swap1\n      tag_166\n      jump\t// in\n    tag_168:\n      mload(0x40)\n      dup1\n      swap2\n      sub\n      swap1\n      log1\n        /* \"contracts/1_Crowdfunding.sol\":1936:2618  function _increaseDepositor(uint _campaignId, address _depositor, uint amount) internal {... */\n    tag_156:\n      pop\n      pop\n      pop\n      jump\t// out\n        /* \"#utility.yul\":7:82   */\n    tag_169:\n        /* \"#utility.yul\":40:46   */\n      0x00\n        /* \"#utility.yul\":73:75   */\n      0x40\n        /* \"#utility.yul\":67:76   */\n      mload\n        /* \"#utility.yul\":57:76   */\n      swap1\n      pop\n        /* \"#utility.yul\":7:82   */\n      swap1\n      jump\t// out\n        /* \"#utility.yul\":88:205   */\n    tag_170:\n        /* \"#utility.yul\":197:198   */\n      0x00\n        /* \"#utility.yul\":194:195   */\n      dup1\n        /* \"#utility.yul\":187:199   */\n      revert\n        /* \"#utility.yul\":211:328   */\n    tag_171:\n        /* \"#utility.yul\":320:321   */\n      0x00\n        /* \"#utility.yul\":317:318   */\n      dup1\n        /* \"#utility.yul\":310:322   */\n      revert\n        /* \"#utility.yul\":334:411   */\n    tag_172:\n        /* \"#utility.yul\":371:378   */\n      0x00\n        /* \"#utility.yul\":400:405   */\n      dup2\n        /* \"#utility.yul\":389:405   */\n      swap1\n      pop\n        /* \"#utility.yul\":334:411   */\n      swap2\n      swap1\n      pop\n      jump\t// out\n        /* \"#utility.yul\":417:539   */\n    tag_173:\n        /* \"#utility.yul\":490:514   */\n      tag_249\n        /* \"#utility.yul\":508:513   */\n      dup2\n        /* \"#utility.yul\":490:514   */\n      tag_172\n      jump\t// in\n    tag_249:\n        /* \"#utility.yul\":483:488   */\n      dup2\n        /* \"#utility.yul\":480:515   */\n      eq\n        /* \"#utility.yul\":470:533   */\n      tag_250\n      jumpi\n        /* \"#utility.yul\":529:530   */\n      0x00\n        /* \"#utility.yul\":526:527   */\n      dup1\n        /* \"#utility.yul\":519:531   */\n      revert\n        /* \"#utility.yul\":470:533   */\n    tag_250:\n        /* \"#utility.yul\":417:539   */\n      pop\n      jump\t// out\n        /* \"#utility.yul\":545:684   */\n    tag_174:\n        /* \"#utility.yul\":591:596   */\n      0x00\n        /* \"#utility.yul\":629:635   */\n      dup2\n        /* \"#utility.yul\":616:636   */\n      calldataload\n        /* \"#utility.yul\":607:636   */\n      swap1\n      pop\n        /* \"#utility.yul\":645:678   */\n      tag_252\n        /* \"#utility.yul\":672:677   */\n      dup2\n        /* \"#utility.yul\":645:678   */\n      tag_173\n      jump\t// in\n    tag_252:\n        /* \"#utility.yul\":545:684   */\n      swap3\n      swap2\n      pop\n      pop\n      jump\t// out\n        /* \"#utility.yul\":690:1019   */\n    tag_13:\n        /* \"#utility.yul\":749:755   */\n      0x00\n        /* \"#utility.yul\":798:800   */\n      0x20\n        /* \"#utility.yul\":786:795   */\n      dup3\n        /* \"#utility.yul\":777:784   */\n      dup5\n        /* \"#utility.yul\":773:796   */\n      sub\n        /* \"#utility.yul\":769:801   */\n      slt\n        /* \"#utility.yul\":766:885   */\n      iszero\n      tag_254\n      jumpi\n        /* \"#utility.yul\":804:883   */\n      tag_255\n      tag_170\n      jump\t// in\n    tag_255:\n        /* \"#utility.yul\":766:885   */\n    tag_254:\n        /* \"#utility.yul\":924:925   */\n      0x00\n        /* \"#utility.yul\":949:1002   */\n      tag_256\n        /* \"#utility.yul\":994:1001   */\n      dup5\n        /* \"#utility.yul\":985:991   */\n      dup3\n        /* \"#utility.yul\":974:983   */\n      dup6\n        /* \"#utility.yul\":970:992   */\n      add\n        /* \"#utility.yul\":949:1002   */\n      tag_174\n      jump\t// in\n    tag_256:\n        /* \"#utility.yul\":939:1002   */\n      swap2\n      pop\n        /* \"#utility.yul\":895:1012   */\n      pop\n        /* \"#utility.yul\":690:1019   */\n      swap3\n      swap2\n      pop\n      pop\n      jump\t// out\n        /* \"#utility.yul\":1025:1143   */\n    tag_175:\n        /* \"#utility.yul\":1112:1136   */\n      tag_258\n        /* \"#utility.yul\":1130:1135   */\n      dup2\n        /* \"#utility.yul\":1112:1136   */\n      tag_172\n      jump\t// in\n    tag_258:\n        /* \"#utility.yul\":1107:1110   */\n      dup3\n        /* \"#utility.yul\":1100:1137   */\n      mstore\n        /* \"#utility.yul\":1025:1143   */\n      pop\n      pop\n      jump\t// out\n        /* \"#utility.yul\":1149:1371   */\n    tag_20:\n        /* \"#utility.yul\":1242:1246   */\n      0x00\n        /* \"#utility.yul\":1280:1282   */\n      0x20\n        /* \"#utility.yul\":1269:1278   */\n      dup3\n        /* \"#utility.yul\":1265:1283   */\n      add\n        /* \"#utility.yul\":1257:1283   */\n      swap1\n      pop\n        /* \"#utility.yul\":1293:1364   */\n      tag_260\n        /* \"#utility.yul\":1361:1362   */\n      0x00\n        /* \"#utility.yul\":1350:1359   */\n      dup4\n        /* \"#utility.yul\":1346:1363   */\n      add\n        /* \"#utility.yul\":1337:1343   */\n      dup5\n        /* \"#utility.yul\":1293:1364   */\n      tag_175\n      jump\t// in\n    tag_260:\n        /* \"#utility.yul\":1149:1371   */\n      swap3\n      swap2\n      pop\n      pop\n      jump\t// out\n        /* \"#utility.yul\":1377:1463   */\n    tag_176:\n        /* \"#utility.yul\":1412:1419   */\n      0x00\n        /* \"#utility.yul\":1452:1456   */\n      0xff\n        /* \"#utility.yul\":1445:1450   */\n      dup3\n        /* \"#utility.yul\":1441:1457   */\n      and\n        /* \"#utility.yul\":1430:1457   */\n      swap1\n      pop\n        /* \"#utility.yul\":1377:1463   */\n      swap2\n      swap1\n      pop\n      jump\t// out\n        /* \"#utility.yul\":1469:1581   */\n    tag_177:\n        /* \"#utility.yul\":1552:1574   */\n      tag_263\n        /* \"#utility.yul\":1568:1573   */\n      dup2\n        /* \"#utility.yul\":1552:1574   */\n      tag_176\n      jump\t// in\n    tag_263:\n        /* \"#utility.yul\":1547:1550   */\n      dup3\n        /* \"#utility.yul\":1540:1575   */\n      mstore\n        /* \"#utility.yul\":1469:1581   */\n      pop\n      pop\n      jump\t// out\n        /* \"#utility.yul\":1587:1801   */\n    tag_25:\n        /* \"#utility.yul\":1676:1680   */\n      0x00\n        /* \"#utility.yul\":1714:1716   */\n      0x20\n        /* \"#utility.yul\":1703:1712   */\n      dup3\n        /* \"#utility.yul\":1699:1717   */\n      add\n        /* \"#utility.yul\":1691:1717   */\n      swap1\n      pop\n        /* \"#utility.yul\":1727:1794   */\n      tag_265\n        /* \"#utility.yul\":1791:1792   */\n      0x00\n        /* \"#utility.yul\":1780:1789   */\n      dup4\n        /* \"#utility.yul\":1776:1793   */\n      add\n        /* \"#utility.yul\":1767:1773   */\n      dup5\n        /* \"#utility.yul\":1727:1794   */\n      tag_177\n      jump\t// in\n    tag_265:\n        /* \"#utility.yul\":1587:1801   */\n      swap3\n      swap2\n      pop\n      pop\n      jump\t// out\n        /* \"#utility.yul\":1807:1945   */\n    tag_178:\n        /* \"#utility.yul\":1898:1904   */\n      0x00\n        /* \"#utility.yul\":1932:1937   */\n      dup2\n        /* \"#utility.yul\":1926:1938   */\n      mload\n        /* \"#utility.yul\":1916:1938   */\n      swap1\n      pop\n        /* \"#utility.yul\":1807:1945   */\n      swap2\n      swap1\n      pop\n      jump\t// out\n        /* \"#utility.yul\":1951:2159   */\n    tag_179:\n        /* \"#utility.yul\":2074:2085   */\n      0x00\n        /* \"#utility.yul\":2108:2114   */\n      dup3\n        /* \"#utility.yul\":2103:2106   */\n      dup3\n        /* \"#utility.yul\":2096:2115   */\n      mstore\n        /* \"#utility.yul\":2148:2152   */\n      0x20\n        /* \"#utility.yul\":2143:2146   */\n      dup3\n        /* \"#utility.yul\":2139:2153   */\n      add\n        /* \"#utility.yul\":2124:2153   */\n      swap1\n      pop\n        /* \"#utility.yul\":1951:2159   */\n      swap3\n      swap2\n      pop\n      pop\n      jump\t// out\n        /* \"#utility.yul\":2165:2321   */\n    tag_180:\n        /* \"#utility.yul\":2256:2260   */\n      0x00\n        /* \"#utility.yul\":2279:2282   */\n      dup2\n        /* \"#utility.yul\":2271:2282   */\n      swap1\n      pop\n        /* \"#utility.yul\":2309:2313   */\n      0x20\n        /* \"#utility.yul\":2304:2307   */\n      dup3\n        /* \"#utility.yul\":2300:2314   */\n      add\n        /* \"#utility.yul\":2292:2314   */\n      swap1\n      pop\n        /* \"#utility.yul\":2165:2321   */\n      swap2\n      swap1\n      pop\n      jump\t// out\n        /* \"#utility.yul\":2327:2435   */\n    tag_181:\n        /* \"#utility.yul\":2404:2428   */\n      tag_270\n        /* \"#utility.yul\":2422:2427   */\n      dup2\n        /* \"#utility.yul\":2404:2428   */\n      tag_172\n      jump\t// in\n    tag_270:\n        /* \"#utility.yul\":2399:2402   */\n      dup3\n        /* \"#utility.yul\":2392:2429   */\n      mstore\n        /* \"#utility.yul\":2327:2435   */\n      pop\n      pop\n      jump\t// out\n        /* \"#utility.yul\":2441:2540   */\n    tag_182:\n        /* \"#utility.yul\":2493:2499   */\n      0x00\n        /* \"#utility.yul\":2527:2532   */\n      dup2\n        /* \"#utility.yul\":2521:2533   */\n      mload\n        /* \"#utility.yul\":2511:2533   */\n      swap1\n      pop\n        /* \"#utility.yul\":2441:2540   */\n      swap2\n      swap1\n      pop\n      jump\t// out\n        /* \"#utility.yul\":2546:2705   */\n    tag_183:\n        /* \"#utility.yul\":2620:2631   */\n      0x00\n        /* \"#utility.yul\":2654:2660   */\n      dup3\n        /* \"#utility.yul\":2649:2652   */\n      dup3\n        /* \"#utility.yul\":2642:2661   */\n      mstore\n        /* \"#utility.yul\":2694:2698   */\n      0x20\n        /* \"#utility.yul\":2689:2692   */\n      dup3\n        /* \"#utility.yul\":2685:2699   */\n      add\n        /* \"#utility.yul\":2670:2699   */\n      swap1\n      pop\n        /* \"#utility.yul\":2546:2705   */\n      swap3\n      swap2\n      pop\n      pop\n      jump\t// out\n        /* \"#utility.yul\":2711:2850   */\n    tag_184:\n        /* \"#utility.yul\":2800:2806   */\n      dup3\n        /* \"#utility.yul\":2795:2798   */\n      dup2\n        /* \"#utility.yul\":2790:2793   */\n      dup4\n        /* \"#utility.yul\":2784:2807   */\n      mcopy\n        /* \"#utility.yul\":2841:2842   */\n      0x00\n        /* \"#utility.yul\":2832:2838   */\n      dup4\n        /* \"#utility.yul\":2827:2830   */\n      dup4\n        /* \"#utility.yul\":2823:2839   */\n      add\n        /* \"#utility.yul\":2816:2843   */\n      mstore\n        /* \"#utility.yul\":2711:2850   */\n      pop\n      pop\n      pop\n      jump\t// out\n        /* \"#utility.yul\":2856:2958   */\n    tag_185:\n        /* \"#utility.yul\":2897:2903   */\n      0x00\n        /* \"#utility.yul\":2948:2950   */\n      0x1f\n        /* \"#utility.yul\":2944:2951   */\n      not\n        /* \"#utility.yul\":2939:2941   */\n      0x1f\n        /* \"#utility.yul\":2932:2937   */\n      dup4\n        /* \"#utility.yul\":2928:2942   */\n      add\n        /* \"#utility.yul\":2924:2952   */\n      and\n        /* \"#utility.yul\":2914:2952   */\n      swap1\n      pop\n        /* \"#utility.yul\":2856:2958   */\n      swap2\n      swap1\n      pop\n      jump\t// out\n        /* \"#utility.yul\":2964:3321   */\n    tag_186:\n        /* \"#utility.yul\":3042:3045   */\n      0x00\n        /* \"#utility.yul\":3070:3109   */\n      tag_276\n        /* \"#utility.yul\":3103:3108   */\n      dup3\n        /* \"#utility.yul\":3070:3109   */\n      tag_182\n      jump\t// in\n    tag_276:\n        /* \"#utility.yul\":3125:3186   */\n      tag_277\n        /* \"#utility.yul\":3179:3185   */\n      dup2\n        /* \"#utility.yul\":3174:3177   */\n      dup6\n        /* \"#utility.yul\":3125:3186   */\n      tag_183\n      jump\t// in\n    tag_277:\n        /* \"#utility.yul\":3118:3186   */\n      swap4\n      pop\n        /* \"#utility.yul\":3195:3260   */\n      tag_278\n        /* \"#utility.yul\":3253:3259   */\n      dup2\n        /* \"#utility.yul\":3248:3251   */\n      dup6\n        /* \"#utility.yul\":3241:3245   */\n      0x20\n        /* \"#utility.yul\":3234:3239   */\n      dup7\n        /* \"#utility.yul\":3230:3246   */\n      add\n        /* \"#utility.yul\":3195:3260   */\n      tag_184\n      jump\t// in\n    tag_278:\n        /* \"#utility.yul\":3285:3314   */\n      tag_279\n        /* \"#utility.yul\":3307:3313   */\n      dup2\n        /* \"#utility.yul\":3285:3314   */\n      tag_185\n      jump\t// in\n    tag_279:\n        /* \"#utility.yul\":3280:3283   */\n      dup5\n        /* \"#utility.yul\":3276:3315   */\n      add\n        /* \"#utility.yul\":3269:3315   */\n      swap2\n      pop\n        /* \"#utility.yul\":3046:3321   */\n      pop\n        /* \"#utility.yul\":2964:3321   */\n      swap3\n      swap2\n      pop\n      pop\n      jump\t// out\n        /* \"#utility.yul\":3327:3453   */\n    tag_187:\n        /* \"#utility.yul\":3364:3371   */\n      0x00\n        /* \"#utility.yul\":3404:3446   */\n      0xffffffffffffffffffffffffffffffffffffffff\n        /* \"#utility.yul\":3397:3402   */\n      dup3\n        /* \"#utility.yul\":3393:3447   */\n      and\n        /* \"#utility.yul\":3382:3447   */\n      swap1\n      pop\n        /* \"#utility.yul\":3327:3453   */\n      swap2\n      swap1\n      pop\n      jump\t// out\n        /* \"#utility.yul\":3459:3563   */\n    tag_188:\n        /* \"#utility.yul\":3504:3511   */\n      0x00\n        /* \"#utility.yul\":3533:3557   */\n      tag_282\n        /* \"#utility.yul\":3551:3556   */\n      dup3\n        /* \"#utility.yul\":3533:3557   */\n      tag_187\n      jump\t// in\n    tag_282:\n        /* \"#utility.yul\":3522:3557   */\n      swap1\n      pop\n        /* \"#utility.yul\":3459:3563   */\n      swap2\n      swap1\n      pop\n      jump\t// out\n        /* \"#utility.yul\":3569:3701   */\n    tag_189:\n        /* \"#utility.yul\":3662:3694   */\n      tag_284\n        /* \"#utility.yul\":3688:3693   */\n      dup2\n        /* \"#utility.yul\":3662:3694   */\n      tag_188\n      jump\t// in\n    tag_284:\n        /* \"#utility.yul\":3657:3660   */\n      dup3\n        /* \"#utility.yul\":3650:3695   */\n      mstore\n        /* \"#utility.yul\":3569:3701   */\n      pop\n      pop\n      jump\t// out\n        /* \"#utility.yul\":3781:5539   */\n    tag_190:\n        /* \"#utility.yul\":3888:3891   */\n      0x00\n        /* \"#utility.yul\":3924:3930   */\n      0x0100\n        /* \"#utility.yul\":3919:3922   */\n      dup4\n        /* \"#utility.yul\":3915:3931   */\n      add\n        /* \"#utility.yul\":4011:4015   */\n      0x00\n        /* \"#utility.yul\":4004:4009   */\n      dup4\n        /* \"#utility.yul\":4000:4016   */\n      add\n        /* \"#utility.yul\":3994:4017   */\n      mload\n        /* \"#utility.yul\":4030:4093   */\n      tag_286\n        /* \"#utility.yul\":4087:4091   */\n      0x00\n        /* \"#utility.yul\":4082:4085   */\n      dup7\n        /* \"#utility.yul\":4078:4092   */\n      add\n        /* \"#utility.yul\":4064:4076   */\n      dup3\n        /* \"#utility.yul\":4030:4093   */\n      tag_181\n      jump\t// in\n    tag_286:\n        /* \"#utility.yul\":3941:4103   */\n      pop\n        /* \"#utility.yul\":4185:4189   */\n      0x20\n        /* \"#utility.yul\":4178:4183   */\n      dup4\n        /* \"#utility.yul\":4174:4190   */\n      add\n        /* \"#utility.yul\":4168:4191   */\n      mload\n        /* \"#utility.yul\":4238:4241   */\n      dup5\n        /* \"#utility.yul\":4232:4236   */\n      dup3\n        /* \"#utility.yul\":4228:4242   */\n      sub\n        /* \"#utility.yul\":4221:4225   */\n      0x20\n        /* \"#utility.yul\":4216:4219   */\n      dup7\n        /* \"#utility.yul\":4212:4226   */\n      add\n        /* \"#utility.yul\":4205:4243   */\n      mstore\n        /* \"#utility.yul\":4264:4337   */\n      tag_287\n        /* \"#utility.yul\":4332:4336   */\n      dup3\n        /* \"#utility.yul\":4318:4330   */\n      dup3\n        /* \"#utility.yul\":4264:4337   */\n      tag_186\n      jump\t// in\n    tag_287:\n        /* \"#utility.yul\":4256:4337   */\n      swap2\n      pop\n        /* \"#utility.yul\":4113:4348   */\n      pop\n        /* \"#utility.yul\":4437:4441   */\n      0x40\n        /* \"#utility.yul\":4430:4435   */\n      dup4\n        /* \"#utility.yul\":4426:4442   */\n      add\n        /* \"#utility.yul\":4420:4443   */\n      mload\n        /* \"#utility.yul\":4490:4493   */\n      dup5\n        /* \"#utility.yul\":4484:4488   */\n      dup3\n        /* \"#utility.yul\":4480:4494   */\n      sub\n        /* \"#utility.yul\":4473:4477   */\n      0x40\n        /* \"#utility.yul\":4468:4471   */\n      dup7\n        /* \"#utility.yul\":4464:4478   */\n      add\n        /* \"#utility.yul\":4457:4495   */\n      mstore\n        /* \"#utility.yul\":4516:4589   */\n      tag_288\n        /* \"#utility.yul\":4584:4588   */\n      dup3\n        /* \"#utility.yul\":4570:4582   */\n      dup3\n        /* \"#utility.yul\":4516:4589   */\n      tag_186\n      jump\t// in\n    tag_288:\n        /* \"#utility.yul\":4508:4589   */\n      swap2\n      pop\n        /* \"#utility.yul\":4358:4600   */\n      pop\n        /* \"#utility.yul\":4683:4687   */\n      0x60\n        /* \"#utility.yul\":4676:4681   */\n      dup4\n        /* \"#utility.yul\":4672:4688   */\n      add\n        /* \"#utility.yul\":4666:4689   */\n      mload\n        /* \"#utility.yul\":4702:4781   */\n      tag_289\n        /* \"#utility.yul\":4775:4779   */\n      0x60\n        /* \"#utility.yul\":4770:4773   */\n      dup7\n        /* \"#utility.yul\":4766:4780   */\n      add\n        /* \"#utility.yul\":4752:4764   */\n      dup3\n        /* \"#utility.yul\":4702:4781   */\n      tag_189\n      jump\t// in\n    tag_289:\n        /* \"#utility.yul\":4610:4791   */\n      pop\n        /* \"#utility.yul\":4883:4887   */\n      0x80\n        /* \"#utility.yul\":4876:4881   */\n      dup4\n        /* \"#utility.yul\":4872:4888   */\n      add\n        /* \"#utility.yul\":4866:4889   */\n      mload\n        /* \"#utility.yul\":4902:4965   */\n      tag_290\n        /* \"#utility.yul\":4959:4963   */\n      0x80\n        /* \"#utility.yul\":4954:4957   */\n      dup7\n        /* \"#utility.yul\":4950:4964   */\n      add\n        /* \"#utility.yul\":4936:4948   */\n      dup3\n        /* \"#utility.yul\":4902:4965   */\n      tag_181\n      jump\t// in\n    tag_290:\n        /* \"#utility.yul\":4801:4975   */\n      pop\n        /* \"#utility.yul\":5064:5068   */\n      0xa0\n        /* \"#utility.yul\":5057:5062   */\n      dup4\n        /* \"#utility.yul\":5053:5069   */\n      add\n        /* \"#utility.yul\":5047:5070   */\n      mload\n        /* \"#utility.yul\":5083:5146   */\n      tag_291\n        /* \"#utility.yul\":5140:5144   */\n      0xa0\n        /* \"#utility.yul\":5135:5138   */\n      dup7\n        /* \"#utility.yul\":5131:5145   */\n      add\n        /* \"#utility.yul\":5117:5129   */\n      dup3\n        /* \"#utility.yul\":5083:5146   */\n      tag_181\n      jump\t// in\n    tag_291:\n        /* \"#utility.yul\":4985:5156   */\n      pop\n        /* \"#utility.yul\":5243:5247   */\n      0xc0\n        /* \"#utility.yul\":5236:5241   */\n      dup4\n        /* \"#utility.yul\":5232:5248   */\n      add\n        /* \"#utility.yul\":5226:5249   */\n      mload\n        /* \"#utility.yul\":5262:5325   */\n      tag_292\n        /* \"#utility.yul\":5319:5323   */\n      0xc0\n        /* \"#utility.yul\":5314:5317   */\n      dup7\n        /* \"#utility.yul\":5310:5324   */\n      add\n        /* \"#utility.yul\":5296:5308   */\n      dup3\n        /* \"#utility.yul\":5262:5325   */\n      tag_181\n      jump\t// in\n    tag_292:\n        /* \"#utility.yul\":5166:5335   */\n      pop\n        /* \"#utility.yul\":5420:5424   */\n      0xe0\n        /* \"#utility.yul\":5413:5418   */\n      dup4\n        /* \"#utility.yul\":5409:5425   */\n      add\n        /* \"#utility.yul\":5403:5426   */\n      mload\n        /* \"#utility.yul\":5439:5502   */\n      tag_293\n        /* \"#utility.yul\":5496:5500   */\n      0xe0\n        /* \"#utility.yul\":5491:5494   */\n      dup7\n        /* \"#utility.yul\":5487:5501   */\n      add\n        /* \"#utility.yul\":5473:5485   */\n      dup3\n        /* \"#utility.yul\":5439:5502   */\n      tag_181\n      jump\t// in\n    tag_293:\n        /* \"#utility.yul\":5345:5512   */\n      pop\n        /* \"#utility.yul\":5529:5533   */\n      dup1\n        /* \"#utility.yul\":5522:5533   */\n      swap2\n      pop\n        /* \"#utility.yul\":3893:5539   */\n      pop\n        /* \"#utility.yul\":3781:5539   */\n      swap3\n      swap2\n      pop\n      pop\n      jump\t// out\n        /* \"#utility.yul\":5545:5797   */\n    tag_191:\n        /* \"#utility.yul\":5662:5672   */\n      0x00\n        /* \"#utility.yul\":5697:5791   */\n      tag_295\n        /* \"#utility.yul\":5787:5790   */\n      dup4\n        /* \"#utility.yul\":5779:5785   */\n      dup4\n        /* \"#utility.yul\":5697:5791   */\n      tag_190\n      jump\t// in\n    tag_295:\n        /* \"#utility.yul\":5683:5791   */\n      swap1\n      pop\n        /* \"#utility.yul\":5545:5797   */\n      swap3\n      swap2\n      pop\n      pop\n      jump\t// out\n        /* \"#utility.yul\":5803:5940   */\n    tag_192:\n        /* \"#utility.yul\":5897:5901   */\n      0x00\n        /* \"#utility.yul\":5929:5933   */\n      0x20\n        /* \"#utility.yul\":5924:5927   */\n      dup3\n        /* \"#utility.yul\":5920:5934   */\n      add\n        /* \"#utility.yul\":5912:5934   */\n      swap1\n      pop\n        /* \"#utility.yul\":5803:5940   */\n      swap2\n      swap1\n      pop\n      jump\t// out\n        /* \"#utility.yul\":6024:7127   */\n    tag_193:\n        /* \"#utility.yul\":6191:6194   */\n      0x00\n        /* \"#utility.yul\":6220:6298   */\n      tag_298\n        /* \"#utility.yul\":6292:6297   */\n      dup3\n        /* \"#utility.yul\":6220:6298   */\n      tag_178\n      jump\t// in\n    tag_298:\n        /* \"#utility.yul\":6314:6424   */\n      tag_299\n        /* \"#utility.yul\":6417:6423   */\n      dup2\n        /* \"#utility.yul\":6412:6415   */\n      dup6\n        /* \"#utility.yul\":6314:6424   */\n      tag_179\n      jump\t// in\n    tag_299:\n        /* \"#utility.yul\":6307:6424   */\n      swap4\n      pop\n        /* \"#utility.yul\":6450:6453   */\n      dup4\n        /* \"#utility.yul\":6495:6499   */\n      0x20\n        /* \"#utility.yul\":6487:6493   */\n      dup3\n        /* \"#utility.yul\":6483:6500   */\n      mul\n        /* \"#utility.yul\":6478:6481   */\n      dup6\n        /* \"#utility.yul\":6474:6501   */\n      add\n        /* \"#utility.yul\":6525:6605   */\n      tag_300\n        /* \"#utility.yul\":6599:6604   */\n      dup6\n        /* \"#utility.yul\":6525:6605   */\n      tag_180\n      jump\t// in\n    tag_300:\n        /* \"#utility.yul\":6628:6635   */\n      dup1\n        /* \"#utility.yul\":6659:6660   */\n      0x00\n        /* \"#utility.yul\":6644:7082   */\n    tag_301:\n        /* \"#utility.yul\":6669:6675   */\n      dup6\n        /* \"#utility.yul\":6666:6667   */\n      dup2\n        /* \"#utility.yul\":6663:6676   */\n      lt\n        /* \"#utility.yul\":6644:7082   */\n      iszero\n      tag_303\n      jumpi\n        /* \"#utility.yul\":6740:6749   */\n      dup5\n        /* \"#utility.yul\":6734:6738   */\n      dup5\n        /* \"#utility.yul\":6730:6750   */\n      sub\n        /* \"#utility.yul\":6725:6728   */\n      dup10\n        /* \"#utility.yul\":6718:6751   */\n      mstore\n        /* \"#utility.yul\":6791:6797   */\n      dup2\n        /* \"#utility.yul\":6785:6798   */\n      mload\n        /* \"#utility.yul\":6819:6931   */\n      tag_304\n        /* \"#utility.yul\":6926:6930   */\n      dup6\n        /* \"#utility.yul\":6911:6924   */\n      dup3\n        /* \"#utility.yul\":6819:6931   */\n      tag_191\n      jump\t// in\n    tag_304:\n        /* \"#utility.yul\":6811:6931   */\n      swap5\n      pop\n        /* \"#utility.yul\":6954:7038   */\n      tag_305\n        /* \"#utility.yul\":7031:7037   */\n      dup4\n        /* \"#utility.yul\":6954:7038   */\n      tag_192\n      jump\t// in\n    tag_305:\n        /* \"#utility.yul\":6944:7038   */\n      swap3\n      pop\n        /* \"#utility.yul\":7067:7071   */\n      0x20\n        /* \"#utility.yul\":7062:7065   */\n      dup11\n        /* \"#utility.yul\":7058:7072   */\n      add\n        /* \"#utility.yul\":7051:7072   */\n      swap10\n      pop\n        /* \"#utility.yul\":6704:7082   */\n      pop\n        /* \"#utility.yul\":6691:6692   */\n      0x01\n        /* \"#utility.yul\":6688:6689   */\n      dup2\n        /* \"#utility.yul\":6684:6693   */\n      add\n        /* \"#utility.yul\":6679:6693   */\n      swap1\n      pop\n        /* \"#utility.yul\":6644:7082   */\n      jump(tag_301)\n    tag_303:\n        /* \"#utility.yul\":6648:6662   */\n      pop\n        /* \"#utility.yul\":7098:7102   */\n      dup3\n        /* \"#utility.yul\":7091:7102   */\n      swap8\n      pop\n        /* \"#utility.yul\":7118:7121   */\n      dup8\n        /* \"#utility.yul\":7111:7121   */\n      swap6\n      pop\n        /* \"#utility.yul\":6196:7127   */\n      pop\n      pop\n      pop\n      pop\n      pop\n        /* \"#utility.yul\":6024:7127   */\n      swap3\n      swap2\n      pop\n      pop\n      jump\t// out\n        /* \"#utility.yul\":7133:7602   */\n    tag_33:\n        /* \"#utility.yul\":7324:7328   */\n      0x00\n        /* \"#utility.yul\":7362:7364   */\n      0x20\n        /* \"#utility.yul\":7351:7360   */\n      dup3\n        /* \"#utility.yul\":7347:7365   */\n      add\n        /* \"#utility.yul\":7339:7365   */\n      swap1\n      pop\n        /* \"#utility.yul\":7411:7420   */\n      dup2\n        /* \"#utility.yul\":7405:7409   */\n      dup2\n        /* \"#utility.yul\":7401:7421   */\n      sub\n        /* \"#utility.yul\":7397:7398   */\n      0x00\n        /* \"#utility.yul\":7386:7395   */\n      dup4\n        /* \"#utility.yul\":7382:7399   */\n      add\n        /* \"#utility.yul\":7375:7422   */\n      mstore\n        /* \"#utility.yul\":7439:7595   */\n      tag_307\n        /* \"#utility.yul\":7590:7594   */\n      dup2\n        /* \"#utility.yul\":7581:7587   */\n      dup5\n        /* \"#utility.yul\":7439:7595   */\n      tag_193\n      jump\t// in\n    tag_307:\n        /* \"#utility.yul\":7431:7595   */\n      swap1\n      pop\n        /* \"#utility.yul\":7133:7602   */\n      swap3\n      swap2\n      pop\n      pop\n      jump\t// out\n        /* \"#utility.yul\":7608:7725   */\n    tag_194:\n        /* \"#utility.yul\":7717:7718   */\n      0x00\n        /* \"#utility.yul\":7714:7715   */\n      dup1\n        /* \"#utility.yul\":7707:7719   */\n      revert\n        /* \"#utility.yul\":7731:7848   */\n    tag_195:\n        /* \"#utility.yul\":7840:7841   */\n      0x00\n        /* \"#utility.yul\":7837:7838   */\n      dup1\n        /* \"#utility.yul\":7830:7842   */\n      revert\n        /* \"#utility.yul\":7854:8034   */\n    tag_196:\n        /* \"#utility.yul\":7902:7979   */\n      0x4e487b7100000000000000000000000000000000000000000000000000000000\n        /* \"#utility.yul\":7899:7900   */\n      0x00\n        /* \"#utility.yul\":7892:7980   */\n      mstore\n        /* \"#utility.yul\":7999:8003   */\n      0x41\n        /* \"#utility.yul\":7996:7997   */\n      0x04\n        /* \"#utility.yul\":7989:8004   */\n      mstore\n        /* \"#utility.yul\":8023:8027   */\n      0x24\n        /* \"#utility.yul\":8020:8021   */\n      0x00\n        /* \"#utility.yul\":8013:8028   */\n      revert\n        /* \"#utility.yul\":8040:8321   */\n    tag_197:\n        /* \"#utility.yul\":8123:8150   */\n      tag_312\n        /* \"#utility.yul\":8145:8149   */\n      dup3\n        /* \"#utility.yul\":8123:8150   */\n      tag_185\n      jump\t// in\n    tag_312:\n        /* \"#utility.yul\":8115:8121   */\n      dup2\n        /* \"#utility.yul\":8111:8151   */\n      add\n        /* \"#utility.yul\":8253:8259   */\n      dup2\n        /* \"#utility.yul\":8241:8251   */\n      dup2\n        /* \"#utility.yul\":8238:8260   */\n      lt\n        /* \"#utility.yul\":8217:8235   */\n      0xffffffffffffffff\n        /* \"#utility.yul\":8205:8215   */\n      dup3\n        /* \"#utility.yul\":8202:8236   */\n      gt\n        /* \"#utility.yul\":8199:8261   */\n      or\n        /* \"#utility.yul\":8196:8284   */\n      iszero\n      tag_313\n      jumpi\n        /* \"#utility.yul\":8264:8282   */\n      tag_314\n      tag_196\n      jump\t// in\n    tag_314:\n        /* \"#utility.yul\":8196:8284   */\n    tag_313:\n        /* \"#utility.yul\":8304:8314   */\n      dup1\n        /* \"#utility.yul\":8300:8302   */\n      0x40\n        /* \"#utility.yul\":8293:8315   */\n      mstore\n        /* \"#utility.yul\":8083:8321   */\n      pop\n        /* \"#utility.yul\":8040:8321   */\n      pop\n      pop\n      jump\t// out\n        /* \"#utility.yul\":8327:8456   */\n    tag_198:\n        /* \"#utility.yul\":8361:8367   */\n      0x00\n        /* \"#utility.yul\":8388:8408   */\n      tag_316\n      tag_169\n      jump\t// in\n    tag_316:\n        /* \"#utility.yul\":8378:8408   */\n      swap1\n      pop\n        /* \"#utility.yul\":8417:8450   */\n      tag_317\n        /* \"#utility.yul\":8445:8449   */\n      dup3\n        /* \"#utility.yul\":8437:8443   */\n      dup3\n        /* \"#utility.yul\":8417:8450   */\n      tag_197\n      jump\t// in\n    tag_317:\n        /* \"#utility.yul\":8327:8456   */\n      swap2\n      swap1\n      pop\n      jump\t// out\n        /* \"#utility.yul\":8462:8770   */\n    tag_199:\n        /* \"#utility.yul\":8524:8528   */\n      0x00\n        /* \"#utility.yul\":8614:8632   */\n      0xffffffffffffffff\n        /* \"#utility.yul\":8606:8612   */\n      dup3\n        /* \"#utility.yul\":8603:8633   */\n      gt\n        /* \"#utility.yul\":8600:8656   */\n      iszero\n      tag_319\n      jumpi\n        /* \"#utility.yul\":8636:8654   */\n      tag_320\n      tag_196\n      jump\t// in\n    tag_320:\n        /* \"#utility.yul\":8600:8656   */\n    tag_319:\n        /* \"#utility.yul\":8674:8703   */\n      tag_321\n        /* \"#utility.yul\":8696:8702   */\n      dup3\n        /* \"#utility.yul\":8674:8703   */\n      tag_185\n      jump\t// in\n    tag_321:\n        /* \"#utility.yul\":8666:8703   */\n      swap1\n      pop\n        /* \"#utility.yul\":8758:8762   */\n      0x20\n        /* \"#utility.yul\":8752:8756   */\n      dup2\n        /* \"#utility.yul\":8748:8763   */\n      add\n        /* \"#utility.yul\":8740:8763   */\n      swap1\n      pop\n        /* \"#utility.yul\":8462:8770   */\n      swap2\n      swap1\n      pop\n      jump\t// out\n        /* \"#utility.yul\":8776:8924   */\n    tag_200:\n        /* \"#utility.yul\":8874:8880   */\n      dup3\n        /* \"#utility.yul\":8869:8872   */\n      dup2\n        /* \"#utility.yul\":8864:8867   */\n      dup4\n        /* \"#utility.yul\":8851:8881   */\n      calldatacopy\n        /* \"#utility.yul\":8915:8916   */\n      0x00\n        /* \"#utility.yul\":8906:8912   */\n      dup4\n        /* \"#utility.yul\":8901:8904   */\n      dup4\n        /* \"#utility.yul\":8897:8913   */\n      add\n        /* \"#utility.yul\":8890:8917   */\n      mstore\n        /* \"#utility.yul\":8776:8924   */\n      pop\n      pop\n      pop\n      jump\t// out\n        /* \"#utility.yul\":8930:9355   */\n    tag_201:\n        /* \"#utility.yul\":9008:9013   */\n      0x00\n        /* \"#utility.yul\":9033:9099   */\n      tag_324\n        /* \"#utility.yul\":9049:9098   */\n      tag_325\n        /* \"#utility.yul\":9091:9097   */\n      dup5\n        /* \"#utility.yul\":9049:9098   */\n      tag_199\n      jump\t// in\n    tag_325:\n        /* \"#utility.yul\":9033:9099   */\n      tag_198\n      jump\t// in\n    tag_324:\n        /* \"#utility.yul\":9024:9099   */\n      swap1\n      pop\n        /* \"#utility.yul\":9122:9128   */\n      dup3\n        /* \"#utility.yul\":9115:9120   */\n      dup2\n        /* \"#utility.yul\":9108:9129   */\n      mstore\n        /* \"#utility.yul\":9160:9164   */\n      0x20\n        /* \"#utility.yul\":9153:9158   */\n      dup2\n        /* \"#utility.yul\":9149:9165   */\n      add\n        /* \"#utility.yul\":9198:9201   */\n      dup5\n        /* \"#utility.yul\":9189:9195   */\n      dup5\n        /* \"#utility.yul\":9184:9187   */\n      dup5\n        /* \"#utility.yul\":9180:9196   */\n      add\n        /* \"#utility.yul\":9177:9202   */\n      gt\n        /* \"#utility.yul\":9174:9286   */\n      iszero\n      tag_326\n      jumpi\n        /* \"#utility.yul\":9205:9284   */\n      tag_327\n      tag_195\n      jump\t// in\n    tag_327:\n        /* \"#utility.yul\":9174:9286   */\n    tag_326:\n        /* \"#utility.yul\":9295:9349   */\n      tag_328\n        /* \"#utility.yul\":9342:9348   */\n      dup5\n        /* \"#utility.yul\":9337:9340   */\n      dup3\n        /* \"#utility.yul\":9332:9335   */\n      dup6\n        /* \"#utility.yul\":9295:9349   */\n      tag_200\n      jump\t// in\n    tag_328:\n        /* \"#utility.yul\":9014:9355   */\n      pop\n        /* \"#utility.yul\":8930:9355   */\n      swap4\n      swap3\n      pop\n      pop\n      pop\n      jump\t// out\n        /* \"#utility.yul\":9375:9715   */\n    tag_202:\n        /* \"#utility.yul\":9431:9436   */\n      0x00\n        /* \"#utility.yul\":9480:9483   */\n      dup3\n        /* \"#utility.yul\":9473:9477   */\n      0x1f\n        /* \"#utility.yul\":9465:9471   */\n      dup4\n        /* \"#utility.yul\":9461:9478   */\n      add\n        /* \"#utility.yul\":9457:9484   */\n      slt\n        /* \"#utility.yul\":9447:9569   */\n      tag_330\n      jumpi\n        /* \"#utility.yul\":9488:9567   */\n      tag_331\n      tag_194\n      jump\t// in\n    tag_331:\n        /* \"#utility.yul\":9447:9569   */\n    tag_330:\n        /* \"#utility.yul\":9605:9611   */\n      dup2\n        /* \"#utility.yul\":9592:9612   */\n      calldataload\n        /* \"#utility.yul\":9630:9709   */\n      tag_332\n        /* \"#utility.yul\":9705:9708   */\n      dup5\n        /* \"#utility.yul\":9697:9703   */\n      dup3\n        /* \"#utility.yul\":9690:9694   */\n      0x20\n        /* \"#utility.yul\":9682:9688   */\n      dup7\n        /* \"#utility.yul\":9678:9695   */\n      add\n        /* \"#utility.yul\":9630:9709   */\n      tag_201\n      jump\t// in\n    tag_332:\n        /* \"#utility.yul\":9621:9709   */\n      swap2\n      pop\n        /* \"#utility.yul\":9437:9715   */\n      pop\n        /* \"#utility.yul\":9375:9715   */\n      swap3\n      swap2\n      pop\n      pop\n      jump\t// out\n        /* \"#utility.yul\":9721:10846   */\n    tag_37:\n        /* \"#utility.yul\":9827:9833   */\n      0x00\n        /* \"#utility.yul\":9835:9841   */\n      dup1\n        /* \"#utility.yul\":9843:9849   */\n      0x00\n        /* \"#utility.yul\":9851:9857   */\n      dup1\n        /* \"#utility.yul\":9900:9903   */\n      0x80\n        /* \"#utility.yul\":9888:9897   */\n      dup6\n        /* \"#utility.yul\":9879:9886   */\n      dup8\n        /* \"#utility.yul\":9875:9898   */\n      sub\n        /* \"#utility.yul\":9871:9904   */\n      slt\n        /* \"#utility.yul\":9868:9988   */\n      iszero\n      tag_334\n      jumpi\n        /* \"#utility.yul\":9907:9986   */\n      tag_335\n      tag_170\n      jump\t// in\n    tag_335:\n        /* \"#utility.yul\":9868:9988   */\n    tag_334:\n        /* \"#utility.yul\":10055:10056   */\n      0x00\n        /* \"#utility.yul\":10044:10053   */\n      dup6\n        /* \"#utility.yul\":10040:10057   */\n      add\n        /* \"#utility.yul\":10027:10058   */\n      calldataload\n        /* \"#utility.yul\":10085:10103   */\n      0xffffffffffffffff\n        /* \"#utility.yul\":10077:10083   */\n      dup2\n        /* \"#utility.yul\":10074:10104   */\n      gt\n        /* \"#utility.yul\":10071:10188   */\n      iszero\n      tag_336\n      jumpi\n        /* \"#utility.yul\":10107:10186   */\n      tag_337\n      tag_171\n      jump\t// in\n    tag_337:\n        /* \"#utility.yul\":10071:10188   */\n    tag_336:\n        /* \"#utility.yul\":10212:10275   */\n      tag_338\n        /* \"#utility.yul\":10267:10274   */\n      dup8\n        /* \"#utility.yul\":10258:10264   */\n      dup3\n        /* \"#utility.yul\":10247:10256   */\n      dup9\n        /* \"#utility.yul\":10243:10265   */\n      add\n        /* \"#utility.yul\":10212:10275   */\n      tag_202\n      jump\t// in\n    tag_338:\n        /* \"#utility.yul\":10202:10275   */\n      swap5\n      pop\n        /* \"#utility.yul\":9998:10285   */\n      pop\n        /* \"#utility.yul\":10352:10354   */\n      0x20\n        /* \"#utility.yul\":10341:10350   */\n      dup6\n        /* \"#utility.yul\":10337:10355   */\n      add\n        /* \"#utility.yul\":10324:10356   */\n      calldataload\n        /* \"#utility.yul\":10383:10401   */\n      0xffffffffffffffff\n        /* \"#utility.yul\":10375:10381   */\n      dup2\n        /* \"#utility.yul\":10372:10402   */\n      gt\n        /* \"#utility.yul\":10369:10486   */\n      iszero\n      tag_339\n      jumpi\n        /* \"#utility.yul\":10405:10484   */\n      tag_340\n      tag_171\n      jump\t// in\n    tag_340:\n        /* \"#utility.yul\":10369:10486   */\n    tag_339:\n        /* \"#utility.yul\":10510:10573   */\n      tag_341\n        /* \"#utility.yul\":10565:10572   */\n      dup8\n        /* \"#utility.yul\":10556:10562   */\n      dup3\n        /* \"#utility.yul\":10545:10554   */\n      dup9\n        /* \"#utility.yul\":10541:10563   */\n      add\n        /* \"#utility.yul\":10510:10573   */\n      tag_202\n      jump\t// in\n    tag_341:\n        /* \"#utility.yul\":10500:10573   */\n      swap4\n      pop\n        /* \"#utility.yul\":10295:10583   */\n      pop\n        /* \"#utility.yul\":10622:10624   */\n      0x40\n        /* \"#utility.yul\":10648:10701   */\n      tag_342\n        /* \"#utility.yul\":10693:10700   */\n      dup8\n        /* \"#utility.yul\":10684:10690   */\n      dup3\n        /* \"#utility.yul\":10673:10682   */\n      dup9\n        /* \"#utility.yul\":10669:10691   */\n      add\n        /* \"#utility.yul\":10648:10701   */\n      tag_174\n      jump\t// in\n    tag_342:\n        /* \"#utility.yul\":10638:10701   */\n      swap3\n      pop\n        /* \"#utility.yul\":10593:10711   */\n      pop\n        /* \"#utility.yul\":10750:10752   */\n      0x60\n        /* \"#utility.yul\":10776:10829   */\n      tag_343\n        /* \"#utility.yul\":10821:10828   */\n      dup8\n        /* \"#utility.yul\":10812:10818   */\n      dup3\n        /* \"#utility.yul\":10801:10810   */\n      dup9\n        /* \"#utility.yul\":10797:10819   */\n      add\n        /* \"#utility.yul\":10776:10829   */\n      tag_174\n      jump\t// in\n    tag_343:\n        /* \"#utility.yul\":10766:10829   */\n      swap2\n      pop\n        /* \"#utility.yul\":10721:10839   */\n      pop\n        /* \"#utility.yul\":9721:10846   */\n      swap3\n      swap6\n      swap2\n      swap5\n      pop\n      swap3\n      pop\n      jump\t// out\n        /* \"#utility.yul\":10852:10970   */\n    tag_203:\n        /* \"#utility.yul\":10923:10945   */\n      tag_345\n        /* \"#utility.yul\":10939:10944   */\n      dup2\n        /* \"#utility.yul\":10923:10945   */\n      tag_176\n      jump\t// in\n    tag_345:\n        /* \"#utility.yul\":10916:10921   */\n      dup2\n        /* \"#utility.yul\":10913:10946   */\n      eq\n        /* \"#utility.yul\":10903:10964   */\n      tag_346\n      jumpi\n        /* \"#utility.yul\":10960:10961   */\n      0x00\n        /* \"#utility.yul\":10957:10958   */\n      dup1\n        /* \"#utility.yul\":10950:10962   */\n      revert\n        /* \"#utility.yul\":10903:10964   */\n    tag_346:\n        /* \"#utility.yul\":10852:10970   */\n      pop\n      jump\t// out\n        /* \"#utility.yul\":10976:11111   */\n    tag_204:\n        /* \"#utility.yul\":11020:11025   */\n      0x00\n        /* \"#utility.yul\":11058:11064   */\n      dup2\n        /* \"#utility.yul\":11045:11065   */\n      calldataload\n        /* \"#utility.yul\":11036:11065   */\n      swap1\n      pop\n        /* \"#utility.yul\":11074:11105   */\n      tag_348\n        /* \"#utility.yul\":11099:11104   */\n      dup2\n        /* \"#utility.yul\":11074:11105   */\n      tag_203\n      jump\t// in\n    tag_348:\n        /* \"#utility.yul\":10976:11111   */\n      swap3\n      swap2\n      pop\n      pop\n      jump\t// out\n        /* \"#utility.yul\":11117:11442   */\n    tag_42:\n        /* \"#utility.yul\":11174:11180   */\n      0x00\n        /* \"#utility.yul\":11223:11225   */\n      0x20\n        /* \"#utility.yul\":11211:11220   */\n      dup3\n        /* \"#utility.yul\":11202:11209   */\n      dup5\n        /* \"#utility.yul\":11198:11221   */\n      sub\n        /* \"#utility.yul\":11194:11226   */\n      slt\n        /* \"#utility.yul\":11191:11310   */\n      iszero\n      tag_350\n      jumpi\n        /* \"#utility.yul\":11229:11308   */\n      tag_351\n      tag_170\n      jump\t// in\n    tag_351:\n        /* \"#utility.yul\":11191:11310   */\n    tag_350:\n        /* \"#utility.yul\":11349:11350   */\n      0x00\n        /* \"#utility.yul\":11374:11425   */\n      tag_352\n        /* \"#utility.yul\":11417:11424   */\n      dup5\n        /* \"#utility.yul\":11408:11414   */\n      dup3\n        /* \"#utility.yul\":11397:11406   */\n      dup6\n        /* \"#utility.yul\":11393:11415   */\n      add\n        /* \"#utility.yul\":11374:11425   */\n      tag_204\n      jump\t// in\n    tag_352:\n        /* \"#utility.yul\":11364:11425   */\n      swap2\n      pop\n        /* \"#utility.yul\":11320:11435   */\n      pop\n        /* \"#utility.yul\":11117:11442   */\n      swap3\n      swap2\n      pop\n      pop\n      jump\t// out\n        /* \"#utility.yul\":11448:11588   */\n    tag_205:\n        /* \"#utility.yul\":11541:11547   */\n      0x00\n        /* \"#utility.yul\":11575:11580   */\n      dup2\n        /* \"#utility.yul\":11569:11581   */\n      mload\n        /* \"#utility.yul\":11559:11581   */\n      swap1\n      pop\n        /* \"#utility.yul\":11448:11588   */\n      swap2\n      swap1\n      pop\n      jump\t// out\n        /* \"#utility.yul\":11594:11804   */\n    tag_206:\n        /* \"#utility.yul\":11719:11730   */\n      0x00\n        /* \"#utility.yul\":11753:11759   */\n      dup3\n        /* \"#utility.yul\":11748:11751   */\n      dup3\n        /* \"#utility.yul\":11741:11760   */\n      mstore\n        /* \"#utility.yul\":11793:11797   */\n      0x20\n        /* \"#utility.yul\":11788:11791   */\n      dup3\n        /* \"#utility.yul\":11784:11798   */\n      add\n        /* \"#utility.yul\":11769:11798   */\n      swap1\n      pop\n        /* \"#utility.yul\":11594:11804   */\n      swap3\n      swap2\n      pop\n      pop\n      jump\t// out\n        /* \"#utility.yul\":11810:11968   */\n    tag_207:\n        /* \"#utility.yul\":11903:11907   */\n      0x00\n        /* \"#utility.yul\":11926:11929   */\n      dup2\n        /* \"#utility.yul\":11918:11929   */\n      swap1\n      pop\n        /* \"#utility.yul\":11956:11960   */\n      0x20\n        /* \"#utility.yul\":11951:11954   */\n      dup3\n        /* \"#utility.yul\":11947:11961   */\n      add\n        /* \"#utility.yul\":11939:11961   */\n      swap1\n      pop\n        /* \"#utility.yul\":11810:11968   */\n      swap2\n      swap1\n      pop\n      jump\t// out\n        /* \"#utility.yul\":12052:12570   */\n    tag_208:\n        /* \"#utility.yul\":12191:12195   */\n      0x40\n        /* \"#utility.yul\":12186:12189   */\n      dup3\n        /* \"#utility.yul\":12182:12196   */\n      add\n        /* \"#utility.yul\":12278:12282   */\n      0x00\n        /* \"#utility.yul\":12271:12276   */\n      dup3\n        /* \"#utility.yul\":12267:12283   */\n      add\n        /* \"#utility.yul\":12261:12284   */\n      mload\n        /* \"#utility.yul\":12297:12376   */\n      tag_357\n        /* \"#utility.yul\":12370:12374   */\n      0x00\n        /* \"#utility.yul\":12365:12368   */\n      dup6\n        /* \"#utility.yul\":12361:12375   */\n      add\n        /* \"#utility.yul\":12347:12359   */\n      dup3\n        /* \"#utility.yul\":12297:12376   */\n      tag_189\n      jump\t// in\n    tag_357:\n        /* \"#utility.yul\":12206:12386   */\n      pop\n        /* \"#utility.yul\":12471:12475   */\n      0x20\n        /* \"#utility.yul\":12464:12469   */\n      dup3\n        /* \"#utility.yul\":12460:12476   */\n      add\n        /* \"#utility.yul\":12454:12477   */\n      mload\n        /* \"#utility.yul\":12490:12553   */\n      tag_358\n        /* \"#utility.yul\":12547:12551   */\n      0x20\n        /* \"#utility.yul\":12542:12545   */\n      dup6\n        /* \"#utility.yul\":12538:12552   */\n      add\n        /* \"#utility.yul\":12524:12536   */\n      dup3\n        /* \"#utility.yul\":12490:12553   */\n      tag_181\n      jump\t// in\n    tag_358:\n        /* \"#utility.yul\":12396:12563   */\n      pop\n        /* \"#utility.yul\":12160:12570   */\n      pop\n        /* \"#utility.yul\":12052:12570   */\n      pop\n      pop\n      jump\t// out\n        /* \"#utility.yul\":12576:12859   */\n    tag_209:\n        /* \"#utility.yul\":12697:12707   */\n      0x00\n        /* \"#utility.yul\":12718:12816   */\n      tag_360\n        /* \"#utility.yul\":12812:12815   */\n      dup4\n        /* \"#utility.yul\":12804:12810   */\n      dup4\n        /* \"#utility.yul\":12718:12816   */\n      tag_208\n      jump\t// in\n    tag_360:\n        /* \"#utility.yul\":12848:12852   */\n      0x40\n        /* \"#utility.yul\":12843:12846   */\n      dup4\n        /* \"#utility.yul\":12839:12853   */\n      add\n        /* \"#utility.yul\":12825:12853   */\n      swap1\n      pop\n        /* \"#utility.yul\":12576:12859   */\n      swap3\n      swap2\n      pop\n      pop\n      jump\t// out\n        /* \"#utility.yul\":12865:13004   */\n    tag_210:\n        /* \"#utility.yul\":12961:12965   */\n      0x00\n        /* \"#utility.yul\":12993:12997   */\n      0x20\n        /* \"#utility.yul\":12988:12991   */\n      dup3\n        /* \"#utility.yul\":12984:12998   */\n      add\n        /* \"#utility.yul\":12976:12998   */\n      swap1\n      pop\n        /* \"#utility.yul\":12865:13004   */\n      swap2\n      swap1\n      pop\n      jump\t// out\n        /* \"#utility.yul\":13092:14032   */\n    tag_211:\n        /* \"#utility.yul\":13263:13266   */\n      0x00\n        /* \"#utility.yul\":13292:13372   */\n      tag_363\n        /* \"#utility.yul\":13366:13371   */\n      dup3\n        /* \"#utility.yul\":13292:13372   */\n      tag_205\n      jump\t// in\n    tag_363:\n        /* \"#utility.yul\":13388:13500   */\n      tag_364\n        /* \"#utility.yul\":13493:13499   */\n      dup2\n        /* \"#utility.yul\":13488:13491   */\n      dup6\n        /* \"#utility.yul\":13388:13500   */\n      tag_206\n      jump\t// in\n    tag_364:\n        /* \"#utility.yul\":13381:13500   */\n      swap4\n      pop\n        /* \"#utility.yul\":13524:13606   */\n      tag_365\n        /* \"#utility.yul\":13600:13605   */\n      dup4\n        /* \"#utility.yul\":13524:13606   */\n      tag_207\n      jump\t// in\n    tag_365:\n        /* \"#utility.yul\":13629:13636   */\n      dup1\n        /* \"#utility.yul\":13660:13661   */\n      0x00\n        /* \"#utility.yul\":13645:14007   */\n    tag_366:\n        /* \"#utility.yul\":13670:13676   */\n      dup4\n        /* \"#utility.yul\":13667:13668   */\n      dup2\n        /* \"#utility.yul\":13664:13677   */\n      lt\n        /* \"#utility.yul\":13645:14007   */\n      iszero\n      tag_368\n      jumpi\n        /* \"#utility.yul\":13746:13752   */\n      dup2\n        /* \"#utility.yul\":13740:13753   */\n      mload\n        /* \"#utility.yul\":13773:13888   */\n      tag_369\n        /* \"#utility.yul\":13884:13887   */\n      dup9\n        /* \"#utility.yul\":13869:13882   */\n      dup3\n        /* \"#utility.yul\":13773:13888   */\n      tag_209\n      jump\t// in\n    tag_369:\n        /* \"#utility.yul\":13766:13888   */\n      swap8\n      pop\n        /* \"#utility.yul\":13911:13997   */\n      tag_370\n        /* \"#utility.yul\":13990:13996   */\n      dup4\n        /* \"#utility.yul\":13911:13997   */\n      tag_210\n      jump\t// in\n    tag_370:\n        /* \"#utility.yul\":13901:13997   */\n      swap3\n      pop\n        /* \"#utility.yul\":13705:14007   */\n      pop\n        /* \"#utility.yul\":13692:13693   */\n      0x01\n        /* \"#utility.yul\":13689:13690   */\n      dup2\n        /* \"#utility.yul\":13685:13694   */\n      add\n        /* \"#utility.yul\":13680:13694   */\n      swap1\n      pop\n        /* \"#utility.yul\":13645:14007   */\n      jump(tag_366)\n    tag_368:\n        /* \"#utility.yul\":13649:13663   */\n      pop\n        /* \"#utility.yul\":14023:14026   */\n      dup6\n        /* \"#utility.yul\":14016:14026   */\n      swap4\n      pop\n        /* \"#utility.yul\":13268:14032   */\n      pop\n      pop\n      pop\n        /* \"#utility.yul\":13092:14032   */\n      swap3\n      swap2\n      pop\n      pop\n      jump\t// out\n        /* \"#utility.yul\":14038:14515   */\n    tag_49:\n        /* \"#utility.yul\":14233:14237   */\n      0x00\n        /* \"#utility.yul\":14271:14273   */\n      0x20\n        /* \"#utility.yul\":14260:14269   */\n      dup3\n        /* \"#utility.yul\":14256:14274   */\n      add\n        /* \"#utility.yul\":14248:14274   */\n      swap1\n      pop\n        /* \"#utility.yul\":14320:14329   */\n      dup2\n        /* \"#utility.yul\":14314:14318   */\n      dup2\n        /* \"#utility.yul\":14310:14330   */\n      sub\n        /* \"#utility.yul\":14306:14307   */\n      0x00\n        /* \"#utility.yul\":14295:14304   */\n      dup4\n        /* \"#utility.yul\":14291:14308   */\n      add\n        /* \"#utility.yul\":14284:14331   */\n      mstore\n        /* \"#utility.yul\":14348:14508   */\n      tag_372\n        /* \"#utility.yul\":14503:14507   */\n      dup2\n        /* \"#utility.yul\":14494:14500   */\n      dup5\n        /* \"#utility.yul\":14348:14508   */\n      tag_211\n      jump\t// in\n    tag_372:\n        /* \"#utility.yul\":14340:14508   */\n      swap1\n      pop\n        /* \"#utility.yul\":14038:14515   */\n      swap3\n      swap2\n      pop\n      pop\n      jump\t// out\n        /* \"#utility.yul\":14521:14690   */\n    tag_212:\n        /* \"#utility.yul\":14605:14616   */\n      0x00\n        /* \"#utility.yul\":14639:14645   */\n      dup3\n        /* \"#utility.yul\":14634:14637   */\n      dup3\n        /* \"#utility.yul\":14627:14646   */\n      mstore\n        /* \"#utility.yul\":14679:14683   */\n      0x20\n        /* \"#utility.yul\":14674:14677   */\n      dup3\n        /* \"#utility.yul\":14670:14684   */\n      add\n        /* \"#utility.yul\":14655:14684   */\n      swap1\n      pop\n        /* \"#utility.yul\":14521:14690   */\n      swap3\n      swap2\n      pop\n      pop\n      jump\t// out\n        /* \"#utility.yul\":14696:14856   */\n    tag_213:\n        /* \"#utility.yul\":14836:14848   */\n      0x6f6e6c79206f776e657200000000000000000000000000000000000000000000\n        /* \"#utility.yul\":14832:14833   */\n      0x00\n        /* \"#utility.yul\":14824:14830   */\n      dup3\n        /* \"#utility.yul\":14820:14834   */\n      add\n        /* \"#utility.yul\":14813:14849   */\n      mstore\n        /* \"#utility.yul\":14696:14856   */\n      pop\n      jump\t// out\n        /* \"#utility.yul\":14862:15228   */\n    tag_214:\n        /* \"#utility.yul\":15004:15007   */\n      0x00\n        /* \"#utility.yul\":15025:15092   */\n      tag_376\n        /* \"#utility.yul\":15089:15091   */\n      0x0a\n        /* \"#utility.yul\":15084:15087   */\n      dup4\n        /* \"#utility.yul\":15025:15092   */\n      tag_212\n      jump\t// in\n    tag_376:\n        /* \"#utility.yul\":15018:15092   */\n      swap2\n      pop\n        /* \"#utility.yul\":15101:15194   */\n      tag_377\n        /* \"#utility.yul\":15190:15193   */\n      dup3\n        /* \"#utility.yul\":15101:15194   */\n      tag_213\n      jump\t// in\n    tag_377:\n        /* \"#utility.yul\":15219:15221   */\n      0x20\n        /* \"#utility.yul\":15214:15217   */\n      dup3\n        /* \"#utility.yul\":15210:15222   */\n      add\n        /* \"#utility.yul\":15203:15222   */\n      swap1\n      pop\n        /* \"#utility.yul\":14862:15228   */\n      swap2\n      swap1\n      pop\n      jump\t// out\n        /* \"#utility.yul\":15234:15653   */\n    tag_53:\n        /* \"#utility.yul\":15400:15404   */\n      0x00\n        /* \"#utility.yul\":15438:15440   */\n      0x20\n        /* \"#utility.yul\":15427:15436   */\n      dup3\n        /* \"#utility.yul\":15423:15441   */\n      add\n        /* \"#utility.yul\":15415:15441   */\n      swap1\n      pop\n        /* \"#utility.yul\":15487:15496   */\n      dup2\n        /* \"#utility.yul\":15481:15485   */\n      dup2\n        /* \"#utility.yul\":15477:15497   */\n      sub\n        /* \"#utility.yul\":15473:15474   */\n      0x00\n        /* \"#utility.yul\":15462:15471   */\n      dup4\n        /* \"#utility.yul\":15458:15475   */\n      add\n        /* \"#utility.yul\":15451:15498   */\n      mstore\n        /* \"#utility.yul\":15515:15646   */\n      tag_379\n        /* \"#utility.yul\":15641:15645   */\n      dup2\n        /* \"#utility.yul\":15515:15646   */\n      tag_214\n      jump\t// in\n    tag_379:\n        /* \"#utility.yul\":15507:15646   */\n      swap1\n      pop\n        /* \"#utility.yul\":15234:15653   */\n      swap2\n      swap1\n      pop\n      jump\t// out\n        /* \"#utility.yul\":15659:15815   */\n    tag_215:\n        /* \"#utility.yul\":15799:15807   */\n      0x6261642069640000000000000000000000000000000000000000000000000000\n        /* \"#utility.yul\":15795:15796   */\n      0x00\n        /* \"#utility.yul\":15787:15793   */\n      dup3\n        /* \"#utility.yul\":15783:15797   */\n      add\n        /* \"#utility.yul\":15776:15808   */\n      mstore\n        /* \"#utility.yul\":15659:15815   */\n      pop\n      jump\t// out\n        /* \"#utility.yul\":15821:16186   */\n    tag_216:\n        /* \"#utility.yul\":15963:15966   */\n      0x00\n        /* \"#utility.yul\":15984:16050   */\n      tag_382\n        /* \"#utility.yul\":16048:16049   */\n      0x06\n        /* \"#utility.yul\":16043:16046   */\n      dup4\n        /* \"#utility.yul\":15984:16050   */\n      tag_212\n      jump\t// in\n    tag_382:\n        /* \"#utility.yul\":15977:16050   */\n      swap2\n      pop\n        /* \"#utility.yul\":16059:16152   */\n      tag_383\n        /* \"#utility.yul\":16148:16151   */\n      dup3\n        /* \"#utility.yul\":16059:16152   */\n      tag_215\n      jump\t// in\n    tag_383:\n        /* \"#utility.yul\":16177:16179   */\n      0x20\n        /* \"#utility.yul\":16172:16175   */\n      dup3\n        /* \"#utility.yul\":16168:16180   */\n      add\n        /* \"#utility.yul\":16161:16180   */\n      swap1\n      pop\n        /* \"#utility.yul\":15821:16186   */\n      swap2\n      swap1\n      pop\n      jump\t// out\n        /* \"#utility.yul\":16192:16611   */\n    tag_57:\n        /* \"#utility.yul\":16358:16362   */\n      0x00\n        /* \"#utility.yul\":16396:16398   */\n      0x20\n        /* \"#utility.yul\":16385:16394   */\n      dup3\n        /* \"#utility.yul\":16381:16399   */\n      add\n        /* \"#utility.yul\":16373:16399   */\n      swap1\n      pop\n        /* \"#utility.yul\":16445:16454   */\n      dup2\n        /* \"#utility.yul\":16439:16443   */\n      dup2\n        /* \"#utility.yul\":16435:16455   */\n      sub\n        /* \"#utility.yul\":16431:16432   */\n      0x00\n        /* \"#utility.yul\":16420:16429   */\n      dup4\n        /* \"#utility.yul\":16416:16433   */\n      add\n        /* \"#utility.yul\":16409:16456   */\n      mstore\n        /* \"#utility.yul\":16473:16604   */\n      tag_385\n        /* \"#utility.yul\":16599:16603   */\n      dup2\n        /* \"#utility.yul\":16473:16604   */\n      tag_216\n      jump\t// in\n    tag_385:\n        /* \"#utility.yul\":16465:16604   */\n      swap1\n      pop\n        /* \"#utility.yul\":16192:16611   */\n      swap2\n      swap1\n      pop\n      jump\t// out\n        /* \"#utility.yul\":16617:16797   */\n    tag_60:\n        /* \"#utility.yul\":16665:16742   */\n      0x4e487b7100000000000000000000000000000000000000000000000000000000\n        /* \"#utility.yul\":16662:16663   */\n      0x00\n        /* \"#utility.yul\":16655:16743   */\n      mstore\n        /* \"#utility.yul\":16762:16766   */\n      0x32\n        /* \"#utility.yul\":16759:16760   */\n      0x04\n        /* \"#utility.yul\":16752:16767   */\n      mstore\n        /* \"#utility.yul\":16786:16790   */\n      0x24\n        /* \"#utility.yul\":16783:16784   */\n      0x00\n        /* \"#utility.yul\":16776:16791   */\n      revert\n        /* \"#utility.yul\":16803:16974   */\n    tag_217:\n        /* \"#utility.yul\":16943:16966   */\n      0x43616d706169676e206e6f742066696e69736865640000000000000000000000\n        /* \"#utility.yul\":16939:16940   */\n      0x00\n        /* \"#utility.yul\":16931:16937   */\n      dup3\n        /* \"#utility.yul\":16927:16941   */\n      add\n        /* \"#utility.yul\":16920:16967   */\n      mstore\n        /* \"#utility.yul\":16803:16974   */\n      pop\n      jump\t// out\n        /* \"#utility.yul\":16980:17346   */\n    tag_218:\n        /* \"#utility.yul\":17122:17125   */\n      0x00\n        /* \"#utility.yul\":17143:17210   */\n      tag_389\n        /* \"#utility.yul\":17207:17209   */\n      0x15\n        /* \"#utility.yul\":17202:17205   */\n      dup4\n        /* \"#utility.yul\":17143:17210   */\n      tag_212\n      jump\t// in\n    tag_389:\n        /* \"#utility.yul\":17136:17210   */\n      swap2\n      pop\n        /* \"#utility.yul\":17219:17312   */\n      tag_390\n        /* \"#utility.yul\":17308:17311   */\n      dup3\n        /* \"#utility.yul\":17219:17312   */\n      tag_217\n      jump\t// in\n    tag_390:\n        /* \"#utility.yul\":17337:17339   */\n      0x20\n        /* \"#utility.yul\":17332:17335   */\n      dup3\n        /* \"#utility.yul\":17328:17340   */\n      add\n        /* \"#utility.yul\":17321:17340   */\n      swap1\n      pop\n        /* \"#utility.yul\":16980:17346   */\n      swap2\n      swap1\n      pop\n      jump\t// out\n        /* \"#utility.yul\":17352:17771   */\n    tag_64:\n        /* \"#utility.yul\":17518:17522   */\n      0x00\n        /* \"#utility.yul\":17556:17558   */\n      0x20\n        /* \"#utility.yul\":17545:17554   */\n      dup3\n        /* \"#utility.yul\":17541:17559   */\n      add\n        /* \"#utility.yul\":17533:17559   */\n      swap1\n      pop\n        /* \"#utility.yul\":17605:17614   */\n      dup2\n        /* \"#utility.yul\":17599:17603   */\n      dup2\n        /* \"#utility.yul\":17595:17615   */\n      sub\n        /* \"#utility.yul\":17591:17592   */\n      0x00\n        /* \"#utility.yul\":17580:17589   */\n      dup4\n        /* \"#utility.yul\":17576:17593   */\n      add\n        /* \"#utility.yul\":17569:17616   */\n      mstore\n        /* \"#utility.yul\":17633:17764   */\n      tag_392\n        /* \"#utility.yul\":17759:17763   */\n      dup2\n        /* \"#utility.yul\":17633:17764   */\n      tag_218\n      jump\t// in\n    tag_392:\n        /* \"#utility.yul\":17625:17764   */\n      swap1\n      pop\n        /* \"#utility.yul\":17352:17771   */\n      swap2\n      swap1\n      pop\n      jump\t// out\n        /* \"#utility.yul\":17777:17957   */\n    tag_219:\n        /* \"#utility.yul\":17825:17902   */\n      0x4e487b7100000000000000000000000000000000000000000000000000000000\n        /* \"#utility.yul\":17822:17823   */\n      0x00\n        /* \"#utility.yul\":17815:17903   */\n      mstore\n        /* \"#utility.yul\":17922:17926   */\n      0x22\n        /* \"#utility.yul\":17919:17920   */\n      0x04\n        /* \"#utility.yul\":17912:17927   */\n      mstore\n        /* \"#utility.yul\":17946:17950   */\n      0x24\n        /* \"#utility.yul\":17943:17944   */\n      0x00\n        /* \"#utility.yul\":17936:17951   */\n      revert\n        /* \"#utility.yul\":17963:18283   */\n    tag_69:\n        /* \"#utility.yul\":18007:18013   */\n      0x00\n        /* \"#utility.yul\":18044:18045   */\n      0x02\n        /* \"#utility.yul\":18038:18042   */\n      dup3\n        /* \"#utility.yul\":18034:18046   */\n      div\n        /* \"#utility.yul\":18024:18046   */\n      swap1\n      pop\n        /* \"#utility.yul\":18091:18092   */\n      0x01\n        /* \"#utility.yul\":18085:18089   */\n      dup3\n        /* \"#utility.yul\":18081:18093   */\n      and\n        /* \"#utility.yul\":18112:18130   */\n      dup1\n        /* \"#utility.yul\":18102:18183   */\n      tag_395\n      jumpi\n        /* \"#utility.yul\":18168:18172   */\n      0x7f\n        /* \"#utility.yul\":18160:18166   */\n      dup3\n        /* \"#utility.yul\":18156:18173   */\n      and\n        /* \"#utility.yul\":18146:18173   */\n      swap2\n      pop\n        /* \"#utility.yul\":18102:18183   */\n    tag_395:\n        /* \"#utility.yul\":18230:18232   */\n      0x20\n        /* \"#utility.yul\":18222:18228   */\n      dup3\n        /* \"#utility.yul\":18219:18233   */\n      lt\n        /* \"#utility.yul\":18199:18217   */\n      dup2\n        /* \"#utility.yul\":18196:18234   */\n      sub\n        /* \"#utility.yul\":18193:18277   */\n      tag_396\n      jumpi\n        /* \"#utility.yul\":18249:18267   */\n      tag_397\n      tag_219\n      jump\t// in\n    tag_397:\n        /* \"#utility.yul\":18193:18277   */\n    tag_396:\n        /* \"#utility.yul\":18014:18283   */\n      pop\n        /* \"#utility.yul\":17963:18283   */\n      swap2\n      swap1\n      pop\n      jump\t// out\n        /* \"#utility.yul\":18289:18469   */\n    tag_220:\n        /* \"#utility.yul\":18337:18414   */\n      0x4e487b7100000000000000000000000000000000000000000000000000000000\n        /* \"#utility.yul\":18334:18335   */\n      0x00\n        /* \"#utility.yul\":18327:18415   */\n      mstore\n        /* \"#utility.yul\":18434:18438   */\n      0x11\n        /* \"#utility.yul\":18431:18432   */\n      0x04\n        /* \"#utility.yul\":18424:18439   */\n      mstore\n        /* \"#utility.yul\":18458:18462   */\n      0x24\n        /* \"#utility.yul\":18455:18456   */\n      0x00\n        /* \"#utility.yul\":18448:18463   */\n      revert\n        /* \"#utility.yul\":18475:18669   */\n    tag_83:\n        /* \"#utility.yul\":18515:18519   */\n      0x00\n        /* \"#utility.yul\":18535:18555   */\n      tag_400\n        /* \"#utility.yul\":18553:18554   */\n      dup3\n        /* \"#utility.yul\":18535:18555   */\n      tag_172\n      jump\t// in\n    tag_400:\n        /* \"#utility.yul\":18530:18555   */\n      swap2\n      pop\n        /* \"#utility.yul\":18569:18589   */\n      tag_401\n        /* \"#utility.yul\":18587:18588   */\n      dup4\n        /* \"#utility.yul\":18569:18589   */\n      tag_172\n      jump\t// in\n    tag_401:\n        /* \"#utility.yul\":18564:18589   */\n      swap3\n      pop\n        /* \"#utility.yul\":18613:18614   */\n      dup3\n        /* \"#utility.yul\":18610:18611   */\n      dup3\n        /* \"#utility.yul\":18606:18615   */\n      sub\n        /* \"#utility.yul\":18598:18615   */\n      swap1\n      pop\n        /* \"#utility.yul\":18637:18638   */\n      dup2\n        /* \"#utility.yul\":18631:18635   */\n      dup2\n        /* \"#utility.yul\":18628:18639   */\n      gt\n        /* \"#utility.yul\":18625:18662   */\n      iszero\n      tag_402\n      jumpi\n        /* \"#utility.yul\":18642:18660   */\n      tag_403\n      tag_220\n      jump\t// in\n    tag_403:\n        /* \"#utility.yul\":18625:18662   */\n    tag_402:\n        /* \"#utility.yul\":18475:18669   */\n      swap3\n      swap2\n      pop\n      pop\n      jump\t// out\n        /* \"#utility.yul\":18675:18848   */\n    tag_221:\n        /* \"#utility.yul\":18815:18840   */\n      0x43616d706169676e20646f6573206e6f74206578697374000000000000000000\n        /* \"#utility.yul\":18811:18812   */\n      0x00\n        /* \"#utility.yul\":18803:18809   */\n      dup3\n        /* \"#utility.yul\":18799:18813   */\n      add\n        /* \"#utility.yul\":18792:18841   */\n      mstore\n        /* \"#utility.yul\":18675:18848   */\n      pop\n      jump\t// out\n        /* \"#utility.yul\":18854:19220   */\n    tag_222:\n        /* \"#utility.yul\":18996:18999   */\n      0x00\n        /* \"#utility.yul\":19017:19084   */\n      tag_406\n        /* \"#utility.yul\":19081:19083   */\n      0x17\n        /* \"#utility.yul\":19076:19079   */\n      dup4\n        /* \"#utility.yul\":19017:19084   */\n      tag_212\n      jump\t// in\n    tag_406:\n        /* \"#utility.yul\":19010:19084   */\n      swap2\n      pop\n        /* \"#utility.yul\":19093:19186   */\n      tag_407\n        /* \"#utility.yul\":19182:19185   */\n      dup3\n        /* \"#utility.yul\":19093:19186   */\n      tag_221\n      jump\t// in\n    tag_407:\n        /* \"#utility.yul\":19211:19213   */\n      0x20\n        /* \"#utility.yul\":19206:19209   */\n      dup3\n        /* \"#utility.yul\":19202:19214   */\n      add\n        /* \"#utility.yul\":19195:19214   */\n      swap1\n      pop\n        /* \"#utility.yul\":18854:19220   */\n      swap2\n      swap1\n      pop\n      jump\t// out\n        /* \"#utility.yul\":19226:19645   */\n    tag_94:\n        /* \"#utility.yul\":19392:19396   */\n      0x00\n        /* \"#utility.yul\":19430:19432   */\n      0x20\n        /* \"#utility.yul\":19419:19428   */\n      dup3\n        /* \"#utility.yul\":19415:19433   */\n      add\n        /* \"#utility.yul\":19407:19433   */\n      swap1\n      pop\n        /* \"#utility.yul\":19479:19488   */\n      dup2\n        /* \"#utility.yul\":19473:19477   */\n      dup2\n        /* \"#utility.yul\":19469:19489   */\n      sub\n        /* \"#utility.yul\":19465:19466   */\n      0x00\n        /* \"#utility.yul\":19454:19463   */\n      dup4\n        /* \"#utility.yul\":19450:19467   */\n      add\n        /* \"#utility.yul\":19443:19490   */\n      mstore\n        /* \"#utility.yul\":19507:19638   */\n      tag_409\n        /* \"#utility.yul\":19633:19637   */\n      dup2\n        /* \"#utility.yul\":19507:19638   */\n      tag_222\n      jump\t// in\n    tag_409:\n        /* \"#utility.yul\":19499:19638   */\n      swap1\n      pop\n        /* \"#utility.yul\":19226:19645   */\n      swap2\n      swap1\n      pop\n      jump\t// out\n        /* \"#utility.yul\":19651:19810   */\n    tag_223:\n        /* \"#utility.yul\":19791:19802   */\n      0x626164206d6f6e65790000000000000000000000000000000000000000000000\n        /* \"#utility.yul\":19787:19788   */\n      0x00\n        /* \"#utility.yul\":19779:19785   */\n      dup3\n        /* \"#utility.yul\":19775:19789   */\n      add\n        /* \"#utility.yul\":19768:19803   */\n      mstore\n        /* \"#utility.yul\":19651:19810   */\n      pop\n      jump\t// out\n        /* \"#utility.yul\":19816:20181   */\n    tag_224:\n        /* \"#utility.yul\":19958:19961   */\n      0x00\n        /* \"#utility.yul\":19979:20045   */\n      tag_412\n        /* \"#utility.yul\":20043:20044   */\n      0x09\n        /* \"#utility.yul\":20038:20041   */\n      dup4\n        /* \"#utility.yul\":19979:20045   */\n      tag_212\n      jump\t// in\n    tag_412:\n        /* \"#utility.yul\":19972:20045   */\n      swap2\n      pop\n        /* \"#utility.yul\":20054:20147   */\n      tag_413\n        /* \"#utility.yul\":20143:20146   */\n      dup3\n        /* \"#utility.yul\":20054:20147   */\n      tag_223\n      jump\t// in\n    tag_413:\n        /* \"#utility.yul\":20172:20174   */\n      0x20\n        /* \"#utility.yul\":20167:20170   */\n      dup3\n        /* \"#utility.yul\":20163:20175   */\n      add\n        /* \"#utility.yul\":20156:20175   */\n      swap1\n      pop\n        /* \"#utility.yul\":19816:20181   */\n      swap2\n      swap1\n      pop\n      jump\t// out\n        /* \"#utility.yul\":20187:20606   */\n    tag_101:\n        /* \"#utility.yul\":20353:20357   */\n      0x00\n        /* \"#utility.yul\":20391:20393   */\n      0x20\n        /* \"#utility.yul\":20380:20389   */\n      dup3\n        /* \"#utility.yul\":20376:20394   */\n      add\n        /* \"#utility.yul\":20368:20394   */\n      swap1\n      pop\n        /* \"#utility.yul\":20440:20449   */\n      dup2\n        /* \"#utility.yul\":20434:20438   */\n      dup2\n        /* \"#utility.yul\":20430:20450   */\n      sub\n        /* \"#utility.yul\":20426:20427   */\n      0x00\n        /* \"#utility.yul\":20415:20424   */\n      dup4\n        /* \"#utility.yul\":20411:20428   */\n      add\n        /* \"#utility.yul\":20404:20451   */\n      mstore\n        /* \"#utility.yul\":20468:20599   */\n      tag_415\n        /* \"#utility.yul\":20594:20598   */\n      dup2\n        /* \"#utility.yul\":20468:20599   */\n      tag_224\n      jump\t// in\n    tag_415:\n        /* \"#utility.yul\":20460:20599   */\n      swap1\n      pop\n        /* \"#utility.yul\":20187:20606   */\n      swap2\n      swap1\n      pop\n      jump\t// out\n        /* \"#utility.yul\":20612:20803   */\n    tag_106:\n        /* \"#utility.yul\":20652:20655   */\n      0x00\n        /* \"#utility.yul\":20671:20691   */\n      tag_417\n        /* \"#utility.yul\":20689:20690   */\n      dup3\n        /* \"#utility.yul\":20671:20691   */\n      tag_172\n      jump\t// in\n    tag_417:\n        /* \"#utility.yul\":20666:20691   */\n      swap2\n      pop\n        /* \"#utility.yul\":20705:20725   */\n      tag_418\n        /* \"#utility.yul\":20723:20724   */\n      dup4\n        /* \"#utility.yul\":20705:20725   */\n      tag_172\n      jump\t// in\n    tag_418:\n        /* \"#utility.yul\":20700:20725   */\n      swap3\n      pop\n        /* \"#utility.yul\":20748:20749   */\n      dup3\n        /* \"#utility.yul\":20745:20746   */\n      dup3\n        /* \"#utility.yul\":20741:20750   */\n      add\n        /* \"#utility.yul\":20734:20750   */\n      swap1\n      pop\n        /* \"#utility.yul\":20769:20772   */\n      dup1\n        /* \"#utility.yul\":20766:20767   */\n      dup3\n        /* \"#utility.yul\":20763:20773   */\n      gt\n        /* \"#utility.yul\":20760:20796   */\n      iszero\n      tag_419\n      jumpi\n        /* \"#utility.yul\":20776:20794   */\n      tag_420\n      tag_220\n      jump\t// in\n    tag_420:\n        /* \"#utility.yul\":20760:20796   */\n    tag_419:\n        /* \"#utility.yul\":20612:20803   */\n      swap3\n      swap2\n      pop\n      pop\n      jump\t// out\n        /* \"#utility.yul\":20809:20950   */\n    tag_225:\n        /* \"#utility.yul\":20858:20862   */\n      0x00\n        /* \"#utility.yul\":20881:20884   */\n      dup2\n        /* \"#utility.yul\":20873:20884   */\n      swap1\n      pop\n        /* \"#utility.yul\":20904:20907   */\n      dup2\n        /* \"#utility.yul\":20901:20902   */\n      0x00\n        /* \"#utility.yul\":20894:20908   */\n      mstore\n        /* \"#utility.yul\":20938:20942   */\n      0x20\n        /* \"#utility.yul\":20935:20936   */\n      0x00\n        /* \"#utility.yul\":20925:20943   */\n      keccak256\n        /* \"#utility.yul\":20917:20943   */\n      swap1\n      pop\n        /* \"#utility.yul\":20809:20950   */\n      swap2\n      swap1\n      pop\n      jump\t// out\n        /* \"#utility.yul\":20956:21049   */\n    tag_226:\n        /* \"#utility.yul\":20993:20999   */\n      0x00\n        /* \"#utility.yul\":21040:21042   */\n      0x20\n        /* \"#utility.yul\":21035:21037   */\n      0x1f\n        /* \"#utility.yul\":21028:21033   */\n      dup4\n        /* \"#utility.yul\":21024:21038   */\n      add\n        /* \"#utility.yul\":21020:21043   */\n      div\n        /* \"#utility.yul\":21010:21043   */\n      swap1\n      pop\n        /* \"#utility.yul\":20956:21049   */\n      swap2\n      swap1\n      pop\n      jump\t// out\n        /* \"#utility.yul\":21055:21162   */\n    tag_227:\n        /* \"#utility.yul\":21099:21107   */\n      0x00\n        /* \"#utility.yul\":21149:21154   */\n      dup3\n        /* \"#utility.yul\":21143:21147   */\n      dup3\n        /* \"#utility.yul\":21139:21155   */\n      shl\n        /* \"#utility.yul\":21118:21155   */\n      swap1\n      pop\n        /* \"#utility.yul\":21055:21162   */\n      swap3\n      swap2\n      pop\n      pop\n      jump\t// out\n        /* \"#utility.yul\":21168:21561   */\n    tag_228:\n        /* \"#utility.yul\":21237:21243   */\n      0x00\n        /* \"#utility.yul\":21287:21288   */\n      0x08\n        /* \"#utility.yul\":21275:21285   */\n      dup4\n        /* \"#utility.yul\":21271:21289   */\n      mul\n        /* \"#utility.yul\":21310:21407   */\n      tag_425\n        /* \"#utility.yul\":21340:21406   */\n      0xffffffffffffffffffffffffffffffffffffffffffffffffffffffffffffffff\n        /* \"#utility.yul\":21329:21338   */\n      dup3\n        /* \"#utility.yul\":21310:21407   */\n      tag_227\n      jump\t// in\n    tag_425:\n        /* \"#utility.yul\":21428:21467   */\n      tag_426\n        /* \"#utility.yul\":21458:21466   */\n      dup7\n        /* \"#utility.yul\":21447:21456   */\n      dup4\n        /* \"#utility.yul\":21428:21467   */\n      tag_227\n      jump\t// in\n    tag_426:\n        /* \"#utility.yul\":21416:21467   */\n      swap6\n      pop\n        /* \"#utility.yul\":21500:21504   */\n      dup1\n        /* \"#utility.yul\":21496:21505   */\n      not\n        /* \"#utility.yul\":21489:21494   */\n      dup5\n        /* \"#utility.yul\":21485:21506   */\n      and\n        /* \"#utility.yul\":21476:21506   */\n      swap4\n      pop\n        /* \"#utility.yul\":21549:21553   */\n      dup1\n        /* \"#utility.yul\":21539:21547   */\n      dup7\n        /* \"#utility.yul\":21535:21554   */\n      and\n        /* \"#utility.yul\":21528:21533   */\n      dup5\n        /* \"#utility.yul\":21525:21555   */\n      or\n        /* \"#utility.yul\":21515:21555   */\n      swap3\n      pop\n        /* \"#utility.yul\":21244:21561   */\n      pop\n      pop\n        /* \"#utility.yul\":21168:21561   */\n      swap4\n      swap3\n      pop\n      pop\n      pop\n      jump\t// out\n        /* \"#utility.yul\":21567:21627   */\n    tag_229:\n        /* \"#utility.yul\":21595:21598   */\n      0x00\n        /* \"#utility.yul\":21616:21621   */\n      dup2\n        /* \"#utility.yul\":21609:21621   */\n      swap1\n      pop\n        /* \"#utility.yul\":21567:21627   */\n      swap2\n      swap1\n      pop\n      jump\t// out\n        /* \"#utility.yul\":21633:21775   */\n    tag_230:\n        /* \"#utility.yul\":21683:21692   */\n      0x00\n        /* \"#utility.yul\":21716:21769   */\n      tag_429\n        /* \"#utility.yul\":21734:21768   */\n      tag_430\n        /* \"#utility.yul\":21743:21767   */\n      tag_431\n        /* \"#utility.yul\":21761:21766   */\n      dup5\n        /* \"#utility.yul\":21743:21767   */\n      tag_172\n      jump\t// in\n    tag_431:\n        /* \"#utility.yul\":21734:21768   */\n      tag_229\n      jump\t// in\n    tag_430:\n        /* \"#utility.yul\":21716:21769   */\n      tag_172\n      jump\t// in\n    tag_429:\n        /* \"#utility.yul\":21703:21769   */\n      swap1\n      pop\n        /* \"#utility.yul\":21633:21775   */\n      swap2\n      swap1\n      pop\n      jump\t// out\n        /* \"#utility.yul\":21781:21856   */\n    tag_231:\n        /* \"#utility.yul\":21824:21827   */\n      0x00\n        /* \"#utility.yul\":21845:21850   */\n      dup2\n        /* \"#utility.yul\":21838:21850   */\n      swap1\n      pop\n        /* \"#utility.yul\":21781:21856   */\n      swap2\n      swap1\n      pop\n      jump\t// out\n        /* \"#utility.yul\":21862:22131   */\n    tag_232:\n        /* \"#utility.yul\":21972:22011   */\n      tag_434\n        /* \"#utility.yul\":22003:22010   */\n      dup4\n        /* \"#utility.yul\":21972:22011   */\n      tag_230\n      jump\t// in\n    tag_434:\n        /* \"#utility.yul\":22033:22124   */\n      tag_435\n        /* \"#utility.yul\":22082:22123   */\n      tag_436\n        /* \"#utility.yul\":22106:22122   */\n      dup3\n        /* \"#utility.yul\":22082:22123   */\n      tag_231\n      jump\t// in\n    tag_436:\n        /* \"#utility.yul\":22074:22080   */\n      dup5\n        /* \"#utility.yul\":22067:22071   */\n      dup5\n        /* \"#utility.yul\":22061:22072   */\n      sload\n        /* \"#utility.yul\":22033:22124   */\n      tag_228\n      jump\t// in\n    tag_435:\n        /* \"#utility.yul\":22027:22031   */\n      dup3\n        /* \"#utility.yul\":22020:22125   */\n      sstore\n        /* \"#utility.yul\":21938:22131   */\n      pop\n        /* \"#utility.yul\":21862:22131   */\n      pop\n      pop\n      pop\n      jump\t// out\n        /* \"#utility.yul\":22137:22210   */\n    tag_233:\n        /* \"#utility.yul\":22182:22185   */\n      0x00\n        /* \"#utility.yul\":22137:22210   */\n      swap1\n      jump\t// out\n        /* \"#utility.yul\":22216:22405   */\n    tag_234:\n        /* \"#utility.yul\":22293:22325   */\n      tag_439\n      tag_233\n      jump\t// in\n    tag_439:\n        /* \"#utility.yul\":22334:22399   */\n      tag_440\n        /* \"#utility.yul\":22392:22398   */\n      dup2\n        /* \"#utility.yul\":22384:22390   */\n      dup5\n        /* \"#utility.yul\":22378:22382   */\n      dup5\n        /* \"#utility.yul\":22334:22399   */\n      tag_232\n      jump\t// in\n    tag_440:\n        /* \"#utility.yul\":22269:22405   */\n      pop\n        /* \"#utility.yul\":22216:22405   */\n      pop\n      pop\n      jump\t// out\n        /* \"#utility.yul\":22411:22597   */\n    tag_235:\n        /* \"#utility.yul\":22471:22591   */\n    tag_442:\n        /* \"#utility.yul\":22488:22491   */\n      dup2\n        /* \"#utility.yul\":22481:22486   */\n      dup2\n        /* \"#utility.yul\":22478:22492   */\n      lt\n        /* \"#utility.yul\":22471:22591   */\n      iszero\n      tag_444\n      jumpi\n        /* \"#utility.yul\":22542:22581   */\n      tag_445\n        /* \"#utility.yul\":22579:22580   */\n      0x00\n        /* \"#utility.yul\":22572:22577   */\n      dup3\n        /* \"#utility.yul\":22542:22581   */\n      tag_234\n      jump\t// in\n    tag_445:\n        /* \"#utility.yul\":22515:22516   */\n      0x01\n        /* \"#utility.yul\":22508:22513   */\n      dup2\n        /* \"#utility.yul\":22504:22517   */\n      add\n        /* \"#utility.yul\":22495:22517   */\n      swap1\n      pop\n        /* \"#utility.yul\":22471:22591   */\n      jump(tag_442)\n    tag_444:\n        /* \"#utility.yul\":22411:22597   */\n      pop\n      pop\n      jump\t// out\n        /* \"#utility.yul\":22603:23146   */\n    tag_236:\n        /* \"#utility.yul\":22704:22706   */\n      0x1f\n        /* \"#utility.yul\":22699:22702   */\n      dup3\n        /* \"#utility.yul\":22696:22707   */\n      gt\n        /* \"#utility.yul\":22693:23139   */\n      iszero\n      tag_447\n      jumpi\n        /* \"#utility.yul\":22738:22776   */\n      tag_448\n        /* \"#utility.yul\":22770:22775   */\n      dup2\n        /* \"#utility.yul\":22738:22776   */\n      tag_225\n      jump\t// in\n    tag_448:\n        /* \"#utility.yul\":22822:22851   */\n      tag_449\n        /* \"#utility.yul\":22840:22850   */\n      dup5\n        /* \"#utility.yul\":22822:22851   */\n      tag_226\n      jump\t// in\n    tag_449:\n        /* \"#utility.yul\":22812:22820   */\n      dup2\n        /* \"#utility.yul\":22808:22852   */\n      add\n        /* \"#utility.yul\":23005:23007   */\n      0x20\n        /* \"#utility.yul\":22993:23003   */\n      dup6\n        /* \"#utility.yul\":22990:23008   */\n      lt\n        /* \"#utility.yul\":22987:23036   */\n      iszero\n      tag_450\n      jumpi\n        /* \"#utility.yul\":23026:23034   */\n      dup2\n        /* \"#utility.yul\":23011:23034   */\n      swap1\n      pop\n        /* \"#utility.yul\":22987:23036   */\n    tag_450:\n        /* \"#utility.yul\":23049:23129   */\n      tag_451\n        /* \"#utility.yul\":23105:23127   */\n      tag_452\n        /* \"#utility.yul\":23123:23126   */\n      dup6\n        /* \"#utility.yul\":23105:23127   */\n      tag_226\n      jump\t// in\n    tag_452:\n        /* \"#utility.yul\":23095:23103   */\n      dup4\n        /* \"#utility.yul\":23091:23128   */\n      add\n        /* \"#utility.yul\":23078:23089   */\n      dup3\n        /* \"#utility.yul\":23049:23129   */\n      tag_235\n      jump\t// in\n    tag_451:\n        /* \"#utility.yul\":22708:23139   */\n      pop\n      pop\n        /* \"#utility.yul\":22693:23139   */\n    tag_447:\n        /* \"#utility.yul\":22603:23146   */\n      pop\n      pop\n      pop\n      jump\t// out\n        /* \"#utility.yul\":23152:23269   */\n    tag_237:\n        /* \"#utility.yul\":23206:23214   */\n      0x00\n        /* \"#utility.yul\":23256:23261   */\n      dup3\n        /* \"#utility.yul\":23250:23254   */\n      dup3\n        /* \"#utility.yul\":23246:23262   */\n      shr\n        /* \"#utility.yul\":23225:23262   */\n      swap1\n      pop\n        /* \"#utility.yul\":23152:23269   */\n      swap3\n      swap2\n      pop\n      pop\n      jump\t// out\n        /* \"#utility.yul\":23275:23444   */\n    tag_238:\n        /* \"#utility.yul\":23319:23325   */\n      0x00\n        /* \"#utility.yul\":23352:23403   */\n      tag_455\n        /* \"#utility.yul\":23400:23401   */\n      0x00\n        /* \"#utility.yul\":23396:23402   */\n      not\n        /* \"#utility.yul\":23388:23393   */\n      dup5\n        /* \"#utility.yul\":23385:23386   */\n      0x08\n        /* \"#utility.yul\":23381:23394   */\n      mul\n        /* \"#utility.yul\":23352:23403   */\n      tag_237\n      jump\t// in\n    tag_455:\n        /* \"#utility.yul\":23348:23404   */\n      not\n        /* \"#utility.yul\":23433:23437   */\n      dup1\n        /* \"#utility.yul\":23427:23431   */\n      dup4\n        /* \"#utility.yul\":23423:23438   */\n      and\n        /* \"#utility.yul\":23413:23438   */\n      swap2\n      pop\n        /* \"#utility.yul\":23326:23444   */\n      pop\n        /* \"#utility.yul\":23275:23444   */\n      swap3\n      swap2\n      pop\n      pop\n      jump\t// out\n        /* \"#utility.yul\":23449:23744   */\n    tag_239:\n        /* \"#utility.yul\":23525:23529   */\n      0x00\n        /* \"#utility.yul\":23671:23700   */\n      tag_457\n        /* \"#utility.yul\":23696:23699   */\n      dup4\n        /* \"#utility.yul\":23690:23694   */\n      dup4\n        /* \"#utility.yul\":23671:23700   */\n      tag_238\n      jump\t// in\n    tag_457:\n        /* \"#utility.yul\":23663:23700   */\n      swap2\n      pop\n        /* \"#utility.yul\":23733:23736   */\n      dup3\n        /* \"#utility.yul\":23730:23731   */\n      0x02\n        /* \"#utility.yul\":23726:23737   */\n      mul\n        /* \"#utility.yul\":23720:23724   */\n      dup3\n        /* \"#utility.yul\":23717:23738   */\n      or\n        /* \"#utility.yul\":23709:23738   */\n      swap1\n      pop\n        /* \"#utility.yul\":23449:23744   */\n      swap3\n      swap2\n      pop\n      pop\n      jump\t// out\n        /* \"#utility.yul\":23749:25144   */\n    tag_127:\n        /* \"#utility.yul\":23866:23903   */\n      tag_459\n        /* \"#utility.yul\":23899:23902   */\n      dup3\n        /* \"#utility.yul\":23866:23903   */\n      tag_182\n      jump\t// in\n    tag_459:\n        /* \"#utility.yul\":23968:23986   */\n      0xffffffffffffffff\n        /* \"#utility.yul\":23960:23966   */\n      dup2\n        /* \"#utility.yul\":23957:23987   */\n      gt\n        /* \"#utility.yul\":23954:24010   */\n      iszero\n      tag_460\n      jumpi\n        /* \"#utility.yul\":23990:24008   */\n      tag_461\n      tag_196\n      jump\t// in\n    tag_461:\n        /* \"#utility.yul\":23954:24010   */\n    tag_460:\n        /* \"#utility.yul\":24034:24072   */\n      tag_462\n        /* \"#utility.yul\":24066:24070   */\n      dup3\n        /* \"#utility.yul\":24060:24071   */\n      sload\n        /* \"#utility.yul\":24034:24072   */\n      tag_69\n      jump\t// in\n    tag_462:\n        /* \"#utility.yul\":24119:24186   */\n      tag_463\n        /* \"#utility.yul\":24179:24185   */\n      dup3\n        /* \"#utility.yul\":24171:24177   */\n      dup3\n        /* \"#utility.yul\":24165:24169   */\n      dup6\n        /* \"#utility.yul\":24119:24186   */\n      tag_236\n      jump\t// in\n    tag_463:\n        /* \"#utility.yul\":24213:24214   */\n      0x00\n        /* \"#utility.yul\":24237:24241   */\n      0x20\n        /* \"#utility.yul\":24224:24241   */\n      swap1\n      pop\n        /* \"#utility.yul\":24269:24271   */\n      0x1f\n        /* \"#utility.yul\":24261:24267   */\n      dup4\n        /* \"#utility.yul\":24258:24272   */\n      gt\n        /* \"#utility.yul\":24286:24287   */\n      0x01\n        /* \"#utility.yul\":24281:24899   */\n      dup2\n      eq\n      tag_465\n      jumpi\n        /* \"#utility.yul\":24943:24944   */\n      0x00\n        /* \"#utility.yul\":24960:24966   */\n      dup5\n        /* \"#utility.yul\":24957:25034   */\n      iszero\n      tag_466\n      jumpi\n        /* \"#utility.yul\":25009:25018   */\n      dup3\n        /* \"#utility.yul\":25004:25007   */\n      dup8\n        /* \"#utility.yul\":25000:25019   */\n      add\n        /* \"#utility.yul\":24994:25020   */\n      mload\n        /* \"#utility.yul\":24985:25020   */\n      swap1\n      pop\n        /* \"#utility.yul\":24957:25034   */\n    tag_466:\n        /* \"#utility.yul\":25060:25127   */\n      tag_467\n        /* \"#utility.yul\":25120:25126   */\n      dup6\n        /* \"#utility.yul\":25113:25118   */\n      dup3\n        /* \"#utility.yul\":25060:25127   */\n      tag_239\n      jump\t// in\n    tag_467:\n        /* \"#utility.yul\":25054:25058   */\n      dup7\n        /* \"#utility.yul\":25047:25128   */\n      sstore\n        /* \"#utility.yul\":24916:25138   */\n      pop\n        /* \"#utility.yul\":24251:25138   */\n      jump(tag_464)\n        /* \"#utility.yul\":24281:24899   */\n    tag_465:\n        /* \"#utility.yul\":24333:24337   */\n      0x1f\n        /* \"#utility.yul\":24329:24338   */\n      not\n        /* \"#utility.yul\":24321:24327   */\n      dup5\n        /* \"#utility.yul\":24317:24339   */\n      and\n        /* \"#utility.yul\":24367:24404   */\n      tag_468\n        /* \"#utility.yul\":24399:24403   */\n      dup7\n        /* \"#utility.yul\":24367:24404   */\n      tag_225\n      jump\t// in\n    tag_468:\n        /* \"#utility.yul\":24426:24427   */\n      0x00\n        /* \"#utility.yul\":24440:24648   */\n    tag_469:\n        /* \"#utility.yul\":24454:24461   */\n      dup3\n        /* \"#utility.yul\":24451:24452   */\n      dup2\n        /* \"#utility.yul\":24448:24462   */\n      lt\n        /* \"#utility.yul\":24440:24648   */\n      iszero\n      tag_471\n      jumpi\n        /* \"#utility.yul\":24533:24542   */\n      dup5\n        /* \"#utility.yul\":24528:24531   */\n      dup10\n        /* \"#utility.yul\":24524:24543   */\n      add\n        /* \"#utility.yul\":24518:24544   */\n      mload\n        /* \"#utility.yul\":24510:24516   */\n      dup3\n        /* \"#utility.yul\":24503:24545   */\n      sstore\n        /* \"#utility.yul\":24584:24585   */\n      0x01\n        /* \"#utility.yul\":24576:24582   */\n      dup3\n        /* \"#utility.yul\":24572:24586   */\n      add\n        /* \"#utility.yul\":24562:24586   */\n      swap2\n      pop\n        /* \"#utility.yul\":24631:24633   */\n      0x20\n        /* \"#utility.yul\":24620:24629   */\n      dup6\n        /* \"#utility.yul\":24616:24634   */\n      add\n        /* \"#utility.yul\":24603:24634   */\n      swap5\n      pop\n        /* \"#utility.yul\":24477:24481   */\n      0x20\n        /* \"#utility.yul\":24474:24475   */\n      dup2\n        /* \"#utility.yul\":24470:24482   */\n      add\n        /* \"#utility.yul\":24465:24482   */\n      swap1\n      pop\n        /* \"#utility.yul\":24440:24648   */\n      jump(tag_469)\n    tag_471:\n        /* \"#utility.yul\":24676:24682   */\n      dup7\n        /* \"#utility.yul\":24667:24674   */\n      dup4\n        /* \"#utility.yul\":24664:24683   */\n      lt\n        /* \"#utility.yul\":24661:24840   */\n      iszero\n      tag_472\n      jumpi\n        /* \"#utility.yul\":24734:24743   */\n      dup5\n        /* \"#utility.yul\":24729:24732   */\n      dup10\n        /* \"#utility.yul\":24725:24744   */\n      add\n        /* \"#utility.yul\":24719:24745   */\n      mload\n        /* \"#utility.yul\":24777:24825   */\n      tag_473\n        /* \"#utility.yul\":24819:24823   */\n      0x1f\n        /* \"#utility.yul\":24811:24817   */\n      dup10\n        /* \"#utility.yul\":24807:24824   */\n      and\n        /* \"#utility.yul\":24796:24805   */\n      dup3\n        /* \"#utility.yul\":24777:24825   */\n      tag_238\n      jump\t// in\n    tag_473:\n        /* \"#utility.yul\":24769:24775   */\n      dup4\n        /* \"#utility.yul\":24762:24826   */\n      sstore\n        /* \"#utility.yul\":24684:24840   */\n      pop\n        /* \"#utility.yul\":24661:24840   */\n    tag_472:\n        /* \"#utility.yul\":24886:24887   */\n      0x01\n        /* \"#utility.yul\":24882:24883   */\n      0x02\n        /* \"#utility.yul\":24874:24880   */\n      dup9\n        /* \"#utility.yul\":24870:24884   */\n      mul\n        /* \"#utility.yul\":24866:24888   */\n      add\n        /* \"#utility.yul\":24860:24864   */\n      dup9\n        /* \"#utility.yul\":24853:24889   */\n      sstore\n        /* \"#utility.yul\":24288:24899   */\n      pop\n      pop\n      pop\n        /* \"#utility.yul\":24251:25138   */\n    tag_464:\n      pop\n        /* \"#utility.yul\":23841:25144   */\n      pop\n      pop\n      pop\n        /* \"#utility.yul\":23749:25144   */\n      pop\n      pop\n      jump\t// out\n        /* \"#utility.yul\":25150:25560   */\n    tag_141:\n        /* \"#utility.yul\":25190:25197   */\n      0x00\n        /* \"#utility.yul\":25213:25233   */\n      tag_475\n        /* \"#utility.yul\":25231:25232   */\n      dup3\n        /* \"#utility.yul\":25213:25233   */\n      tag_172\n      jump\t// in\n    tag_475:\n        /* \"#utility.yul\":25208:25233   */\n      swap2\n      pop\n        /* \"#utility.yul\":25247:25267   */\n      tag_476\n        /* \"#utility.yul\":25265:25266   */\n      dup4\n        /* \"#utility.yul\":25247:25267   */\n      tag_172\n      jump\t// in\n    tag_476:\n        /* \"#utility.yul\":25242:25267   */\n      swap3\n      pop\n        /* \"#utility.yul\":25302:25303   */\n      dup3\n        /* \"#utility.yul\":25299:25300   */\n      dup3\n        /* \"#utility.yul\":25295:25304   */\n      mul\n        /* \"#utility.yul\":25324:25354   */\n      tag_477\n        /* \"#utility.yul\":25342:25353   */\n      dup2\n        /* \"#utility.yul\":25324:25354   */\n      tag_172\n      jump\t// in\n    tag_477:\n        /* \"#utility.yul\":25313:25354   */\n      swap2\n      pop\n        /* \"#utility.yul\":25503:25504   */\n      dup3\n        /* \"#utility.yul\":25494:25501   */\n      dup3\n        /* \"#utility.yul\":25490:25505   */\n      div\n        /* \"#utility.yul\":25487:25488   */\n      dup5\n        /* \"#utility.yul\":25484:25506   */\n      eq\n        /* \"#utility.yul\":25464:25465   */\n      dup4\n        /* \"#utility.yul\":25457:25466   */\n      iszero\n        /* \"#utility.yul\":25437:25520   */\n      or\n        /* \"#utility.yul\":25414:25553   */\n      tag_478\n      jumpi\n        /* \"#utility.yul\":25533:25551   */\n      tag_479\n      tag_220\n      jump\t// in\n    tag_479:\n        /* \"#utility.yul\":25414:25553   */\n    tag_478:\n        /* \"#utility.yul\":25198:25560   */\n      pop\n        /* \"#utility.yul\":25150:25560   */\n      swap3\n      swap2\n      pop\n      pop\n      jump\t// out\n        /* \"#utility.yul\":25566:25746   */\n    tag_240:\n        /* \"#utility.yul\":25614:25691   */\n      0x4e487b7100000000000000000000000000000000000000000000000000000000\n        /* \"#utility.yul\":25611:25612   */\n      0x00\n        /* \"#utility.yul\":25604:25692   */\n      mstore\n        /* \"#utility.yul\":25711:25715   */\n      0x12\n        /* \"#utility.yul\":25708:25709   */\n      0x04\n        /* \"#utility.yul\":25701:25716   */\n      mstore\n        /* \"#utility.yul\":25735:25739   */\n      0x24\n        /* \"#utility.yul\":25732:25733   */\n      0x00\n        /* \"#utility.yul\":25725:25740   */\n      revert\n        /* \"#utility.yul\":25752:25937   */\n    tag_143:\n        /* \"#utility.yul\":25792:25793   */\n      0x00\n        /* \"#utility.yul\":25809:25829   */\n      tag_482\n        /* \"#utility.yul\":25827:25828   */\n      dup3\n        /* \"#utility.yul\":25809:25829   */\n      tag_172\n      jump\t// in\n    tag_482:\n        /* \"#utility.yul\":25804:25829   */\n      swap2\n      pop\n        /* \"#utility.yul\":25843:25863   */\n      tag_483\n        /* \"#utility.yul\":25861:25862   */\n      dup4\n        /* \"#utility.yul\":25843:25863   */\n      tag_172\n      jump\t// in\n    tag_483:\n        /* \"#utility.yul\":25838:25863   */\n      swap3\n      pop\n        /* \"#utility.yul\":25882:25883   */\n      dup3\n        /* \"#utility.yul\":25872:25907   */\n      tag_484\n      jumpi\n        /* \"#utility.yul\":25887:25905   */\n      tag_485\n      tag_240\n      jump\t// in\n    tag_485:\n        /* \"#utility.yul\":25872:25907   */\n    tag_484:\n        /* \"#utility.yul\":25929:25930   */\n      dup3\n        /* \"#utility.yul\":25926:25927   */\n      dup3\n        /* \"#utility.yul\":25922:25931   */\n      div\n        /* \"#utility.yul\":25917:25931   */\n      swap1\n      pop\n        /* \"#utility.yul\":25752:25937   */\n      swap3\n      swap2\n      pop\n      pop\n      jump\t// out\n        /* \"#utility.yul\":25943:26039   */\n    tag_241:\n        /* \"#utility.yul\":25980:25987   */\n      0x00\n        /* \"#utility.yul\":26009:26033   */\n      tag_487\n        /* \"#utility.yul\":26027:26032   */\n      dup3\n        /* \"#utility.yul\":26009:26033   */\n      tag_187\n      jump\t// in\n    tag_487:\n        /* \"#utility.yul\":25998:26033   */\n      swap1\n      pop\n        /* \"#utility.yul\":25943:26039   */\n      swap2\n      swap1\n      pop\n      jump\t// out\n        /* \"#utility.yul\":26045:26163   */\n    tag_242:\n        /* \"#utility.yul\":26132:26156   */\n      tag_489\n        /* \"#utility.yul\":26150:26155   */\n      dup2\n        /* \"#utility.yul\":26132:26156   */\n      tag_241\n      jump\t// in\n    tag_489:\n        /* \"#utility.yul\":26127:26130   */\n      dup3\n        /* \"#utility.yul\":26120:26157   */\n      mstore\n        /* \"#utility.yul\":26045:26163   */\n      pop\n      pop\n      jump\t// out\n        /* \"#utility.yul\":26169:26611   */\n    tag_166:\n        /* \"#utility.yul\":26318:26322   */\n      0x00\n        /* \"#utility.yul\":26356:26358   */\n      0x60\n        /* \"#utility.yul\":26345:26354   */\n      dup3\n        /* \"#utility.yul\":26341:26359   */\n      add\n        /* \"#utility.yul\":26333:26359   */\n      swap1\n      pop\n        /* \"#utility.yul\":26369:26440   */\n      tag_491\n        /* \"#utility.yul\":26437:26438   */\n      0x00\n        /* \"#utility.yul\":26426:26435   */\n      dup4\n        /* \"#utility.yul\":26422:26439   */\n      add\n        /* \"#utility.yul\":26413:26419   */\n      dup7\n        /* \"#utility.yul\":26369:26440   */\n      tag_175\n      jump\t// in\n    tag_491:\n        /* \"#utility.yul\":26450:26522   */\n      tag_492\n        /* \"#utility.yul\":26518:26520   */\n      0x20\n        /* \"#utility.yul\":26507:26516   */\n      dup4\n        /* \"#utility.yul\":26503:26521   */\n      add\n        /* \"#utility.yul\":26494:26500   */\n      dup6\n        /* \"#utility.yul\":26450:26522   */\n      tag_242\n      jump\t// in\n    tag_492:\n        /* \"#utility.yul\":26532:26604   */\n      tag_493\n        /* \"#utility.yul\":26600:26602   */\n      0x40\n        /* \"#utility.yul\":26589:26598   */\n      dup4\n        /* \"#utility.yul\":26585:26603   */\n      add\n        /* \"#utility.yul\":26576:26582   */\n      dup5\n        /* \"#utility.yul\":26532:26604   */\n      tag_175\n      jump\t// in\n    tag_493:\n        /* \"#utility.yul\":26169:26611   */\n      swap5\n      swap4\n      pop\n      pop\n      pop\n      pop\n      jump\t// out\n\n    auxdata: 0xa2646970667358221220a339f0d06fe88c8eaa055b16d42577ca3a3f03c4e98007fc523e61735172338b64736f6c634300081a0033\n}\n",
				"bytecode": {
					"linkReferences": {},
					"object": "6080604052600560035f6101000a81548160ff021916908360ff1602179055503480156029575f80fd5b50335f806101000a81548173ffffffffffffffffffffffffffffffffffffffff021916908373ffffffffffffffffffffffffffffffffffffffff160217905550611c63806100765f395ff3fe60806040526004361061007a575f3560e01c806386cdf6041161004d57806386cdf6041461011c578063a318f26914610146578063ad6e33181461016e578063e0aef11e146101965761007a565b80630e39ac671461007e57806325a10e491461009a5780633fcd0aec146100d6578063620f3aec14610100575b5f80fd5b61009860048036038101906100939190610fb3565b6101d2565b005b3480156100a5575f80fd5b506100c060048036038101906100bb9190610fb3565b6105b0565b6040516100cd9190610fed565b60405180910390f35b3480156100e1575f80fd5b506100ea610614565b6040516100f79190611021565b60405180910390f35b61011a60048036038101906101159190610fb3565b610629565b005b348015610127575f80fd5b506101306106fa565b60405161013d9190611267565b60405180910390f35b348015610151575f80fd5b5061016c600480360381019061016791906113b3565b6108fd565b005b348015610179575f80fd5b50610194600480360381019061018f9190611479565b610a34565b005b3480156101a1575f80fd5b506101bc60048036038101906101b79190610fb3565b610ade565b6040516101c99190611579565b60405180910390f35b5f8054906101000a900473ffffffffffffffffffffffffffffffffffffffff1673ffffffffffffffffffffffffffffffffffffffff163373ffffffffffffffffffffffffffffffffffffffff161461025f576040517f08c379a0000000000000000000000000000000000000000000000000000000008152600401610256906115f3565b60405180910390fd5b6001805490508111156102a7576040517f08c379a000000000000000000000000000000000000000000000000000000000815260040161029e9061165b565b60405180910390fd5b42600182815481106102bc576102bb611679565b5b905f5260205f20906008020160070154111561030d576040517f08c379a0000000000000000000000000000000000000000000000000000000008152600401610304906116f0565b60405180910390fd5b5f6001828154811061032257610321611679565b5b905f5260205f209060080201604051806101000160405290815f82015481526020016001820180546103539061173b565b80601f016020809104026020016040519081016040528092919081815260200182805461037f9061173b565b80156103ca5780601f106103a1576101008083540402835291602001916103ca565b820191905f5260205f20905b8154815290600101906020018083116103ad57829003601f168201915b505050505081526020016002820180546103e39061173b565b80601f016020809104026020016040519081016040528092919081815260200182805461040f9061173b565b801561045a5780601f106104315761010080835404028352916020019161045a565b820191905f5260205f20905b81548152906001019060200180831161043d57829003601f168201915b50505050508152602001600382015f9054906101000a900473ffffffffffffffffffffffffffffffffffffffff1673ffffffffffffffffffffffffffffffffffffffff1673ffffffffffffffffffffffffffffffffffffffff16815260200160048201548152602001600582015481526020016006820154815260200160078201548152505090508060a001518160800151106105a2575f6104ff8260800151610bf0565b9050816060015173ffffffffffffffffffffffffffffffffffffffff166108fc82846080015161052f9190611798565b90811502906040515f60405180830381858888f19350505050158015610557573d5f803e3d5ffd5b503073ffffffffffffffffffffffffffffffffffffffff166108fc8290811502906040515f60405180830381858888f1935050505015801561059b573d5f803e3d5ffd5b50506105ac565b6105ab81610c21565b5b5050565b5f60018054905082106105f8576040517f08c379a00000000000000000000000000000000000000000000000000000000081526004016105ef90611815565b60405180910390fd5b60025f8381526020019081526020015f20805490509050919050565b5f60035f9054906101000a900460ff16905090565b600180549050811115610671576040517f08c379a00000000000000000000000000000000000000000000000000000000081526004016106689061165b565b60405180910390fd5b5f34116106b3576040517f08c379a00000000000000000000000000000000000000000000000000000000081526004016106aa9061187d565b60405180910390fd5b34600182815481106106c8576106c7611679565b5b905f5260205f2090600802016004015f8282546106e5919061189b565b925050819055506106f7813334610d68565b50565b60606001805480602002602001604051908101604052809291908181526020015f905b828210156108f4578382905f5260205f209060080201604051806101000160405290815f82015481526020016001820180546107589061173b565b80601f01602080910402602001604051908101604052809291908181526020018280546107849061173b565b80156107cf5780601f106107a6576101008083540402835291602001916107cf565b820191905f5260205f20905b8154815290600101906020018083116107b257829003601f168201915b505050505081526020016002820180546107e89061173b565b80601f01602080910402602001604051908101604052809291908181526020018280546108149061173b565b801561085f5780601f106108365761010080835404028352916020019161085f565b820191905f5260205f20905b81548152906001019060200180831161084257829003601f168201915b50505050508152602001600382015f9054906101000a900473ffffffffffffffffffffffffffffffffffffffff1673ffffffffffffffffffffffffffffffffffffffff1673ffffffffffffffffffffffffffffffffffffffff1681526020016004820154815260200160058201548152602001600682015481526020016007820154815250508152602001906001019061071d565b50505050905090565b5f60405180610100016040528060018054905081526020018681526020018581526020013373ffffffffffffffffffffffffffffffffffffffff1681526020015f8152602001838152602001428152602001844261095b919061189b565b8152509050600181908060018154018082558091505060019003905f5260205f2090600802015f909190919091505f820151815f015560208201518160010190816109a69190611a6b565b5060408201518160020190816109bc9190611a6b565b506060820151816003015f6101000a81548173ffffffffffffffffffffffffffffffffffffffff021916908373ffffffffffffffffffffffffffffffffffffffff1602179055506080820151816004015560a0820151816005015560c0820151816006015560e0820151816007015550505050505050565b5f8054906101000a900473ffffffffffffffffffffffffffffffffffffffff1673ffffffffffffffffffffffffffffffffffffffff163373ffffffffffffffffffffffffffffffffffffffff1614610ac1576040517f08c379a0000000000000000000000000000000000000000000000000000000008152600401610ab8906115f3565b60405180910390fd5b8060035f6101000a81548160ff021916908360ff16021790555050565b60606001805490508210610b27576040517f08c379a0000000000000000000000000000000000000000000000000000000008152600401610b1e90611815565b60405180910390fd5b60025f8381526020019081526020015f20805480602002602001604051908101604052809291908181526020015f905b82821015610be5578382905f5260205f2090600202016040518060400160405290815f82015f9054906101000a900473ffffffffffffffffffffffffffffffffffffffff1673ffffffffffffffffffffffffffffffffffffffff1673ffffffffffffffffffffffffffffffffffffffff16815260200160018201548152505081526020019060010190610b57565b505050509050919050565b5f606460035f9054906101000a900460ff1660ff1683610c109190611b3a565b610c1a9190611ba8565b9050919050565b5f5b60025f835f015181526020019081526020015f2080549050811015610d64575f60025f845f015181526020019081526020015f208281548110610c6957610c68611679565b5b905f5260205f2090600202016040518060400160405290815f82015f9054906101000a900473ffffffffffffffffffffffffffffffffffffffff1673ffffffffffffffffffffffffffffffffffffffff1673ffffffffffffffffffffffffffffffffffffffff1681526020016001820154815250509050805f015173ffffffffffffffffffffffffffffffffffffffff166108fc826020015190811502906040515f60405180830381858888f19350505050158015610d2a573d5f803e3d5ffd5b505f6001845f015181548110610d4357610d42611679565b5b905f5260205f20906008020160040181905550508080600101915050610c23565b5050565b5f5b60025f8581526020019081526020015f2080549050811015610e7b575f60025f8681526020019081526020015f208281548110610daa57610da9611679565b5b905f5260205f20906002020190508373ffffffffffffffffffffffffffffffffffffffff16815f015f9054906101000a900473ffffffffffffffffffffffffffffffffffffffff1673ffffffffffffffffffffffffffffffffffffffff1603610e6d5782816001015f828254610e20919061189b565b925050819055507f7866e3ff5458eed4e51997e2ae0ed26085968923a3b2d72604bb657cb4732a6685858360010154604051610e5e93929190611bf8565b60405180910390a15050610f6a565b508080600101915050610d6a565b5060025f8481526020019081526020015f2060405180604001604052808473ffffffffffffffffffffffffffffffffffffffff16815260200183815250908060018154018082558091505060019003905f5260205f2090600202015f909190919091505f820151815f015f6101000a81548173ffffffffffffffffffffffffffffffffffffffff021916908373ffffffffffffffffffffffffffffffffffffffff1602179055506020820151816001015550507f7866e3ff5458eed4e51997e2ae0ed26085968923a3b2d72604bb657cb4732a66838383604051610f6193929190611bf8565b60405180910390a15b505050565b5f604051905090565b5f80fd5b5f80fd5b5f819050919050565b610f9281610f80565b8114610f9c575f80fd5b50565b5f81359050610fad81610f89565b92915050565b5f60208284031215610fc857610fc7610f78565b5b5f610fd584828501610f9f565b91505092915050565b610fe781610f80565b82525050565b5f6020820190506110005f830184610fde565b92915050565b5f60ff82169050919050565b61101b81611006565b82525050565b5f6020820190506110345f830184611012565b92915050565b5f81519050919050565b5f82825260208201905092915050565b5f819050602082019050919050565b61106c81610f80565b82525050565b5f81519050919050565b5f82825260208201905092915050565b8281835e5f83830152505050565b5f601f19601f8301169050919050565b5f6110b482611072565b6110be818561107c565b93506110ce81856020860161108c565b6110d78161109a565b840191505092915050565b5f73ffffffffffffffffffffffffffffffffffffffff82169050919050565b5f61110b826110e2565b9050919050565b61111b81611101565b82525050565b5f61010083015f8301516111375f860182611063565b506020830151848203602086015261114f82826110aa565b9150506040830151848203604086015261116982826110aa565b915050606083015161117e6060860182611112565b5060808301516111916080860182611063565b5060a08301516111a460a0860182611063565b5060c08301516111b760c0860182611063565b5060e08301516111ca60e0860182611063565b508091505092915050565b5f6111e08383611121565b905092915050565b5f602082019050919050565b5f6111fe8261103a565b6112088185611044565b93508360208202850161121a85611054565b805f5b85811015611255578484038952815161123685826111d5565b9450611241836111e8565b925060208a0199505060018101905061121d565b50829750879550505050505092915050565b5f6020820190508181035f83015261127f81846111f4565b905092915050565b5f80fd5b5f80fd5b7f4e487b71000000000000000000000000000000000000000000000000000000005f52604160045260245ffd5b6112c58261109a565b810181811067ffffffffffffffff821117156112e4576112e361128f565b5b80604052505050565b5f6112f6610f6f565b905061130282826112bc565b919050565b5f67ffffffffffffffff8211156113215761132061128f565b5b61132a8261109a565b9050602081019050919050565b828183375f83830152505050565b5f61135761135284611307565b6112ed565b9050828152602081018484840111156113735761137261128b565b5b61137e848285611337565b509392505050565b5f82601f83011261139a57611399611287565b5b81356113aa848260208601611345565b91505092915050565b5f805f80608085870312156113cb576113ca610f78565b5b5f85013567ffffffffffffffff8111156113e8576113e7610f7c565b5b6113f487828801611386565b945050602085013567ffffffffffffffff81111561141557611414610f7c565b5b61142187828801611386565b935050604061143287828801610f9f565b925050606061144387828801610f9f565b91505092959194509250565b61145881611006565b8114611462575f80fd5b50565b5f813590506114738161144f565b92915050565b5f6020828403121561148e5761148d610f78565b5b5f61149b84828501611465565b91505092915050565b5f81519050919050565b5f82825260208201905092915050565b5f819050602082019050919050565b604082015f8201516114e15f850182611112565b5060208201516114f46020850182611063565b50505050565b5f61150583836114cd565b60408301905092915050565b5f602082019050919050565b5f611527826114a4565b61153181856114ae565b935061153c836114be565b805f5b8381101561156c57815161155388826114fa565b975061155e83611511565b92505060018101905061153f565b5085935050505092915050565b5f6020820190508181035f830152611591818461151d565b905092915050565b5f82825260208201905092915050565b7f6f6e6c79206f776e6572000000000000000000000000000000000000000000005f82015250565b5f6115dd600a83611599565b91506115e8826115a9565b602082019050919050565b5f6020820190508181035f83015261160a816115d1565b9050919050565b7f62616420696400000000000000000000000000000000000000000000000000005f82015250565b5f611645600683611599565b915061165082611611565b602082019050919050565b5f6020820190508181035f83015261167281611639565b9050919050565b7f4e487b71000000000000000000000000000000000000000000000000000000005f52603260045260245ffd5b7f43616d706169676e206e6f742066696e697368656400000000000000000000005f82015250565b5f6116da601583611599565b91506116e5826116a6565b602082019050919050565b5f6020820190508181035f830152611707816116ce565b9050919050565b7f4e487b71000000000000000000000000000000000000000000000000000000005f52602260045260245ffd5b5f600282049050600182168061175257607f821691505b6020821081036117655761176461170e565b5b50919050565b7f4e487b71000000000000000000000000000000000000000000000000000000005f52601160045260245ffd5b5f6117a282610f80565b91506117ad83610f80565b92508282039050818111156117c5576117c461176b565b5b92915050565b7f43616d706169676e20646f6573206e6f742065786973740000000000000000005f82015250565b5f6117ff601783611599565b915061180a826117cb565b602082019050919050565b5f6020820190508181035f83015261182c816117f3565b9050919050565b7f626164206d6f6e657900000000000000000000000000000000000000000000005f82015250565b5f611867600983611599565b915061187282611833565b602082019050919050565b5f6020820190508181035f8301526118948161185b565b9050919050565b5f6118a582610f80565b91506118b083610f80565b92508282019050808211156118c8576118c761176b565b5b92915050565b5f819050815f5260205f209050919050565b5f6020601f8301049050919050565b5f82821b905092915050565b5f6008830261192a7fffffffffffffffffffffffffffffffffffffffffffffffffffffffffffffffff826118ef565b61193486836118ef565b95508019841693508086168417925050509392505050565b5f819050919050565b5f61196f61196a61196584610f80565b61194c565b610f80565b9050919050565b5f819050919050565b61198883611955565b61199c61199482611976565b8484546118fb565b825550505050565b5f90565b6119b06119a4565b6119bb81848461197f565b505050565b5b818110156119de576119d35f826119a8565b6001810190506119c1565b5050565b601f821115611a23576119f4816118ce565b6119fd846118e0565b81016020851015611a0c578190505b611a20611a18856118e0565b8301826119c0565b50505b505050565b5f82821c905092915050565b5f611a435f1984600802611a28565b1980831691505092915050565b5f611a5b8383611a34565b9150826002028217905092915050565b611a7482611072565b67ffffffffffffffff811115611a8d57611a8c61128f565b5b611a97825461173b565b611aa28282856119e2565b5f60209050601f831160018114611ad3575f8415611ac1578287015190505b611acb8582611a50565b865550611b32565b601f198416611ae1866118ce565b5f5b82811015611b0857848901518255600182019150602085019450602081019050611ae3565b86831015611b255784890151611b21601f891682611a34565b8355505b6001600288020188555050505b505050505050565b5f611b4482610f80565b9150611b4f83610f80565b9250828202611b5d81610f80565b91508282048414831517611b7457611b7361176b565b5b5092915050565b7f4e487b71000000000000000000000000000000000000000000000000000000005f52601260045260245ffd5b5f611bb282610f80565b9150611bbd83610f80565b925082611bcd57611bcc611b7b565b5b828204905092915050565b5f611be2826110e2565b9050919050565b611bf281611bd8565b82525050565b5f606082019050611c0b5f830186610fde565b611c186020830185611be9565b611c256040830184610fde565b94935050505056fea2646970667358221220a339f0d06fe88c8eaa055b16d42577ca3a3f03c4e98007fc523e61735172338b64736f6c634300081a0033",
					"opcodes": "PUSH1 0x80 PUSH1 0x40 MSTORE PUSH1 0x5 PUSH1 0x3 PUSH0 PUSH2 0x100 EXP DUP2 SLOAD DUP2 PUSH1 0xFF MUL NOT AND SWAP1 DUP4 PUSH1 0xFF AND MUL OR SWAP1 SSTORE POP CALLVALUE DUP1 ISZERO PUSH1 0x29 JUMPI PUSH0 DUP1 REVERT JUMPDEST POP CALLER PUSH0 DUP1 PUSH2 0x100 EXP DUP2 SLOAD DUP2 PUSH20 0xFFFFFFFFFFFFFFFFFFFFFFFFFFFFFFFFFFFFFFFF MUL NOT AND SWAP1 DUP4 PUSH20 0xFFFFFFFFFFFFFFFFFFFFFFFFFFFFFFFFFFFFFFFF AND MUL OR SWAP1 SSTORE POP PUSH2 0x1C63 DUP1 PUSH2 0x76 PUSH0 CODECOPY PUSH0 RETURN INVALID PUSH1 0x80 PUSH1 0x40 MSTORE PUSH1 0x4 CALLDATASIZE LT PUSH2 0x7A JUMPI PUSH0 CALLDATALOAD PUSH1 0xE0 SHR DUP1 PUSH4 0x86CDF604 GT PUSH2 0x4D JUMPI DUP1 PUSH4 0x86CDF604 EQ PUSH2 0x11C JUMPI DUP1 PUSH4 0xA318F269 EQ PUSH2 0x146 JUMPI DUP1 PUSH4 0xAD6E3318 EQ PUSH2 0x16E JUMPI DUP1 PUSH4 0xE0AEF11E EQ PUSH2 0x196 JUMPI PUSH2 0x7A JUMP JUMPDEST DUP1 PUSH4 0xE39AC67 EQ PUSH2 0x7E JUMPI DUP1 PUSH4 0x25A10E49 EQ PUSH2 0x9A JUMPI DUP1 PUSH4 0x3FCD0AEC EQ PUSH2 0xD6 JUMPI DUP1 PUSH4 0x620F3AEC EQ PUSH2 0x100 JUMPI JUMPDEST PUSH0 DUP1 REVERT JUMPDEST PUSH2 0x98 PUSH1 0x4 DUP1 CALLDATASIZE SUB DUP2 ADD SWAP1 PUSH2 0x93 SWAP2 SWAP1 PUSH2 0xFB3 JUMP JUMPDEST PUSH2 0x1D2 JUMP JUMPDEST STOP JUMPDEST CALLVALUE DUP1 ISZERO PUSH2 0xA5 JUMPI PUSH0 DUP1 REVERT JUMPDEST POP PUSH2 0xC0 PUSH1 0x4 DUP1 CALLDATASIZE SUB DUP2 ADD SWAP1 PUSH2 0xBB SWAP2 SWAP1 PUSH2 0xFB3 JUMP JUMPDEST PUSH2 0x5B0 JUMP JUMPDEST PUSH1 0x40 MLOAD PUSH2 0xCD SWAP2 SWAP1 PUSH2 0xFED JUMP JUMPDEST PUSH1 0x40 MLOAD DUP1 SWAP2 SUB SWAP1 RETURN JUMPDEST CALLVALUE DUP1 ISZERO PUSH2 0xE1 JUMPI PUSH0 DUP1 REVERT JUMPDEST POP PUSH2 0xEA PUSH2 0x614 JUMP JUMPDEST PUSH1 0x40 MLOAD PUSH2 0xF7 SWAP2 SWAP1 PUSH2 0x1021 JUMP JUMPDEST PUSH1 0x40 MLOAD DUP1 SWAP2 SUB SWAP1 RETURN JUMPDEST PUSH2 0x11A PUSH1 0x4 DUP1 CALLDATASIZE SUB DUP2 ADD SWAP1 PUSH2 0x115 SWAP2 SWAP1 PUSH2 0xFB3 JUMP JUMPDEST PUSH2 0x629 JUMP JUMPDEST STOP JUMPDEST CALLVALUE DUP1 ISZERO PUSH2 0x127 JUMPI PUSH0 DUP1 REVERT JUMPDEST POP PUSH2 0x130 PUSH2 0x6FA JUMP JUMPDEST PUSH1 0x40 MLOAD PUSH2 0x13D SWAP2 SWAP1 PUSH2 0x1267 JUMP JUMPDEST PUSH1 0x40 MLOAD DUP1 SWAP2 SUB SWAP1 RETURN JUMPDEST CALLVALUE DUP1 ISZERO PUSH2 0x151 JUMPI PUSH0 DUP1 REVERT JUMPDEST POP PUSH2 0x16C PUSH1 0x4 DUP1 CALLDATASIZE SUB DUP2 ADD SWAP1 PUSH2 0x167 SWAP2 SWAP1 PUSH2 0x13B3 JUMP JUMPDEST PUSH2 0x8FD JUMP JUMPDEST STOP JUMPDEST CALLVALUE DUP1 ISZERO PUSH2 0x179 JUMPI PUSH0 DUP1 REVERT JUMPDEST POP PUSH2 0x194 PUSH1 0x4 DUP1 CALLDATASIZE SUB DUP2 ADD SWAP1 PUSH2 0x18F SWAP2 SWAP1 PUSH2 0x1479 JUMP JUMPDEST PUSH2 0xA34 JUMP JUMPDEST STOP JUMPDEST CALLVALUE DUP1 ISZERO PUSH2 0x1A1 JUMPI PUSH0 DUP1 REVERT JUMPDEST POP PUSH2 0x1BC PUSH1 0x4 DUP1 CALLDATASIZE SUB DUP2 ADD SWAP1 PUSH2 0x1B7 SWAP2 SWAP1 PUSH2 0xFB3 JUMP JUMPDEST PUSH2 0xADE JUMP JUMPDEST PUSH1 0x40 MLOAD PUSH2 0x1C9 SWAP2 SWAP1 PUSH2 0x1579 JUMP JUMPDEST PUSH1 0x40 MLOAD DUP1 SWAP2 SUB SWAP1 RETURN JUMPDEST PUSH0 DUP1 SLOAD SWAP1 PUSH2 0x100 EXP SWAP1 DIV PUSH20 0xFFFFFFFFFFFFFFFFFFFFFFFFFFFFFFFFFFFFFFFF AND PUSH20 0xFFFFFFFFFFFFFFFFFFFFFFFFFFFFFFFFFFFFFFFF AND CALLER PUSH20 0xFFFFFFFFFFFFFFFFFFFFFFFFFFFFFFFFFFFFFFFF AND EQ PUSH2 0x25F JUMPI PUSH1 0x40 MLOAD PUSH32 0x8C379A000000000000000000000000000000000000000000000000000000000 DUP2 MSTORE PUSH1 0x4 ADD PUSH2 0x256 SWAP1 PUSH2 0x15F3 JUMP JUMPDEST PUSH1 0x40 MLOAD DUP1 SWAP2 SUB SWAP1 REVERT JUMPDEST PUSH1 0x1 DUP1 SLOAD SWAP1 POP DUP2 GT ISZERO PUSH2 0x2A7 JUMPI PUSH1 0x40 MLOAD PUSH32 0x8C379A000000000000000000000000000000000000000000000000000000000 DUP2 MSTORE PUSH1 0x4 ADD PUSH2 0x29E SWAP1 PUSH2 0x165B JUMP JUMPDEST PUSH1 0x40 MLOAD DUP1 SWAP2 SUB SWAP1 REVERT JUMPDEST TIMESTAMP PUSH1 0x1 DUP3 DUP2 SLOAD DUP2 LT PUSH2 0x2BC JUMPI PUSH2 0x2BB PUSH2 0x1679 JUMP JUMPDEST JUMPDEST SWAP1 PUSH0 MSTORE PUSH1 0x20 PUSH0 KECCAK256 SWAP1 PUSH1 0x8 MUL ADD PUSH1 0x7 ADD SLOAD GT ISZERO PUSH2 0x30D JUMPI PUSH1 0x40 MLOAD PUSH32 0x8C379A000000000000000000000000000000000000000000000000000000000 DUP2 MSTORE PUSH1 0x4 ADD PUSH2 0x304 SWAP1 PUSH2 0x16F0 JUMP JUMPDEST PUSH1 0x40 MLOAD DUP1 SWAP2 SUB SWAP1 REVERT JUMPDEST PUSH0 PUSH1 0x1 DUP3 DUP2 SLOAD DUP2 LT PUSH2 0x322 JUMPI PUSH2 0x321 PUSH2 0x1679 JUMP JUMPDEST JUMPDEST SWAP1 PUSH0 MSTORE PUSH1 0x20 PUSH0 KECCAK256 SWAP1 PUSH1 0x8 MUL ADD PUSH1 0x40 MLOAD DUP1 PUSH2 0x100 ADD PUSH1 0x40 MSTORE SWAP1 DUP2 PUSH0 DUP3 ADD SLOAD DUP2 MSTORE PUSH1 0x20 ADD PUSH1 0x1 DUP3 ADD DUP1 SLOAD PUSH2 0x353 SWAP1 PUSH2 0x173B JUMP JUMPDEST DUP1 PUSH1 0x1F ADD PUSH1 0x20 DUP1 SWAP2 DIV MUL PUSH1 0x20 ADD PUSH1 0x40 MLOAD SWAP1 DUP2 ADD PUSH1 0x40 MSTORE DUP1 SWAP3 SWAP2 SWAP1 DUP2 DUP2 MSTORE PUSH1 0x20 ADD DUP3 DUP1 SLOAD PUSH2 0x37F SWAP1 PUSH2 0x173B JUMP JUMPDEST DUP1 ISZERO PUSH2 0x3CA JUMPI DUP1 PUSH1 0x1F LT PUSH2 0x3A1 JUMPI PUSH2 0x100 DUP1 DUP4 SLOAD DIV MUL DUP4 MSTORE SWAP2 PUSH1 0x20 ADD SWAP2 PUSH2 0x3CA JUMP JUMPDEST DUP3 ADD SWAP2 SWAP1 PUSH0 MSTORE PUSH1 0x20 PUSH0 KECCAK256 SWAP1 JUMPDEST DUP2 SLOAD DUP2 MSTORE SWAP1 PUSH1 0x1 ADD SWAP1 PUSH1 0x20 ADD DUP1 DUP4 GT PUSH2 0x3AD JUMPI DUP3 SWAP1 SUB PUSH1 0x1F AND DUP3 ADD SWAP2 JUMPDEST POP POP POP POP POP DUP2 MSTORE PUSH1 0x20 ADD PUSH1 0x2 DUP3 ADD DUP1 SLOAD PUSH2 0x3E3 SWAP1 PUSH2 0x173B JUMP JUMPDEST DUP1 PUSH1 0x1F ADD PUSH1 0x20 DUP1 SWAP2 DIV MUL PUSH1 0x20 ADD PUSH1 0x40 MLOAD SWAP1 DUP2 ADD PUSH1 0x40 MSTORE DUP1 SWAP3 SWAP2 SWAP1 DUP2 DUP2 MSTORE PUSH1 0x20 ADD DUP3 DUP1 SLOAD PUSH2 0x40F SWAP1 PUSH2 0x173B JUMP JUMPDEST DUP1 ISZERO PUSH2 0x45A JUMPI DUP1 PUSH1 0x1F LT PUSH2 0x431 JUMPI PUSH2 0x100 DUP1 DUP4 SLOAD DIV MUL DUP4 MSTORE SWAP2 PUSH1 0x20 ADD SWAP2 PUSH2 0x45A JUMP JUMPDEST DUP3 ADD SWAP2 SWAP1 PUSH0 MSTORE PUSH1 0x20 PUSH0 KECCAK256 SWAP1 JUMPDEST DUP2 SLOAD DUP2 MSTORE SWAP1 PUSH1 0x1 ADD SWAP1 PUSH1 0x20 ADD DUP1 DUP4 GT PUSH2 0x43D JUMPI DUP3 SWAP1 SUB PUSH1 0x1F AND DUP3 ADD SWAP2 JUMPDEST POP POP POP POP POP DUP2 MSTORE PUSH1 0x20 ADD PUSH1 0x3 DUP3 ADD PUSH0 SWAP1 SLOAD SWAP1 PUSH2 0x100 EXP SWAP1 DIV PUSH20 0xFFFFFFFFFFFFFFFFFFFFFFFFFFFFFFFFFFFFFFFF AND PUSH20 0xFFFFFFFFFFFFFFFFFFFFFFFFFFFFFFFFFFFFFFFF AND PUSH20 0xFFFFFFFFFFFFFFFFFFFFFFFFFFFFFFFFFFFFFFFF AND DUP2 MSTORE PUSH1 0x20 ADD PUSH1 0x4 DUP3 ADD SLOAD DUP2 MSTORE PUSH1 0x20 ADD PUSH1 0x5 DUP3 ADD SLOAD DUP2 MSTORE PUSH1 0x20 ADD PUSH1 0x6 DUP3 ADD SLOAD DUP2 MSTORE PUSH1 0x20 ADD PUSH1 0x7 DUP3 ADD SLOAD DUP2 MSTORE POP POP SWAP1 POP DUP1 PUSH1 0xA0 ADD MLOAD DUP2 PUSH1 0x80 ADD MLOAD LT PUSH2 0x5A2 JUMPI PUSH0 PUSH2 0x4FF DUP3 PUSH1 0x80 ADD MLOAD PUSH2 0xBF0 JUMP JUMPDEST SWAP1 POP DUP2 PUSH1 0x60 ADD MLOAD PUSH20 0xFFFFFFFFFFFFFFFFFFFFFFFFFFFFFFFFFFFFFFFF AND PUSH2 0x8FC DUP3 DUP5 PUSH1 0x80 ADD MLOAD PUSH2 0x52F SWAP2 SWAP1 PUSH2 0x1798 JUMP JUMPDEST SWAP1 DUP2 ISZERO MUL SWAP1 PUSH1 0x40 MLOAD PUSH0 PUSH1 0x40 MLOAD DUP1 DUP4 SUB DUP2 DUP6 DUP9 DUP9 CALL SWAP4 POP POP POP POP ISZERO DUP1 ISZERO PUSH2 0x557 JUMPI RETURNDATASIZE PUSH0 DUP1 RETURNDATACOPY RETURNDATASIZE PUSH0 REVERT JUMPDEST POP ADDRESS PUSH20 0xFFFFFFFFFFFFFFFFFFFFFFFFFFFFFFFFFFFFFFFF AND PUSH2 0x8FC DUP3 SWAP1 DUP2 ISZERO MUL SWAP1 PUSH1 0x40 MLOAD PUSH0 PUSH1 0x40 MLOAD DUP1 DUP4 SUB DUP2 DUP6 DUP9 DUP9 CALL SWAP4 POP POP POP POP ISZERO DUP1 ISZERO PUSH2 0x59B JUMPI RETURNDATASIZE PUSH0 DUP1 RETURNDATACOPY RETURNDATASIZE PUSH0 REVERT JUMPDEST POP POP PUSH2 0x5AC JUMP JUMPDEST PUSH2 0x5AB DUP2 PUSH2 0xC21 JUMP JUMPDEST JUMPDEST POP POP JUMP JUMPDEST PUSH0 PUSH1 0x1 DUP1 SLOAD SWAP1 POP DUP3 LT PUSH2 0x5F8 JUMPI PUSH1 0x40 MLOAD PUSH32 0x8C379A000000000000000000000000000000000000000000000000000000000 DUP2 MSTORE PUSH1 0x4 ADD PUSH2 0x5EF SWAP1 PUSH2 0x1815 JUMP JUMPDEST PUSH1 0x40 MLOAD DUP1 SWAP2 SUB SWAP1 REVERT JUMPDEST PUSH1 0x2 PUSH0 DUP4 DUP2 MSTORE PUSH1 0x20 ADD SWAP1 DUP2 MSTORE PUSH1 0x20 ADD PUSH0 KECCAK256 DUP1 SLOAD SWAP1 POP SWAP1 POP SWAP2 SWAP1 POP JUMP JUMPDEST PUSH0 PUSH1 0x3 PUSH0 SWAP1 SLOAD SWAP1 PUSH2 0x100 EXP SWAP1 DIV PUSH1 0xFF AND SWAP1 POP SWAP1 JUMP JUMPDEST PUSH1 0x1 DUP1 SLOAD SWAP1 POP DUP2 GT ISZERO PUSH2 0x671 JUMPI PUSH1 0x40 MLOAD PUSH32 0x8C379A000000000000000000000000000000000000000000000000000000000 DUP2 MSTORE PUSH1 0x4 ADD PUSH2 0x668 SWAP1 PUSH2 0x165B JUMP JUMPDEST PUSH1 0x40 MLOAD DUP1 SWAP2 SUB SWAP1 REVERT JUMPDEST PUSH0 CALLVALUE GT PUSH2 0x6B3 JUMPI PUSH1 0x40 MLOAD PUSH32 0x8C379A000000000000000000000000000000000000000000000000000000000 DUP2 MSTORE PUSH1 0x4 ADD PUSH2 0x6AA SWAP1 PUSH2 0x187D JUMP JUMPDEST PUSH1 0x40 MLOAD DUP1 SWAP2 SUB SWAP1 REVERT JUMPDEST CALLVALUE PUSH1 0x1 DUP3 DUP2 SLOAD DUP2 LT PUSH2 0x6C8 JUMPI PUSH2 0x6C7 PUSH2 0x1679 JUMP JUMPDEST JUMPDEST SWAP1 PUSH0 MSTORE PUSH1 0x20 PUSH0 KECCAK256 SWAP1 PUSH1 0x8 MUL ADD PUSH1 0x4 ADD PUSH0 DUP3 DUP3 SLOAD PUSH2 0x6E5 SWAP2 SWAP1 PUSH2 0x189B JUMP JUMPDEST SWAP3 POP POP DUP2 SWAP1 SSTORE POP PUSH2 0x6F7 DUP2 CALLER CALLVALUE PUSH2 0xD68 JUMP JUMPDEST POP JUMP JUMPDEST PUSH1 0x60 PUSH1 0x1 DUP1 SLOAD DUP1 PUSH1 0x20 MUL PUSH1 0x20 ADD PUSH1 0x40 MLOAD SWAP1 DUP2 ADD PUSH1 0x40 MSTORE DUP1 SWAP3 SWAP2 SWAP1 DUP2 DUP2 MSTORE PUSH1 0x20 ADD PUSH0 SWAP1 JUMPDEST DUP3 DUP3 LT ISZERO PUSH2 0x8F4 JUMPI DUP4 DUP3 SWAP1 PUSH0 MSTORE PUSH1 0x20 PUSH0 KECCAK256 SWAP1 PUSH1 0x8 MUL ADD PUSH1 0x40 MLOAD DUP1 PUSH2 0x100 ADD PUSH1 0x40 MSTORE SWAP1 DUP2 PUSH0 DUP3 ADD SLOAD DUP2 MSTORE PUSH1 0x20 ADD PUSH1 0x1 DUP3 ADD DUP1 SLOAD PUSH2 0x758 SWAP1 PUSH2 0x173B JUMP JUMPDEST DUP1 PUSH1 0x1F ADD PUSH1 0x20 DUP1 SWAP2 DIV MUL PUSH1 0x20 ADD PUSH1 0x40 MLOAD SWAP1 DUP2 ADD PUSH1 0x40 MSTORE DUP1 SWAP3 SWAP2 SWAP1 DUP2 DUP2 MSTORE PUSH1 0x20 ADD DUP3 DUP1 SLOAD PUSH2 0x784 SWAP1 PUSH2 0x173B JUMP JUMPDEST DUP1 ISZERO PUSH2 0x7CF JUMPI DUP1 PUSH1 0x1F LT PUSH2 0x7A6 JUMPI PUSH2 0x100 DUP1 DUP4 SLOAD DIV MUL DUP4 MSTORE SWAP2 PUSH1 0x20 ADD SWAP2 PUSH2 0x7CF JUMP JUMPDEST DUP3 ADD SWAP2 SWAP1 PUSH0 MSTORE PUSH1 0x20 PUSH0 KECCAK256 SWAP1 JUMPDEST DUP2 SLOAD DUP2 MSTORE SWAP1 PUSH1 0x1 ADD SWAP1 PUSH1 0x20 ADD DUP1 DUP4 GT PUSH2 0x7B2 JUMPI DUP3 SWAP1 SUB PUSH1 0x1F AND DUP3 ADD SWAP2 JUMPDEST POP POP POP POP POP DUP2 MSTORE PUSH1 0x20 ADD PUSH1 0x2 DUP3 ADD DUP1 SLOAD PUSH2 0x7E8 SWAP1 PUSH2 0x173B JUMP JUMPDEST DUP1 PUSH1 0x1F ADD PUSH1 0x20 DUP1 SWAP2 DIV MUL PUSH1 0x20 ADD PUSH1 0x40 MLOAD SWAP1 DUP2 ADD PUSH1 0x40 MSTORE DUP1 SWAP3 SWAP2 SWAP1 DUP2 DUP2 MSTORE PUSH1 0x20 ADD DUP3 DUP1 SLOAD PUSH2 0x814 SWAP1 PUSH2 0x173B JUMP JUMPDEST DUP1 ISZERO PUSH2 0x85F JUMPI DUP1 PUSH1 0x1F LT PUSH2 0x836 JUMPI PUSH2 0x100 DUP1 DUP4 SLOAD DIV MUL DUP4 MSTORE SWAP2 PUSH1 0x20 ADD SWAP2 PUSH2 0x85F JUMP JUMPDEST DUP3 ADD SWAP2 SWAP1 PUSH0 MSTORE PUSH1 0x20 PUSH0 KECCAK256 SWAP1 JUMPDEST DUP2 SLOAD DUP2 MSTORE SWAP1 PUSH1 0x1 ADD SWAP1 PUSH1 0x20 ADD DUP1 DUP4 GT PUSH2 0x842 JUMPI DUP3 SWAP1 SUB PUSH1 0x1F AND DUP3 ADD SWAP2 JUMPDEST POP POP POP POP POP DUP2 MSTORE PUSH1 0x20 ADD PUSH1 0x3 DUP3 ADD PUSH0 SWAP1 SLOAD SWAP1 PUSH2 0x100 EXP SWAP1 DIV PUSH20 0xFFFFFFFFFFFFFFFFFFFFFFFFFFFFFFFFFFFFFFFF AND PUSH20 0xFFFFFFFFFFFFFFFFFFFFFFFFFFFFFFFFFFFFFFFF AND PUSH20 0xFFFFFFFFFFFFFFFFFFFFFFFFFFFFFFFFFFFFFFFF AND DUP2 MSTORE PUSH1 0x20 ADD PUSH1 0x4 DUP3 ADD SLOAD DUP2 MSTORE PUSH1 0x20 ADD PUSH1 0x5 DUP3 ADD SLOAD DUP2 MSTORE PUSH1 0x20 ADD PUSH1 0x6 DUP3 ADD SLOAD DUP2 MSTORE PUSH1 0x20 ADD PUSH1 0x7 DUP3 ADD SLOAD DUP2 MSTORE POP POP DUP2 MSTORE PUSH1 0x20 ADD SWAP1 PUSH1 0x1 ADD SWAP1 PUSH2 0x71D JUMP JUMPDEST POP POP POP POP SWAP1 POP SWAP1 JUMP JUMPDEST PUSH0 PUSH1 0x40 MLOAD DUP1 PUSH2 0x100 ADD PUSH1 0x40 MSTORE DUP1 PUSH1 0x1 DUP1 SLOAD SWAP1 POP DUP2 MSTORE PUSH1 0x20 ADD DUP7 DUP2 MSTORE PUSH1 0x20 ADD DUP6 DUP2 MSTORE PUSH1 0x20 ADD CALLER PUSH20 0xFFFFFFFFFFFFFFFFFFFFFFFFFFFFFFFFFFFFFFFF AND DUP2 MSTORE PUSH1 0x20 ADD PUSH0 DUP2 MSTORE PUSH1 0x20 ADD DUP4 DUP2 MSTORE PUSH1 0x20 ADD TIMESTAMP DUP2 MSTORE PUSH1 0x20 ADD DUP5 TIMESTAMP PUSH2 0x95B SWAP2 SWAP1 PUSH2 0x189B JUMP JUMPDEST DUP2 MSTORE POP SWAP1 POP PUSH1 0x1 DUP2 SWAP1 DUP1 PUSH1 0x1 DUP2 SLOAD ADD DUP1 DUP3 SSTORE DUP1 SWAP2 POP POP PUSH1 0x1 SWAP1 SUB SWAP1 PUSH0 MSTORE PUSH1 0x20 PUSH0 KECCAK256 SWAP1 PUSH1 0x8 MUL ADD PUSH0 SWAP1 SWAP2 SWAP1 SWAP2 SWAP1 SWAP2 POP PUSH0 DUP3 ADD MLOAD DUP2 PUSH0 ADD SSTORE PUSH1 0x20 DUP3 ADD MLOAD DUP2 PUSH1 0x1 ADD SWAP1 DUP2 PUSH2 0x9A6 SWAP2 SWAP1 PUSH2 0x1A6B JUMP JUMPDEST POP PUSH1 0x40 DUP3 ADD MLOAD DUP2 PUSH1 0x2 ADD SWAP1 DUP2 PUSH2 0x9BC SWAP2 SWAP1 PUSH2 0x1A6B JUMP JUMPDEST POP PUSH1 0x60 DUP3 ADD MLOAD DUP2 PUSH1 0x3 ADD PUSH0 PUSH2 0x100 EXP DUP2 SLOAD DUP2 PUSH20 0xFFFFFFFFFFFFFFFFFFFFFFFFFFFFFFFFFFFFFFFF MUL NOT AND SWAP1 DUP4 PUSH20 0xFFFFFFFFFFFFFFFFFFFFFFFFFFFFFFFFFFFFFFFF AND MUL OR SWAP1 SSTORE POP PUSH1 0x80 DUP3 ADD MLOAD DUP2 PUSH1 0x4 ADD SSTORE PUSH1 0xA0 DUP3 ADD MLOAD DUP2 PUSH1 0x5 ADD SSTORE PUSH1 0xC0 DUP3 ADD MLOAD DUP2 PUSH1 0x6 ADD SSTORE PUSH1 0xE0 DUP3 ADD MLOAD DUP2 PUSH1 0x7 ADD SSTORE POP POP POP POP POP POP POP JUMP JUMPDEST PUSH0 DUP1 SLOAD SWAP1 PUSH2 0x100 EXP SWAP1 DIV PUSH20 0xFFFFFFFFFFFFFFFFFFFFFFFFFFFFFFFFFFFFFFFF AND PUSH20 0xFFFFFFFFFFFFFFFFFFFFFFFFFFFFFFFFFFFFFFFF AND CALLER PUSH20 0xFFFFFFFFFFFFFFFFFFFFFFFFFFFFFFFFFFFFFFFF AND EQ PUSH2 0xAC1 JUMPI PUSH1 0x40 MLOAD PUSH32 0x8C379A000000000000000000000000000000000000000000000000000000000 DUP2 MSTORE PUSH1 0x4 ADD PUSH2 0xAB8 SWAP1 PUSH2 0x15F3 JUMP JUMPDEST PUSH1 0x40 MLOAD DUP1 SWAP2 SUB SWAP1 REVERT JUMPDEST DUP1 PUSH1 0x3 PUSH0 PUSH2 0x100 EXP DUP2 SLOAD DUP2 PUSH1 0xFF MUL NOT AND SWAP1 DUP4 PUSH1 0xFF AND MUL OR SWAP1 SSTORE POP POP JUMP JUMPDEST PUSH1 0x60 PUSH1 0x1 DUP1 SLOAD SWAP1 POP DUP3 LT PUSH2 0xB27 JUMPI PUSH1 0x40 MLOAD PUSH32 0x8C379A000000000000000000000000000000000000000000000000000000000 DUP2 MSTORE PUSH1 0x4 ADD PUSH2 0xB1E SWAP1 PUSH2 0x1815 JUMP JUMPDEST PUSH1 0x40 MLOAD DUP1 SWAP2 SUB SWAP1 REVERT JUMPDEST PUSH1 0x2 PUSH0 DUP4 DUP2 MSTORE PUSH1 0x20 ADD SWAP1 DUP2 MSTORE PUSH1 0x20 ADD PUSH0 KECCAK256 DUP1 SLOAD DUP1 PUSH1 0x20 MUL PUSH1 0x20 ADD PUSH1 0x40 MLOAD SWAP1 DUP2 ADD PUSH1 0x40 MSTORE DUP1 SWAP3 SWAP2 SWAP1 DUP2 DUP2 MSTORE PUSH1 0x20 ADD PUSH0 SWAP1 JUMPDEST DUP3 DUP3 LT ISZERO PUSH2 0xBE5 JUMPI DUP4 DUP3 SWAP1 PUSH0 MSTORE PUSH1 0x20 PUSH0 KECCAK256 SWAP1 PUSH1 0x2 MUL ADD PUSH1 0x40 MLOAD DUP1 PUSH1 0x40 ADD PUSH1 0x40 MSTORE SWAP1 DUP2 PUSH0 DUP3 ADD PUSH0 SWAP1 SLOAD SWAP1 PUSH2 0x100 EXP SWAP1 DIV PUSH20 0xFFFFFFFFFFFFFFFFFFFFFFFFFFFFFFFFFFFFFFFF AND PUSH20 0xFFFFFFFFFFFFFFFFFFFFFFFFFFFFFFFFFFFFFFFF AND PUSH20 0xFFFFFFFFFFFFFFFFFFFFFFFFFFFFFFFFFFFFFFFF AND DUP2 MSTORE PUSH1 0x20 ADD PUSH1 0x1 DUP3 ADD SLOAD DUP2 MSTORE POP POP DUP2 MSTORE PUSH1 0x20 ADD SWAP1 PUSH1 0x1 ADD SWAP1 PUSH2 0xB57 JUMP JUMPDEST POP POP POP POP SWAP1 POP SWAP2 SWAP1 POP JUMP JUMPDEST PUSH0 PUSH1 0x64 PUSH1 0x3 PUSH0 SWAP1 SLOAD SWAP1 PUSH2 0x100 EXP SWAP1 DIV PUSH1 0xFF AND PUSH1 0xFF AND DUP4 PUSH2 0xC10 SWAP2 SWAP1 PUSH2 0x1B3A JUMP JUMPDEST PUSH2 0xC1A SWAP2 SWAP1 PUSH2 0x1BA8 JUMP JUMPDEST SWAP1 POP SWAP2 SWAP1 POP JUMP JUMPDEST PUSH0 JUMPDEST PUSH1 0x2 PUSH0 DUP4 PUSH0 ADD MLOAD DUP2 MSTORE PUSH1 0x20 ADD SWAP1 DUP2 MSTORE PUSH1 0x20 ADD PUSH0 KECCAK256 DUP1 SLOAD SWAP1 POP DUP2 LT ISZERO PUSH2 0xD64 JUMPI PUSH0 PUSH1 0x2 PUSH0 DUP5 PUSH0 ADD MLOAD DUP2 MSTORE PUSH1 0x20 ADD SWAP1 DUP2 MSTORE PUSH1 0x20 ADD PUSH0 KECCAK256 DUP3 DUP2 SLOAD DUP2 LT PUSH2 0xC69 JUMPI PUSH2 0xC68 PUSH2 0x1679 JUMP JUMPDEST JUMPDEST SWAP1 PUSH0 MSTORE PUSH1 0x20 PUSH0 KECCAK256 SWAP1 PUSH1 0x2 MUL ADD PUSH1 0x40 MLOAD DUP1 PUSH1 0x40 ADD PUSH1 0x40 MSTORE SWAP1 DUP2 PUSH0 DUP3 ADD PUSH0 SWAP1 SLOAD SWAP1 PUSH2 0x100 EXP SWAP1 DIV PUSH20 0xFFFFFFFFFFFFFFFFFFFFFFFFFFFFFFFFFFFFFFFF AND PUSH20 0xFFFFFFFFFFFFFFFFFFFFFFFFFFFFFFFFFFFFFFFF AND PUSH20 0xFFFFFFFFFFFFFFFFFFFFFFFFFFFFFFFFFFFFFFFF AND DUP2 MSTORE PUSH1 0x20 ADD PUSH1 0x1 DUP3 ADD SLOAD DUP2 MSTORE POP POP SWAP1 POP DUP1 PUSH0 ADD MLOAD PUSH20 0xFFFFFFFFFFFFFFFFFFFFFFFFFFFFFFFFFFFFFFFF AND PUSH2 0x8FC DUP3 PUSH1 0x20 ADD MLOAD SWAP1 DUP2 ISZERO MUL SWAP1 PUSH1 0x40 MLOAD PUSH0 PUSH1 0x40 MLOAD DUP1 DUP4 SUB DUP2 DUP6 DUP9 DUP9 CALL SWAP4 POP POP POP POP ISZERO DUP1 ISZERO PUSH2 0xD2A JUMPI RETURNDATASIZE PUSH0 DUP1 RETURNDATACOPY RETURNDATASIZE PUSH0 REVERT JUMPDEST POP PUSH0 PUSH1 0x1 DUP5 PUSH0 ADD MLOAD DUP2 SLOAD DUP2 LT PUSH2 0xD43 JUMPI PUSH2 0xD42 PUSH2 0x1679 JUMP JUMPDEST JUMPDEST SWAP1 PUSH0 MSTORE PUSH1 0x20 PUSH0 KECCAK256 SWAP1 PUSH1 0x8 MUL ADD PUSH1 0x4 ADD DUP2 SWAP1 SSTORE POP POP DUP1 DUP1 PUSH1 0x1 ADD SWAP2 POP POP PUSH2 0xC23 JUMP JUMPDEST POP POP JUMP JUMPDEST PUSH0 JUMPDEST PUSH1 0x2 PUSH0 DUP6 DUP2 MSTORE PUSH1 0x20 ADD SWAP1 DUP2 MSTORE PUSH1 0x20 ADD PUSH0 KECCAK256 DUP1 SLOAD SWAP1 POP DUP2 LT ISZERO PUSH2 0xE7B JUMPI PUSH0 PUSH1 0x2 PUSH0 DUP7 DUP2 MSTORE PUSH1 0x20 ADD SWAP1 DUP2 MSTORE PUSH1 0x20 ADD PUSH0 KECCAK256 DUP3 DUP2 SLOAD DUP2 LT PUSH2 0xDAA JUMPI PUSH2 0xDA9 PUSH2 0x1679 JUMP JUMPDEST JUMPDEST SWAP1 PUSH0 MSTORE PUSH1 0x20 PUSH0 KECCAK256 SWAP1 PUSH1 0x2 MUL ADD SWAP1 POP DUP4 PUSH20 0xFFFFFFFFFFFFFFFFFFFFFFFFFFFFFFFFFFFFFFFF AND DUP2 PUSH0 ADD PUSH0 SWAP1 SLOAD SWAP1 PUSH2 0x100 EXP SWAP1 DIV PUSH20 0xFFFFFFFFFFFFFFFFFFFFFFFFFFFFFFFFFFFFFFFF AND PUSH20 0xFFFFFFFFFFFFFFFFFFFFFFFFFFFFFFFFFFFFFFFF AND SUB PUSH2 0xE6D JUMPI DUP3 DUP2 PUSH1 0x1 ADD PUSH0 DUP3 DUP3 SLOAD PUSH2 0xE20 SWAP2 SWAP1 PUSH2 0x189B JUMP JUMPDEST SWAP3 POP POP DUP2 SWAP1 SSTORE POP PUSH32 0x7866E3FF5458EED4E51997E2AE0ED26085968923A3B2D72604BB657CB4732A66 DUP6 DUP6 DUP4 PUSH1 0x1 ADD SLOAD PUSH1 0x40 MLOAD PUSH2 0xE5E SWAP4 SWAP3 SWAP2 SWAP1 PUSH2 0x1BF8 JUMP JUMPDEST PUSH1 0x40 MLOAD DUP1 SWAP2 SUB SWAP1 LOG1 POP POP PUSH2 0xF6A JUMP JUMPDEST POP DUP1 DUP1 PUSH1 0x1 ADD SWAP2 POP POP PUSH2 0xD6A JUMP JUMPDEST POP PUSH1 0x2 PUSH0 DUP5 DUP2 MSTORE PUSH1 0x20 ADD SWAP1 DUP2 MSTORE PUSH1 0x20 ADD PUSH0 KECCAK256 PUSH1 0x40 MLOAD DUP1 PUSH1 0x40 ADD PUSH1 0x40 MSTORE DUP1 DUP5 PUSH20 0xFFFFFFFFFFFFFFFFFFFFFFFFFFFFFFFFFFFFFFFF AND DUP2 MSTORE PUSH1 0x20 ADD DUP4 DUP2 MSTORE POP SWAP1 DUP1 PUSH1 0x1 DUP2 SLOAD ADD DUP1 DUP3 SSTORE DUP1 SWAP2 POP POP PUSH1 0x1 SWAP1 SUB SWAP1 PUSH0 MSTORE PUSH1 0x20 PUSH0 KECCAK256 SWAP1 PUSH1 0x2 MUL ADD PUSH0 SWAP1 SWAP2 SWAP1 SWAP2 SWAP1 SWAP2 POP PUSH0 DUP3 ADD MLOAD DUP2 PUSH0 ADD PUSH0 PUSH2 0x100 EXP DUP2 SLOAD DUP2 PUSH20 0xFFFFFFFFFFFFFFFFFFFFFFFFFFFFFFFFFFFFFFFF MUL NOT AND SWAP1 DUP4 PUSH20 0xFFFFFFFFFFFFFFFFFFFFFFFFFFFFFFFFFFFFFFFF AND MUL OR SWAP1 SSTORE POP PUSH1 0x20 DUP3 ADD MLOAD DUP2 PUSH1 0x1 ADD SSTORE POP POP PUSH32 0x7866E3FF5458EED4E51997E2AE0ED26085968923A3B2D72604BB657CB4732A66 DUP4 DUP4 DUP4 PUSH1 0x40 MLOAD PUSH2 0xF61 SWAP4 SWAP3 SWAP2 SWAP1 PUSH2 0x1BF8 JUMP JUMPDEST PUSH1 0x40 MLOAD DUP1 SWAP2 SUB SWAP1 LOG1 JUMPDEST POP POP POP JUMP JUMPDEST PUSH0 PUSH1 0x40 MLOAD SWAP1 POP SWAP1 JUMP JUMPDEST PUSH0 DUP1 REVERT JUMPDEST PUSH0 DUP1 REVERT JUMPDEST PUSH0 DUP2 SWAP1 POP SWAP2 SWAP1 POP JUMP JUMPDEST PUSH2 0xF92 DUP2 PUSH2 0xF80 JUMP JUMPDEST DUP2 EQ PUSH2 0xF9C JUMPI PUSH0 DUP1 REVERT JUMPDEST POP JUMP JUMPDEST PUSH0 DUP2 CALLDATALOAD SWAP1 POP PUSH2 0xFAD DUP2 PUSH2 0xF89 JUMP JUMPDEST SWAP3 SWAP2 POP POP JUMP JUMPDEST PUSH0 PUSH1 0x20 DUP3 DUP5 SUB SLT ISZERO PUSH2 0xFC8 JUMPI PUSH2 0xFC7 PUSH2 0xF78 JUMP JUMPDEST JUMPDEST PUSH0 PUSH2 0xFD5 DUP5 DUP3 DUP6 ADD PUSH2 0xF9F JUMP JUMPDEST SWAP2 POP POP SWAP3 SWAP2 POP POP JUMP JUMPDEST PUSH2 0xFE7 DUP2 PUSH2 0xF80 JUMP JUMPDEST DUP3 MSTORE POP POP JUMP JUMPDEST PUSH0 PUSH1 0x20 DUP3 ADD SWAP1 POP PUSH2 0x1000 PUSH0 DUP4 ADD DUP5 PUSH2 0xFDE JUMP JUMPDEST SWAP3 SWAP2 POP POP JUMP JUMPDEST PUSH0 PUSH1 0xFF DUP3 AND SWAP1 POP SWAP2 SWAP1 POP JUMP JUMPDEST PUSH2 0x101B DUP2 PUSH2 0x1006 JUMP JUMPDEST DUP3 MSTORE POP POP JUMP JUMPDEST PUSH0 PUSH1 0x20 DUP3 ADD SWAP1 POP PUSH2 0x1034 PUSH0 DUP4 ADD DUP5 PUSH2 0x1012 JUMP JUMPDEST SWAP3 SWAP2 POP POP JUMP JUMPDEST PUSH0 DUP2 MLOAD SWAP1 POP SWAP2 SWAP1 POP JUMP JUMPDEST PUSH0 DUP3 DUP3 MSTORE PUSH1 0x20 DUP3 ADD SWAP1 POP SWAP3 SWAP2 POP POP JUMP JUMPDEST PUSH0 DUP2 SWAP1 POP PUSH1 0x20 DUP3 ADD SWAP1 POP SWAP2 SWAP1 POP JUMP JUMPDEST PUSH2 0x106C DUP2 PUSH2 0xF80 JUMP JUMPDEST DUP3 MSTORE POP POP JUMP JUMPDEST PUSH0 DUP2 MLOAD SWAP1 POP SWAP2 SWAP1 POP JUMP JUMPDEST PUSH0 DUP3 DUP3 MSTORE PUSH1 0x20 DUP3 ADD SWAP1 POP SWAP3 SWAP2 POP POP JUMP JUMPDEST DUP3 DUP2 DUP4 MCOPY PUSH0 DUP4 DUP4 ADD MSTORE POP POP POP JUMP JUMPDEST PUSH0 PUSH1 0x1F NOT PUSH1 0x1F DUP4 ADD AND SWAP1 POP SWAP2 SWAP1 POP JUMP JUMPDEST PUSH0 PUSH2 0x10B4 DUP3 PUSH2 0x1072 JUMP JUMPDEST PUSH2 0x10BE DUP2 DUP6 PUSH2 0x107C JUMP JUMPDEST SWAP4 POP PUSH2 0x10CE DUP2 DUP6 PUSH1 0x20 DUP7 ADD PUSH2 0x108C JUMP JUMPDEST PUSH2 0x10D7 DUP2 PUSH2 0x109A JUMP JUMPDEST DUP5 ADD SWAP2 POP POP SWAP3 SWAP2 POP POP JUMP JUMPDEST PUSH0 PUSH20 0xFFFFFFFFFFFFFFFFFFFFFFFFFFFFFFFFFFFFFFFF DUP3 AND SWAP1 POP SWAP2 SWAP1 POP JUMP JUMPDEST PUSH0 PUSH2 0x110B DUP3 PUSH2 0x10E2 JUMP JUMPDEST SWAP1 POP SWAP2 SWAP1 POP JUMP JUMPDEST PUSH2 0x111B DUP2 PUSH2 0x1101 JUMP JUMPDEST DUP3 MSTORE POP POP JUMP JUMPDEST PUSH0 PUSH2 0x100 DUP4 ADD PUSH0 DUP4 ADD MLOAD PUSH2 0x1137 PUSH0 DUP7 ADD DUP3 PUSH2 0x1063 JUMP JUMPDEST POP PUSH1 0x20 DUP4 ADD MLOAD DUP5 DUP3 SUB PUSH1 0x20 DUP7 ADD MSTORE PUSH2 0x114F DUP3 DUP3 PUSH2 0x10AA JUMP JUMPDEST SWAP2 POP POP PUSH1 0x40 DUP4 ADD MLOAD DUP5 DUP3 SUB PUSH1 0x40 DUP7 ADD MSTORE PUSH2 0x1169 DUP3 DUP3 PUSH2 0x10AA JUMP JUMPDEST SWAP2 POP POP PUSH1 0x60 DUP4 ADD MLOAD PUSH2 0x117E PUSH1 0x60 DUP7 ADD DUP3 PUSH2 0x1112 JUMP JUMPDEST POP PUSH1 0x80 DUP4 ADD MLOAD PUSH2 0x1191 PUSH1 0x80 DUP7 ADD DUP3 PUSH2 0x1063 JUMP JUMPDEST POP PUSH1 0xA0 DUP4 ADD MLOAD PUSH2 0x11A4 PUSH1 0xA0 DUP7 ADD DUP3 PUSH2 0x1063 JUMP JUMPDEST POP PUSH1 0xC0 DUP4 ADD MLOAD PUSH2 0x11B7 PUSH1 0xC0 DUP7 ADD DUP3 PUSH2 0x1063 JUMP JUMPDEST POP PUSH1 0xE0 DUP4 ADD MLOAD PUSH2 0x11CA PUSH1 0xE0 DUP7 ADD DUP3 PUSH2 0x1063 JUMP JUMPDEST POP DUP1 SWAP2 POP POP SWAP3 SWAP2 POP POP JUMP JUMPDEST PUSH0 PUSH2 0x11E0 DUP4 DUP4 PUSH2 0x1121 JUMP JUMPDEST SWAP1 POP SWAP3 SWAP2 POP POP JUMP JUMPDEST PUSH0 PUSH1 0x20 DUP3 ADD SWAP1 POP SWAP2 SWAP1 POP JUMP JUMPDEST PUSH0 PUSH2 0x11FE DUP3 PUSH2 0x103A JUMP JUMPDEST PUSH2 0x1208 DUP2 DUP6 PUSH2 0x1044 JUMP JUMPDEST SWAP4 POP DUP4 PUSH1 0x20 DUP3 MUL DUP6 ADD PUSH2 0x121A DUP6 PUSH2 0x1054 JUMP JUMPDEST DUP1 PUSH0 JUMPDEST DUP6 DUP2 LT ISZERO PUSH2 0x1255 JUMPI DUP5 DUP5 SUB DUP10 MSTORE DUP2 MLOAD PUSH2 0x1236 DUP6 DUP3 PUSH2 0x11D5 JUMP JUMPDEST SWAP5 POP PUSH2 0x1241 DUP4 PUSH2 0x11E8 JUMP JUMPDEST SWAP3 POP PUSH1 0x20 DUP11 ADD SWAP10 POP POP PUSH1 0x1 DUP2 ADD SWAP1 POP PUSH2 0x121D JUMP JUMPDEST POP DUP3 SWAP8 POP DUP8 SWAP6 POP POP POP POP POP POP SWAP3 SWAP2 POP POP JUMP JUMPDEST PUSH0 PUSH1 0x20 DUP3 ADD SWAP1 POP DUP2 DUP2 SUB PUSH0 DUP4 ADD MSTORE PUSH2 0x127F DUP2 DUP5 PUSH2 0x11F4 JUMP JUMPDEST SWAP1 POP SWAP3 SWAP2 POP POP JUMP JUMPDEST PUSH0 DUP1 REVERT JUMPDEST PUSH0 DUP1 REVERT JUMPDEST PUSH32 0x4E487B7100000000000000000000000000000000000000000000000000000000 PUSH0 MSTORE PUSH1 0x41 PUSH1 0x4 MSTORE PUSH1 0x24 PUSH0 REVERT JUMPDEST PUSH2 0x12C5 DUP3 PUSH2 0x109A JUMP JUMPDEST DUP2 ADD DUP2 DUP2 LT PUSH8 0xFFFFFFFFFFFFFFFF DUP3 GT OR ISZERO PUSH2 0x12E4 JUMPI PUSH2 0x12E3 PUSH2 0x128F JUMP JUMPDEST JUMPDEST DUP1 PUSH1 0x40 MSTORE POP POP POP JUMP JUMPDEST PUSH0 PUSH2 0x12F6 PUSH2 0xF6F JUMP JUMPDEST SWAP1 POP PUSH2 0x1302 DUP3 DUP3 PUSH2 0x12BC JUMP JUMPDEST SWAP2 SWAP1 POP JUMP JUMPDEST PUSH0 PUSH8 0xFFFFFFFFFFFFFFFF DUP3 GT ISZERO PUSH2 0x1321 JUMPI PUSH2 0x1320 PUSH2 0x128F JUMP JUMPDEST JUMPDEST PUSH2 0x132A DUP3 PUSH2 0x109A JUMP JUMPDEST SWAP1 POP PUSH1 0x20 DUP2 ADD SWAP1 POP SWAP2 SWAP1 POP JUMP JUMPDEST DUP3 DUP2 DUP4 CALLDATACOPY PUSH0 DUP4 DUP4 ADD MSTORE POP POP POP JUMP JUMPDEST PUSH0 PUSH2 0x1357 PUSH2 0x1352 DUP5 PUSH2 0x1307 JUMP JUMPDEST PUSH2 0x12ED JUMP JUMPDEST SWAP1 POP DUP3 DUP2 MSTORE PUSH1 0x20 DUP2 ADD DUP5 DUP5 DUP5 ADD GT ISZERO PUSH2 0x1373 JUMPI PUSH2 0x1372 PUSH2 0x128B JUMP JUMPDEST JUMPDEST PUSH2 0x137E DUP5 DUP3 DUP6 PUSH2 0x1337 JUMP JUMPDEST POP SWAP4 SWAP3 POP POP POP JUMP JUMPDEST PUSH0 DUP3 PUSH1 0x1F DUP4 ADD SLT PUSH2 0x139A JUMPI PUSH2 0x1399 PUSH2 0x1287 JUMP JUMPDEST JUMPDEST DUP2 CALLDATALOAD PUSH2 0x13AA DUP5 DUP3 PUSH1 0x20 DUP7 ADD PUSH2 0x1345 JUMP JUMPDEST SWAP2 POP POP SWAP3 SWAP2 POP POP JUMP JUMPDEST PUSH0 DUP1 PUSH0 DUP1 PUSH1 0x80 DUP6 DUP8 SUB SLT ISZERO PUSH2 0x13CB JUMPI PUSH2 0x13CA PUSH2 0xF78 JUMP JUMPDEST JUMPDEST PUSH0 DUP6 ADD CALLDATALOAD PUSH8 0xFFFFFFFFFFFFFFFF DUP2 GT ISZERO PUSH2 0x13E8 JUMPI PUSH2 0x13E7 PUSH2 0xF7C JUMP JUMPDEST JUMPDEST PUSH2 0x13F4 DUP8 DUP3 DUP9 ADD PUSH2 0x1386 JUMP JUMPDEST SWAP5 POP POP PUSH1 0x20 DUP6 ADD CALLDATALOAD PUSH8 0xFFFFFFFFFFFFFFFF DUP2 GT ISZERO PUSH2 0x1415 JUMPI PUSH2 0x1414 PUSH2 0xF7C JUMP JUMPDEST JUMPDEST PUSH2 0x1421 DUP8 DUP3 DUP9 ADD PUSH2 0x1386 JUMP JUMPDEST SWAP4 POP POP PUSH1 0x40 PUSH2 0x1432 DUP8 DUP3 DUP9 ADD PUSH2 0xF9F JUMP JUMPDEST SWAP3 POP POP PUSH1 0x60 PUSH2 0x1443 DUP8 DUP3 DUP9 ADD PUSH2 0xF9F JUMP JUMPDEST SWAP2 POP POP SWAP3 SWAP6 SWAP2 SWAP5 POP SWAP3 POP JUMP JUMPDEST PUSH2 0x1458 DUP2 PUSH2 0x1006 JUMP JUMPDEST DUP2 EQ PUSH2 0x1462 JUMPI PUSH0 DUP1 REVERT JUMPDEST POP JUMP JUMPDEST PUSH0 DUP2 CALLDATALOAD SWAP1 POP PUSH2 0x1473 DUP2 PUSH2 0x144F JUMP JUMPDEST SWAP3 SWAP2 POP POP JUMP JUMPDEST PUSH0 PUSH1 0x20 DUP3 DUP5 SUB SLT ISZERO PUSH2 0x148E JUMPI PUSH2 0x148D PUSH2 0xF78 JUMP JUMPDEST JUMPDEST PUSH0 PUSH2 0x149B DUP5 DUP3 DUP6 ADD PUSH2 0x1465 JUMP JUMPDEST SWAP2 POP POP SWAP3 SWAP2 POP POP JUMP JUMPDEST PUSH0 DUP2 MLOAD SWAP1 POP SWAP2 SWAP1 POP JUMP JUMPDEST PUSH0 DUP3 DUP3 MSTORE PUSH1 0x20 DUP3 ADD SWAP1 POP SWAP3 SWAP2 POP POP JUMP JUMPDEST PUSH0 DUP2 SWAP1 POP PUSH1 0x20 DUP3 ADD SWAP1 POP SWAP2 SWAP1 POP JUMP JUMPDEST PUSH1 0x40 DUP3 ADD PUSH0 DUP3 ADD MLOAD PUSH2 0x14E1 PUSH0 DUP6 ADD DUP3 PUSH2 0x1112 JUMP JUMPDEST POP PUSH1 0x20 DUP3 ADD MLOAD PUSH2 0x14F4 PUSH1 0x20 DUP6 ADD DUP3 PUSH2 0x1063 JUMP JUMPDEST POP POP POP POP JUMP JUMPDEST PUSH0 PUSH2 0x1505 DUP4 DUP4 PUSH2 0x14CD JUMP JUMPDEST PUSH1 0x40 DUP4 ADD SWAP1 POP SWAP3 SWAP2 POP POP JUMP JUMPDEST PUSH0 PUSH1 0x20 DUP3 ADD SWAP1 POP SWAP2 SWAP1 POP JUMP JUMPDEST PUSH0 PUSH2 0x1527 DUP3 PUSH2 0x14A4 JUMP JUMPDEST PUSH2 0x1531 DUP2 DUP6 PUSH2 0x14AE JUMP JUMPDEST SWAP4 POP PUSH2 0x153C DUP4 PUSH2 0x14BE JUMP JUMPDEST DUP1 PUSH0 JUMPDEST DUP4 DUP2 LT ISZERO PUSH2 0x156C JUMPI DUP2 MLOAD PUSH2 0x1553 DUP9 DUP3 PUSH2 0x14FA JUMP JUMPDEST SWAP8 POP PUSH2 0x155E DUP4 PUSH2 0x1511 JUMP JUMPDEST SWAP3 POP POP PUSH1 0x1 DUP2 ADD SWAP1 POP PUSH2 0x153F JUMP JUMPDEST POP DUP6 SWAP4 POP POP POP POP SWAP3 SWAP2 POP POP JUMP JUMPDEST PUSH0 PUSH1 0x20 DUP3 ADD SWAP1 POP DUP2 DUP2 SUB PUSH0 DUP4 ADD MSTORE PUSH2 0x1591 DUP2 DUP5 PUSH2 0x151D JUMP JUMPDEST SWAP1 POP SWAP3 SWAP2 POP POP JUMP JUMPDEST PUSH0 DUP3 DUP3 MSTORE PUSH1 0x20 DUP3 ADD SWAP1 POP SWAP3 SWAP2 POP POP JUMP JUMPDEST PUSH32 0x6F6E6C79206F776E657200000000000000000000000000000000000000000000 PUSH0 DUP3 ADD MSTORE POP JUMP JUMPDEST PUSH0 PUSH2 0x15DD PUSH1 0xA DUP4 PUSH2 0x1599 JUMP JUMPDEST SWAP2 POP PUSH2 0x15E8 DUP3 PUSH2 0x15A9 JUMP JUMPDEST PUSH1 0x20 DUP3 ADD SWAP1 POP SWAP2 SWAP1 POP JUMP JUMPDEST PUSH0 PUSH1 0x20 DUP3 ADD SWAP1 POP DUP2 DUP2 SUB PUSH0 DUP4 ADD MSTORE PUSH2 0x160A DUP2 PUSH2 0x15D1 JUMP JUMPDEST SWAP1 POP SWAP2 SWAP1 POP JUMP JUMPDEST PUSH32 0x6261642069640000000000000000000000000000000000000000000000000000 PUSH0 DUP3 ADD MSTORE POP JUMP JUMPDEST PUSH0 PUSH2 0x1645 PUSH1 0x6 DUP4 PUSH2 0x1599 JUMP JUMPDEST SWAP2 POP PUSH2 0x1650 DUP3 PUSH2 0x1611 JUMP JUMPDEST PUSH1 0x20 DUP3 ADD SWAP1 POP SWAP2 SWAP1 POP JUMP JUMPDEST PUSH0 PUSH1 0x20 DUP3 ADD SWAP1 POP DUP2 DUP2 SUB PUSH0 DUP4 ADD MSTORE PUSH2 0x1672 DUP2 PUSH2 0x1639 JUMP JUMPDEST SWAP1 POP SWAP2 SWAP1 POP JUMP JUMPDEST PUSH32 0x4E487B7100000000000000000000000000000000000000000000000000000000 PUSH0 MSTORE PUSH1 0x32 PUSH1 0x4 MSTORE PUSH1 0x24 PUSH0 REVERT JUMPDEST PUSH32 0x43616D706169676E206E6F742066696E69736865640000000000000000000000 PUSH0 DUP3 ADD MSTORE POP JUMP JUMPDEST PUSH0 PUSH2 0x16DA PUSH1 0x15 DUP4 PUSH2 0x1599 JUMP JUMPDEST SWAP2 POP PUSH2 0x16E5 DUP3 PUSH2 0x16A6 JUMP JUMPDEST PUSH1 0x20 DUP3 ADD SWAP1 POP SWAP2 SWAP1 POP JUMP JUMPDEST PUSH0 PUSH1 0x20 DUP3 ADD SWAP1 POP DUP2 DUP2 SUB PUSH0 DUP4 ADD MSTORE PUSH2 0x1707 DUP2 PUSH2 0x16CE JUMP JUMPDEST SWAP1 POP SWAP2 SWAP1 POP JUMP JUMPDEST PUSH32 0x4E487B7100000000000000000000000000000000000000000000000000000000 PUSH0 MSTORE PUSH1 0x22 PUSH1 0x4 MSTORE PUSH1 0x24 PUSH0 REVERT JUMPDEST PUSH0 PUSH1 0x2 DUP3 DIV SWAP1 POP PUSH1 0x1 DUP3 AND DUP1 PUSH2 0x1752 JUMPI PUSH1 0x7F DUP3 AND SWAP2 POP JUMPDEST PUSH1 0x20 DUP3 LT DUP2 SUB PUSH2 0x1765 JUMPI PUSH2 0x1764 PUSH2 0x170E JUMP JUMPDEST JUMPDEST POP SWAP2 SWAP1 POP JUMP JUMPDEST PUSH32 0x4E487B7100000000000000000000000000000000000000000000000000000000 PUSH0 MSTORE PUSH1 0x11 PUSH1 0x4 MSTORE PUSH1 0x24 PUSH0 REVERT JUMPDEST PUSH0 PUSH2 0x17A2 DUP3 PUSH2 0xF80 JUMP JUMPDEST SWAP2 POP PUSH2 0x17AD DUP4 PUSH2 0xF80 JUMP JUMPDEST SWAP3 POP DUP3 DUP3 SUB SWAP1 POP DUP2 DUP2 GT ISZERO PUSH2 0x17C5 JUMPI PUSH2 0x17C4 PUSH2 0x176B JUMP JUMPDEST JUMPDEST SWAP3 SWAP2 POP POP JUMP JUMPDEST PUSH32 0x43616D706169676E20646F6573206E6F74206578697374000000000000000000 PUSH0 DUP3 ADD MSTORE POP JUMP JUMPDEST PUSH0 PUSH2 0x17FF PUSH1 0x17 DUP4 PUSH2 0x1599 JUMP JUMPDEST SWAP2 POP PUSH2 0x180A DUP3 PUSH2 0x17CB JUMP JUMPDEST PUSH1 0x20 DUP3 ADD SWAP1 POP SWAP2 SWAP1 POP JUMP JUMPDEST PUSH0 PUSH1 0x20 DUP3 ADD SWAP1 POP DUP2 DUP2 SUB PUSH0 DUP4 ADD MSTORE PUSH2 0x182C DUP2 PUSH2 0x17F3 JUMP JUMPDEST SWAP1 POP SWAP2 SWAP1 POP JUMP JUMPDEST PUSH32 0x626164206D6F6E65790000000000000000000000000000000000000000000000 PUSH0 DUP3 ADD MSTORE POP JUMP JUMPDEST PUSH0 PUSH2 0x1867 PUSH1 0x9 DUP4 PUSH2 0x1599 JUMP JUMPDEST SWAP2 POP PUSH2 0x1872 DUP3 PUSH2 0x1833 JUMP JUMPDEST PUSH1 0x20 DUP3 ADD SWAP1 POP SWAP2 SWAP1 POP JUMP JUMPDEST PUSH0 PUSH1 0x20 DUP3 ADD SWAP1 POP DUP2 DUP2 SUB PUSH0 DUP4 ADD MSTORE PUSH2 0x1894 DUP2 PUSH2 0x185B JUMP JUMPDEST SWAP1 POP SWAP2 SWAP1 POP JUMP JUMPDEST PUSH0 PUSH2 0x18A5 DUP3 PUSH2 0xF80 JUMP JUMPDEST SWAP2 POP PUSH2 0x18B0 DUP4 PUSH2 0xF80 JUMP JUMPDEST SWAP3 POP DUP3 DUP3 ADD SWAP1 POP DUP1 DUP3 GT ISZERO PUSH2 0x18C8 JUMPI PUSH2 0x18C7 PUSH2 0x176B JUMP JUMPDEST JUMPDEST SWAP3 SWAP2 POP POP JUMP JUMPDEST PUSH0 DUP2 SWAP1 POP DUP2 PUSH0 MSTORE PUSH1 0x20 PUSH0 KECCAK256 SWAP1 POP SWAP2 SWAP1 POP JUMP JUMPDEST PUSH0 PUSH1 0x20 PUSH1 0x1F DUP4 ADD DIV SWAP1 POP SWAP2 SWAP1 POP JUMP JUMPDEST PUSH0 DUP3 DUP3 SHL SWAP1 POP SWAP3 SWAP2 POP POP JUMP JUMPDEST PUSH0 PUSH1 0x8 DUP4 MUL PUSH2 0x192A PUSH32 0xFFFFFFFFFFFFFFFFFFFFFFFFFFFFFFFFFFFFFFFFFFFFFFFFFFFFFFFFFFFFFFFF DUP3 PUSH2 0x18EF JUMP JUMPDEST PUSH2 0x1934 DUP7 DUP4 PUSH2 0x18EF JUMP JUMPDEST SWAP6 POP DUP1 NOT DUP5 AND SWAP4 POP DUP1 DUP7 AND DUP5 OR SWAP3 POP POP POP SWAP4 SWAP3 POP POP POP JUMP JUMPDEST PUSH0 DUP2 SWAP1 POP SWAP2 SWAP1 POP JUMP JUMPDEST PUSH0 PUSH2 0x196F PUSH2 0x196A PUSH2 0x1965 DUP5 PUSH2 0xF80 JUMP JUMPDEST PUSH2 0x194C JUMP JUMPDEST PUSH2 0xF80 JUMP JUMPDEST SWAP1 POP SWAP2 SWAP1 POP JUMP JUMPDEST PUSH0 DUP2 SWAP1 POP SWAP2 SWAP1 POP JUMP JUMPDEST PUSH2 0x1988 DUP4 PUSH2 0x1955 JUMP JUMPDEST PUSH2 0x199C PUSH2 0x1994 DUP3 PUSH2 0x1976 JUMP JUMPDEST DUP5 DUP5 SLOAD PUSH2 0x18FB JUMP JUMPDEST DUP3 SSTORE POP POP POP POP JUMP JUMPDEST PUSH0 SWAP1 JUMP JUMPDEST PUSH2 0x19B0 PUSH2 0x19A4 JUMP JUMPDEST PUSH2 0x19BB DUP2 DUP5 DUP5 PUSH2 0x197F JUMP JUMPDEST POP POP POP JUMP JUMPDEST JUMPDEST DUP2 DUP2 LT ISZERO PUSH2 0x19DE JUMPI PUSH2 0x19D3 PUSH0 DUP3 PUSH2 0x19A8 JUMP JUMPDEST PUSH1 0x1 DUP2 ADD SWAP1 POP PUSH2 0x19C1 JUMP JUMPDEST POP POP JUMP JUMPDEST PUSH1 0x1F DUP3 GT ISZERO PUSH2 0x1A23 JUMPI PUSH2 0x19F4 DUP2 PUSH2 0x18CE JUMP JUMPDEST PUSH2 0x19FD DUP5 PUSH2 0x18E0 JUMP JUMPDEST DUP2 ADD PUSH1 0x20 DUP6 LT ISZERO PUSH2 0x1A0C JUMPI DUP2 SWAP1 POP JUMPDEST PUSH2 0x1A20 PUSH2 0x1A18 DUP6 PUSH2 0x18E0 JUMP JUMPDEST DUP4 ADD DUP3 PUSH2 0x19C0 JUMP JUMPDEST POP POP JUMPDEST POP POP POP JUMP JUMPDEST PUSH0 DUP3 DUP3 SHR SWAP1 POP SWAP3 SWAP2 POP POP JUMP JUMPDEST PUSH0 PUSH2 0x1A43 PUSH0 NOT DUP5 PUSH1 0x8 MUL PUSH2 0x1A28 JUMP JUMPDEST NOT DUP1 DUP4 AND SWAP2 POP POP SWAP3 SWAP2 POP POP JUMP JUMPDEST PUSH0 PUSH2 0x1A5B DUP4 DUP4 PUSH2 0x1A34 JUMP JUMPDEST SWAP2 POP DUP3 PUSH1 0x2 MUL DUP3 OR SWAP1 POP SWAP3 SWAP2 POP POP JUMP JUMPDEST PUSH2 0x1A74 DUP3 PUSH2 0x1072 JUMP JUMPDEST PUSH8 0xFFFFFFFFFFFFFFFF DUP2 GT ISZERO PUSH2 0x1A8D JUMPI PUSH2 0x1A8C PUSH2 0x128F JUMP JUMPDEST JUMPDEST PUSH2 0x1A97 DUP3 SLOAD PUSH2 0x173B JUMP JUMPDEST PUSH2 0x1AA2 DUP3 DUP3 DUP6 PUSH2 0x19E2 JUMP JUMPDEST PUSH0 PUSH1 0x20 SWAP1 POP PUSH1 0x1F DUP4 GT PUSH1 0x1 DUP2 EQ PUSH2 0x1AD3 JUMPI PUSH0 DUP5 ISZERO PUSH2 0x1AC1 JUMPI DUP3 DUP8 ADD MLOAD SWAP1 POP JUMPDEST PUSH2 0x1ACB DUP6 DUP3 PUSH2 0x1A50 JUMP JUMPDEST DUP7 SSTORE POP PUSH2 0x1B32 JUMP JUMPDEST PUSH1 0x1F NOT DUP5 AND PUSH2 0x1AE1 DUP7 PUSH2 0x18CE JUMP JUMPDEST PUSH0 JUMPDEST DUP3 DUP2 LT ISZERO PUSH2 0x1B08 JUMPI DUP5 DUP10 ADD MLOAD DUP3 SSTORE PUSH1 0x1 DUP3 ADD SWAP2 POP PUSH1 0x20 DUP6 ADD SWAP5 POP PUSH1 0x20 DUP2 ADD SWAP1 POP PUSH2 0x1AE3 JUMP JUMPDEST DUP7 DUP4 LT ISZERO PUSH2 0x1B25 JUMPI DUP5 DUP10 ADD MLOAD PUSH2 0x1B21 PUSH1 0x1F DUP10 AND DUP3 PUSH2 0x1A34 JUMP JUMPDEST DUP4 SSTORE POP JUMPDEST PUSH1 0x1 PUSH1 0x2 DUP9 MUL ADD DUP9 SSTORE POP POP POP JUMPDEST POP POP POP POP POP POP JUMP JUMPDEST PUSH0 PUSH2 0x1B44 DUP3 PUSH2 0xF80 JUMP JUMPDEST SWAP2 POP PUSH2 0x1B4F DUP4 PUSH2 0xF80 JUMP JUMPDEST SWAP3 POP DUP3 DUP3 MUL PUSH2 0x1B5D DUP2 PUSH2 0xF80 JUMP JUMPDEST SWAP2 POP DUP3 DUP3 DIV DUP5 EQ DUP4 ISZERO OR PUSH2 0x1B74 JUMPI PUSH2 0x1B73 PUSH2 0x176B JUMP JUMPDEST JUMPDEST POP SWAP3 SWAP2 POP POP JUMP JUMPDEST PUSH32 0x4E487B7100000000000000000000000000000000000000000000000000000000 PUSH0 MSTORE PUSH1 0x12 PUSH1 0x4 MSTORE PUSH1 0x24 PUSH0 REVERT JUMPDEST PUSH0 PUSH2 0x1BB2 DUP3 PUSH2 0xF80 JUMP JUMPDEST SWAP2 POP PUSH2 0x1BBD DUP4 PUSH2 0xF80 JUMP JUMPDEST SWAP3 POP DUP3 PUSH2 0x1BCD JUMPI PUSH2 0x1BCC PUSH2 0x1B7B JUMP JUMPDEST JUMPDEST DUP3 DUP3 DIV SWAP1 POP SWAP3 SWAP2 POP POP JUMP JUMPDEST PUSH0 PUSH2 0x1BE2 DUP3 PUSH2 0x10E2 JUMP JUMPDEST SWAP1 POP SWAP2 SWAP1 POP JUMP JUMPDEST PUSH2 0x1BF2 DUP2 PUSH2 0x1BD8 JUMP JUMPDEST DUP3 MSTORE POP POP JUMP JUMPDEST PUSH0 PUSH1 0x60 DUP3 ADD SWAP1 POP PUSH2 0x1C0B PUSH0 DUP4 ADD DUP7 PUSH2 0xFDE JUMP JUMPDEST PUSH2 0x1C18 PUSH1 0x20 DUP4 ADD DUP6 PUSH2 0x1BE9 JUMP JUMPDEST PUSH2 0x1C25 PUSH1 0x40 DUP4 ADD DUP5 PUSH2 0xFDE JUMP JUMPDEST SWAP5 SWAP4 POP POP POP POP JUMP INVALID LOG2 PUSH5 0x6970667358 0x22 SLT KECCAK256 LOG3 CODECOPY CREATE 0xD0 PUSH16 0xE88C8EAA055B16D42577CA3A3F03C4E9 DUP1 SMOD 0xFC MSTORE RETURNDATACOPY PUSH2 0x7351 PUSH19 0x338B64736F6C634300081A0033000000000000 "
				},
				"gasEstimates": {
					"creation": {
						"codeDepositCost": "1453400",
						"executionCost": "50049",
						"totalCost": "1503449"
					},
					"external": {
						"createCampaign(string,string,uint256,uint256)": "infinite",
						"depositToCampaign(uint256)": "infinite",
						"getAllCampaigns()": "infinite",
						"getAllDepositsById(uint256)": "infinite",
						"getCommision()": "2518",
						"getDepositsCountById(uint256)": "infinite",
						"setCommision(uint8)": "26883",
						"withdrawFromCampaign(uint256)": "infinite"
					},
					"internal": {
						"_calculateCommision(uint256)": "infinite"
					}
				},
				"methodIdentifiers": {
					"createCampaign(string,string,uint256,uint256)": "a318f269",
					"depositToCampaign(uint256)": "620f3aec",
					"getAllCampaigns()": "86cdf604",
					"getAllDepositsById(uint256)": "e0aef11e",
					"getCommision()": "3fcd0aec",
					"getDepositsCountById(uint256)": "25a10e49",
					"setCommision(uint8)": "ad6e3318",
					"withdrawFromCampaign(uint256)": "0e39ac67"
				}
			},
			"storageLayout": {
				"storage": [
					{
						"astId": 3,
						"contract": "contracts/1_Crowdfunding.sol:Crowdfunding",
						"label": "_owner",
						"offset": 0,
						"slot": "0",
						"type": "t_address"
					},
					{
						"astId": 36,
						"contract": "contracts/1_Crowdfunding.sol:Crowdfunding",
						"label": "_campaigns",
						"offset": 0,
						"slot": "1",
						"type": "t_array(t_struct(Campaign)32_storage)dyn_storage"
					},
					{
						"astId": 118,
						"contract": "contracts/1_Crowdfunding.sol:Crowdfunding",
						"label": "_depositsToCampaign",
						"offset": 0,
						"slot": "2",
						"type": "t_mapping(t_uint256,t_array(t_struct(Depositor)112_storage)dyn_storage)"
					},
					{
						"astId": 290,
						"contract": "contracts/1_Crowdfunding.sol:Crowdfunding",
						"label": "_commision",
						"offset": 0,
						"slot": "3",
						"type": "t_uint8"
					}
				],
				"types": {
					"t_address": {
						"encoding": "inplace",
						"label": "address",
						"numberOfBytes": "20"
					},
					"t_address_payable": {
						"encoding": "inplace",
						"label": "address payable",
						"numberOfBytes": "20"
					},
					"t_array(t_struct(Campaign)32_storage)dyn_storage": {
						"base": "t_struct(Campaign)32_storage",
						"encoding": "dynamic_array",
						"label": "struct CampaignFactory.Campaign[]",
						"numberOfBytes": "32"
					},
					"t_array(t_struct(Depositor)112_storage)dyn_storage": {
						"base": "t_struct(Depositor)112_storage",
						"encoding": "dynamic_array",
						"label": "struct DepositorFactory.Depositor[]",
						"numberOfBytes": "32"
					},
					"t_mapping(t_uint256,t_array(t_struct(Depositor)112_storage)dyn_storage)": {
						"encoding": "mapping",
						"key": "t_uint256",
						"label": "mapping(uint256 => struct DepositorFactory.Depositor[])",
						"numberOfBytes": "32",
						"value": "t_array(t_struct(Depositor)112_storage)dyn_storage"
					},
					"t_string_storage": {
						"encoding": "bytes",
						"label": "string",
						"numberOfBytes": "32"
					},
					"t_struct(Campaign)32_storage": {
						"encoding": "inplace",
						"label": "struct CampaignFactory.Campaign",
						"members": [
							{
								"astId": 17,
								"contract": "contracts/1_Crowdfunding.sol:Crowdfunding",
								"label": "id",
								"offset": 0,
								"slot": "0",
								"type": "t_uint256"
							},
							{
								"astId": 19,
								"contract": "contracts/1_Crowdfunding.sol:Crowdfunding",
								"label": "name",
								"offset": 0,
								"slot": "1",
								"type": "t_string_storage"
							},
							{
								"astId": 21,
								"contract": "contracts/1_Crowdfunding.sol:Crowdfunding",
								"label": "description",
								"offset": 0,
								"slot": "2",
								"type": "t_string_storage"
							},
							{
								"astId": 23,
								"contract": "contracts/1_Crowdfunding.sol:Crowdfunding",
								"label": "owner",
								"offset": 0,
								"slot": "3",
								"type": "t_address_payable"
							},
							{
								"astId": 25,
								"contract": "contracts/1_Crowdfunding.sol:Crowdfunding",
								"label": "currentBalance",
								"offset": 0,
								"slot": "4",
								"type": "t_uint256"
							},
							{
								"astId": 27,
								"contract": "contracts/1_Crowdfunding.sol:Crowdfunding",
								"label": "goalBalance",
								"offset": 0,
								"slot": "5",
								"type": "t_uint256"
							},
							{
								"astId": 29,
								"contract": "contracts/1_Crowdfunding.sol:Crowdfunding",
								"label": "startTime",
								"offset": 0,
								"slot": "6",
								"type": "t_uint256"
							},
							{
								"astId": 31,
								"contract": "contracts/1_Crowdfunding.sol:Crowdfunding",
								"label": "endTime",
								"offset": 0,
								"slot": "7",
								"type": "t_uint256"
							}
						],
						"numberOfBytes": "256"
					},
					"t_struct(Depositor)112_storage": {
						"encoding": "inplace",
						"label": "struct DepositorFactory.Depositor",
						"members": [
							{
								"astId": 109,
								"contract": "contracts/1_Crowdfunding.sol:Crowdfunding",
								"label": "addr",
								"offset": 0,
								"slot": "0",
								"type": "t_address_payable"
							},
							{
								"astId": 111,
								"contract": "contracts/1_Crowdfunding.sol:Crowdfunding",
								"label": "balance",
								"offset": 0,
								"slot": "1",
								"type": "t_uint256"
							}
						],
						"numberOfBytes": "64"
					},
					"t_uint256": {
						"encoding": "inplace",
						"label": "uint256",
						"numberOfBytes": "32"
					},
					"t_uint8": {
						"encoding": "inplace",
						"label": "uint8",
						"numberOfBytes": "1"
					}
				}
			},
			"userdoc": {
				"kind": "user",
				"methods": {},
				"version": 1
			}
		}
	}
}