{
	"contracts/2_Lottery.sol": {
		"Lottery": {
			"abi": [
				{
					"inputs": [
						{
							"internalType": "uint256",
							"name": "_price",
							"type": "uint256"
						}
					],
					"stateMutability": "nonpayable",
					"type": "constructor"
				},
				{
					"inputs": [],
					"name": "buyTicker",
					"outputs": [],
					"stateMutability": "payable",
					"type": "function"
				},
				{
					"inputs": [],
					"name": "endLottery",
					"outputs": [],
					"stateMutability": "nonpayable",
					"type": "function"
				},
				{
					"inputs": [],
					"name": "getBalance",
					"outputs": [
						{
							"internalType": "uint256",
							"name": "",
							"type": "uint256"
						}
					],
					"stateMutability": "view",
					"type": "function"
				},
				{
					"inputs": [],
					"name": "getParticipants",
					"outputs": [
						{
							"internalType": "address[]",
							"name": "",
							"type": "address[]"
						}
					],
					"stateMutability": "view",
					"type": "function"
				},
				{
					"inputs": [],
					"name": "isActive",
					"outputs": [
						{
							"internalType": "bool",
							"name": "",
							"type": "bool"
						}
					],
					"stateMutability": "view",
					"type": "function"
				},
				{
					"inputs": [],
					"name": "owner",
					"outputs": [
						{
							"internalType": "address",
							"name": "",
							"type": "address"
						}
					],
					"stateMutability": "view",
					"type": "function"
				},
				{
					"inputs": [
						{
							"internalType": "uint256",
							"name": "",
							"type": "uint256"
						}
					],
					"name": "participants",
					"outputs": [
						{
							"internalType": "address",
							"name": "",
							"type": "address"
						}
					],
					"stateMutability": "view",
					"type": "function"
				},
				{
					"inputs": [],
					"name": "prize",
					"outputs": [
						{
							"internalType": "uint256",
							"name": "",
							"type": "uint256"
						}
					],
					"stateMutability": "view",
					"type": "function"
				},
				{
					"inputs": [],
					"name": "startLotter",
					"outputs": [],
					"stateMutability": "nonpayable",
					"type": "function"
				},
				{
					"inputs": [],
					"name": "winner",
					"outputs": [
						{
							"internalType": "address",
							"name": "",
							"type": "address"
						}
					],
					"stateMutability": "view",
					"type": "function"
				}
			],
			"devdoc": {
				"kind": "dev",
				"methods": {},
				"version": 1
			},
			"evm": {
				"assembly": "    /* \"contracts/2_Lottery.sol\":57:1562  contract Lottery {... */\n  mstore(0x40, 0x80)\n    /* \"contracts/2_Lottery.sol\":380:490  constructor (uint _price) {... */\n  callvalue\n  dup1\n  iszero\n  tag_1\n  jumpi\n  0x00\n  dup1\n  revert\ntag_1:\n  pop\n  mload(0x40)\n  sub(codesize, bytecodeSize)\n  dup1\n  bytecodeSize\n  dup4\n  codecopy\n  dup2\n  dup2\n  add\n  0x40\n  mstore\n  dup2\n  add\n  swap1\n  tag_2\n  swap2\n  swap1\n  tag_3\n  jump\t// in\ntag_2:\n    /* \"contracts/2_Lottery.sol\":424:434  msg.sender */\n  caller\n    /* \"contracts/2_Lottery.sol\":416:421  owner */\n  0x00\n  dup1\n    /* \"contracts/2_Lottery.sol\":416:434  owner = msg.sender */\n  0x0100\n  exp\n  dup2\n  sload\n  dup2\n  0xffffffffffffffffffffffffffffffffffffffff\n  mul\n  not\n  and\n  swap1\n  dup4\n  0xffffffffffffffffffffffffffffffffffffffff\n  and\n  mul\n  or\n  swap1\n  sstore\n  pop\n    /* \"contracts/2_Lottery.sol\":452:458  _price */\n  dup1\n    /* \"contracts/2_Lottery.sol\":444:449  prize */\n  0x02\n    /* \"contracts/2_Lottery.sol\":444:458  prize = _price */\n  dup2\n  swap1\n  sstore\n  pop\n    /* \"contracts/2_Lottery.sol\":479:483  true */\n  0x01\n    /* \"contracts/2_Lottery.sol\":468:476  isActive */\n  0x03\n  0x00\n    /* \"contracts/2_Lottery.sol\":468:483  isActive = true */\n  0x0100\n  exp\n  dup2\n  sload\n  dup2\n  0xff\n  mul\n  not\n  and\n  swap1\n  dup4\n  iszero\n  iszero\n  mul\n  or\n  swap1\n  sstore\n  pop\n    /* \"contracts/2_Lottery.sol\":380:490  constructor (uint _price) {... */\n  pop\n    /* \"contracts/2_Lottery.sol\":57:1562  contract Lottery {... */\n  jump(tag_6)\n    /* \"#utility.yul\":88:205   */\ntag_8:\n    /* \"#utility.yul\":197:198   */\n  0x00\n    /* \"#utility.yul\":194:195   */\n  dup1\n    /* \"#utility.yul\":187:199   */\n  revert\n    /* \"#utility.yul\":334:411   */\ntag_10:\n    /* \"#utility.yul\":371:378   */\n  0x00\n    /* \"#utility.yul\":400:405   */\n  dup2\n    /* \"#utility.yul\":389:405   */\n  swap1\n  pop\n    /* \"#utility.yul\":334:411   */\n  swap2\n  swap1\n  pop\n  jump\t// out\n    /* \"#utility.yul\":417:539   */\ntag_11:\n    /* \"#utility.yul\":490:514   */\n  tag_19\n    /* \"#utility.yul\":508:513   */\n  dup2\n    /* \"#utility.yul\":490:514   */\n  tag_10\n  jump\t// in\ntag_19:\n    /* \"#utility.yul\":483:488   */\n  dup2\n    /* \"#utility.yul\":480:515   */\n  eq\n    /* \"#utility.yul\":470:533   */\n  tag_20\n  jumpi\n    /* \"#utility.yul\":529:530   */\n  0x00\n    /* \"#utility.yul\":526:527   */\n  dup1\n    /* \"#utility.yul\":519:531   */\n  revert\n    /* \"#utility.yul\":470:533   */\ntag_20:\n    /* \"#utility.yul\":417:539   */\n  pop\n  jump\t// out\n    /* \"#utility.yul\":545:688   */\ntag_12:\n    /* \"#utility.yul\":602:607   */\n  0x00\n    /* \"#utility.yul\":633:639   */\n  dup2\n    /* \"#utility.yul\":627:640   */\n  mload\n    /* \"#utility.yul\":618:640   */\n  swap1\n  pop\n    /* \"#utility.yul\":649:682   */\n  tag_22\n    /* \"#utility.yul\":676:681   */\n  dup2\n    /* \"#utility.yul\":649:682   */\n  tag_11\n  jump\t// in\ntag_22:\n    /* \"#utility.yul\":545:688   */\n  swap3\n  swap2\n  pop\n  pop\n  jump\t// out\n    /* \"#utility.yul\":694:1045   */\ntag_3:\n    /* \"#utility.yul\":764:770   */\n  0x00\n    /* \"#utility.yul\":813:815   */\n  0x20\n    /* \"#utility.yul\":801:810   */\n  dup3\n    /* \"#utility.yul\":792:799   */\n  dup5\n    /* \"#utility.yul\":788:811   */\n  sub\n    /* \"#utility.yul\":784:816   */\n  slt\n    /* \"#utility.yul\":781:900   */\n  iszero\n  tag_24\n  jumpi\n    /* \"#utility.yul\":819:898   */\n  tag_25\n  tag_8\n  jump\t// in\ntag_25:\n    /* \"#utility.yul\":781:900   */\ntag_24:\n    /* \"#utility.yul\":939:940   */\n  0x00\n    /* \"#utility.yul\":964:1028   */\n  tag_26\n    /* \"#utility.yul\":1020:1027   */\n  dup5\n    /* \"#utility.yul\":1011:1017   */\n  dup3\n    /* \"#utility.yul\":1000:1009   */\n  dup6\n    /* \"#utility.yul\":996:1018   */\n  add\n    /* \"#utility.yul\":964:1028   */\n  tag_12\n  jump\t// in\ntag_26:\n    /* \"#utility.yul\":954:1028   */\n  swap2\n  pop\n    /* \"#utility.yul\":910:1038   */\n  pop\n    /* \"#utility.yul\":694:1045   */\n  swap3\n  swap2\n  pop\n  pop\n  jump\t// out\n    /* \"contracts/2_Lottery.sol\":57:1562  contract Lottery {... */\ntag_6:\n  dataSize(sub_0)\n  dup1\n  dataOffset(sub_0)\n  0x00\n  codecopy\n  0x00\n  return\nstop\n\nsub_0: assembly {\n        /* \"contracts/2_Lottery.sol\":57:1562  contract Lottery {... */\n      mstore(0x40, 0x80)\n      jumpi(tag_1, lt(calldatasize, 0x04))\n      shr(0xe0, calldataload(0x00))\n      dup1\n      0x5aa68ac0\n      gt\n      tag_12\n      jumpi\n      dup1\n      0x5aa68ac0\n      eq\n      tag_7\n      jumpi\n      dup1\n      0x8da5cb5b\n      eq\n      tag_8\n      jumpi\n      dup1\n      0xdfbf53ae\n      eq\n      tag_9\n      jumpi\n      dup1\n      0xe3ac5d26\n      eq\n      tag_10\n      jumpi\n      dup1\n      0xfe2f66d4\n      eq\n      tag_11\n      jumpi\n      jump(tag_1)\n    tag_12:\n      dup1\n      0x12065fe0\n      eq\n      tag_2\n      jumpi\n      dup1\n      0x1593a8c7\n      eq\n      tag_3\n      jumpi\n      dup1\n      0x22f3e2d4\n      eq\n      tag_4\n      jumpi\n      dup1\n      0x35c1d349\n      eq\n      tag_5\n      jumpi\n      dup1\n      0x36d5849e\n      eq\n      tag_6\n      jumpi\n    tag_1:\n      0x00\n      dup1\n      revert\n        /* \"contracts/2_Lottery.sol\":1196:1290  function getBalance() public view returns (uint) {... */\n    tag_2:\n      callvalue\n      dup1\n      iszero\n      tag_13\n      jumpi\n      0x00\n      dup1\n      revert\n    tag_13:\n      pop\n      tag_14\n      tag_15\n      jump\t// in\n    tag_14:\n      mload(0x40)\n      tag_16\n      swap2\n      swap1\n      tag_17\n      jump\t// in\n    tag_16:\n      mload(0x40)\n      dup1\n      swap2\n      sub\n      swap1\n      return\n        /* \"contracts/2_Lottery.sol\":849:1082  function endLottery() public onlyOwner shouldBeActive {... */\n    tag_3:\n      callvalue\n      dup1\n      iszero\n      tag_18\n      jumpi\n      0x00\n      dup1\n      revert\n    tag_18:\n      pop\n      tag_19\n      tag_20\n      jump\t// in\n    tag_19:\n      stop\n        /* \"contracts/2_Lottery.sol\":164:184  bool public isActive */\n    tag_4:\n      callvalue\n      dup1\n      iszero\n      tag_21\n      jumpi\n      0x00\n      dup1\n      revert\n    tag_21:\n      pop\n      tag_22\n      tag_23\n      jump\t// in\n    tag_22:\n      mload(0x40)\n      tag_24\n      swap2\n      swap1\n      tag_25\n      jump\t// in\n    tag_24:\n      mload(0x40)\n      dup1\n      swap2\n      sub\n      swap1\n      return\n        /* \"contracts/2_Lottery.sol\":106:135  address[] public participants */\n    tag_5:\n      callvalue\n      dup1\n      iszero\n      tag_26\n      jumpi\n      0x00\n      dup1\n      revert\n    tag_26:\n      pop\n      tag_27\n      0x04\n      dup1\n      calldatasize\n      sub\n      dup2\n      add\n      swap1\n      tag_28\n      swap2\n      swap1\n      tag_29\n      jump\t// in\n    tag_28:\n      tag_30\n      jump\t// in\n    tag_27:\n      mload(0x40)\n      tag_31\n      swap2\n      swap1\n      tag_32\n      jump\t// in\n    tag_31:\n      mload(0x40)\n      dup1\n      swap2\n      sub\n      swap1\n      return\n        /* \"contracts/2_Lottery.sol\":694:843  function buyTicker() public payable shouldBeActive {... */\n    tag_6:\n      tag_33\n      tag_34\n      jump\t// in\n    tag_33:\n      stop\n        /* \"contracts/2_Lottery.sol\":1088:1190  function getParticipants() public view returns (address[] memory) {... */\n    tag_7:\n      callvalue\n      dup1\n      iszero\n      tag_35\n      jumpi\n      0x00\n      dup1\n      revert\n    tag_35:\n      pop\n      tag_36\n      tag_37\n      jump\t// in\n    tag_36:\n      mload(0x40)\n      tag_38\n      swap2\n      swap1\n      tag_39\n      jump\t// in\n    tag_38:\n      mload(0x40)\n      dup1\n      swap2\n      sub\n      swap1\n      return\n        /* \"contracts/2_Lottery.sol\":80:100  address public owner */\n    tag_8:\n      callvalue\n      dup1\n      iszero\n      tag_40\n      jumpi\n      0x00\n      dup1\n      revert\n    tag_40:\n      pop\n      tag_41\n      tag_42\n      jump\t// in\n    tag_41:\n      mload(0x40)\n      tag_43\n      swap2\n      swap1\n      tag_32\n      jump\t// in\n    tag_43:\n      mload(0x40)\n      dup1\n      swap2\n      sub\n      swap1\n      return\n        /* \"contracts/2_Lottery.sol\":190:211  address public winner */\n    tag_9:\n      callvalue\n      dup1\n      iszero\n      tag_44\n      jumpi\n      0x00\n      dup1\n      revert\n    tag_44:\n      pop\n      tag_45\n      tag_46\n      jump\t// in\n    tag_45:\n      mload(0x40)\n      tag_47\n      swap2\n      swap1\n      tag_32\n      jump\t// in\n    tag_47:\n      mload(0x40)\n      dup1\n      swap2\n      sub\n      swap1\n      return\n        /* \"contracts/2_Lottery.sol\":141:158  uint public prize */\n    tag_10:\n      callvalue\n      dup1\n      iszero\n      tag_48\n      jumpi\n      0x00\n      dup1\n      revert\n    tag_48:\n      pop\n      tag_49\n      tag_50\n      jump\t// in\n    tag_49:\n      mload(0x40)\n      tag_51\n      swap2\n      swap1\n      tag_17\n      jump\t// in\n    tag_51:\n      mload(0x40)\n      dup1\n      swap2\n      sub\n      swap1\n      return\n        /* \"contracts/2_Lottery.sol\":496:688  function startLotter() public onlyOwner shouldBeActive {... */\n    tag_11:\n      callvalue\n      dup1\n      iszero\n      tag_52\n      jumpi\n      0x00\n      dup1\n      revert\n    tag_52:\n      pop\n      tag_53\n      tag_54\n      jump\t// in\n    tag_53:\n      stop\n        /* \"contracts/2_Lottery.sol\":1196:1290  function getBalance() public view returns (uint) {... */\n    tag_15:\n        /* \"contracts/2_Lottery.sol\":1239:1243  uint */\n      0x00\n        /* \"contracts/2_Lottery.sol\":1262:1283  address(this).balance */\n      selfbalance\n        /* \"contracts/2_Lottery.sol\":1255:1283  return address(this).balance */\n      swap1\n      pop\n        /* \"contracts/2_Lottery.sol\":1196:1290  function getBalance() public view returns (uint) {... */\n      swap1\n      jump\t// out\n        /* \"contracts/2_Lottery.sol\":849:1082  function endLottery() public onlyOwner shouldBeActive {... */\n    tag_20:\n        /* \"contracts/2_Lottery.sol\":271:276  owner */\n      0x00\n      dup1\n      sload\n      swap1\n      0x0100\n      exp\n      swap1\n      div\n      0xffffffffffffffffffffffffffffffffffffffff\n      and\n        /* \"contracts/2_Lottery.sol\":257:276  msg.sender == owner */\n      0xffffffffffffffffffffffffffffffffffffffff\n      and\n        /* \"contracts/2_Lottery.sol\":257:267  msg.sender */\n      caller\n        /* \"contracts/2_Lottery.sol\":257:276  msg.sender == owner */\n      0xffffffffffffffffffffffffffffffffffffffff\n      and\n      eq\n        /* \"contracts/2_Lottery.sol\":249:277  require(msg.sender == owner) */\n      tag_57\n      jumpi\n      0x00\n      dup1\n      revert\n    tag_57:\n        /* \"contracts/2_Lottery.sol\":346:354  isActive */\n      0x03\n      0x00\n      swap1\n      sload\n      swap1\n      0x0100\n      exp\n      swap1\n      div\n      0xff\n      and\n        /* \"contracts/2_Lottery.sol\":338:355  require(isActive) */\n      tag_59\n      jumpi\n      0x00\n      dup1\n      revert\n    tag_59:\n        /* \"contracts/2_Lottery.sol\":943:944  0 */\n      0x00\n        /* \"contracts/2_Lottery.sol\":921:933  participants */\n      0x01\n        /* \"contracts/2_Lottery.sol\":921:940  participants.length */\n      dup1\n      sload\n      swap1\n      pop\n        /* \"contracts/2_Lottery.sol\":921:944  participants.length > 0 */\n      gt\n        /* \"contracts/2_Lottery.sol\":913:959  require(participants.length > 0, \"no players\") */\n      tag_61\n      jumpi\n      mload(0x40)\n      0x08c379a000000000000000000000000000000000000000000000000000000000\n      dup2\n      mstore\n      0x04\n      add\n      tag_62\n      swap1\n      tag_63\n      jump\t// in\n    tag_62:\n      mload(0x40)\n      dup1\n      swap2\n      sub\n      swap1\n      revert\n    tag_61:\n        /* \"contracts/2_Lottery.sol\":981:986  false */\n      0x00\n        /* \"contracts/2_Lottery.sol\":970:978  isActive */\n      0x03\n      0x00\n        /* \"contracts/2_Lottery.sol\":970:986  isActive = false */\n      0x0100\n      exp\n      dup2\n      sload\n      dup2\n      0xff\n      mul\n      not\n      and\n      swap1\n      dup4\n      iszero\n      iszero\n      mul\n      or\n      swap1\n      sstore\n      pop\n        /* \"contracts/2_Lottery.sol\":1005:1017  _getWinner() */\n      tag_64\n        /* \"contracts/2_Lottery.sol\":1005:1015  _getWinner */\n      tag_65\n        /* \"contracts/2_Lottery.sol\":1005:1017  _getWinner() */\n      jump\t// in\n    tag_64:\n        /* \"contracts/2_Lottery.sol\":996:1002  winner */\n      0x03\n      0x01\n        /* \"contracts/2_Lottery.sol\":996:1017  winner = _getWinner() */\n      0x0100\n      exp\n      dup2\n      sload\n      dup2\n      0xffffffffffffffffffffffffffffffffffffffff\n      mul\n      not\n      and\n      swap1\n      dup4\n      0xffffffffffffffffffffffffffffffffffffffff\n      and\n      mul\n      or\n      swap1\n      sstore\n      pop\n        /* \"contracts/2_Lottery.sol\":1036:1042  winner */\n      0x03\n      0x01\n      swap1\n      sload\n      swap1\n      0x0100\n      exp\n      swap1\n      div\n      0xffffffffffffffffffffffffffffffffffffffff\n      and\n        /* \"contracts/2_Lottery.sol\":1028:1052  payable(winner).transfer */\n      0xffffffffffffffffffffffffffffffffffffffff\n      and\n        /* \"contracts/2_Lottery.sol\":1028:1075  payable(winner).transfer(address(this).balance) */\n      0x08fc\n        /* \"contracts/2_Lottery.sol\":1053:1074  address(this).balance */\n      selfbalance\n        /* \"contracts/2_Lottery.sol\":1028:1075  payable(winner).transfer(address(this).balance) */\n      swap1\n      dup2\n      iszero\n      mul\n      swap1\n      mload(0x40)\n      0x00\n      mload(0x40)\n      dup1\n      dup4\n      sub\n      dup2\n      dup6\n      dup9\n      dup9\n      call\n      swap4\n      pop\n      pop\n      pop\n      pop\n      iszero\n      dup1\n      iszero\n      tag_67\n      jumpi\n      returndatasize\n      0x00\n      dup1\n      returndatacopy\n      revert(0x00, returndatasize)\n    tag_67:\n      pop\n        /* \"contracts/2_Lottery.sol\":849:1082  function endLottery() public onlyOwner shouldBeActive {... */\n      jump\t// out\n        /* \"contracts/2_Lottery.sol\":164:184  bool public isActive */\n    tag_23:\n      0x03\n      0x00\n      swap1\n      sload\n      swap1\n      0x0100\n      exp\n      swap1\n      div\n      0xff\n      and\n      dup2\n      jump\t// out\n        /* \"contracts/2_Lottery.sol\":106:135  address[] public participants */\n    tag_30:\n      0x01\n      dup2\n      dup2\n      sload\n      dup2\n      lt\n      tag_68\n      jumpi\n      0x00\n      dup1\n      revert\n    tag_68:\n      swap1\n      0x00\n      mstore\n      keccak256(0x00, 0x20)\n      add\n      0x00\n      swap2\n      pop\n      sload\n      swap1\n      0x0100\n      exp\n      swap1\n      div\n      0xffffffffffffffffffffffffffffffffffffffff\n      and\n      dup2\n      jump\t// out\n        /* \"contracts/2_Lottery.sol\":694:843  function buyTicker() public payable shouldBeActive {... */\n    tag_34:\n        /* \"contracts/2_Lottery.sol\":346:354  isActive */\n      0x03\n      0x00\n      swap1\n      sload\n      swap1\n      0x0100\n      exp\n      swap1\n      div\n      0xff\n      and\n        /* \"contracts/2_Lottery.sol\":338:355  require(isActive) */\n      tag_71\n      jumpi\n      0x00\n      dup1\n      revert\n    tag_71:\n        /* \"contracts/2_Lottery.sol\":776:781  prize */\n      sload(0x02)\n        /* \"contracts/2_Lottery.sol\":763:772  msg.value */\n      callvalue\n        /* \"contracts/2_Lottery.sol\":763:781  msg.value != prize */\n      sub\n        /* \"contracts/2_Lottery.sol\":755:795  require(msg.value != prize, \"bad price\") */\n      tag_73\n      jumpi\n      mload(0x40)\n      0x08c379a000000000000000000000000000000000000000000000000000000000\n      dup2\n      mstore\n      0x04\n      add\n      tag_74\n      swap1\n      tag_75\n      jump\t// in\n    tag_74:\n      mload(0x40)\n      dup1\n      swap2\n      sub\n      swap1\n      revert\n    tag_73:\n        /* \"contracts/2_Lottery.sol\":807:819  participants */\n      0x01\n        /* \"contracts/2_Lottery.sol\":825:835  msg.sender */\n      caller\n        /* \"contracts/2_Lottery.sol\":807:836  participants.push(msg.sender) */\n      swap1\n      dup1\n      0x01\n      dup2\n      sload\n      add\n      dup1\n      dup3\n      sstore\n      dup1\n      swap2\n      pop\n      pop\n      0x01\n      swap1\n      sub\n      swap1\n      0x00\n      mstore\n      keccak256(0x00, 0x20)\n      add\n      0x00\n      swap1\n      swap2\n      swap1\n      swap2\n      swap1\n      swap2\n      0x0100\n      exp\n      dup2\n      sload\n      dup2\n      0xffffffffffffffffffffffffffffffffffffffff\n      mul\n      not\n      and\n      swap1\n      dup4\n      0xffffffffffffffffffffffffffffffffffffffff\n      and\n      mul\n      or\n      swap1\n      sstore\n      pop\n        /* \"contracts/2_Lottery.sol\":694:843  function buyTicker() public payable shouldBeActive {... */\n      jump\t// out\n        /* \"contracts/2_Lottery.sol\":1088:1190  function getParticipants() public view returns (address[] memory) {... */\n    tag_37:\n        /* \"contracts/2_Lottery.sol\":1136:1152  address[] memory */\n      0x60\n        /* \"contracts/2_Lottery.sol\":1171:1183  participants */\n      0x01\n        /* \"contracts/2_Lottery.sol\":1164:1183  return participants */\n      dup1\n      sload\n      dup1\n      0x20\n      mul\n      0x20\n      add\n      mload(0x40)\n      swap1\n      dup2\n      add\n      0x40\n      mstore\n      dup1\n      swap3\n      swap2\n      swap1\n      dup2\n      dup2\n      mstore\n      0x20\n      add\n      dup3\n      dup1\n      sload\n      dup1\n      iszero\n      tag_78\n      jumpi\n      0x20\n      mul\n      dup3\n      add\n      swap2\n      swap1\n      0x00\n      mstore\n      keccak256(0x00, 0x20)\n      swap1\n    tag_79:\n      dup2\n      0x00\n      swap1\n      sload\n      swap1\n      0x0100\n      exp\n      swap1\n      div\n      0xffffffffffffffffffffffffffffffffffffffff\n      and\n      0xffffffffffffffffffffffffffffffffffffffff\n      and\n      dup2\n      mstore\n      0x20\n      add\n      swap1\n      0x01\n      add\n      swap1\n      dup1\n      dup4\n      gt\n      tag_79\n      jumpi\n    tag_78:\n      pop\n      pop\n      pop\n      pop\n      pop\n      swap1\n      pop\n        /* \"contracts/2_Lottery.sol\":1088:1190  function getParticipants() public view returns (address[] memory) {... */\n      swap1\n      jump\t// out\n        /* \"contracts/2_Lottery.sol\":80:100  address public owner */\n    tag_42:\n      0x00\n      dup1\n      sload\n      swap1\n      0x0100\n      exp\n      swap1\n      div\n      0xffffffffffffffffffffffffffffffffffffffff\n      and\n      dup2\n      jump\t// out\n        /* \"contracts/2_Lottery.sol\":190:211  address public winner */\n    tag_46:\n      0x03\n      0x01\n      swap1\n      sload\n      swap1\n      0x0100\n      exp\n      swap1\n      div\n      0xffffffffffffffffffffffffffffffffffffffff\n      and\n      dup2\n      jump\t// out\n        /* \"contracts/2_Lottery.sol\":141:158  uint public prize */\n    tag_50:\n      sload(0x02)\n      dup2\n      jump\t// out\n        /* \"contracts/2_Lottery.sol\":496:688  function startLotter() public onlyOwner shouldBeActive {... */\n    tag_54:\n        /* \"contracts/2_Lottery.sol\":271:276  owner */\n      0x00\n      dup1\n      sload\n      swap1\n      0x0100\n      exp\n      swap1\n      div\n      0xffffffffffffffffffffffffffffffffffffffff\n      and\n        /* \"contracts/2_Lottery.sol\":257:276  msg.sender == owner */\n      0xffffffffffffffffffffffffffffffffffffffff\n      and\n        /* \"contracts/2_Lottery.sol\":257:267  msg.sender */\n      caller\n        /* \"contracts/2_Lottery.sol\":257:276  msg.sender == owner */\n      0xffffffffffffffffffffffffffffffffffffffff\n      and\n      eq\n        /* \"contracts/2_Lottery.sol\":249:277  require(msg.sender == owner) */\n      tag_81\n      jumpi\n      0x00\n      dup1\n      revert\n    tag_81:\n        /* \"contracts/2_Lottery.sol\":346:354  isActive */\n      0x03\n      0x00\n      swap1\n      sload\n      swap1\n      0x0100\n      exp\n      swap1\n      div\n      0xff\n      and\n        /* \"contracts/2_Lottery.sol\":338:355  require(isActive) */\n      tag_83\n      jumpi\n      0x00\n      dup1\n      revert\n    tag_83:\n        /* \"contracts/2_Lottery.sol\":570:578  isActive */\n      0x03\n      0x00\n      swap1\n      sload\n      swap1\n      0x0100\n      exp\n      swap1\n      div\n      0xff\n      and\n        /* \"contracts/2_Lottery.sol\":569:578  !isActive */\n      iszero\n        /* \"contracts/2_Lottery.sol\":561:597  require(!isActive, \"already actvie\") */\n      tag_85\n      jumpi\n      mload(0x40)\n      0x08c379a000000000000000000000000000000000000000000000000000000000\n      dup2\n      mstore\n      0x04\n      add\n      tag_86\n      swap1\n      tag_87\n      jump\t// in\n    tag_86:\n      mload(0x40)\n      dup1\n      swap2\n      sub\n      swap1\n      revert\n    tag_85:\n        /* \"contracts/2_Lottery.sol\":619:623  true */\n      0x01\n        /* \"contracts/2_Lottery.sol\":608:616  isActive */\n      0x03\n      0x00\n        /* \"contracts/2_Lottery.sol\":608:623  isActive = true */\n      0x0100\n      exp\n      dup2\n      sload\n      dup2\n      0xff\n      mul\n      not\n      and\n      swap1\n      dup4\n      iszero\n      iszero\n      mul\n      or\n      swap1\n      sstore\n      pop\n        /* \"contracts/2_Lottery.sol\":640:652  participants */\n      0x01\n      0x00\n        /* \"contracts/2_Lottery.sol\":633:652  delete participants */\n      tag_88\n      swap2\n      swap1\n      tag_89\n      jump\t// in\n    tag_88:\n        /* \"contracts/2_Lottery.sol\":679:680  0 */\n      0x00\n        /* \"contracts/2_Lottery.sol\":662:668  winner */\n      0x03\n      0x01\n        /* \"contracts/2_Lottery.sol\":662:681  winner = address(0) */\n      0x0100\n      exp\n      dup2\n      sload\n      dup2\n      0xffffffffffffffffffffffffffffffffffffffff\n      mul\n      not\n      and\n      swap1\n      dup4\n      0xffffffffffffffffffffffffffffffffffffffff\n      and\n      mul\n      or\n      swap1\n      sstore\n      pop\n        /* \"contracts/2_Lottery.sol\":496:688  function startLotter() public onlyOwner shouldBeActive {... */\n      jump\t// out\n        /* \"contracts/2_Lottery.sol\":1297:1558  function _getWinner() private view returns(address) {... */\n    tag_65:\n        /* \"contracts/2_Lottery.sol\":1340:1347  address */\n      0x00\n        /* \"contracts/2_Lottery.sol\":1359:1370  uint random */\n      dup1\n        /* \"contracts/2_Lottery.sol\":1405:1420  block.timestamp */\n      timestamp\n        /* \"contracts/2_Lottery.sol\":1422:1438  block.prevrandao */\n      prevrandao\n        /* \"contracts/2_Lottery.sol\":1440:1452  participants */\n      0x01\n        /* \"contracts/2_Lottery.sol\":1440:1459  participants.length */\n      dup1\n      sload\n      swap1\n      pop\n        /* \"contracts/2_Lottery.sol\":1388:1460  abi.encodePacked(block.timestamp, block.prevrandao, participants.length) */\n      add(0x20, mload(0x40))\n      tag_91\n      swap4\n      swap3\n      swap2\n      swap1\n      tag_92\n      jump\t// in\n    tag_91:\n      mload(0x40)\n      0x20\n      dup2\n      dup4\n      sub\n      sub\n      dup2\n      mstore\n      swap1\n      0x40\n      mstore\n        /* \"contracts/2_Lottery.sol\":1378:1461  keccak256(abi.encodePacked(block.timestamp, block.prevrandao, participants.length)) */\n      dup1\n      mload\n      swap1\n      0x20\n      add\n      keccak256\n        /* \"contracts/2_Lottery.sol\":1373:1462  uint(keccak256(abi.encodePacked(block.timestamp, block.prevrandao, participants.length))) */\n      0x00\n      shr\n        /* \"contracts/2_Lottery.sol\":1359:1462  uint random = uint(keccak256(abi.encodePacked(block.timestamp, block.prevrandao, participants.length))) */\n      swap1\n      pop\n        /* \"contracts/2_Lottery.sol\":1473:1483  uint index */\n      0x00\n        /* \"contracts/2_Lottery.sol\":1495:1507  participants */\n      0x01\n        /* \"contracts/2_Lottery.sol\":1495:1514  participants.length */\n      dup1\n      sload\n      swap1\n      pop\n        /* \"contracts/2_Lottery.sol\":1486:1492  random */\n      dup3\n        /* \"contracts/2_Lottery.sol\":1486:1514  random % participants.length */\n      tag_93\n      swap2\n      swap1\n      tag_94\n      jump\t// in\n    tag_93:\n        /* \"contracts/2_Lottery.sol\":1473:1514  uint index = random % participants.length */\n      swap1\n      pop\n        /* \"contracts/2_Lottery.sol\":1532:1544  participants */\n      0x01\n        /* \"contracts/2_Lottery.sol\":1545:1550  index */\n      dup2\n        /* \"contracts/2_Lottery.sol\":1532:1551  participants[index] */\n      dup2\n      sload\n      dup2\n      lt\n      tag_95\n      jumpi\n      tag_96\n      tag_97\n      jump\t// in\n    tag_96:\n    tag_95:\n      swap1\n      0x00\n      mstore\n      keccak256(0x00, 0x20)\n      add\n      0x00\n      swap1\n      sload\n      swap1\n      0x0100\n      exp\n      swap1\n      div\n      0xffffffffffffffffffffffffffffffffffffffff\n      and\n        /* \"contracts/2_Lottery.sol\":1525:1551  return participants[index] */\n      swap3\n      pop\n      pop\n      pop\n        /* \"contracts/2_Lottery.sol\":1297:1558  function _getWinner() private view returns(address) {... */\n      swap1\n      jump\t// out\n    tag_89:\n      pop\n      dup1\n      sload\n      0x00\n      dup3\n      sstore\n      swap1\n      0x00\n      mstore\n      keccak256(0x00, 0x20)\n      swap1\n      dup2\n      add\n      swap1\n      tag_100\n      swap2\n      swap1\n      tag_101\n      jump\t// in\n    tag_100:\n      pop\n      jump\t// out\n    tag_101:\n    tag_102:\n      dup1\n      dup3\n      gt\n      iszero\n      tag_103\n      jumpi\n      0x00\n      dup2\n      0x00\n      swap1\n      sstore\n      pop\n      0x01\n      add\n      jump(tag_102)\n    tag_103:\n      pop\n      swap1\n      jump\t// out\n        /* \"#utility.yul\":7:84   */\n    tag_104:\n        /* \"#utility.yul\":44:51   */\n      0x00\n        /* \"#utility.yul\":73:78   */\n      dup2\n        /* \"#utility.yul\":62:78   */\n      swap1\n      pop\n        /* \"#utility.yul\":7:84   */\n      swap2\n      swap1\n      pop\n      jump\t// out\n        /* \"#utility.yul\":90:208   */\n    tag_105:\n        /* \"#utility.yul\":177:201   */\n      tag_136\n        /* \"#utility.yul\":195:200   */\n      dup2\n        /* \"#utility.yul\":177:201   */\n      tag_104\n      jump\t// in\n    tag_136:\n        /* \"#utility.yul\":172:175   */\n      dup3\n        /* \"#utility.yul\":165:202   */\n      mstore\n        /* \"#utility.yul\":90:208   */\n      pop\n      pop\n      jump\t// out\n        /* \"#utility.yul\":214:436   */\n    tag_17:\n        /* \"#utility.yul\":307:311   */\n      0x00\n        /* \"#utility.yul\":345:347   */\n      0x20\n        /* \"#utility.yul\":334:343   */\n      dup3\n        /* \"#utility.yul\":330:348   */\n      add\n        /* \"#utility.yul\":322:348   */\n      swap1\n      pop\n        /* \"#utility.yul\":358:429   */\n      tag_138\n        /* \"#utility.yul\":426:427   */\n      0x00\n        /* \"#utility.yul\":415:424   */\n      dup4\n        /* \"#utility.yul\":411:428   */\n      add\n        /* \"#utility.yul\":402:408   */\n      dup5\n        /* \"#utility.yul\":358:429   */\n      tag_105\n      jump\t// in\n    tag_138:\n        /* \"#utility.yul\":214:436   */\n      swap3\n      swap2\n      pop\n      pop\n      jump\t// out\n        /* \"#utility.yul\":442:532   */\n    tag_106:\n        /* \"#utility.yul\":476:483   */\n      0x00\n        /* \"#utility.yul\":519:524   */\n      dup2\n        /* \"#utility.yul\":512:525   */\n      iszero\n        /* \"#utility.yul\":505:526   */\n      iszero\n        /* \"#utility.yul\":494:526   */\n      swap1\n      pop\n        /* \"#utility.yul\":442:532   */\n      swap2\n      swap1\n      pop\n      jump\t// out\n        /* \"#utility.yul\":538:647   */\n    tag_107:\n        /* \"#utility.yul\":619:640   */\n      tag_141\n        /* \"#utility.yul\":634:639   */\n      dup2\n        /* \"#utility.yul\":619:640   */\n      tag_106\n      jump\t// in\n    tag_141:\n        /* \"#utility.yul\":614:617   */\n      dup3\n        /* \"#utility.yul\":607:641   */\n      mstore\n        /* \"#utility.yul\":538:647   */\n      pop\n      pop\n      jump\t// out\n        /* \"#utility.yul\":653:863   */\n    tag_25:\n        /* \"#utility.yul\":740:744   */\n      0x00\n        /* \"#utility.yul\":778:780   */\n      0x20\n        /* \"#utility.yul\":767:776   */\n      dup3\n        /* \"#utility.yul\":763:781   */\n      add\n        /* \"#utility.yul\":755:781   */\n      swap1\n      pop\n        /* \"#utility.yul\":791:856   */\n      tag_143\n        /* \"#utility.yul\":853:854   */\n      0x00\n        /* \"#utility.yul\":842:851   */\n      dup4\n        /* \"#utility.yul\":838:855   */\n      add\n        /* \"#utility.yul\":829:835   */\n      dup5\n        /* \"#utility.yul\":791:856   */\n      tag_107\n      jump\t// in\n    tag_143:\n        /* \"#utility.yul\":653:863   */\n      swap3\n      swap2\n      pop\n      pop\n      jump\t// out\n        /* \"#utility.yul\":950:1067   */\n    tag_109:\n        /* \"#utility.yul\":1059:1060   */\n      0x00\n        /* \"#utility.yul\":1056:1057   */\n      dup1\n        /* \"#utility.yul\":1049:1061   */\n      revert\n        /* \"#utility.yul\":1196:1318   */\n    tag_111:\n        /* \"#utility.yul\":1269:1293   */\n      tag_148\n        /* \"#utility.yul\":1287:1292   */\n      dup2\n        /* \"#utility.yul\":1269:1293   */\n      tag_104\n      jump\t// in\n    tag_148:\n        /* \"#utility.yul\":1262:1267   */\n      dup2\n        /* \"#utility.yul\":1259:1294   */\n      eq\n        /* \"#utility.yul\":1249:1312   */\n      tag_149\n      jumpi\n        /* \"#utility.yul\":1308:1309   */\n      0x00\n        /* \"#utility.yul\":1305:1306   */\n      dup1\n        /* \"#utility.yul\":1298:1310   */\n      revert\n        /* \"#utility.yul\":1249:1312   */\n    tag_149:\n        /* \"#utility.yul\":1196:1318   */\n      pop\n      jump\t// out\n        /* \"#utility.yul\":1324:1463   */\n    tag_112:\n        /* \"#utility.yul\":1370:1375   */\n      0x00\n        /* \"#utility.yul\":1408:1414   */\n      dup2\n        /* \"#utility.yul\":1395:1415   */\n      calldataload\n        /* \"#utility.yul\":1386:1415   */\n      swap1\n      pop\n        /* \"#utility.yul\":1424:1457   */\n      tag_151\n        /* \"#utility.yul\":1451:1456   */\n      dup2\n        /* \"#utility.yul\":1424:1457   */\n      tag_111\n      jump\t// in\n    tag_151:\n        /* \"#utility.yul\":1324:1463   */\n      swap3\n      swap2\n      pop\n      pop\n      jump\t// out\n        /* \"#utility.yul\":1469:1798   */\n    tag_29:\n        /* \"#utility.yul\":1528:1534   */\n      0x00\n        /* \"#utility.yul\":1577:1579   */\n      0x20\n        /* \"#utility.yul\":1565:1574   */\n      dup3\n        /* \"#utility.yul\":1556:1563   */\n      dup5\n        /* \"#utility.yul\":1552:1575   */\n      sub\n        /* \"#utility.yul\":1548:1580   */\n      slt\n        /* \"#utility.yul\":1545:1664   */\n      iszero\n      tag_153\n      jumpi\n        /* \"#utility.yul\":1583:1662   */\n      tag_154\n      tag_109\n      jump\t// in\n    tag_154:\n        /* \"#utility.yul\":1545:1664   */\n    tag_153:\n        /* \"#utility.yul\":1703:1704   */\n      0x00\n        /* \"#utility.yul\":1728:1781   */\n      tag_155\n        /* \"#utility.yul\":1773:1780   */\n      dup5\n        /* \"#utility.yul\":1764:1770   */\n      dup3\n        /* \"#utility.yul\":1753:1762   */\n      dup6\n        /* \"#utility.yul\":1749:1771   */\n      add\n        /* \"#utility.yul\":1728:1781   */\n      tag_112\n      jump\t// in\n    tag_155:\n        /* \"#utility.yul\":1718:1781   */\n      swap2\n      pop\n        /* \"#utility.yul\":1674:1791   */\n      pop\n        /* \"#utility.yul\":1469:1798   */\n      swap3\n      swap2\n      pop\n      pop\n      jump\t// out\n        /* \"#utility.yul\":1804:1930   */\n    tag_113:\n        /* \"#utility.yul\":1841:1848   */\n      0x00\n        /* \"#utility.yul\":1881:1923   */\n      0xffffffffffffffffffffffffffffffffffffffff\n        /* \"#utility.yul\":1874:1879   */\n      dup3\n        /* \"#utility.yul\":1870:1924   */\n      and\n        /* \"#utility.yul\":1859:1924   */\n      swap1\n      pop\n        /* \"#utility.yul\":1804:1930   */\n      swap2\n      swap1\n      pop\n      jump\t// out\n        /* \"#utility.yul\":1936:2032   */\n    tag_114:\n        /* \"#utility.yul\":1973:1980   */\n      0x00\n        /* \"#utility.yul\":2002:2026   */\n      tag_158\n        /* \"#utility.yul\":2020:2025   */\n      dup3\n        /* \"#utility.yul\":2002:2026   */\n      tag_113\n      jump\t// in\n    tag_158:\n        /* \"#utility.yul\":1991:2026   */\n      swap1\n      pop\n        /* \"#utility.yul\":1936:2032   */\n      swap2\n      swap1\n      pop\n      jump\t// out\n        /* \"#utility.yul\":2038:2156   */\n    tag_115:\n        /* \"#utility.yul\":2125:2149   */\n      tag_160\n        /* \"#utility.yul\":2143:2148   */\n      dup2\n        /* \"#utility.yul\":2125:2149   */\n      tag_114\n      jump\t// in\n    tag_160:\n        /* \"#utility.yul\":2120:2123   */\n      dup3\n        /* \"#utility.yul\":2113:2150   */\n      mstore\n        /* \"#utility.yul\":2038:2156   */\n      pop\n      pop\n      jump\t// out\n        /* \"#utility.yul\":2162:2384   */\n    tag_32:\n        /* \"#utility.yul\":2255:2259   */\n      0x00\n        /* \"#utility.yul\":2293:2295   */\n      0x20\n        /* \"#utility.yul\":2282:2291   */\n      dup3\n        /* \"#utility.yul\":2278:2296   */\n      add\n        /* \"#utility.yul\":2270:2296   */\n      swap1\n      pop\n        /* \"#utility.yul\":2306:2377   */\n      tag_162\n        /* \"#utility.yul\":2374:2375   */\n      0x00\n        /* \"#utility.yul\":2363:2372   */\n      dup4\n        /* \"#utility.yul\":2359:2376   */\n      add\n        /* \"#utility.yul\":2350:2356   */\n      dup5\n        /* \"#utility.yul\":2306:2377   */\n      tag_115\n      jump\t// in\n    tag_162:\n        /* \"#utility.yul\":2162:2384   */\n      swap3\n      swap2\n      pop\n      pop\n      jump\t// out\n        /* \"#utility.yul\":2390:2504   */\n    tag_116:\n        /* \"#utility.yul\":2457:2463   */\n      0x00\n        /* \"#utility.yul\":2491:2496   */\n      dup2\n        /* \"#utility.yul\":2485:2497   */\n      mload\n        /* \"#utility.yul\":2475:2497   */\n      swap1\n      pop\n        /* \"#utility.yul\":2390:2504   */\n      swap2\n      swap1\n      pop\n      jump\t// out\n        /* \"#utility.yul\":2510:2694   */\n    tag_117:\n        /* \"#utility.yul\":2609:2620   */\n      0x00\n        /* \"#utility.yul\":2643:2649   */\n      dup3\n        /* \"#utility.yul\":2638:2641   */\n      dup3\n        /* \"#utility.yul\":2631:2650   */\n      mstore\n        /* \"#utility.yul\":2683:2687   */\n      0x20\n        /* \"#utility.yul\":2678:2681   */\n      dup3\n        /* \"#utility.yul\":2674:2688   */\n      add\n        /* \"#utility.yul\":2659:2688   */\n      swap1\n      pop\n        /* \"#utility.yul\":2510:2694   */\n      swap3\n      swap2\n      pop\n      pop\n      jump\t// out\n        /* \"#utility.yul\":2700:2832   */\n    tag_118:\n        /* \"#utility.yul\":2767:2771   */\n      0x00\n        /* \"#utility.yul\":2790:2793   */\n      dup2\n        /* \"#utility.yul\":2782:2793   */\n      swap1\n      pop\n        /* \"#utility.yul\":2820:2824   */\n      0x20\n        /* \"#utility.yul\":2815:2818   */\n      dup3\n        /* \"#utility.yul\":2811:2825   */\n      add\n        /* \"#utility.yul\":2803:2825   */\n      swap1\n      pop\n        /* \"#utility.yul\":2700:2832   */\n      swap2\n      swap1\n      pop\n      jump\t// out\n        /* \"#utility.yul\":2838:2946   */\n    tag_119:\n        /* \"#utility.yul\":2915:2939   */\n      tag_167\n        /* \"#utility.yul\":2933:2938   */\n      dup2\n        /* \"#utility.yul\":2915:2939   */\n      tag_114\n      jump\t// in\n    tag_167:\n        /* \"#utility.yul\":2910:2913   */\n      dup3\n        /* \"#utility.yul\":2903:2940   */\n      mstore\n        /* \"#utility.yul\":2838:2946   */\n      pop\n      pop\n      jump\t// out\n        /* \"#utility.yul\":2952:3131   */\n    tag_120:\n        /* \"#utility.yul\":3021:3031   */\n      0x00\n        /* \"#utility.yul\":3042:3088   */\n      tag_169\n        /* \"#utility.yul\":3084:3087   */\n      dup4\n        /* \"#utility.yul\":3076:3082   */\n      dup4\n        /* \"#utility.yul\":3042:3088   */\n      tag_119\n      jump\t// in\n    tag_169:\n        /* \"#utility.yul\":3120:3124   */\n      0x20\n        /* \"#utility.yul\":3115:3118   */\n      dup4\n        /* \"#utility.yul\":3111:3125   */\n      add\n        /* \"#utility.yul\":3097:3125   */\n      swap1\n      pop\n        /* \"#utility.yul\":2952:3131   */\n      swap3\n      swap2\n      pop\n      pop\n      jump\t// out\n        /* \"#utility.yul\":3137:3250   */\n    tag_121:\n        /* \"#utility.yul\":3207:3211   */\n      0x00\n        /* \"#utility.yul\":3239:3243   */\n      0x20\n        /* \"#utility.yul\":3234:3237   */\n      dup3\n        /* \"#utility.yul\":3230:3244   */\n      add\n        /* \"#utility.yul\":3222:3244   */\n      swap1\n      pop\n        /* \"#utility.yul\":3137:3250   */\n      swap2\n      swap1\n      pop\n      jump\t// out\n        /* \"#utility.yul\":3286:4018   */\n    tag_122:\n        /* \"#utility.yul\":3405:3408   */\n      0x00\n        /* \"#utility.yul\":3434:3488   */\n      tag_172\n        /* \"#utility.yul\":3482:3487   */\n      dup3\n        /* \"#utility.yul\":3434:3488   */\n      tag_116\n      jump\t// in\n    tag_172:\n        /* \"#utility.yul\":3504:3590   */\n      tag_173\n        /* \"#utility.yul\":3583:3589   */\n      dup2\n        /* \"#utility.yul\":3578:3581   */\n      dup6\n        /* \"#utility.yul\":3504:3590   */\n      tag_117\n      jump\t// in\n    tag_173:\n        /* \"#utility.yul\":3497:3590   */\n      swap4\n      pop\n        /* \"#utility.yul\":3614:3670   */\n      tag_174\n        /* \"#utility.yul\":3664:3669   */\n      dup4\n        /* \"#utility.yul\":3614:3670   */\n      tag_118\n      jump\t// in\n    tag_174:\n        /* \"#utility.yul\":3693:3700   */\n      dup1\n        /* \"#utility.yul\":3724:3725   */\n      0x00\n        /* \"#utility.yul\":3709:3993   */\n    tag_175:\n        /* \"#utility.yul\":3734:3740   */\n      dup4\n        /* \"#utility.yul\":3731:3732   */\n      dup2\n        /* \"#utility.yul\":3728:3741   */\n      lt\n        /* \"#utility.yul\":3709:3993   */\n      iszero\n      tag_177\n      jumpi\n        /* \"#utility.yul\":3810:3816   */\n      dup2\n        /* \"#utility.yul\":3804:3817   */\n      mload\n        /* \"#utility.yul\":3837:3900   */\n      tag_178\n        /* \"#utility.yul\":3896:3899   */\n      dup9\n        /* \"#utility.yul\":3881:3894   */\n      dup3\n        /* \"#utility.yul\":3837:3900   */\n      tag_120\n      jump\t// in\n    tag_178:\n        /* \"#utility.yul\":3830:3900   */\n      swap8\n      pop\n        /* \"#utility.yul\":3923:3983   */\n      tag_179\n        /* \"#utility.yul\":3976:3982   */\n      dup4\n        /* \"#utility.yul\":3923:3983   */\n      tag_121\n      jump\t// in\n    tag_179:\n        /* \"#utility.yul\":3913:3983   */\n      swap3\n      pop\n        /* \"#utility.yul\":3769:3993   */\n      pop\n        /* \"#utility.yul\":3756:3757   */\n      0x01\n        /* \"#utility.yul\":3753:3754   */\n      dup2\n        /* \"#utility.yul\":3749:3758   */\n      add\n        /* \"#utility.yul\":3744:3758   */\n      swap1\n      pop\n        /* \"#utility.yul\":3709:3993   */\n      jump(tag_175)\n    tag_177:\n        /* \"#utility.yul\":3713:3727   */\n      pop\n        /* \"#utility.yul\":4009:4012   */\n      dup6\n        /* \"#utility.yul\":4002:4012   */\n      swap4\n      pop\n        /* \"#utility.yul\":3410:4018   */\n      pop\n      pop\n      pop\n        /* \"#utility.yul\":3286:4018   */\n      swap3\n      swap2\n      pop\n      pop\n      jump\t// out\n        /* \"#utility.yul\":4024:4397   */\n    tag_39:\n        /* \"#utility.yul\":4167:4171   */\n      0x00\n        /* \"#utility.yul\":4205:4207   */\n      0x20\n        /* \"#utility.yul\":4194:4203   */\n      dup3\n        /* \"#utility.yul\":4190:4208   */\n      add\n        /* \"#utility.yul\":4182:4208   */\n      swap1\n      pop\n        /* \"#utility.yul\":4254:4263   */\n      dup2\n        /* \"#utility.yul\":4248:4252   */\n      dup2\n        /* \"#utility.yul\":4244:4264   */\n      sub\n        /* \"#utility.yul\":4240:4241   */\n      0x00\n        /* \"#utility.yul\":4229:4238   */\n      dup4\n        /* \"#utility.yul\":4225:4242   */\n      add\n        /* \"#utility.yul\":4218:4265   */\n      mstore\n        /* \"#utility.yul\":4282:4390   */\n      tag_181\n        /* \"#utility.yul\":4385:4389   */\n      dup2\n        /* \"#utility.yul\":4376:4382   */\n      dup5\n        /* \"#utility.yul\":4282:4390   */\n      tag_122\n      jump\t// in\n    tag_181:\n        /* \"#utility.yul\":4274:4390   */\n      swap1\n      pop\n        /* \"#utility.yul\":4024:4397   */\n      swap3\n      swap2\n      pop\n      pop\n      jump\t// out\n        /* \"#utility.yul\":4403:4572   */\n    tag_123:\n        /* \"#utility.yul\":4487:4498   */\n      0x00\n        /* \"#utility.yul\":4521:4527   */\n      dup3\n        /* \"#utility.yul\":4516:4519   */\n      dup3\n        /* \"#utility.yul\":4509:4528   */\n      mstore\n        /* \"#utility.yul\":4561:4565   */\n      0x20\n        /* \"#utility.yul\":4556:4559   */\n      dup3\n        /* \"#utility.yul\":4552:4566   */\n      add\n        /* \"#utility.yul\":4537:4566   */\n      swap1\n      pop\n        /* \"#utility.yul\":4403:4572   */\n      swap3\n      swap2\n      pop\n      pop\n      jump\t// out\n        /* \"#utility.yul\":4578:4738   */\n    tag_124:\n        /* \"#utility.yul\":4718:4730   */\n      0x6e6f20706c617965727300000000000000000000000000000000000000000000\n        /* \"#utility.yul\":4714:4715   */\n      0x00\n        /* \"#utility.yul\":4706:4712   */\n      dup3\n        /* \"#utility.yul\":4702:4716   */\n      add\n        /* \"#utility.yul\":4695:4731   */\n      mstore\n        /* \"#utility.yul\":4578:4738   */\n      pop\n      jump\t// out\n        /* \"#utility.yul\":4744:5110   */\n    tag_125:\n        /* \"#utility.yul\":4886:4889   */\n      0x00\n        /* \"#utility.yul\":4907:4974   */\n      tag_185\n        /* \"#utility.yul\":4971:4973   */\n      0x0a\n        /* \"#utility.yul\":4966:4969   */\n      dup4\n        /* \"#utility.yul\":4907:4974   */\n      tag_123\n      jump\t// in\n    tag_185:\n        /* \"#utility.yul\":4900:4974   */\n      swap2\n      pop\n        /* \"#utility.yul\":4983:5076   */\n      tag_186\n        /* \"#utility.yul\":5072:5075   */\n      dup3\n        /* \"#utility.yul\":4983:5076   */\n      tag_124\n      jump\t// in\n    tag_186:\n        /* \"#utility.yul\":5101:5103   */\n      0x20\n        /* \"#utility.yul\":5096:5099   */\n      dup3\n        /* \"#utility.yul\":5092:5104   */\n      add\n        /* \"#utility.yul\":5085:5104   */\n      swap1\n      pop\n        /* \"#utility.yul\":4744:5110   */\n      swap2\n      swap1\n      pop\n      jump\t// out\n        /* \"#utility.yul\":5116:5535   */\n    tag_63:\n        /* \"#utility.yul\":5282:5286   */\n      0x00\n        /* \"#utility.yul\":5320:5322   */\n      0x20\n        /* \"#utility.yul\":5309:5318   */\n      dup3\n        /* \"#utility.yul\":5305:5323   */\n      add\n        /* \"#utility.yul\":5297:5323   */\n      swap1\n      pop\n        /* \"#utility.yul\":5369:5378   */\n      dup2\n        /* \"#utility.yul\":5363:5367   */\n      dup2\n        /* \"#utility.yul\":5359:5379   */\n      sub\n        /* \"#utility.yul\":5355:5356   */\n      0x00\n        /* \"#utility.yul\":5344:5353   */\n      dup4\n        /* \"#utility.yul\":5340:5357   */\n      add\n        /* \"#utility.yul\":5333:5380   */\n      mstore\n        /* \"#utility.yul\":5397:5528   */\n      tag_188\n        /* \"#utility.yul\":5523:5527   */\n      dup2\n        /* \"#utility.yul\":5397:5528   */\n      tag_125\n      jump\t// in\n    tag_188:\n        /* \"#utility.yul\":5389:5528   */\n      swap1\n      pop\n        /* \"#utility.yul\":5116:5535   */\n      swap2\n      swap1\n      pop\n      jump\t// out\n        /* \"#utility.yul\":5541:5700   */\n    tag_126:\n        /* \"#utility.yul\":5681:5692   */\n      0x6261642070726963650000000000000000000000000000000000000000000000\n        /* \"#utility.yul\":5677:5678   */\n      0x00\n        /* \"#utility.yul\":5669:5675   */\n      dup3\n        /* \"#utility.yul\":5665:5679   */\n      add\n        /* \"#utility.yul\":5658:5693   */\n      mstore\n        /* \"#utility.yul\":5541:5700   */\n      pop\n      jump\t// out\n        /* \"#utility.yul\":5706:6071   */\n    tag_127:\n        /* \"#utility.yul\":5848:5851   */\n      0x00\n        /* \"#utility.yul\":5869:5935   */\n      tag_191\n        /* \"#utility.yul\":5933:5934   */\n      0x09\n        /* \"#utility.yul\":5928:5931   */\n      dup4\n        /* \"#utility.yul\":5869:5935   */\n      tag_123\n      jump\t// in\n    tag_191:\n        /* \"#utility.yul\":5862:5935   */\n      swap2\n      pop\n        /* \"#utility.yul\":5944:6037   */\n      tag_192\n        /* \"#utility.yul\":6033:6036   */\n      dup3\n        /* \"#utility.yul\":5944:6037   */\n      tag_126\n      jump\t// in\n    tag_192:\n        /* \"#utility.yul\":6062:6064   */\n      0x20\n        /* \"#utility.yul\":6057:6060   */\n      dup3\n        /* \"#utility.yul\":6053:6065   */\n      add\n        /* \"#utility.yul\":6046:6065   */\n      swap1\n      pop\n        /* \"#utility.yul\":5706:6071   */\n      swap2\n      swap1\n      pop\n      jump\t// out\n        /* \"#utility.yul\":6077:6496   */\n    tag_75:\n        /* \"#utility.yul\":6243:6247   */\n      0x00\n        /* \"#utility.yul\":6281:6283   */\n      0x20\n        /* \"#utility.yul\":6270:6279   */\n      dup3\n        /* \"#utility.yul\":6266:6284   */\n      add\n        /* \"#utility.yul\":6258:6284   */\n      swap1\n      pop\n        /* \"#utility.yul\":6330:6339   */\n      dup2\n        /* \"#utility.yul\":6324:6328   */\n      dup2\n        /* \"#utility.yul\":6320:6340   */\n      sub\n        /* \"#utility.yul\":6316:6317   */\n      0x00\n        /* \"#utility.yul\":6305:6314   */\n      dup4\n        /* \"#utility.yul\":6301:6318   */\n      add\n        /* \"#utility.yul\":6294:6341   */\n      mstore\n        /* \"#utility.yul\":6358:6489   */\n      tag_194\n        /* \"#utility.yul\":6484:6488   */\n      dup2\n        /* \"#utility.yul\":6358:6489   */\n      tag_127\n      jump\t// in\n    tag_194:\n        /* \"#utility.yul\":6350:6489   */\n      swap1\n      pop\n        /* \"#utility.yul\":6077:6496   */\n      swap2\n      swap1\n      pop\n      jump\t// out\n        /* \"#utility.yul\":6502:6666   */\n    tag_128:\n        /* \"#utility.yul\":6642:6658   */\n      0x616c726561647920616374766965000000000000000000000000000000000000\n        /* \"#utility.yul\":6638:6639   */\n      0x00\n        /* \"#utility.yul\":6630:6636   */\n      dup3\n        /* \"#utility.yul\":6626:6640   */\n      add\n        /* \"#utility.yul\":6619:6659   */\n      mstore\n        /* \"#utility.yul\":6502:6666   */\n      pop\n      jump\t// out\n        /* \"#utility.yul\":6672:7038   */\n    tag_129:\n        /* \"#utility.yul\":6814:6817   */\n      0x00\n        /* \"#utility.yul\":6835:6902   */\n      tag_197\n        /* \"#utility.yul\":6899:6901   */\n      0x0e\n        /* \"#utility.yul\":6894:6897   */\n      dup4\n        /* \"#utility.yul\":6835:6902   */\n      tag_123\n      jump\t// in\n    tag_197:\n        /* \"#utility.yul\":6828:6902   */\n      swap2\n      pop\n        /* \"#utility.yul\":6911:7004   */\n      tag_198\n        /* \"#utility.yul\":7000:7003   */\n      dup3\n        /* \"#utility.yul\":6911:7004   */\n      tag_128\n      jump\t// in\n    tag_198:\n        /* \"#utility.yul\":7029:7031   */\n      0x20\n        /* \"#utility.yul\":7024:7027   */\n      dup3\n        /* \"#utility.yul\":7020:7032   */\n      add\n        /* \"#utility.yul\":7013:7032   */\n      swap1\n      pop\n        /* \"#utility.yul\":6672:7038   */\n      swap2\n      swap1\n      pop\n      jump\t// out\n        /* \"#utility.yul\":7044:7463   */\n    tag_87:\n        /* \"#utility.yul\":7210:7214   */\n      0x00\n        /* \"#utility.yul\":7248:7250   */\n      0x20\n        /* \"#utility.yul\":7237:7246   */\n      dup3\n        /* \"#utility.yul\":7233:7251   */\n      add\n        /* \"#utility.yul\":7225:7251   */\n      swap1\n      pop\n        /* \"#utility.yul\":7297:7306   */\n      dup2\n        /* \"#utility.yul\":7291:7295   */\n      dup2\n        /* \"#utility.yul\":7287:7307   */\n      sub\n        /* \"#utility.yul\":7283:7284   */\n      0x00\n        /* \"#utility.yul\":7272:7281   */\n      dup4\n        /* \"#utility.yul\":7268:7285   */\n      add\n        /* \"#utility.yul\":7261:7308   */\n      mstore\n        /* \"#utility.yul\":7325:7456   */\n      tag_200\n        /* \"#utility.yul\":7451:7455   */\n      dup2\n        /* \"#utility.yul\":7325:7456   */\n      tag_129\n      jump\t// in\n    tag_200:\n        /* \"#utility.yul\":7317:7456   */\n      swap1\n      pop\n        /* \"#utility.yul\":7044:7463   */\n      swap2\n      swap1\n      pop\n      jump\t// out\n        /* \"#utility.yul\":7469:7548   */\n    tag_130:\n        /* \"#utility.yul\":7508:7515   */\n      0x00\n        /* \"#utility.yul\":7537:7542   */\n      dup2\n        /* \"#utility.yul\":7526:7542   */\n      swap1\n      pop\n        /* \"#utility.yul\":7469:7548   */\n      swap2\n      swap1\n      pop\n      jump\t// out\n        /* \"#utility.yul\":7554:7711   */\n    tag_131:\n        /* \"#utility.yul\":7659:7704   */\n      tag_203\n        /* \"#utility.yul\":7679:7703   */\n      tag_204\n        /* \"#utility.yul\":7697:7702   */\n      dup3\n        /* \"#utility.yul\":7679:7703   */\n      tag_104\n      jump\t// in\n    tag_204:\n        /* \"#utility.yul\":7659:7704   */\n      tag_130\n      jump\t// in\n    tag_203:\n        /* \"#utility.yul\":7654:7657   */\n      dup3\n        /* \"#utility.yul\":7647:7705   */\n      mstore\n        /* \"#utility.yul\":7554:7711   */\n      pop\n      pop\n      jump\t// out\n        /* \"#utility.yul\":7717:8255   */\n    tag_92:\n        /* \"#utility.yul\":7885:7888   */\n      0x00\n        /* \"#utility.yul\":7900:7975   */\n      tag_206\n        /* \"#utility.yul\":7971:7974   */\n      dup3\n        /* \"#utility.yul\":7962:7968   */\n      dup7\n        /* \"#utility.yul\":7900:7975   */\n      tag_131\n      jump\t// in\n    tag_206:\n        /* \"#utility.yul\":8000:8002   */\n      0x20\n        /* \"#utility.yul\":7995:7998   */\n      dup3\n        /* \"#utility.yul\":7991:8003   */\n      add\n        /* \"#utility.yul\":7984:8003   */\n      swap2\n      pop\n        /* \"#utility.yul\":8013:8088   */\n      tag_207\n        /* \"#utility.yul\":8084:8087   */\n      dup3\n        /* \"#utility.yul\":8075:8081   */\n      dup6\n        /* \"#utility.yul\":8013:8088   */\n      tag_131\n      jump\t// in\n    tag_207:\n        /* \"#utility.yul\":8113:8115   */\n      0x20\n        /* \"#utility.yul\":8108:8111   */\n      dup3\n        /* \"#utility.yul\":8104:8116   */\n      add\n        /* \"#utility.yul\":8097:8116   */\n      swap2\n      pop\n        /* \"#utility.yul\":8126:8201   */\n      tag_208\n        /* \"#utility.yul\":8197:8200   */\n      dup3\n        /* \"#utility.yul\":8188:8194   */\n      dup5\n        /* \"#utility.yul\":8126:8201   */\n      tag_131\n      jump\t// in\n    tag_208:\n        /* \"#utility.yul\":8226:8228   */\n      0x20\n        /* \"#utility.yul\":8221:8224   */\n      dup3\n        /* \"#utility.yul\":8217:8229   */\n      add\n        /* \"#utility.yul\":8210:8229   */\n      swap2\n      pop\n        /* \"#utility.yul\":8246:8249   */\n      dup2\n        /* \"#utility.yul\":8239:8249   */\n      swap1\n      pop\n        /* \"#utility.yul\":7717:8255   */\n      swap5\n      swap4\n      pop\n      pop\n      pop\n      pop\n      jump\t// out\n        /* \"#utility.yul\":8261:8441   */\n    tag_132:\n        /* \"#utility.yul\":8309:8386   */\n      0x4e487b7100000000000000000000000000000000000000000000000000000000\n        /* \"#utility.yul\":8306:8307   */\n      0x00\n        /* \"#utility.yul\":8299:8387   */\n      mstore\n        /* \"#utility.yul\":8406:8410   */\n      0x12\n        /* \"#utility.yul\":8403:8404   */\n      0x04\n        /* \"#utility.yul\":8396:8411   */\n      mstore\n        /* \"#utility.yul\":8430:8434   */\n      0x24\n        /* \"#utility.yul\":8427:8428   */\n      0x00\n        /* \"#utility.yul\":8420:8435   */\n      revert\n        /* \"#utility.yul\":8447:8623   */\n    tag_94:\n        /* \"#utility.yul\":8479:8480   */\n      0x00\n        /* \"#utility.yul\":8496:8516   */\n      tag_211\n        /* \"#utility.yul\":8514:8515   */\n      dup3\n        /* \"#utility.yul\":8496:8516   */\n      tag_104\n      jump\t// in\n    tag_211:\n        /* \"#utility.yul\":8491:8516   */\n      swap2\n      pop\n        /* \"#utility.yul\":8530:8550   */\n      tag_212\n        /* \"#utility.yul\":8548:8549   */\n      dup4\n        /* \"#utility.yul\":8530:8550   */\n      tag_104\n      jump\t// in\n    tag_212:\n        /* \"#utility.yul\":8525:8550   */\n      swap3\n      pop\n        /* \"#utility.yul\":8569:8570   */\n      dup3\n        /* \"#utility.yul\":8559:8594   */\n      tag_213\n      jumpi\n        /* \"#utility.yul\":8574:8592   */\n      tag_214\n      tag_132\n      jump\t// in\n    tag_214:\n        /* \"#utility.yul\":8559:8594   */\n    tag_213:\n        /* \"#utility.yul\":8615:8616   */\n      dup3\n        /* \"#utility.yul\":8612:8613   */\n      dup3\n        /* \"#utility.yul\":8608:8617   */\n      mod\n        /* \"#utility.yul\":8603:8617   */\n      swap1\n      pop\n        /* \"#utility.yul\":8447:8623   */\n      swap3\n      swap2\n      pop\n      pop\n      jump\t// out\n        /* \"#utility.yul\":8629:8809   */\n    tag_97:\n        /* \"#utility.yul\":8677:8754   */\n      0x4e487b7100000000000000000000000000000000000000000000000000000000\n        /* \"#utility.yul\":8674:8675   */\n      0x00\n        /* \"#utility.yul\":8667:8755   */\n      mstore\n        /* \"#utility.yul\":8774:8778   */\n      0x32\n        /* \"#utility.yul\":8771:8772   */\n      0x04\n        /* \"#utility.yul\":8764:8779   */\n      mstore\n        /* \"#utility.yul\":8798:8802   */\n      0x24\n        /* \"#utility.yul\":8795:8796   */\n      0x00\n        /* \"#utility.yul\":8788:8803   */\n      revert\n\n    auxdata: 0xa264697066735822122074d1e98708af49e72b24155a98bfcdb2fbe3003bb4161e701e4f0bf4f4ea354464736f6c634300081a0033\n}\n",
				"bytecode": {
					"linkReferences": {},
					"object": "608060405234801561000f575f80fd5b50604051610cac380380610cac833981810160405281019061003191906100ce565b335f806101000a81548173ffffffffffffffffffffffffffffffffffffffff021916908373ffffffffffffffffffffffffffffffffffffffff16021790555080600281905550600160035f6101000a81548160ff021916908315150217905550506100f9565b5f80fd5b5f819050919050565b6100ad8161009b565b81146100b7575f80fd5b50565b5f815190506100c8816100a4565b92915050565b5f602082840312156100e3576100e2610097565b5b5f6100f0848285016100ba565b91505092915050565b610ba6806101065f395ff3fe608060405260043610610090575f3560e01c80635aa68ac0116100585780635aa68ac0146101445780638da5cb5b1461016e578063dfbf53ae14610198578063e3ac5d26146101c2578063fe2f66d4146101ec57610090565b806312065fe0146100945780631593a8c7146100be57806322f3e2d4146100d457806335c1d349146100fe57806336d5849e1461013a575b5f80fd5b34801561009f575f80fd5b506100a8610202565b6040516100b5919061076e565b60405180910390f35b3480156100c9575f80fd5b506100d2610209565b005b3480156100df575f80fd5b506100e8610386565b6040516100f591906107a1565b60405180910390f35b348015610109575f80fd5b50610124600480360381019061011f91906107e8565b610398565b6040516101319190610852565b60405180910390f35b6101426103d3565b005b34801561014f575f80fd5b50610158610490565b6040516101659190610922565b60405180910390f35b348015610179575f80fd5b5061018261051b565b60405161018f9190610852565b60405180910390f35b3480156101a3575f80fd5b506101ac61053e565b6040516101b99190610852565b60405180910390f35b3480156101cd575f80fd5b506101d6610564565b6040516101e3919061076e565b60405180910390f35b3480156101f7575f80fd5b5061020061056a565b005b5f47905090565b5f8054906101000a900473ffffffffffffffffffffffffffffffffffffffff1673ffffffffffffffffffffffffffffffffffffffff163373ffffffffffffffffffffffffffffffffffffffff161461025f575f80fd5b60035f9054906101000a900460ff16610276575f80fd5b5f600180549050116102bd576040517f08c379a00000000000000000000000000000000000000000000000000000000081526004016102b49061099c565b60405180910390fd5b5f60035f6101000a81548160ff0219169083151502179055506102de610690565b600360016101000a81548173ffffffffffffffffffffffffffffffffffffffff021916908373ffffffffffffffffffffffffffffffffffffffff160217905550600360019054906101000a900473ffffffffffffffffffffffffffffffffffffffff1673ffffffffffffffffffffffffffffffffffffffff166108fc4790811502906040515f60405180830381858888f19350505050158015610383573d5f803e3d5ffd5b50565b60035f9054906101000a900460ff1681565b600181815481106103a7575f80fd5b905f5260205f20015f915054906101000a900473ffffffffffffffffffffffffffffffffffffffff1681565b60035f9054906101000a900460ff166103ea575f80fd5b600254340361042e576040517f08c379a000000000000000000000000000000000000000000000000000000000815260040161042590610a04565b60405180910390fd5b600133908060018154018082558091505060019003905f5260205f20015f9091909190916101000a81548173ffffffffffffffffffffffffffffffffffffffff021916908373ffffffffffffffffffffffffffffffffffffffff160217905550565b6060600180548060200260200160405190810160405280929190818152602001828054801561051157602002820191905f5260205f20905b815f9054906101000a900473ffffffffffffffffffffffffffffffffffffffff1673ffffffffffffffffffffffffffffffffffffffff16815260200190600101908083116104c8575b5050505050905090565b5f8054906101000a900473ffffffffffffffffffffffffffffffffffffffff1681565b600360019054906101000a900473ffffffffffffffffffffffffffffffffffffffff1681565b60025481565b5f8054906101000a900473ffffffffffffffffffffffffffffffffffffffff1673ffffffffffffffffffffffffffffffffffffffff163373ffffffffffffffffffffffffffffffffffffffff16146105c0575f80fd5b60035f9054906101000a900460ff166105d7575f80fd5b60035f9054906101000a900460ff1615610626576040517f08c379a000000000000000000000000000000000000000000000000000000000815260040161061d90610a6c565b60405180910390fd5b600160035f6101000a81548160ff02191690831515021790555060015f61064d919061071d565b5f600360016101000a81548173ffffffffffffffffffffffffffffffffffffffff021916908373ffffffffffffffffffffffffffffffffffffffff160217905550565b5f8042446001805490506040516020016106ac93929190610aaa565b604051602081830303815290604052805190602001205f1c90505f600180549050826106d89190610b13565b9050600181815481106106ee576106ed610b43565b5b905f5260205f20015f9054906101000a900473ffffffffffffffffffffffffffffffffffffffff169250505090565b5080545f8255905f5260205f2090810190610738919061073b565b50565b5b80821115610752575f815f90555060010161073c565b5090565b5f819050919050565b61076881610756565b82525050565b5f6020820190506107815f83018461075f565b92915050565b5f8115159050919050565b61079b81610787565b82525050565b5f6020820190506107b45f830184610792565b92915050565b5f80fd5b6107c781610756565b81146107d1575f80fd5b50565b5f813590506107e2816107be565b92915050565b5f602082840312156107fd576107fc6107ba565b5b5f61080a848285016107d4565b91505092915050565b5f73ffffffffffffffffffffffffffffffffffffffff82169050919050565b5f61083c82610813565b9050919050565b61084c81610832565b82525050565b5f6020820190506108655f830184610843565b92915050565b5f81519050919050565b5f82825260208201905092915050565b5f819050602082019050919050565b61089d81610832565b82525050565b5f6108ae8383610894565b60208301905092915050565b5f602082019050919050565b5f6108d08261086b565b6108da8185610875565b93506108e583610885565b805f5b838110156109155781516108fc88826108a3565b9750610907836108ba565b9250506001810190506108e8565b5085935050505092915050565b5f6020820190508181035f83015261093a81846108c6565b905092915050565b5f82825260208201905092915050565b7f6e6f20706c6179657273000000000000000000000000000000000000000000005f82015250565b5f610986600a83610942565b915061099182610952565b602082019050919050565b5f6020820190508181035f8301526109b38161097a565b9050919050565b7f62616420707269636500000000000000000000000000000000000000000000005f82015250565b5f6109ee600983610942565b91506109f9826109ba565b602082019050919050565b5f6020820190508181035f830152610a1b816109e2565b9050919050565b7f616c7265616479206163747669650000000000000000000000000000000000005f82015250565b5f610a56600e83610942565b9150610a6182610a22565b602082019050919050565b5f6020820190508181035f830152610a8381610a4a565b9050919050565b5f819050919050565b610aa4610a9f82610756565b610a8a565b82525050565b5f610ab58286610a93565b602082019150610ac58285610a93565b602082019150610ad58284610a93565b602082019150819050949350505050565b7f4e487b71000000000000000000000000000000000000000000000000000000005f52601260045260245ffd5b5f610b1d82610756565b9150610b2883610756565b925082610b3857610b37610ae6565b5b828206905092915050565b7f4e487b71000000000000000000000000000000000000000000000000000000005f52603260045260245ffdfea264697066735822122074d1e98708af49e72b24155a98bfcdb2fbe3003bb4161e701e4f0bf4f4ea354464736f6c634300081a0033",
					"opcodes": "PUSH1 0x80 PUSH1 0x40 MSTORE CALLVALUE DUP1 ISZERO PUSH2 0xF JUMPI PUSH0 DUP1 REVERT JUMPDEST POP PUSH1 0x40 MLOAD PUSH2 0xCAC CODESIZE SUB DUP1 PUSH2 0xCAC DUP4 CODECOPY DUP2 DUP2 ADD PUSH1 0x40 MSTORE DUP2 ADD SWAP1 PUSH2 0x31 SWAP2 SWAP1 PUSH2 0xCE JUMP JUMPDEST CALLER PUSH0 DUP1 PUSH2 0x100 EXP DUP2 SLOAD DUP2 PUSH20 0xFFFFFFFFFFFFFFFFFFFFFFFFFFFFFFFFFFFFFFFF MUL NOT AND SWAP1 DUP4 PUSH20 0xFFFFFFFFFFFFFFFFFFFFFFFFFFFFFFFFFFFFFFFF AND MUL OR SWAP1 SSTORE POP DUP1 PUSH1 0x2 DUP2 SWAP1 SSTORE POP PUSH1 0x1 PUSH1 0x3 PUSH0 PUSH2 0x100 EXP DUP2 SLOAD DUP2 PUSH1 0xFF MUL NOT AND SWAP1 DUP4 ISZERO ISZERO MUL OR SWAP1 SSTORE POP POP PUSH2 0xF9 JUMP JUMPDEST PUSH0 DUP1 REVERT JUMPDEST PUSH0 DUP2 SWAP1 POP SWAP2 SWAP1 POP JUMP JUMPDEST PUSH2 0xAD DUP2 PUSH2 0x9B JUMP JUMPDEST DUP2 EQ PUSH2 0xB7 JUMPI PUSH0 DUP1 REVERT JUMPDEST POP JUMP JUMPDEST PUSH0 DUP2 MLOAD SWAP1 POP PUSH2 0xC8 DUP2 PUSH2 0xA4 JUMP JUMPDEST SWAP3 SWAP2 POP POP JUMP JUMPDEST PUSH0 PUSH1 0x20 DUP3 DUP5 SUB SLT ISZERO PUSH2 0xE3 JUMPI PUSH2 0xE2 PUSH2 0x97 JUMP JUMPDEST JUMPDEST PUSH0 PUSH2 0xF0 DUP5 DUP3 DUP6 ADD PUSH2 0xBA JUMP JUMPDEST SWAP2 POP POP SWAP3 SWAP2 POP POP JUMP JUMPDEST PUSH2 0xBA6 DUP1 PUSH2 0x106 PUSH0 CODECOPY PUSH0 RETURN INVALID PUSH1 0x80 PUSH1 0x40 MSTORE PUSH1 0x4 CALLDATASIZE LT PUSH2 0x90 JUMPI PUSH0 CALLDATALOAD PUSH1 0xE0 SHR DUP1 PUSH4 0x5AA68AC0 GT PUSH2 0x58 JUMPI DUP1 PUSH4 0x5AA68AC0 EQ PUSH2 0x144 JUMPI DUP1 PUSH4 0x8DA5CB5B EQ PUSH2 0x16E JUMPI DUP1 PUSH4 0xDFBF53AE EQ PUSH2 0x198 JUMPI DUP1 PUSH4 0xE3AC5D26 EQ PUSH2 0x1C2 JUMPI DUP1 PUSH4 0xFE2F66D4 EQ PUSH2 0x1EC JUMPI PUSH2 0x90 JUMP JUMPDEST DUP1 PUSH4 0x12065FE0 EQ PUSH2 0x94 JUMPI DUP1 PUSH4 0x1593A8C7 EQ PUSH2 0xBE JUMPI DUP1 PUSH4 0x22F3E2D4 EQ PUSH2 0xD4 JUMPI DUP1 PUSH4 0x35C1D349 EQ PUSH2 0xFE JUMPI DUP1 PUSH4 0x36D5849E EQ PUSH2 0x13A JUMPI JUMPDEST PUSH0 DUP1 REVERT JUMPDEST CALLVALUE DUP1 ISZERO PUSH2 0x9F JUMPI PUSH0 DUP1 REVERT JUMPDEST POP PUSH2 0xA8 PUSH2 0x202 JUMP JUMPDEST PUSH1 0x40 MLOAD PUSH2 0xB5 SWAP2 SWAP1 PUSH2 0x76E JUMP JUMPDEST PUSH1 0x40 MLOAD DUP1 SWAP2 SUB SWAP1 RETURN JUMPDEST CALLVALUE DUP1 ISZERO PUSH2 0xC9 JUMPI PUSH0 DUP1 REVERT JUMPDEST POP PUSH2 0xD2 PUSH2 0x209 JUMP JUMPDEST STOP JUMPDEST CALLVALUE DUP1 ISZERO PUSH2 0xDF JUMPI PUSH0 DUP1 REVERT JUMPDEST POP PUSH2 0xE8 PUSH2 0x386 JUMP JUMPDEST PUSH1 0x40 MLOAD PUSH2 0xF5 SWAP2 SWAP1 PUSH2 0x7A1 JUMP JUMPDEST PUSH1 0x40 MLOAD DUP1 SWAP2 SUB SWAP1 RETURN JUMPDEST CALLVALUE DUP1 ISZERO PUSH2 0x109 JUMPI PUSH0 DUP1 REVERT JUMPDEST POP PUSH2 0x124 PUSH1 0x4 DUP1 CALLDATASIZE SUB DUP2 ADD SWAP1 PUSH2 0x11F SWAP2 SWAP1 PUSH2 0x7E8 JUMP JUMPDEST PUSH2 0x398 JUMP JUMPDEST PUSH1 0x40 MLOAD PUSH2 0x131 SWAP2 SWAP1 PUSH2 0x852 JUMP JUMPDEST PUSH1 0x40 MLOAD DUP1 SWAP2 SUB SWAP1 RETURN JUMPDEST PUSH2 0x142 PUSH2 0x3D3 JUMP JUMPDEST STOP JUMPDEST CALLVALUE DUP1 ISZERO PUSH2 0x14F JUMPI PUSH0 DUP1 REVERT JUMPDEST POP PUSH2 0x158 PUSH2 0x490 JUMP JUMPDEST PUSH1 0x40 MLOAD PUSH2 0x165 SWAP2 SWAP1 PUSH2 0x922 JUMP JUMPDEST PUSH1 0x40 MLOAD DUP1 SWAP2 SUB SWAP1 RETURN JUMPDEST CALLVALUE DUP1 ISZERO PUSH2 0x179 JUMPI PUSH0 DUP1 REVERT JUMPDEST POP PUSH2 0x182 PUSH2 0x51B JUMP JUMPDEST PUSH1 0x40 MLOAD PUSH2 0x18F SWAP2 SWAP1 PUSH2 0x852 JUMP JUMPDEST PUSH1 0x40 MLOAD DUP1 SWAP2 SUB SWAP1 RETURN JUMPDEST CALLVALUE DUP1 ISZERO PUSH2 0x1A3 JUMPI PUSH0 DUP1 REVERT JUMPDEST POP PUSH2 0x1AC PUSH2 0x53E JUMP JUMPDEST PUSH1 0x40 MLOAD PUSH2 0x1B9 SWAP2 SWAP1 PUSH2 0x852 JUMP JUMPDEST PUSH1 0x40 MLOAD DUP1 SWAP2 SUB SWAP1 RETURN JUMPDEST CALLVALUE DUP1 ISZERO PUSH2 0x1CD JUMPI PUSH0 DUP1 REVERT JUMPDEST POP PUSH2 0x1D6 PUSH2 0x564 JUMP JUMPDEST PUSH1 0x40 MLOAD PUSH2 0x1E3 SWAP2 SWAP1 PUSH2 0x76E JUMP JUMPDEST PUSH1 0x40 MLOAD DUP1 SWAP2 SUB SWAP1 RETURN JUMPDEST CALLVALUE DUP1 ISZERO PUSH2 0x1F7 JUMPI PUSH0 DUP1 REVERT JUMPDEST POP PUSH2 0x200 PUSH2 0x56A JUMP JUMPDEST STOP JUMPDEST PUSH0 SELFBALANCE SWAP1 POP SWAP1 JUMP JUMPDEST PUSH0 DUP1 SLOAD SWAP1 PUSH2 0x100 EXP SWAP1 DIV PUSH20 0xFFFFFFFFFFFFFFFFFFFFFFFFFFFFFFFFFFFFFFFF AND PUSH20 0xFFFFFFFFFFFFFFFFFFFFFFFFFFFFFFFFFFFFFFFF AND CALLER PUSH20 0xFFFFFFFFFFFFFFFFFFFFFFFFFFFFFFFFFFFFFFFF AND EQ PUSH2 0x25F JUMPI PUSH0 DUP1 REVERT JUMPDEST PUSH1 0x3 PUSH0 SWAP1 SLOAD SWAP1 PUSH2 0x100 EXP SWAP1 DIV PUSH1 0xFF AND PUSH2 0x276 JUMPI PUSH0 DUP1 REVERT JUMPDEST PUSH0 PUSH1 0x1 DUP1 SLOAD SWAP1 POP GT PUSH2 0x2BD JUMPI PUSH1 0x40 MLOAD PUSH32 0x8C379A000000000000000000000000000000000000000000000000000000000 DUP2 MSTORE PUSH1 0x4 ADD PUSH2 0x2B4 SWAP1 PUSH2 0x99C JUMP JUMPDEST PUSH1 0x40 MLOAD DUP1 SWAP2 SUB SWAP1 REVERT JUMPDEST PUSH0 PUSH1 0x3 PUSH0 PUSH2 0x100 EXP DUP2 SLOAD DUP2 PUSH1 0xFF MUL NOT AND SWAP1 DUP4 ISZERO ISZERO MUL OR SWAP1 SSTORE POP PUSH2 0x2DE PUSH2 0x690 JUMP JUMPDEST PUSH1 0x3 PUSH1 0x1 PUSH2 0x100 EXP DUP2 SLOAD DUP2 PUSH20 0xFFFFFFFFFFFFFFFFFFFFFFFFFFFFFFFFFFFFFFFF MUL NOT AND SWAP1 DUP4 PUSH20 0xFFFFFFFFFFFFFFFFFFFFFFFFFFFFFFFFFFFFFFFF AND MUL OR SWAP1 SSTORE POP PUSH1 0x3 PUSH1 0x1 SWAP1 SLOAD SWAP1 PUSH2 0x100 EXP SWAP1 DIV PUSH20 0xFFFFFFFFFFFFFFFFFFFFFFFFFFFFFFFFFFFFFFFF AND PUSH20 0xFFFFFFFFFFFFFFFFFFFFFFFFFFFFFFFFFFFFFFFF AND PUSH2 0x8FC SELFBALANCE SWAP1 DUP2 ISZERO MUL SWAP1 PUSH1 0x40 MLOAD PUSH0 PUSH1 0x40 MLOAD DUP1 DUP4 SUB DUP2 DUP6 DUP9 DUP9 CALL SWAP4 POP POP POP POP ISZERO DUP1 ISZERO PUSH2 0x383 JUMPI RETURNDATASIZE PUSH0 DUP1 RETURNDATACOPY RETURNDATASIZE PUSH0 REVERT JUMPDEST POP JUMP JUMPDEST PUSH1 0x3 PUSH0 SWAP1 SLOAD SWAP1 PUSH2 0x100 EXP SWAP1 DIV PUSH1 0xFF AND DUP2 JUMP JUMPDEST PUSH1 0x1 DUP2 DUP2 SLOAD DUP2 LT PUSH2 0x3A7 JUMPI PUSH0 DUP1 REVERT JUMPDEST SWAP1 PUSH0 MSTORE PUSH1 0x20 PUSH0 KECCAK256 ADD PUSH0 SWAP2 POP SLOAD SWAP1 PUSH2 0x100 EXP SWAP1 DIV PUSH20 0xFFFFFFFFFFFFFFFFFFFFFFFFFFFFFFFFFFFFFFFF AND DUP2 JUMP JUMPDEST PUSH1 0x3 PUSH0 SWAP1 SLOAD SWAP1 PUSH2 0x100 EXP SWAP1 DIV PUSH1 0xFF AND PUSH2 0x3EA JUMPI PUSH0 DUP1 REVERT JUMPDEST PUSH1 0x2 SLOAD CALLVALUE SUB PUSH2 0x42E JUMPI PUSH1 0x40 MLOAD PUSH32 0x8C379A000000000000000000000000000000000000000000000000000000000 DUP2 MSTORE PUSH1 0x4 ADD PUSH2 0x425 SWAP1 PUSH2 0xA04 JUMP JUMPDEST PUSH1 0x40 MLOAD DUP1 SWAP2 SUB SWAP1 REVERT JUMPDEST PUSH1 0x1 CALLER SWAP1 DUP1 PUSH1 0x1 DUP2 SLOAD ADD DUP1 DUP3 SSTORE DUP1 SWAP2 POP POP PUSH1 0x1 SWAP1 SUB SWAP1 PUSH0 MSTORE PUSH1 0x20 PUSH0 KECCAK256 ADD PUSH0 SWAP1 SWAP2 SWAP1 SWAP2 SWAP1 SWAP2 PUSH2 0x100 EXP DUP2 SLOAD DUP2 PUSH20 0xFFFFFFFFFFFFFFFFFFFFFFFFFFFFFFFFFFFFFFFF MUL NOT AND SWAP1 DUP4 PUSH20 0xFFFFFFFFFFFFFFFFFFFFFFFFFFFFFFFFFFFFFFFF AND MUL OR SWAP1 SSTORE POP JUMP JUMPDEST PUSH1 0x60 PUSH1 0x1 DUP1 SLOAD DUP1 PUSH1 0x20 MUL PUSH1 0x20 ADD PUSH1 0x40 MLOAD SWAP1 DUP2 ADD PUSH1 0x40 MSTORE DUP1 SWAP3 SWAP2 SWAP1 DUP2 DUP2 MSTORE PUSH1 0x20 ADD DUP3 DUP1 SLOAD DUP1 ISZERO PUSH2 0x511 JUMPI PUSH1 0x20 MUL DUP3 ADD SWAP2 SWAP1 PUSH0 MSTORE PUSH1 0x20 PUSH0 KECCAK256 SWAP1 JUMPDEST DUP2 PUSH0 SWAP1 SLOAD SWAP1 PUSH2 0x100 EXP SWAP1 DIV PUSH20 0xFFFFFFFFFFFFFFFFFFFFFFFFFFFFFFFFFFFFFFFF AND PUSH20 0xFFFFFFFFFFFFFFFFFFFFFFFFFFFFFFFFFFFFFFFF AND DUP2 MSTORE PUSH1 0x20 ADD SWAP1 PUSH1 0x1 ADD SWAP1 DUP1 DUP4 GT PUSH2 0x4C8 JUMPI JUMPDEST POP POP POP POP POP SWAP1 POP SWAP1 JUMP JUMPDEST PUSH0 DUP1 SLOAD SWAP1 PUSH2 0x100 EXP SWAP1 DIV PUSH20 0xFFFFFFFFFFFFFFFFFFFFFFFFFFFFFFFFFFFFFFFF AND DUP2 JUMP JUMPDEST PUSH1 0x3 PUSH1 0x1 SWAP1 SLOAD SWAP1 PUSH2 0x100 EXP SWAP1 DIV PUSH20 0xFFFFFFFFFFFFFFFFFFFFFFFFFFFFFFFFFFFFFFFF AND DUP2 JUMP JUMPDEST PUSH1 0x2 SLOAD DUP2 JUMP JUMPDEST PUSH0 DUP1 SLOAD SWAP1 PUSH2 0x100 EXP SWAP1 DIV PUSH20 0xFFFFFFFFFFFFFFFFFFFFFFFFFFFFFFFFFFFFFFFF AND PUSH20 0xFFFFFFFFFFFFFFFFFFFFFFFFFFFFFFFFFFFFFFFF AND CALLER PUSH20 0xFFFFFFFFFFFFFFFFFFFFFFFFFFFFFFFFFFFFFFFF AND EQ PUSH2 0x5C0 JUMPI PUSH0 DUP1 REVERT JUMPDEST PUSH1 0x3 PUSH0 SWAP1 SLOAD SWAP1 PUSH2 0x100 EXP SWAP1 DIV PUSH1 0xFF AND PUSH2 0x5D7 JUMPI PUSH0 DUP1 REVERT JUMPDEST PUSH1 0x3 PUSH0 SWAP1 SLOAD SWAP1 PUSH2 0x100 EXP SWAP1 DIV PUSH1 0xFF AND ISZERO PUSH2 0x626 JUMPI PUSH1 0x40 MLOAD PUSH32 0x8C379A000000000000000000000000000000000000000000000000000000000 DUP2 MSTORE PUSH1 0x4 ADD PUSH2 0x61D SWAP1 PUSH2 0xA6C JUMP JUMPDEST PUSH1 0x40 MLOAD DUP1 SWAP2 SUB SWAP1 REVERT JUMPDEST PUSH1 0x1 PUSH1 0x3 PUSH0 PUSH2 0x100 EXP DUP2 SLOAD DUP2 PUSH1 0xFF MUL NOT AND SWAP1 DUP4 ISZERO ISZERO MUL OR SWAP1 SSTORE POP PUSH1 0x1 PUSH0 PUSH2 0x64D SWAP2 SWAP1 PUSH2 0x71D JUMP JUMPDEST PUSH0 PUSH1 0x3 PUSH1 0x1 PUSH2 0x100 EXP DUP2 SLOAD DUP2 PUSH20 0xFFFFFFFFFFFFFFFFFFFFFFFFFFFFFFFFFFFFFFFF MUL NOT AND SWAP1 DUP4 PUSH20 0xFFFFFFFFFFFFFFFFFFFFFFFFFFFFFFFFFFFFFFFF AND MUL OR SWAP1 SSTORE POP JUMP JUMPDEST PUSH0 DUP1 TIMESTAMP PREVRANDAO PUSH1 0x1 DUP1 SLOAD SWAP1 POP PUSH1 0x40 MLOAD PUSH1 0x20 ADD PUSH2 0x6AC SWAP4 SWAP3 SWAP2 SWAP1 PUSH2 0xAAA JUMP JUMPDEST PUSH1 0x40 MLOAD PUSH1 0x20 DUP2 DUP4 SUB SUB DUP2 MSTORE SWAP1 PUSH1 0x40 MSTORE DUP1 MLOAD SWAP1 PUSH1 0x20 ADD KECCAK256 PUSH0 SHR SWAP1 POP PUSH0 PUSH1 0x1 DUP1 SLOAD SWAP1 POP DUP3 PUSH2 0x6D8 SWAP2 SWAP1 PUSH2 0xB13 JUMP JUMPDEST SWAP1 POP PUSH1 0x1 DUP2 DUP2 SLOAD DUP2 LT PUSH2 0x6EE JUMPI PUSH2 0x6ED PUSH2 0xB43 JUMP JUMPDEST JUMPDEST SWAP1 PUSH0 MSTORE PUSH1 0x20 PUSH0 KECCAK256 ADD PUSH0 SWAP1 SLOAD SWAP1 PUSH2 0x100 EXP SWAP1 DIV PUSH20 0xFFFFFFFFFFFFFFFFFFFFFFFFFFFFFFFFFFFFFFFF AND SWAP3 POP POP POP SWAP1 JUMP JUMPDEST POP DUP1 SLOAD PUSH0 DUP3 SSTORE SWAP1 PUSH0 MSTORE PUSH1 0x20 PUSH0 KECCAK256 SWAP1 DUP2 ADD SWAP1 PUSH2 0x738 SWAP2 SWAP1 PUSH2 0x73B JUMP JUMPDEST POP JUMP JUMPDEST JUMPDEST DUP1 DUP3 GT ISZERO PUSH2 0x752 JUMPI PUSH0 DUP2 PUSH0 SWAP1 SSTORE POP PUSH1 0x1 ADD PUSH2 0x73C JUMP JUMPDEST POP SWAP1 JUMP JUMPDEST PUSH0 DUP2 SWAP1 POP SWAP2 SWAP1 POP JUMP JUMPDEST PUSH2 0x768 DUP2 PUSH2 0x756 JUMP JUMPDEST DUP3 MSTORE POP POP JUMP JUMPDEST PUSH0 PUSH1 0x20 DUP3 ADD SWAP1 POP PUSH2 0x781 PUSH0 DUP4 ADD DUP5 PUSH2 0x75F JUMP JUMPDEST SWAP3 SWAP2 POP POP JUMP JUMPDEST PUSH0 DUP2 ISZERO ISZERO SWAP1 POP SWAP2 SWAP1 POP JUMP JUMPDEST PUSH2 0x79B DUP2 PUSH2 0x787 JUMP JUMPDEST DUP3 MSTORE POP POP JUMP JUMPDEST PUSH0 PUSH1 0x20 DUP3 ADD SWAP1 POP PUSH2 0x7B4 PUSH0 DUP4 ADD DUP5 PUSH2 0x792 JUMP JUMPDEST SWAP3 SWAP2 POP POP JUMP JUMPDEST PUSH0 DUP1 REVERT JUMPDEST PUSH2 0x7C7 DUP2 PUSH2 0x756 JUMP JUMPDEST DUP2 EQ PUSH2 0x7D1 JUMPI PUSH0 DUP1 REVERT JUMPDEST POP JUMP JUMPDEST PUSH0 DUP2 CALLDATALOAD SWAP1 POP PUSH2 0x7E2 DUP2 PUSH2 0x7BE JUMP JUMPDEST SWAP3 SWAP2 POP POP JUMP JUMPDEST PUSH0 PUSH1 0x20 DUP3 DUP5 SUB SLT ISZERO PUSH2 0x7FD JUMPI PUSH2 0x7FC PUSH2 0x7BA JUMP JUMPDEST JUMPDEST PUSH0 PUSH2 0x80A DUP5 DUP3 DUP6 ADD PUSH2 0x7D4 JUMP JUMPDEST SWAP2 POP POP SWAP3 SWAP2 POP POP JUMP JUMPDEST PUSH0 PUSH20 0xFFFFFFFFFFFFFFFFFFFFFFFFFFFFFFFFFFFFFFFF DUP3 AND SWAP1 POP SWAP2 SWAP1 POP JUMP JUMPDEST PUSH0 PUSH2 0x83C DUP3 PUSH2 0x813 JUMP JUMPDEST SWAP1 POP SWAP2 SWAP1 POP JUMP JUMPDEST PUSH2 0x84C DUP2 PUSH2 0x832 JUMP JUMPDEST DUP3 MSTORE POP POP JUMP JUMPDEST PUSH0 PUSH1 0x20 DUP3 ADD SWAP1 POP PUSH2 0x865 PUSH0 DUP4 ADD DUP5 PUSH2 0x843 JUMP JUMPDEST SWAP3 SWAP2 POP POP JUMP JUMPDEST PUSH0 DUP2 MLOAD SWAP1 POP SWAP2 SWAP1 POP JUMP JUMPDEST PUSH0 DUP3 DUP3 MSTORE PUSH1 0x20 DUP3 ADD SWAP1 POP SWAP3 SWAP2 POP POP JUMP JUMPDEST PUSH0 DUP2 SWAP1 POP PUSH1 0x20 DUP3 ADD SWAP1 POP SWAP2 SWAP1 POP JUMP JUMPDEST PUSH2 0x89D DUP2 PUSH2 0x832 JUMP JUMPDEST DUP3 MSTORE POP POP JUMP JUMPDEST PUSH0 PUSH2 0x8AE DUP4 DUP4 PUSH2 0x894 JUMP JUMPDEST PUSH1 0x20 DUP4 ADD SWAP1 POP SWAP3 SWAP2 POP POP JUMP JUMPDEST PUSH0 PUSH1 0x20 DUP3 ADD SWAP1 POP SWAP2 SWAP1 POP JUMP JUMPDEST PUSH0 PUSH2 0x8D0 DUP3 PUSH2 0x86B JUMP JUMPDEST PUSH2 0x8DA DUP2 DUP6 PUSH2 0x875 JUMP JUMPDEST SWAP4 POP PUSH2 0x8E5 DUP4 PUSH2 0x885 JUMP JUMPDEST DUP1 PUSH0 JUMPDEST DUP4 DUP2 LT ISZERO PUSH2 0x915 JUMPI DUP2 MLOAD PUSH2 0x8FC DUP9 DUP3 PUSH2 0x8A3 JUMP JUMPDEST SWAP8 POP PUSH2 0x907 DUP4 PUSH2 0x8BA JUMP JUMPDEST SWAP3 POP POP PUSH1 0x1 DUP2 ADD SWAP1 POP PUSH2 0x8E8 JUMP JUMPDEST POP DUP6 SWAP4 POP POP POP POP SWAP3 SWAP2 POP POP JUMP JUMPDEST PUSH0 PUSH1 0x20 DUP3 ADD SWAP1 POP DUP2 DUP2 SUB PUSH0 DUP4 ADD MSTORE PUSH2 0x93A DUP2 DUP5 PUSH2 0x8C6 JUMP JUMPDEST SWAP1 POP SWAP3 SWAP2 POP POP JUMP JUMPDEST PUSH0 DUP3 DUP3 MSTORE PUSH1 0x20 DUP3 ADD SWAP1 POP SWAP3 SWAP2 POP POP JUMP JUMPDEST PUSH32 0x6E6F20706C617965727300000000000000000000000000000000000000000000 PUSH0 DUP3 ADD MSTORE POP JUMP JUMPDEST PUSH0 PUSH2 0x986 PUSH1 0xA DUP4 PUSH2 0x942 JUMP JUMPDEST SWAP2 POP PUSH2 0x991 DUP3 PUSH2 0x952 JUMP JUMPDEST PUSH1 0x20 DUP3 ADD SWAP1 POP SWAP2 SWAP1 POP JUMP JUMPDEST PUSH0 PUSH1 0x20 DUP3 ADD SWAP1 POP DUP2 DUP2 SUB PUSH0 DUP4 ADD MSTORE PUSH2 0x9B3 DUP2 PUSH2 0x97A JUMP JUMPDEST SWAP1 POP SWAP2 SWAP1 POP JUMP JUMPDEST PUSH32 0x6261642070726963650000000000000000000000000000000000000000000000 PUSH0 DUP3 ADD MSTORE POP JUMP JUMPDEST PUSH0 PUSH2 0x9EE PUSH1 0x9 DUP4 PUSH2 0x942 JUMP JUMPDEST SWAP2 POP PUSH2 0x9F9 DUP3 PUSH2 0x9BA JUMP JUMPDEST PUSH1 0x20 DUP3 ADD SWAP1 POP SWAP2 SWAP1 POP JUMP JUMPDEST PUSH0 PUSH1 0x20 DUP3 ADD SWAP1 POP DUP2 DUP2 SUB PUSH0 DUP4 ADD MSTORE PUSH2 0xA1B DUP2 PUSH2 0x9E2 JUMP JUMPDEST SWAP1 POP SWAP2 SWAP1 POP JUMP JUMPDEST PUSH32 0x616C726561647920616374766965000000000000000000000000000000000000 PUSH0 DUP3 ADD MSTORE POP JUMP JUMPDEST PUSH0 PUSH2 0xA56 PUSH1 0xE DUP4 PUSH2 0x942 JUMP JUMPDEST SWAP2 POP PUSH2 0xA61 DUP3 PUSH2 0xA22 JUMP JUMPDEST PUSH1 0x20 DUP3 ADD SWAP1 POP SWAP2 SWAP1 POP JUMP JUMPDEST PUSH0 PUSH1 0x20 DUP3 ADD SWAP1 POP DUP2 DUP2 SUB PUSH0 DUP4 ADD MSTORE PUSH2 0xA83 DUP2 PUSH2 0xA4A JUMP JUMPDEST SWAP1 POP SWAP2 SWAP1 POP JUMP JUMPDEST PUSH0 DUP2 SWAP1 POP SWAP2 SWAP1 POP JUMP JUMPDEST PUSH2 0xAA4 PUSH2 0xA9F DUP3 PUSH2 0x756 JUMP JUMPDEST PUSH2 0xA8A JUMP JUMPDEST DUP3 MSTORE POP POP JUMP JUMPDEST PUSH0 PUSH2 0xAB5 DUP3 DUP7 PUSH2 0xA93 JUMP JUMPDEST PUSH1 0x20 DUP3 ADD SWAP2 POP PUSH2 0xAC5 DUP3 DUP6 PUSH2 0xA93 JUMP JUMPDEST PUSH1 0x20 DUP3 ADD SWAP2 POP PUSH2 0xAD5 DUP3 DUP5 PUSH2 0xA93 JUMP JUMPDEST PUSH1 0x20 DUP3 ADD SWAP2 POP DUP2 SWAP1 POP SWAP5 SWAP4 POP POP POP POP JUMP JUMPDEST PUSH32 0x4E487B7100000000000000000000000000000000000000000000000000000000 PUSH0 MSTORE PUSH1 0x12 PUSH1 0x4 MSTORE PUSH1 0x24 PUSH0 REVERT JUMPDEST PUSH0 PUSH2 0xB1D DUP3 PUSH2 0x756 JUMP JUMPDEST SWAP2 POP PUSH2 0xB28 DUP4 PUSH2 0x756 JUMP JUMPDEST SWAP3 POP DUP3 PUSH2 0xB38 JUMPI PUSH2 0xB37 PUSH2 0xAE6 JUMP JUMPDEST JUMPDEST DUP3 DUP3 MOD SWAP1 POP SWAP3 SWAP2 POP POP JUMP JUMPDEST PUSH32 0x4E487B7100000000000000000000000000000000000000000000000000000000 PUSH0 MSTORE PUSH1 0x32 PUSH1 0x4 MSTORE PUSH1 0x24 PUSH0 REVERT INVALID LOG2 PUSH5 0x6970667358 0x22 SLT KECCAK256 PUSH21 0xD1E98708AF49E72B24155A98BFCDB2FBE3003BB416 0x1E PUSH17 0x1E4F0BF4F4EA354464736F6C634300081A STOP CALLER "
				},
				"gasEstimates": {
					"creation": {
						"codeDepositCost": "596400",
						"executionCost": "infinite",
						"totalCost": "infinite"
					},
					"external": {
						"buyTicker()": "53057",
						"endLottery()": "infinite",
						"getBalance()": "335",
						"getParticipants()": "infinite",
						"isActive()": "2511",
						"owner()": "2527",
						"participants(uint256)": "5011",
						"prize()": "2491",
						"startLotter()": "infinite",
						"winner()": "2603"
					},
					"internal": {
						"_getWinner()": "infinite"
					}
				},
				"methodIdentifiers": {
					"buyTicker()": "36d5849e",
					"endLottery()": "1593a8c7",
					"getBalance()": "12065fe0",
					"getParticipants()": "5aa68ac0",
					"isActive()": "22f3e2d4",
					"owner()": "8da5cb5b",
					"participants(uint256)": "35c1d349",
					"prize()": "e3ac5d26",
					"startLotter()": "fe2f66d4",
					"winner()": "dfbf53ae"
				}
			},
			"storageLayout": {
				"storage": [
					{
						"astId": 3,
						"contract": "contracts/2_Lottery.sol:Lottery",
						"label": "owner",
						"offset": 0,
						"slot": "0",
						"type": "t_address"
					},
					{
						"astId": 6,
						"contract": "contracts/2_Lottery.sol:Lottery",
						"label": "participants",
						"offset": 0,
						"slot": "1",
						"type": "t_array(t_address)dyn_storage"
					},
					{
						"astId": 8,
						"contract": "contracts/2_Lottery.sol:Lottery",
						"label": "prize",
						"offset": 0,
						"slot": "2",
						"type": "t_uint256"
					},
					{
						"astId": 10,
						"contract": "contracts/2_Lottery.sol:Lottery",
						"label": "isActive",
						"offset": 0,
						"slot": "3",
						"type": "t_bool"
					},
					{
						"astId": 12,
						"contract": "contracts/2_Lottery.sol:Lottery",
						"label": "winner",
						"offset": 1,
						"slot": "3",
						"type": "t_address"
					}
				],
				"types": {
					"t_address": {
						"encoding": "inplace",
						"label": "address",
						"numberOfBytes": "20"
					},
					"t_array(t_address)dyn_storage": {
						"base": "t_address",
						"encoding": "dynamic_array",
						"label": "address[]",
						"numberOfBytes": "32"
					},
					"t_bool": {
						"encoding": "inplace",
						"label": "bool",
						"numberOfBytes": "1"
					},
					"t_uint256": {
						"encoding": "inplace",
						"label": "uint256",
						"numberOfBytes": "32"
					}
				}
			},
			"userdoc": {
				"kind": "user",
				"methods": {},
				"version": 1
			}
		}
	}
}