{
	"data": {
		"bytecode": {
			"linkReferences": {},
			"object": "6080604052348015600e575f80fd5b506116498061001c5f395ff3fe608060405234801561000f575f80fd5b5060043610610055575f3560e01c8063865df0ad146100595780639a0040e414610075578063ac2f0074146100a8578063b384abef146100db578063f8c860f4146100f7575b5f80fd5b610073600480360381019061006e9190610a26565b610113565b005b61008f600480360381019061008a9190610a26565b61027c565b60405161009f9493929190610bed565b60405180910390f35b6100c260048036038101906100bd9190610a26565b61041a565b6040516100d29493929190610c7d565b60405180910390f35b6100f560048036038101906100f09190610cc7565b6104f6565b005b610111600480360381019061010c9190610f13565b61074b565b005b805f808281526020019081526020015f206006015f9054906101000a900460ff16610173576040517f08c379a000000000000000000000000000000000000000000000000000000000815260040161016a90610fe5565b60405180910390fd5b5f805f8481526020019081526020015f209050805f015f9054906101000a900473ffffffffffffffffffffffffffffffffffffffff1673ffffffffffffffffffffffffffffffffffffffff163373ffffffffffffffffffffffffffffffffffffffff1614610216576040517f08c379a000000000000000000000000000000000000000000000000000000000815260040161020d9061104d565b60405180910390fd5b5f816006015f6101000a81548160ff0219169083151502179055505f61023b8461089b565b90507f3ca759e1f5f1098bced56e2e8d7b9c88310068de111c89c274e9791f0980b636848260405161026e92919061106b565b60405180910390a150505050565b6060805f805f805f8781526020019081526020015f20905080600101816002018260050154836006015f9054906101000a900460ff168380546102be906110bf565b80601f01602080910402602001604051908101604052809291908181526020018280546102ea906110bf565b80156103355780601f1061030c57610100808354040283529160200191610335565b820191905f5260205f20905b81548152906001019060200180831161031857829003601f168201915b5050505050935082805480602002602001604051908101604052809291908181526020015f905b82821015610404578382905f5260205f20018054610379906110bf565b80601f01602080910402602001604051908101604052809291908181526020018280546103a5906110bf565b80156103f05780601f106103c7576101008083540402835291602001916103f0565b820191905f5260205f20905b8154815290600101906020018083116103d357829003601f168201915b50505050508152602001906001019061035c565b5050505092509450945094509450509193509193565b5f602052805f5260405f205f91509050805f015f9054906101000a900473ffffffffffffffffffffffffffffffffffffffff169080600101805461045d906110bf565b80601f0160208091040260200160405190810160405280929190818152602001828054610489906110bf565b80156104d45780601f106104ab576101008083540402835291602001916104d4565b820191905f5260205f20905b8154815290600101906020018083116104b757829003601f168201915b505050505090806005015490806006015f9054906101000a900460ff16905084565b815f808281526020019081526020015f206006015f9054906101000a900460ff16610556576040517f08c379a000000000000000000000000000000000000000000000000000000000815260040161054d90610fe5565b60405180910390fd5b5f805f8581526020019081526020015f2090505f33905081600501544211156105b4576040517f08c379a00000000000000000000000000000000000000000000000000000000081526004016105ab90611139565b60405180910390fd5b816003015f8273ffffffffffffffffffffffffffffffffffffffff1673ffffffffffffffffffffffffffffffffffffffff1681526020019081526020015f205f9054906101000a900460ff1615610640576040517f08c379a0000000000000000000000000000000000000000000000000000000008152600401610637906111a1565b60405180910390fd5b816002018054905084111561068a576040517f08c379a000000000000000000000000000000000000000000000000000000000815260040161068190611209565b60405180910390fd5b6001826003015f8373ffffffffffffffffffffffffffffffffffffffff1673ffffffffffffffffffffffffffffffffffffffff1681526020019081526020015f205f6101000a81548160ff021916908315150217905550816004015f8581526020019081526020015f205f81548092919061070490611254565b91905055507fd91ecafccf238642dccd41161308b3eebe62a12bc5819daf5164780c221ec95b85858360405161073c9392919061129b565b60405180910390a15050505050565b600282511015610790576040517f08c379a00000000000000000000000000000000000000000000000000000000081526004016107879061131a565b60405180910390fd5b60015f8154809291906107a290611254565b91905055505f805f60015481526020019081526020015f209050838160010190816107cd91906114d5565b506001816006015f6101000a81548160ff02191690831515021790555033815f015f6101000a81548173ffffffffffffffffffffffffffffffffffffffff021916908373ffffffffffffffffffffffffffffffffffffffff16021790555082816002019080519060200190610843929190610910565b50814261085091906115a4565b81600501819055507fd2a8dbeae3cac9e94402cc3d7e3ee6cb0a2c32d2e426bf82f24b87ffd1089efd600154853360405161088d939291906115d7565b60405180910390a150505050565b5f805f808481526020019081526020015f2090505f805f5b83600201805490508110156109045782846004015f8381526020019081526020015f205411156108f757836004015f8281526020019081526020015f205492508091505b80806001019150506108b3565b50809350505050919050565b828054828255905f5260205f20908101928215610956579160200282015b8281111561095557825182908161094591906114d5565b509160200191906001019061092e565b5b5090506109639190610967565b5090565b5b80821115610986575f818161097d919061098a565b50600101610968565b5090565b508054610996906110bf565b5f825580601f106109a757506109c4565b601f0160209004905f5260205f20908101906109c391906109c7565b5b50565b5b808211156109de575f815f9055506001016109c8565b5090565b5f604051905090565b5f80fd5b5f80fd5b5f819050919050565b610a05816109f3565b8114610a0f575f80fd5b50565b5f81359050610a20816109fc565b92915050565b5f60208284031215610a3b57610a3a6109eb565b5b5f610a4884828501610a12565b91505092915050565b5f81519050919050565b5f82825260208201905092915050565b8281835e5f83830152505050565b5f601f19601f8301169050919050565b5f610a9382610a51565b610a9d8185610a5b565b9350610aad818560208601610a6b565b610ab681610a79565b840191505092915050565b5f81519050919050565b5f82825260208201905092915050565b5f819050602082019050919050565b5f82825260208201905092915050565b5f610b0482610a51565b610b0e8185610aea565b9350610b1e818560208601610a6b565b610b2781610a79565b840191505092915050565b5f610b3d8383610afa565b905092915050565b5f602082019050919050565b5f610b5b82610ac1565b610b658185610acb565b935083602082028501610b7785610adb565b805f5b85811015610bb25784840389528151610b938582610b32565b9450610b9e83610b45565b925060208a01995050600181019050610b7a565b50829750879550505050505092915050565b610bcd816109f3565b82525050565b5f8115159050919050565b610be781610bd3565b82525050565b5f6080820190508181035f830152610c058187610a89565b90508181036020830152610c198186610b51565b9050610c286040830185610bc4565b610c356060830184610bde565b95945050505050565b5f73ffffffffffffffffffffffffffffffffffffffff82169050919050565b5f610c6782610c3e565b9050919050565b610c7781610c5d565b82525050565b5f608082019050610c905f830187610c6e565b8181036020830152610ca28186610a89565b9050610cb16040830185610bc4565b610cbe6060830184610bde565b95945050505050565b5f8060408385031215610cdd57610cdc6109eb565b5b5f610cea85828601610a12565b9250506020610cfb85828601610a12565b9150509250929050565b5f80fd5b5f80fd5b7f4e487b71000000000000000000000000000000000000000000000000000000005f52604160045260245ffd5b610d4382610a79565b810181811067ffffffffffffffff82111715610d6257610d61610d0d565b5b80604052505050565b5f610d746109e2565b9050610d808282610d3a565b919050565b5f67ffffffffffffffff821115610d9f57610d9e610d0d565b5b610da882610a79565b9050602081019050919050565b828183375f83830152505050565b5f610dd5610dd084610d85565b610d6b565b905082815260208101848484011115610df157610df0610d09565b5b610dfc848285610db5565b509392505050565b5f82601f830112610e1857610e17610d05565b5b8135610e28848260208601610dc3565b91505092915050565b5f67ffffffffffffffff821115610e4b57610e4a610d0d565b5b602082029050602081019050919050565b5f80fd5b5f610e72610e6d84610e31565b610d6b565b90508083825260208201905060208402830185811115610e9557610e94610e5c565b5b835b81811015610edc57803567ffffffffffffffff811115610eba57610eb9610d05565b5b808601610ec78982610e04565b85526020850194505050602081019050610e97565b5050509392505050565b5f82601f830112610efa57610ef9610d05565b5b8135610f0a848260208601610e60565b91505092915050565b5f805f60608486031215610f2a57610f296109eb565b5b5f84013567ffffffffffffffff811115610f4757610f466109ef565b5b610f5386828701610e04565b935050602084013567ffffffffffffffff811115610f7457610f736109ef565b5b610f8086828701610ee6565b9250506040610f9186828701610a12565b9150509250925092565b7f706f6c6c206e6f742061637469766500000000000000000000000000000000005f82015250565b5f610fcf600f83610a5b565b9150610fda82610f9b565b602082019050919050565b5f6020820190508181035f830152610ffc81610fc3565b9050919050565b7f6f6e6c79206f776e6572000000000000000000000000000000000000000000005f82015250565b5f611037600a83610a5b565b915061104282611003565b602082019050919050565b5f6020820190508181035f8301526110648161102b565b9050919050565b5f60408201905061107e5f830185610bc4565b61108b6020830184610bc4565b9392505050565b7f4e487b71000000000000000000000000000000000000000000000000000000005f52602260045260245ffd5b5f60028204905060018216806110d657607f821691505b6020821081036110e9576110e8611092565b5b50919050565b7f74696d65206578706972656400000000000000000000000000000000000000005f82015250565b5f611123600c83610a5b565b915061112e826110ef565b602082019050919050565b5f6020820190508181035f83015261115081611117565b9050919050565b7f6164647265737320616c726561647920766f74656400000000000000000000005f82015250565b5f61118b601583610a5b565b915061119682611157565b602082019050919050565b5f6020820190508181035f8301526111b88161117f565b9050919050565b7f626164206f7074696f6e000000000000000000000000000000000000000000005f82015250565b5f6111f3600a83610a5b565b91506111fe826111bf565b602082019050919050565b5f6020820190508181035f830152611220816111e7565b9050919050565b7f4e487b71000000000000000000000000000000000000000000000000000000005f52601160045260245ffd5b5f61125e826109f3565b91507fffffffffffffffffffffffffffffffffffffffffffffffffffffffffffffffff82036112905761128f611227565b5b600182019050919050565b5f6060820190506112ae5f830186610bc4565b6112bb6020830185610bc4565b6112c86040830184610c6e565b949350505050565b7f6e656564206d6f7265207468616e2032206f7074696f6e7300000000000000005f82015250565b5f611304601883610a5b565b915061130f826112d0565b602082019050919050565b5f6020820190508181035f830152611331816112f8565b9050919050565b5f819050815f5260205f209050919050565b5f6020601f8301049050919050565b5f82821b905092915050565b5f600883026113947fffffffffffffffffffffffffffffffffffffffffffffffffffffffffffffffff82611359565b61139e8683611359565b95508019841693508086168417925050509392505050565b5f819050919050565b5f6113d96113d46113cf846109f3565b6113b6565b6109f3565b9050919050565b5f819050919050565b6113f2836113bf565b6114066113fe826113e0565b848454611365565b825550505050565b5f90565b61141a61140e565b6114258184846113e9565b505050565b5b818110156114485761143d5f82611412565b60018101905061142b565b5050565b601f82111561148d5761145e81611338565b6114678461134a565b81016020851015611476578190505b61148a6114828561134a565b83018261142a565b50505b505050565b5f82821c905092915050565b5f6114ad5f1984600802611492565b1980831691505092915050565b5f6114c5838361149e565b9150826002028217905092915050565b6114de82610a51565b67ffffffffffffffff8111156114f7576114f6610d0d565b5b61150182546110bf565b61150c82828561144c565b5f60209050601f83116001811461153d575f841561152b578287015190505b61153585826114ba565b86555061159c565b601f19841661154b86611338565b5f5b828110156115725784890151825560018201915060208501945060208101905061154d565b8683101561158f578489015161158b601f89168261149e565b8355505b6001600288020188555050505b505050505050565b5f6115ae826109f3565b91506115b9836109f3565b92508282019050808211156115d1576115d0611227565b5b92915050565b5f6060820190506115ea5f830186610bc4565b81810360208301526115fc8185610a89565b905061160b6040830184610c6e565b94935050505056fea2646970667358221220d8d306fcb30cfdcf87931a920613490a7ddacc4d61dc23641772d439b83276bc64736f6c634300081a0033",
			"opcodes": "PUSH1 0x80 PUSH1 0x40 MSTORE CALLVALUE DUP1 ISZERO PUSH1 0xE JUMPI PUSH0 DUP1 REVERT JUMPDEST POP PUSH2 0x1649 DUP1 PUSH2 0x1C PUSH0 CODECOPY PUSH0 RETURN INVALID PUSH1 0x80 PUSH1 0x40 MSTORE CALLVALUE DUP1 ISZERO PUSH2 0xF JUMPI PUSH0 DUP1 REVERT JUMPDEST POP PUSH1 0x4 CALLDATASIZE LT PUSH2 0x55 JUMPI PUSH0 CALLDATALOAD PUSH1 0xE0 SHR DUP1 PUSH4 0x865DF0AD EQ PUSH2 0x59 JUMPI DUP1 PUSH4 0x9A0040E4 EQ PUSH2 0x75 JUMPI DUP1 PUSH4 0xAC2F0074 EQ PUSH2 0xA8 JUMPI DUP1 PUSH4 0xB384ABEF EQ PUSH2 0xDB JUMPI DUP1 PUSH4 0xF8C860F4 EQ PUSH2 0xF7 JUMPI JUMPDEST PUSH0 DUP1 REVERT JUMPDEST PUSH2 0x73 PUSH1 0x4 DUP1 CALLDATASIZE SUB DUP2 ADD SWAP1 PUSH2 0x6E SWAP2 SWAP1 PUSH2 0xA26 JUMP JUMPDEST PUSH2 0x113 JUMP JUMPDEST STOP JUMPDEST PUSH2 0x8F PUSH1 0x4 DUP1 CALLDATASIZE SUB DUP2 ADD SWAP1 PUSH2 0x8A SWAP2 SWAP1 PUSH2 0xA26 JUMP JUMPDEST PUSH2 0x27C JUMP JUMPDEST PUSH1 0x40 MLOAD PUSH2 0x9F SWAP5 SWAP4 SWAP3 SWAP2 SWAP1 PUSH2 0xBED JUMP JUMPDEST PUSH1 0x40 MLOAD DUP1 SWAP2 SUB SWAP1 RETURN JUMPDEST PUSH2 0xC2 PUSH1 0x4 DUP1 CALLDATASIZE SUB DUP2 ADD SWAP1 PUSH2 0xBD SWAP2 SWAP1 PUSH2 0xA26 JUMP JUMPDEST PUSH2 0x41A JUMP JUMPDEST PUSH1 0x40 MLOAD PUSH2 0xD2 SWAP5 SWAP4 SWAP3 SWAP2 SWAP1 PUSH2 0xC7D JUMP JUMPDEST PUSH1 0x40 MLOAD DUP1 SWAP2 SUB SWAP1 RETURN JUMPDEST PUSH2 0xF5 PUSH1 0x4 DUP1 CALLDATASIZE SUB DUP2 ADD SWAP1 PUSH2 0xF0 SWAP2 SWAP1 PUSH2 0xCC7 JUMP JUMPDEST PUSH2 0x4F6 JUMP JUMPDEST STOP JUMPDEST PUSH2 0x111 PUSH1 0x4 DUP1 CALLDATASIZE SUB DUP2 ADD SWAP1 PUSH2 0x10C SWAP2 SWAP1 PUSH2 0xF13 JUMP JUMPDEST PUSH2 0x74B JUMP JUMPDEST STOP JUMPDEST DUP1 PUSH0 DUP1 DUP3 DUP2 MSTORE PUSH1 0x20 ADD SWAP1 DUP2 MSTORE PUSH1 0x20 ADD PUSH0 KECCAK256 PUSH1 0x6 ADD PUSH0 SWAP1 SLOAD SWAP1 PUSH2 0x100 EXP SWAP1 DIV PUSH1 0xFF AND PUSH2 0x173 JUMPI PUSH1 0x40 MLOAD PUSH32 0x8C379A000000000000000000000000000000000000000000000000000000000 DUP2 MSTORE PUSH1 0x4 ADD PUSH2 0x16A SWAP1 PUSH2 0xFE5 JUMP JUMPDEST PUSH1 0x40 MLOAD DUP1 SWAP2 SUB SWAP1 REVERT JUMPDEST PUSH0 DUP1 PUSH0 DUP5 DUP2 MSTORE PUSH1 0x20 ADD SWAP1 DUP2 MSTORE PUSH1 0x20 ADD PUSH0 KECCAK256 SWAP1 POP DUP1 PUSH0 ADD PUSH0 SWAP1 SLOAD SWAP1 PUSH2 0x100 EXP SWAP1 DIV PUSH20 0xFFFFFFFFFFFFFFFFFFFFFFFFFFFFFFFFFFFFFFFF AND PUSH20 0xFFFFFFFFFFFFFFFFFFFFFFFFFFFFFFFFFFFFFFFF AND CALLER PUSH20 0xFFFFFFFFFFFFFFFFFFFFFFFFFFFFFFFFFFFFFFFF AND EQ PUSH2 0x216 JUMPI PUSH1 0x40 MLOAD PUSH32 0x8C379A000000000000000000000000000000000000000000000000000000000 DUP2 MSTORE PUSH1 0x4 ADD PUSH2 0x20D SWAP1 PUSH2 0x104D JUMP JUMPDEST PUSH1 0x40 MLOAD DUP1 SWAP2 SUB SWAP1 REVERT JUMPDEST PUSH0 DUP2 PUSH1 0x6 ADD PUSH0 PUSH2 0x100 EXP DUP2 SLOAD DUP2 PUSH1 0xFF MUL NOT AND SWAP1 DUP4 ISZERO ISZERO MUL OR SWAP1 SSTORE POP PUSH0 PUSH2 0x23B DUP5 PUSH2 0x89B JUMP JUMPDEST SWAP1 POP PUSH32 0x3CA759E1F5F1098BCED56E2E8D7B9C88310068DE111C89C274E9791F0980B636 DUP5 DUP3 PUSH1 0x40 MLOAD PUSH2 0x26E SWAP3 SWAP2 SWAP1 PUSH2 0x106B JUMP JUMPDEST PUSH1 0x40 MLOAD DUP1 SWAP2 SUB SWAP1 LOG1 POP POP POP POP JUMP JUMPDEST PUSH1 0x60 DUP1 PUSH0 DUP1 PUSH0 DUP1 PUSH0 DUP8 DUP2 MSTORE PUSH1 0x20 ADD SWAP1 DUP2 MSTORE PUSH1 0x20 ADD PUSH0 KECCAK256 SWAP1 POP DUP1 PUSH1 0x1 ADD DUP2 PUSH1 0x2 ADD DUP3 PUSH1 0x5 ADD SLOAD DUP4 PUSH1 0x6 ADD PUSH0 SWAP1 SLOAD SWAP1 PUSH2 0x100 EXP SWAP1 DIV PUSH1 0xFF AND DUP4 DUP1 SLOAD PUSH2 0x2BE SWAP1 PUSH2 0x10BF JUMP JUMPDEST DUP1 PUSH1 0x1F ADD PUSH1 0x20 DUP1 SWAP2 DIV MUL PUSH1 0x20 ADD PUSH1 0x40 MLOAD SWAP1 DUP2 ADD PUSH1 0x40 MSTORE DUP1 SWAP3 SWAP2 SWAP1 DUP2 DUP2 MSTORE PUSH1 0x20 ADD DUP3 DUP1 SLOAD PUSH2 0x2EA SWAP1 PUSH2 0x10BF JUMP JUMPDEST DUP1 ISZERO PUSH2 0x335 JUMPI DUP1 PUSH1 0x1F LT PUSH2 0x30C JUMPI PUSH2 0x100 DUP1 DUP4 SLOAD DIV MUL DUP4 MSTORE SWAP2 PUSH1 0x20 ADD SWAP2 PUSH2 0x335 JUMP JUMPDEST DUP3 ADD SWAP2 SWAP1 PUSH0 MSTORE PUSH1 0x20 PUSH0 KECCAK256 SWAP1 JUMPDEST DUP2 SLOAD DUP2 MSTORE SWAP1 PUSH1 0x1 ADD SWAP1 PUSH1 0x20 ADD DUP1 DUP4 GT PUSH2 0x318 JUMPI DUP3 SWAP1 SUB PUSH1 0x1F AND DUP3 ADD SWAP2 JUMPDEST POP POP POP POP POP SWAP4 POP DUP3 DUP1 SLOAD DUP1 PUSH1 0x20 MUL PUSH1 0x20 ADD PUSH1 0x40 MLOAD SWAP1 DUP2 ADD PUSH1 0x40 MSTORE DUP1 SWAP3 SWAP2 SWAP1 DUP2 DUP2 MSTORE PUSH1 0x20 ADD PUSH0 SWAP1 JUMPDEST DUP3 DUP3 LT ISZERO PUSH2 0x404 JUMPI DUP4 DUP3 SWAP1 PUSH0 MSTORE PUSH1 0x20 PUSH0 KECCAK256 ADD DUP1 SLOAD PUSH2 0x379 SWAP1 PUSH2 0x10BF JUMP JUMPDEST DUP1 PUSH1 0x1F ADD PUSH1 0x20 DUP1 SWAP2 DIV MUL PUSH1 0x20 ADD PUSH1 0x40 MLOAD SWAP1 DUP2 ADD PUSH1 0x40 MSTORE DUP1 SWAP3 SWAP2 SWAP1 DUP2 DUP2 MSTORE PUSH1 0x20 ADD DUP3 DUP1 SLOAD PUSH2 0x3A5 SWAP1 PUSH2 0x10BF JUMP JUMPDEST DUP1 ISZERO PUSH2 0x3F0 JUMPI DUP1 PUSH1 0x1F LT PUSH2 0x3C7 JUMPI PUSH2 0x100 DUP1 DUP4 SLOAD DIV MUL DUP4 MSTORE SWAP2 PUSH1 0x20 ADD SWAP2 PUSH2 0x3F0 JUMP JUMPDEST DUP3 ADD SWAP2 SWAP1 PUSH0 MSTORE PUSH1 0x20 PUSH0 KECCAK256 SWAP1 JUMPDEST DUP2 SLOAD DUP2 MSTORE SWAP1 PUSH1 0x1 ADD SWAP1 PUSH1 0x20 ADD DUP1 DUP4 GT PUSH2 0x3D3 JUMPI DUP3 SWAP1 SUB PUSH1 0x1F AND DUP3 ADD SWAP2 JUMPDEST POP POP POP POP POP DUP2 MSTORE PUSH1 0x20 ADD SWAP1 PUSH1 0x1 ADD SWAP1 PUSH2 0x35C JUMP JUMPDEST POP POP POP POP SWAP3 POP SWAP5 POP SWAP5 POP SWAP5 POP SWAP5 POP POP SWAP2 SWAP4 POP SWAP2 SWAP4 JUMP JUMPDEST PUSH0 PUSH1 0x20 MSTORE DUP1 PUSH0 MSTORE PUSH1 0x40 PUSH0 KECCAK256 PUSH0 SWAP2 POP SWAP1 POP DUP1 PUSH0 ADD PUSH0 SWAP1 SLOAD SWAP1 PUSH2 0x100 EXP SWAP1 DIV PUSH20 0xFFFFFFFFFFFFFFFFFFFFFFFFFFFFFFFFFFFFFFFF AND SWAP1 DUP1 PUSH1 0x1 ADD DUP1 SLOAD PUSH2 0x45D SWAP1 PUSH2 0x10BF JUMP JUMPDEST DUP1 PUSH1 0x1F ADD PUSH1 0x20 DUP1 SWAP2 DIV MUL PUSH1 0x20 ADD PUSH1 0x40 MLOAD SWAP1 DUP2 ADD PUSH1 0x40 MSTORE DUP1 SWAP3 SWAP2 SWAP1 DUP2 DUP2 MSTORE PUSH1 0x20 ADD DUP3 DUP1 SLOAD PUSH2 0x489 SWAP1 PUSH2 0x10BF JUMP JUMPDEST DUP1 ISZERO PUSH2 0x4D4 JUMPI DUP1 PUSH1 0x1F LT PUSH2 0x4AB JUMPI PUSH2 0x100 DUP1 DUP4 SLOAD DIV MUL DUP4 MSTORE SWAP2 PUSH1 0x20 ADD SWAP2 PUSH2 0x4D4 JUMP JUMPDEST DUP3 ADD SWAP2 SWAP1 PUSH0 MSTORE PUSH1 0x20 PUSH0 KECCAK256 SWAP1 JUMPDEST DUP2 SLOAD DUP2 MSTORE SWAP1 PUSH1 0x1 ADD SWAP1 PUSH1 0x20 ADD DUP1 DUP4 GT PUSH2 0x4B7 JUMPI DUP3 SWAP1 SUB PUSH1 0x1F AND DUP3 ADD SWAP2 JUMPDEST POP POP POP POP POP SWAP1 DUP1 PUSH1 0x5 ADD SLOAD SWAP1 DUP1 PUSH1 0x6 ADD PUSH0 SWAP1 SLOAD SWAP1 PUSH2 0x100 EXP SWAP1 DIV PUSH1 0xFF AND SWAP1 POP DUP5 JUMP JUMPDEST DUP2 PUSH0 DUP1 DUP3 DUP2 MSTORE PUSH1 0x20 ADD SWAP1 DUP2 MSTORE PUSH1 0x20 ADD PUSH0 KECCAK256 PUSH1 0x6 ADD PUSH0 SWAP1 SLOAD SWAP1 PUSH2 0x100 EXP SWAP1 DIV PUSH1 0xFF AND PUSH2 0x556 JUMPI PUSH1 0x40 MLOAD PUSH32 0x8C379A000000000000000000000000000000000000000000000000000000000 DUP2 MSTORE PUSH1 0x4 ADD PUSH2 0x54D SWAP1 PUSH2 0xFE5 JUMP JUMPDEST PUSH1 0x40 MLOAD DUP1 SWAP2 SUB SWAP1 REVERT JUMPDEST PUSH0 DUP1 PUSH0 DUP6 DUP2 MSTORE PUSH1 0x20 ADD SWAP1 DUP2 MSTORE PUSH1 0x20 ADD PUSH0 KECCAK256 SWAP1 POP PUSH0 CALLER SWAP1 POP DUP2 PUSH1 0x5 ADD SLOAD TIMESTAMP GT ISZERO PUSH2 0x5B4 JUMPI PUSH1 0x40 MLOAD PUSH32 0x8C379A000000000000000000000000000000000000000000000000000000000 DUP2 MSTORE PUSH1 0x4 ADD PUSH2 0x5AB SWAP1 PUSH2 0x1139 JUMP JUMPDEST PUSH1 0x40 MLOAD DUP1 SWAP2 SUB SWAP1 REVERT JUMPDEST DUP2 PUSH1 0x3 ADD PUSH0 DUP3 PUSH20 0xFFFFFFFFFFFFFFFFFFFFFFFFFFFFFFFFFFFFFFFF AND PUSH20 0xFFFFFFFFFFFFFFFFFFFFFFFFFFFFFFFFFFFFFFFF AND DUP2 MSTORE PUSH1 0x20 ADD SWAP1 DUP2 MSTORE PUSH1 0x20 ADD PUSH0 KECCAK256 PUSH0 SWAP1 SLOAD SWAP1 PUSH2 0x100 EXP SWAP1 DIV PUSH1 0xFF AND ISZERO PUSH2 0x640 JUMPI PUSH1 0x40 MLOAD PUSH32 0x8C379A000000000000000000000000000000000000000000000000000000000 DUP2 MSTORE PUSH1 0x4 ADD PUSH2 0x637 SWAP1 PUSH2 0x11A1 JUMP JUMPDEST PUSH1 0x40 MLOAD DUP1 SWAP2 SUB SWAP1 REVERT JUMPDEST DUP2 PUSH1 0x2 ADD DUP1 SLOAD SWAP1 POP DUP5 GT ISZERO PUSH2 0x68A JUMPI PUSH1 0x40 MLOAD PUSH32 0x8C379A000000000000000000000000000000000000000000000000000000000 DUP2 MSTORE PUSH1 0x4 ADD PUSH2 0x681 SWAP1 PUSH2 0x1209 JUMP JUMPDEST PUSH1 0x40 MLOAD DUP1 SWAP2 SUB SWAP1 REVERT JUMPDEST PUSH1 0x1 DUP3 PUSH1 0x3 ADD PUSH0 DUP4 PUSH20 0xFFFFFFFFFFFFFFFFFFFFFFFFFFFFFFFFFFFFFFFF AND PUSH20 0xFFFFFFFFFFFFFFFFFFFFFFFFFFFFFFFFFFFFFFFF AND DUP2 MSTORE PUSH1 0x20 ADD SWAP1 DUP2 MSTORE PUSH1 0x20 ADD PUSH0 KECCAK256 PUSH0 PUSH2 0x100 EXP DUP2 SLOAD DUP2 PUSH1 0xFF MUL NOT AND SWAP1 DUP4 ISZERO ISZERO MUL OR SWAP1 SSTORE POP DUP2 PUSH1 0x4 ADD PUSH0 DUP6 DUP2 MSTORE PUSH1 0x20 ADD SWAP1 DUP2 MSTORE PUSH1 0x20 ADD PUSH0 KECCAK256 PUSH0 DUP2 SLOAD DUP1 SWAP3 SWAP2 SWAP1 PUSH2 0x704 SWAP1 PUSH2 0x1254 JUMP JUMPDEST SWAP2 SWAP1 POP SSTORE POP PUSH32 0xD91ECAFCCF238642DCCD41161308B3EEBE62A12BC5819DAF5164780C221EC95B DUP6 DUP6 DUP4 PUSH1 0x40 MLOAD PUSH2 0x73C SWAP4 SWAP3 SWAP2 SWAP1 PUSH2 0x129B JUMP JUMPDEST PUSH1 0x40 MLOAD DUP1 SWAP2 SUB SWAP1 LOG1 POP POP POP POP POP JUMP JUMPDEST PUSH1 0x2 DUP3 MLOAD LT ISZERO PUSH2 0x790 JUMPI PUSH1 0x40 MLOAD PUSH32 0x8C379A000000000000000000000000000000000000000000000000000000000 DUP2 MSTORE PUSH1 0x4 ADD PUSH2 0x787 SWAP1 PUSH2 0x131A JUMP JUMPDEST PUSH1 0x40 MLOAD DUP1 SWAP2 SUB SWAP1 REVERT JUMPDEST PUSH1 0x1 PUSH0 DUP2 SLOAD DUP1 SWAP3 SWAP2 SWAP1 PUSH2 0x7A2 SWAP1 PUSH2 0x1254 JUMP JUMPDEST SWAP2 SWAP1 POP SSTORE POP PUSH0 DUP1 PUSH0 PUSH1 0x1 SLOAD DUP2 MSTORE PUSH1 0x20 ADD SWAP1 DUP2 MSTORE PUSH1 0x20 ADD PUSH0 KECCAK256 SWAP1 POP DUP4 DUP2 PUSH1 0x1 ADD SWAP1 DUP2 PUSH2 0x7CD SWAP2 SWAP1 PUSH2 0x14D5 JUMP JUMPDEST POP PUSH1 0x1 DUP2 PUSH1 0x6 ADD PUSH0 PUSH2 0x100 EXP DUP2 SLOAD DUP2 PUSH1 0xFF MUL NOT AND SWAP1 DUP4 ISZERO ISZERO MUL OR SWAP1 SSTORE POP CALLER DUP2 PUSH0 ADD PUSH0 PUSH2 0x100 EXP DUP2 SLOAD DUP2 PUSH20 0xFFFFFFFFFFFFFFFFFFFFFFFFFFFFFFFFFFFFFFFF MUL NOT AND SWAP1 DUP4 PUSH20 0xFFFFFFFFFFFFFFFFFFFFFFFFFFFFFFFFFFFFFFFF AND MUL OR SWAP1 SSTORE POP DUP3 DUP2 PUSH1 0x2 ADD SWAP1 DUP1 MLOAD SWAP1 PUSH1 0x20 ADD SWAP1 PUSH2 0x843 SWAP3 SWAP2 SWAP1 PUSH2 0x910 JUMP JUMPDEST POP DUP2 TIMESTAMP PUSH2 0x850 SWAP2 SWAP1 PUSH2 0x15A4 JUMP JUMPDEST DUP2 PUSH1 0x5 ADD DUP2 SWAP1 SSTORE POP PUSH32 0xD2A8DBEAE3CAC9E94402CC3D7E3EE6CB0A2C32D2E426BF82F24B87FFD1089EFD PUSH1 0x1 SLOAD DUP6 CALLER PUSH1 0x40 MLOAD PUSH2 0x88D SWAP4 SWAP3 SWAP2 SWAP1 PUSH2 0x15D7 JUMP JUMPDEST PUSH1 0x40 MLOAD DUP1 SWAP2 SUB SWAP1 LOG1 POP POP POP POP JUMP JUMPDEST PUSH0 DUP1 PUSH0 DUP1 DUP5 DUP2 MSTORE PUSH1 0x20 ADD SWAP1 DUP2 MSTORE PUSH1 0x20 ADD PUSH0 KECCAK256 SWAP1 POP PUSH0 DUP1 PUSH0 JUMPDEST DUP4 PUSH1 0x2 ADD DUP1 SLOAD SWAP1 POP DUP2 LT ISZERO PUSH2 0x904 JUMPI DUP3 DUP5 PUSH1 0x4 ADD PUSH0 DUP4 DUP2 MSTORE PUSH1 0x20 ADD SWAP1 DUP2 MSTORE PUSH1 0x20 ADD PUSH0 KECCAK256 SLOAD GT ISZERO PUSH2 0x8F7 JUMPI DUP4 PUSH1 0x4 ADD PUSH0 DUP3 DUP2 MSTORE PUSH1 0x20 ADD SWAP1 DUP2 MSTORE PUSH1 0x20 ADD PUSH0 KECCAK256 SLOAD SWAP3 POP DUP1 SWAP2 POP JUMPDEST DUP1 DUP1 PUSH1 0x1 ADD SWAP2 POP POP PUSH2 0x8B3 JUMP JUMPDEST POP DUP1 SWAP4 POP POP POP POP SWAP2 SWAP1 POP JUMP JUMPDEST DUP3 DUP1 SLOAD DUP3 DUP3 SSTORE SWAP1 PUSH0 MSTORE PUSH1 0x20 PUSH0 KECCAK256 SWAP1 DUP2 ADD SWAP3 DUP3 ISZERO PUSH2 0x956 JUMPI SWAP2 PUSH1 0x20 MUL DUP3 ADD JUMPDEST DUP3 DUP2 GT ISZERO PUSH2 0x955 JUMPI DUP3 MLOAD DUP3 SWAP1 DUP2 PUSH2 0x945 SWAP2 SWAP1 PUSH2 0x14D5 JUMP JUMPDEST POP SWAP2 PUSH1 0x20 ADD SWAP2 SWAP1 PUSH1 0x1 ADD SWAP1 PUSH2 0x92E JUMP JUMPDEST JUMPDEST POP SWAP1 POP PUSH2 0x963 SWAP2 SWAP1 PUSH2 0x967 JUMP JUMPDEST POP SWAP1 JUMP JUMPDEST JUMPDEST DUP1 DUP3 GT ISZERO PUSH2 0x986 JUMPI PUSH0 DUP2 DUP2 PUSH2 0x97D SWAP2 SWAP1 PUSH2 0x98A JUMP JUMPDEST POP PUSH1 0x1 ADD PUSH2 0x968 JUMP JUMPDEST POP SWAP1 JUMP JUMPDEST POP DUP1 SLOAD PUSH2 0x996 SWAP1 PUSH2 0x10BF JUMP JUMPDEST PUSH0 DUP3 SSTORE DUP1 PUSH1 0x1F LT PUSH2 0x9A7 JUMPI POP PUSH2 0x9C4 JUMP JUMPDEST PUSH1 0x1F ADD PUSH1 0x20 SWAP1 DIV SWAP1 PUSH0 MSTORE PUSH1 0x20 PUSH0 KECCAK256 SWAP1 DUP2 ADD SWAP1 PUSH2 0x9C3 SWAP2 SWAP1 PUSH2 0x9C7 JUMP JUMPDEST JUMPDEST POP JUMP JUMPDEST JUMPDEST DUP1 DUP3 GT ISZERO PUSH2 0x9DE JUMPI PUSH0 DUP2 PUSH0 SWAP1 SSTORE POP PUSH1 0x1 ADD PUSH2 0x9C8 JUMP JUMPDEST POP SWAP1 JUMP JUMPDEST PUSH0 PUSH1 0x40 MLOAD SWAP1 POP SWAP1 JUMP JUMPDEST PUSH0 DUP1 REVERT JUMPDEST PUSH0 DUP1 REVERT JUMPDEST PUSH0 DUP2 SWAP1 POP SWAP2 SWAP1 POP JUMP JUMPDEST PUSH2 0xA05 DUP2 PUSH2 0x9F3 JUMP JUMPDEST DUP2 EQ PUSH2 0xA0F JUMPI PUSH0 DUP1 REVERT JUMPDEST POP JUMP JUMPDEST PUSH0 DUP2 CALLDATALOAD SWAP1 POP PUSH2 0xA20 DUP2 PUSH2 0x9FC JUMP JUMPDEST SWAP3 SWAP2 POP POP JUMP JUMPDEST PUSH0 PUSH1 0x20 DUP3 DUP5 SUB SLT ISZERO PUSH2 0xA3B JUMPI PUSH2 0xA3A PUSH2 0x9EB JUMP JUMPDEST JUMPDEST PUSH0 PUSH2 0xA48 DUP5 DUP3 DUP6 ADD PUSH2 0xA12 JUMP JUMPDEST SWAP2 POP POP SWAP3 SWAP2 POP POP JUMP JUMPDEST PUSH0 DUP2 MLOAD SWAP1 POP SWAP2 SWAP1 POP JUMP JUMPDEST PUSH0 DUP3 DUP3 MSTORE PUSH1 0x20 DUP3 ADD SWAP1 POP SWAP3 SWAP2 POP POP JUMP JUMPDEST DUP3 DUP2 DUP4 MCOPY PUSH0 DUP4 DUP4 ADD MSTORE POP POP POP JUMP JUMPDEST PUSH0 PUSH1 0x1F NOT PUSH1 0x1F DUP4 ADD AND SWAP1 POP SWAP2 SWAP1 POP JUMP JUMPDEST PUSH0 PUSH2 0xA93 DUP3 PUSH2 0xA51 JUMP JUMPDEST PUSH2 0xA9D DUP2 DUP6 PUSH2 0xA5B JUMP JUMPDEST SWAP4 POP PUSH2 0xAAD DUP2 DUP6 PUSH1 0x20 DUP7 ADD PUSH2 0xA6B JUMP JUMPDEST PUSH2 0xAB6 DUP2 PUSH2 0xA79 JUMP JUMPDEST DUP5 ADD SWAP2 POP POP SWAP3 SWAP2 POP POP JUMP JUMPDEST PUSH0 DUP2 MLOAD SWAP1 POP SWAP2 SWAP1 POP JUMP JUMPDEST PUSH0 DUP3 DUP3 MSTORE PUSH1 0x20 DUP3 ADD SWAP1 POP SWAP3 SWAP2 POP POP JUMP JUMPDEST PUSH0 DUP2 SWAP1 POP PUSH1 0x20 DUP3 ADD SWAP1 POP SWAP2 SWAP1 POP JUMP JUMPDEST PUSH0 DUP3 DUP3 MSTORE PUSH1 0x20 DUP3 ADD SWAP1 POP SWAP3 SWAP2 POP POP JUMP JUMPDEST PUSH0 PUSH2 0xB04 DUP3 PUSH2 0xA51 JUMP JUMPDEST PUSH2 0xB0E DUP2 DUP6 PUSH2 0xAEA JUMP JUMPDEST SWAP4 POP PUSH2 0xB1E DUP2 DUP6 PUSH1 0x20 DUP7 ADD PUSH2 0xA6B JUMP JUMPDEST PUSH2 0xB27 DUP2 PUSH2 0xA79 JUMP JUMPDEST DUP5 ADD SWAP2 POP POP SWAP3 SWAP2 POP POP JUMP JUMPDEST PUSH0 PUSH2 0xB3D DUP4 DUP4 PUSH2 0xAFA JUMP JUMPDEST SWAP1 POP SWAP3 SWAP2 POP POP JUMP JUMPDEST PUSH0 PUSH1 0x20 DUP3 ADD SWAP1 POP SWAP2 SWAP1 POP JUMP JUMPDEST PUSH0 PUSH2 0xB5B DUP3 PUSH2 0xAC1 JUMP JUMPDEST PUSH2 0xB65 DUP2 DUP6 PUSH2 0xACB JUMP JUMPDEST SWAP4 POP DUP4 PUSH1 0x20 DUP3 MUL DUP6 ADD PUSH2 0xB77 DUP6 PUSH2 0xADB JUMP JUMPDEST DUP1 PUSH0 JUMPDEST DUP6 DUP2 LT ISZERO PUSH2 0xBB2 JUMPI DUP5 DUP5 SUB DUP10 MSTORE DUP2 MLOAD PUSH2 0xB93 DUP6 DUP3 PUSH2 0xB32 JUMP JUMPDEST SWAP5 POP PUSH2 0xB9E DUP4 PUSH2 0xB45 JUMP JUMPDEST SWAP3 POP PUSH1 0x20 DUP11 ADD SWAP10 POP POP PUSH1 0x1 DUP2 ADD SWAP1 POP PUSH2 0xB7A JUMP JUMPDEST POP DUP3 SWAP8 POP DUP8 SWAP6 POP POP POP POP POP POP SWAP3 SWAP2 POP POP JUMP JUMPDEST PUSH2 0xBCD DUP2 PUSH2 0x9F3 JUMP JUMPDEST DUP3 MSTORE POP POP JUMP JUMPDEST PUSH0 DUP2 ISZERO ISZERO SWAP1 POP SWAP2 SWAP1 POP JUMP JUMPDEST PUSH2 0xBE7 DUP2 PUSH2 0xBD3 JUMP JUMPDEST DUP3 MSTORE POP POP JUMP JUMPDEST PUSH0 PUSH1 0x80 DUP3 ADD SWAP1 POP DUP2 DUP2 SUB PUSH0 DUP4 ADD MSTORE PUSH2 0xC05 DUP2 DUP8 PUSH2 0xA89 JUMP JUMPDEST SWAP1 POP DUP2 DUP2 SUB PUSH1 0x20 DUP4 ADD MSTORE PUSH2 0xC19 DUP2 DUP7 PUSH2 0xB51 JUMP JUMPDEST SWAP1 POP PUSH2 0xC28 PUSH1 0x40 DUP4 ADD DUP6 PUSH2 0xBC4 JUMP JUMPDEST PUSH2 0xC35 PUSH1 0x60 DUP4 ADD DUP5 PUSH2 0xBDE JUMP JUMPDEST SWAP6 SWAP5 POP POP POP POP POP JUMP JUMPDEST PUSH0 PUSH20 0xFFFFFFFFFFFFFFFFFFFFFFFFFFFFFFFFFFFFFFFF DUP3 AND SWAP1 POP SWAP2 SWAP1 POP JUMP JUMPDEST PUSH0 PUSH2 0xC67 DUP3 PUSH2 0xC3E JUMP JUMPDEST SWAP1 POP SWAP2 SWAP1 POP JUMP JUMPDEST PUSH2 0xC77 DUP2 PUSH2 0xC5D JUMP JUMPDEST DUP3 MSTORE POP POP JUMP JUMPDEST PUSH0 PUSH1 0x80 DUP3 ADD SWAP1 POP PUSH2 0xC90 PUSH0 DUP4 ADD DUP8 PUSH2 0xC6E JUMP JUMPDEST DUP2 DUP2 SUB PUSH1 0x20 DUP4 ADD MSTORE PUSH2 0xCA2 DUP2 DUP7 PUSH2 0xA89 JUMP JUMPDEST SWAP1 POP PUSH2 0xCB1 PUSH1 0x40 DUP4 ADD DUP6 PUSH2 0xBC4 JUMP JUMPDEST PUSH2 0xCBE PUSH1 0x60 DUP4 ADD DUP5 PUSH2 0xBDE JUMP JUMPDEST SWAP6 SWAP5 POP POP POP POP POP JUMP JUMPDEST PUSH0 DUP1 PUSH1 0x40 DUP4 DUP6 SUB SLT ISZERO PUSH2 0xCDD JUMPI PUSH2 0xCDC PUSH2 0x9EB JUMP JUMPDEST JUMPDEST PUSH0 PUSH2 0xCEA DUP6 DUP3 DUP7 ADD PUSH2 0xA12 JUMP JUMPDEST SWAP3 POP POP PUSH1 0x20 PUSH2 0xCFB DUP6 DUP3 DUP7 ADD PUSH2 0xA12 JUMP JUMPDEST SWAP2 POP POP SWAP3 POP SWAP3 SWAP1 POP JUMP JUMPDEST PUSH0 DUP1 REVERT JUMPDEST PUSH0 DUP1 REVERT JUMPDEST PUSH32 0x4E487B7100000000000000000000000000000000000000000000000000000000 PUSH0 MSTORE PUSH1 0x41 PUSH1 0x4 MSTORE PUSH1 0x24 PUSH0 REVERT JUMPDEST PUSH2 0xD43 DUP3 PUSH2 0xA79 JUMP JUMPDEST DUP2 ADD DUP2 DUP2 LT PUSH8 0xFFFFFFFFFFFFFFFF DUP3 GT OR ISZERO PUSH2 0xD62 JUMPI PUSH2 0xD61 PUSH2 0xD0D JUMP JUMPDEST JUMPDEST DUP1 PUSH1 0x40 MSTORE POP POP POP JUMP JUMPDEST PUSH0 PUSH2 0xD74 PUSH2 0x9E2 JUMP JUMPDEST SWAP1 POP PUSH2 0xD80 DUP3 DUP3 PUSH2 0xD3A JUMP JUMPDEST SWAP2 SWAP1 POP JUMP JUMPDEST PUSH0 PUSH8 0xFFFFFFFFFFFFFFFF DUP3 GT ISZERO PUSH2 0xD9F JUMPI PUSH2 0xD9E PUSH2 0xD0D JUMP JUMPDEST JUMPDEST PUSH2 0xDA8 DUP3 PUSH2 0xA79 JUMP JUMPDEST SWAP1 POP PUSH1 0x20 DUP2 ADD SWAP1 POP SWAP2 SWAP1 POP JUMP JUMPDEST DUP3 DUP2 DUP4 CALLDATACOPY PUSH0 DUP4 DUP4 ADD MSTORE POP POP POP JUMP JUMPDEST PUSH0 PUSH2 0xDD5 PUSH2 0xDD0 DUP5 PUSH2 0xD85 JUMP JUMPDEST PUSH2 0xD6B JUMP JUMPDEST SWAP1 POP DUP3 DUP2 MSTORE PUSH1 0x20 DUP2 ADD DUP5 DUP5 DUP5 ADD GT ISZERO PUSH2 0xDF1 JUMPI PUSH2 0xDF0 PUSH2 0xD09 JUMP JUMPDEST JUMPDEST PUSH2 0xDFC DUP5 DUP3 DUP6 PUSH2 0xDB5 JUMP JUMPDEST POP SWAP4 SWAP3 POP POP POP JUMP JUMPDEST PUSH0 DUP3 PUSH1 0x1F DUP4 ADD SLT PUSH2 0xE18 JUMPI PUSH2 0xE17 PUSH2 0xD05 JUMP JUMPDEST JUMPDEST DUP2 CALLDATALOAD PUSH2 0xE28 DUP5 DUP3 PUSH1 0x20 DUP7 ADD PUSH2 0xDC3 JUMP JUMPDEST SWAP2 POP POP SWAP3 SWAP2 POP POP JUMP JUMPDEST PUSH0 PUSH8 0xFFFFFFFFFFFFFFFF DUP3 GT ISZERO PUSH2 0xE4B JUMPI PUSH2 0xE4A PUSH2 0xD0D JUMP JUMPDEST JUMPDEST PUSH1 0x20 DUP3 MUL SWAP1 POP PUSH1 0x20 DUP2 ADD SWAP1 POP SWAP2 SWAP1 POP JUMP JUMPDEST PUSH0 DUP1 REVERT JUMPDEST PUSH0 PUSH2 0xE72 PUSH2 0xE6D DUP5 PUSH2 0xE31 JUMP JUMPDEST PUSH2 0xD6B JUMP JUMPDEST SWAP1 POP DUP1 DUP4 DUP3 MSTORE PUSH1 0x20 DUP3 ADD SWAP1 POP PUSH1 0x20 DUP5 MUL DUP4 ADD DUP6 DUP2 GT ISZERO PUSH2 0xE95 JUMPI PUSH2 0xE94 PUSH2 0xE5C JUMP JUMPDEST JUMPDEST DUP4 JUMPDEST DUP2 DUP2 LT ISZERO PUSH2 0xEDC JUMPI DUP1 CALLDATALOAD PUSH8 0xFFFFFFFFFFFFFFFF DUP2 GT ISZERO PUSH2 0xEBA JUMPI PUSH2 0xEB9 PUSH2 0xD05 JUMP JUMPDEST JUMPDEST DUP1 DUP7 ADD PUSH2 0xEC7 DUP10 DUP3 PUSH2 0xE04 JUMP JUMPDEST DUP6 MSTORE PUSH1 0x20 DUP6 ADD SWAP5 POP POP POP PUSH1 0x20 DUP2 ADD SWAP1 POP PUSH2 0xE97 JUMP JUMPDEST POP POP POP SWAP4 SWAP3 POP POP POP JUMP JUMPDEST PUSH0 DUP3 PUSH1 0x1F DUP4 ADD SLT PUSH2 0xEFA JUMPI PUSH2 0xEF9 PUSH2 0xD05 JUMP JUMPDEST JUMPDEST DUP2 CALLDATALOAD PUSH2 0xF0A DUP5 DUP3 PUSH1 0x20 DUP7 ADD PUSH2 0xE60 JUMP JUMPDEST SWAP2 POP POP SWAP3 SWAP2 POP POP JUMP JUMPDEST PUSH0 DUP1 PUSH0 PUSH1 0x60 DUP5 DUP7 SUB SLT ISZERO PUSH2 0xF2A JUMPI PUSH2 0xF29 PUSH2 0x9EB JUMP JUMPDEST JUMPDEST PUSH0 DUP5 ADD CALLDATALOAD PUSH8 0xFFFFFFFFFFFFFFFF DUP2 GT ISZERO PUSH2 0xF47 JUMPI PUSH2 0xF46 PUSH2 0x9EF JUMP JUMPDEST JUMPDEST PUSH2 0xF53 DUP7 DUP3 DUP8 ADD PUSH2 0xE04 JUMP JUMPDEST SWAP4 POP POP PUSH1 0x20 DUP5 ADD CALLDATALOAD PUSH8 0xFFFFFFFFFFFFFFFF DUP2 GT ISZERO PUSH2 0xF74 JUMPI PUSH2 0xF73 PUSH2 0x9EF JUMP JUMPDEST JUMPDEST PUSH2 0xF80 DUP7 DUP3 DUP8 ADD PUSH2 0xEE6 JUMP JUMPDEST SWAP3 POP POP PUSH1 0x40 PUSH2 0xF91 DUP7 DUP3 DUP8 ADD PUSH2 0xA12 JUMP JUMPDEST SWAP2 POP POP SWAP3 POP SWAP3 POP SWAP3 JUMP JUMPDEST PUSH32 0x706F6C6C206E6F74206163746976650000000000000000000000000000000000 PUSH0 DUP3 ADD MSTORE POP JUMP JUMPDEST PUSH0 PUSH2 0xFCF PUSH1 0xF DUP4 PUSH2 0xA5B JUMP JUMPDEST SWAP2 POP PUSH2 0xFDA DUP3 PUSH2 0xF9B JUMP JUMPDEST PUSH1 0x20 DUP3 ADD SWAP1 POP SWAP2 SWAP1 POP JUMP JUMPDEST PUSH0 PUSH1 0x20 DUP3 ADD SWAP1 POP DUP2 DUP2 SUB PUSH0 DUP4 ADD MSTORE PUSH2 0xFFC DUP2 PUSH2 0xFC3 JUMP JUMPDEST SWAP1 POP SWAP2 SWAP1 POP JUMP JUMPDEST PUSH32 0x6F6E6C79206F776E657200000000000000000000000000000000000000000000 PUSH0 DUP3 ADD MSTORE POP JUMP JUMPDEST PUSH0 PUSH2 0x1037 PUSH1 0xA DUP4 PUSH2 0xA5B JUMP JUMPDEST SWAP2 POP PUSH2 0x1042 DUP3 PUSH2 0x1003 JUMP JUMPDEST PUSH1 0x20 DUP3 ADD SWAP1 POP SWAP2 SWAP1 POP JUMP JUMPDEST PUSH0 PUSH1 0x20 DUP3 ADD SWAP1 POP DUP2 DUP2 SUB PUSH0 DUP4 ADD MSTORE PUSH2 0x1064 DUP2 PUSH2 0x102B JUMP JUMPDEST SWAP1 POP SWAP2 SWAP1 POP JUMP JUMPDEST PUSH0 PUSH1 0x40 DUP3 ADD SWAP1 POP PUSH2 0x107E PUSH0 DUP4 ADD DUP6 PUSH2 0xBC4 JUMP JUMPDEST PUSH2 0x108B PUSH1 0x20 DUP4 ADD DUP5 PUSH2 0xBC4 JUMP JUMPDEST SWAP4 SWAP3 POP POP POP JUMP JUMPDEST PUSH32 0x4E487B7100000000000000000000000000000000000000000000000000000000 PUSH0 MSTORE PUSH1 0x22 PUSH1 0x4 MSTORE PUSH1 0x24 PUSH0 REVERT JUMPDEST PUSH0 PUSH1 0x2 DUP3 DIV SWAP1 POP PUSH1 0x1 DUP3 AND DUP1 PUSH2 0x10D6 JUMPI PUSH1 0x7F DUP3 AND SWAP2 POP JUMPDEST PUSH1 0x20 DUP3 LT DUP2 SUB PUSH2 0x10E9 JUMPI PUSH2 0x10E8 PUSH2 0x1092 JUMP JUMPDEST JUMPDEST POP SWAP2 SWAP1 POP JUMP JUMPDEST PUSH32 0x74696D6520657870697265640000000000000000000000000000000000000000 PUSH0 DUP3 ADD MSTORE POP JUMP JUMPDEST PUSH0 PUSH2 0x1123 PUSH1 0xC DUP4 PUSH2 0xA5B JUMP JUMPDEST SWAP2 POP PUSH2 0x112E DUP3 PUSH2 0x10EF JUMP JUMPDEST PUSH1 0x20 DUP3 ADD SWAP1 POP SWAP2 SWAP1 POP JUMP JUMPDEST PUSH0 PUSH1 0x20 DUP3 ADD SWAP1 POP DUP2 DUP2 SUB PUSH0 DUP4 ADD MSTORE PUSH2 0x1150 DUP2 PUSH2 0x1117 JUMP JUMPDEST SWAP1 POP SWAP2 SWAP1 POP JUMP JUMPDEST PUSH32 0x6164647265737320616C726561647920766F7465640000000000000000000000 PUSH0 DUP3 ADD MSTORE POP JUMP JUMPDEST PUSH0 PUSH2 0x118B PUSH1 0x15 DUP4 PUSH2 0xA5B JUMP JUMPDEST SWAP2 POP PUSH2 0x1196 DUP3 PUSH2 0x1157 JUMP JUMPDEST PUSH1 0x20 DUP3 ADD SWAP1 POP SWAP2 SWAP1 POP JUMP JUMPDEST PUSH0 PUSH1 0x20 DUP3 ADD SWAP1 POP DUP2 DUP2 SUB PUSH0 DUP4 ADD MSTORE PUSH2 0x11B8 DUP2 PUSH2 0x117F JUMP JUMPDEST SWAP1 POP SWAP2 SWAP1 POP JUMP JUMPDEST PUSH32 0x626164206F7074696F6E00000000000000000000000000000000000000000000 PUSH0 DUP3 ADD MSTORE POP JUMP JUMPDEST PUSH0 PUSH2 0x11F3 PUSH1 0xA DUP4 PUSH2 0xA5B JUMP JUMPDEST SWAP2 POP PUSH2 0x11FE DUP3 PUSH2 0x11BF JUMP JUMPDEST PUSH1 0x20 DUP3 ADD SWAP1 POP SWAP2 SWAP1 POP JUMP JUMPDEST PUSH0 PUSH1 0x20 DUP3 ADD SWAP1 POP DUP2 DUP2 SUB PUSH0 DUP4 ADD MSTORE PUSH2 0x1220 DUP2 PUSH2 0x11E7 JUMP JUMPDEST SWAP1 POP SWAP2 SWAP1 POP JUMP JUMPDEST PUSH32 0x4E487B7100000000000000000000000000000000000000000000000000000000 PUSH0 MSTORE PUSH1 0x11 PUSH1 0x4 MSTORE PUSH1 0x24 PUSH0 REVERT JUMPDEST PUSH0 PUSH2 0x125E DUP3 PUSH2 0x9F3 JUMP JUMPDEST SWAP2 POP PUSH32 0xFFFFFFFFFFFFFFFFFFFFFFFFFFFFFFFFFFFFFFFFFFFFFFFFFFFFFFFFFFFFFFFF DUP3 SUB PUSH2 0x1290 JUMPI PUSH2 0x128F PUSH2 0x1227 JUMP JUMPDEST JUMPDEST PUSH1 0x1 DUP3 ADD SWAP1 POP SWAP2 SWAP1 POP JUMP JUMPDEST PUSH0 PUSH1 0x60 DUP3 ADD SWAP1 POP PUSH2 0x12AE PUSH0 DUP4 ADD DUP7 PUSH2 0xBC4 JUMP JUMPDEST PUSH2 0x12BB PUSH1 0x20 DUP4 ADD DUP6 PUSH2 0xBC4 JUMP JUMPDEST PUSH2 0x12C8 PUSH1 0x40 DUP4 ADD DUP5 PUSH2 0xC6E JUMP JUMPDEST SWAP5 SWAP4 POP POP POP POP JUMP JUMPDEST PUSH32 0x6E656564206D6F7265207468616E2032206F7074696F6E730000000000000000 PUSH0 DUP3 ADD MSTORE POP JUMP JUMPDEST PUSH0 PUSH2 0x1304 PUSH1 0x18 DUP4 PUSH2 0xA5B JUMP JUMPDEST SWAP2 POP PUSH2 0x130F DUP3 PUSH2 0x12D0 JUMP JUMPDEST PUSH1 0x20 DUP3 ADD SWAP1 POP SWAP2 SWAP1 POP JUMP JUMPDEST PUSH0 PUSH1 0x20 DUP3 ADD SWAP1 POP DUP2 DUP2 SUB PUSH0 DUP4 ADD MSTORE PUSH2 0x1331 DUP2 PUSH2 0x12F8 JUMP JUMPDEST SWAP1 POP SWAP2 SWAP1 POP JUMP JUMPDEST PUSH0 DUP2 SWAP1 POP DUP2 PUSH0 MSTORE PUSH1 0x20 PUSH0 KECCAK256 SWAP1 POP SWAP2 SWAP1 POP JUMP JUMPDEST PUSH0 PUSH1 0x20 PUSH1 0x1F DUP4 ADD DIV SWAP1 POP SWAP2 SWAP1 POP JUMP JUMPDEST PUSH0 DUP3 DUP3 SHL SWAP1 POP SWAP3 SWAP2 POP POP JUMP JUMPDEST PUSH0 PUSH1 0x8 DUP4 MUL PUSH2 0x1394 PUSH32 0xFFFFFFFFFFFFFFFFFFFFFFFFFFFFFFFFFFFFFFFFFFFFFFFFFFFFFFFFFFFFFFFF DUP3 PUSH2 0x1359 JUMP JUMPDEST PUSH2 0x139E DUP7 DUP4 PUSH2 0x1359 JUMP JUMPDEST SWAP6 POP DUP1 NOT DUP5 AND SWAP4 POP DUP1 DUP7 AND DUP5 OR SWAP3 POP POP POP SWAP4 SWAP3 POP POP POP JUMP JUMPDEST PUSH0 DUP2 SWAP1 POP SWAP2 SWAP1 POP JUMP JUMPDEST PUSH0 PUSH2 0x13D9 PUSH2 0x13D4 PUSH2 0x13CF DUP5 PUSH2 0x9F3 JUMP JUMPDEST PUSH2 0x13B6 JUMP JUMPDEST PUSH2 0x9F3 JUMP JUMPDEST SWAP1 POP SWAP2 SWAP1 POP JUMP JUMPDEST PUSH0 DUP2 SWAP1 POP SWAP2 SWAP1 POP JUMP JUMPDEST PUSH2 0x13F2 DUP4 PUSH2 0x13BF JUMP JUMPDEST PUSH2 0x1406 PUSH2 0x13FE DUP3 PUSH2 0x13E0 JUMP JUMPDEST DUP5 DUP5 SLOAD PUSH2 0x1365 JUMP JUMPDEST DUP3 SSTORE POP POP POP POP JUMP JUMPDEST PUSH0 SWAP1 JUMP JUMPDEST PUSH2 0x141A PUSH2 0x140E JUMP JUMPDEST PUSH2 0x1425 DUP2 DUP5 DUP5 PUSH2 0x13E9 JUMP JUMPDEST POP POP POP JUMP JUMPDEST JUMPDEST DUP2 DUP2 LT ISZERO PUSH2 0x1448 JUMPI PUSH2 0x143D PUSH0 DUP3 PUSH2 0x1412 JUMP JUMPDEST PUSH1 0x1 DUP2 ADD SWAP1 POP PUSH2 0x142B JUMP JUMPDEST POP POP JUMP JUMPDEST PUSH1 0x1F DUP3 GT ISZERO PUSH2 0x148D JUMPI PUSH2 0x145E DUP2 PUSH2 0x1338 JUMP JUMPDEST PUSH2 0x1467 DUP5 PUSH2 0x134A JUMP JUMPDEST DUP2 ADD PUSH1 0x20 DUP6 LT ISZERO PUSH2 0x1476 JUMPI DUP2 SWAP1 POP JUMPDEST PUSH2 0x148A PUSH2 0x1482 DUP6 PUSH2 0x134A JUMP JUMPDEST DUP4 ADD DUP3 PUSH2 0x142A JUMP JUMPDEST POP POP JUMPDEST POP POP POP JUMP JUMPDEST PUSH0 DUP3 DUP3 SHR SWAP1 POP SWAP3 SWAP2 POP POP JUMP JUMPDEST PUSH0 PUSH2 0x14AD PUSH0 NOT DUP5 PUSH1 0x8 MUL PUSH2 0x1492 JUMP JUMPDEST NOT DUP1 DUP4 AND SWAP2 POP POP SWAP3 SWAP2 POP POP JUMP JUMPDEST PUSH0 PUSH2 0x14C5 DUP4 DUP4 PUSH2 0x149E JUMP JUMPDEST SWAP2 POP DUP3 PUSH1 0x2 MUL DUP3 OR SWAP1 POP SWAP3 SWAP2 POP POP JUMP JUMPDEST PUSH2 0x14DE DUP3 PUSH2 0xA51 JUMP JUMPDEST PUSH8 0xFFFFFFFFFFFFFFFF DUP2 GT ISZERO PUSH2 0x14F7 JUMPI PUSH2 0x14F6 PUSH2 0xD0D JUMP JUMPDEST JUMPDEST PUSH2 0x1501 DUP3 SLOAD PUSH2 0x10BF JUMP JUMPDEST PUSH2 0x150C DUP3 DUP3 DUP6 PUSH2 0x144C JUMP JUMPDEST PUSH0 PUSH1 0x20 SWAP1 POP PUSH1 0x1F DUP4 GT PUSH1 0x1 DUP2 EQ PUSH2 0x153D JUMPI PUSH0 DUP5 ISZERO PUSH2 0x152B JUMPI DUP3 DUP8 ADD MLOAD SWAP1 POP JUMPDEST PUSH2 0x1535 DUP6 DUP3 PUSH2 0x14BA JUMP JUMPDEST DUP7 SSTORE POP PUSH2 0x159C JUMP JUMPDEST PUSH1 0x1F NOT DUP5 AND PUSH2 0x154B DUP7 PUSH2 0x1338 JUMP JUMPDEST PUSH0 JUMPDEST DUP3 DUP2 LT ISZERO PUSH2 0x1572 JUMPI DUP5 DUP10 ADD MLOAD DUP3 SSTORE PUSH1 0x1 DUP3 ADD SWAP2 POP PUSH1 0x20 DUP6 ADD SWAP5 POP PUSH1 0x20 DUP2 ADD SWAP1 POP PUSH2 0x154D JUMP JUMPDEST DUP7 DUP4 LT ISZERO PUSH2 0x158F JUMPI DUP5 DUP10 ADD MLOAD PUSH2 0x158B PUSH1 0x1F DUP10 AND DUP3 PUSH2 0x149E JUMP JUMPDEST DUP4 SSTORE POP JUMPDEST PUSH1 0x1 PUSH1 0x2 DUP9 MUL ADD DUP9 SSTORE POP POP POP JUMPDEST POP POP POP POP POP POP JUMP JUMPDEST PUSH0 PUSH2 0x15AE DUP3 PUSH2 0x9F3 JUMP JUMPDEST SWAP2 POP PUSH2 0x15B9 DUP4 PUSH2 0x9F3 JUMP JUMPDEST SWAP3 POP DUP3 DUP3 ADD SWAP1 POP DUP1 DUP3 GT ISZERO PUSH2 0x15D1 JUMPI PUSH2 0x15D0 PUSH2 0x1227 JUMP JUMPDEST JUMPDEST SWAP3 SWAP2 POP POP JUMP JUMPDEST PUSH0 PUSH1 0x60 DUP3 ADD SWAP1 POP PUSH2 0x15EA PUSH0 DUP4 ADD DUP7 PUSH2 0xBC4 JUMP JUMPDEST DUP2 DUP2 SUB PUSH1 0x20 DUP4 ADD MSTORE PUSH2 0x15FC DUP2 DUP6 PUSH2 0xA89 JUMP JUMPDEST SWAP1 POP PUSH2 0x160B PUSH1 0x40 DUP4 ADD DUP5 PUSH2 0xC6E JUMP JUMPDEST SWAP5 SWAP4 POP POP POP POP JUMP INVALID LOG2 PUSH5 0x6970667358 0x22 SLT KECCAK256 0xD8 0xD3 MOD 0xFC 0xB3 0xC REVERT 0xCF DUP8 SWAP4 BYTE SWAP3 MOD SGT BLOBHASH EXP PUSH30 0xDACC4D61DC23641772D439B83276BC64736F6C634300081A003300000000 "
		},
		"gasEstimates": {
			"creation": {
				"codeDepositCost": "1141000",
				"executionCost": "1185",
				"totalCost": "1142185"
			},
			"external": {
				"createPoll(string,string[],uint256)": "infinite",
				"endVote(uint256)": "infinite",
				"getPollDetails(uint256)": "infinite",
				"polls(uint256)": "infinite",
				"vote(uint256,uint256)": "infinite"
			},
			"internal": {
				"_getWinningOption(uint256)": "infinite"
			}
		},
		"methodIdentifiers": {
			"createPoll(string,string[],uint256)": "f8c860f4",
			"endVote(uint256)": "865df0ad",
			"getPollDetails(uint256)": "9a0040e4",
			"polls(uint256)": "ac2f0074",
			"vote(uint256,uint256)": "b384abef"
		}
	},
	"abi": [
		{
			"anonymous": false,
			"inputs": [
				{
					"indexed": false,
					"internalType": "uint256",
					"name": "pollId",
					"type": "uint256"
				},
				{
					"indexed": false,
					"internalType": "string",
					"name": "description",
					"type": "string"
				},
				{
					"indexed": false,
					"internalType": "address",
					"name": "creator",
					"type": "address"
				}
			],
			"name": "PollCreated",
			"type": "event"
		},
		{
			"anonymous": false,
			"inputs": [
				{
					"indexed": false,
					"internalType": "uint256",
					"name": "pollId",
					"type": "uint256"
				},
				{
					"indexed": false,
					"internalType": "uint256",
					"name": "winningOption",
					"type": "uint256"
				}
			],
			"name": "PollEnded",
			"type": "event"
		},
		{
			"anonymous": false,
			"inputs": [
				{
					"indexed": false,
					"internalType": "uint256",
					"name": "pollId",
					"type": "uint256"
				},
				{
					"indexed": false,
					"internalType": "uint256",
					"name": "option",
					"type": "uint256"
				},
				{
					"indexed": false,
					"internalType": "address",
					"name": "voter",
					"type": "address"
				}
			],
			"name": "Voted",
			"type": "event"
		},
		{
			"inputs": [
				{
					"internalType": "string",
					"name": "_description",
					"type": "string"
				},
				{
					"internalType": "string[]",
					"name": "_options",
					"type": "string[]"
				},
				{
					"internalType": "uint256",
					"name": "duration",
					"type": "uint256"
				}
			],
			"name": "createPoll",
			"outputs": [],
			"stateMutability": "nonpayable",
			"type": "function"
		},
		{
			"inputs": [
				{
					"internalType": "uint256",
					"name": "_pollId",
					"type": "uint256"
				}
			],
			"name": "endVote",
			"outputs": [],
			"stateMutability": "nonpayable",
			"type": "function"
		},
		{
			"inputs": [
				{
					"internalType": "uint256",
					"name": "_pollId",
					"type": "uint256"
				}
			],
			"name": "getPollDetails",
			"outputs": [
				{
					"internalType": "string",
					"name": "",
					"type": "string"
				},
				{
					"internalType": "string[]",
					"name": "",
					"type": "string[]"
				},
				{
					"internalType": "uint256",
					"name": "",
					"type": "uint256"
				},
				{
					"internalType": "bool",
					"name": "",
					"type": "bool"
				}
			],
			"stateMutability": "view",
			"type": "function"
		},
		{
			"inputs": [
				{
					"internalType": "uint256",
					"name": "",
					"type": "uint256"
				}
			],
			"name": "polls",
			"outputs": [
				{
					"internalType": "address",
					"name": "owner",
					"type": "address"
				},
				{
					"internalType": "string",
					"name": "description",
					"type": "string"
				},
				{
					"internalType": "uint256",
					"name": "endTime",
					"type": "uint256"
				},
				{
					"internalType": "bool",
					"name": "isActive",
					"type": "bool"
				}
			],
			"stateMutability": "view",
			"type": "function"
		},
		{
			"inputs": [
				{
					"internalType": "uint256",
					"name": "_pollId",
					"type": "uint256"
				},
				{
					"internalType": "uint256",
					"name": "_option",
					"type": "uint256"
				}
			],
			"name": "vote",
			"outputs": [],
			"stateMutability": "nonpayable",
			"type": "function"
		}
	]
}